:020000040001F9
:10900000203A0020C1930100EB930100ED93010091
:10901000EF930100F1930100F393010000000000C1
:10902000000000000000000000000000F5930100B7
:10903000F793010000000000F9930100FB93010089
:1090400061960100FD930100D19D0100FD93010097
:10905000FD93010000000000BD950100C9960100CC
:10906000FD930100FD930100FD930100FD930100BC
:10907000FD930100FD930100FD930100FD930100AC
:10908000FD930100B9960100FD930100FD930100DD
:10909000FD930100FD930100599A0100FD93010029
:1090A000FD930100FD93010000000000000000009E
:1090B000FD930100FD93010000000000000000008E
:1090C00000000000000000000000000000000000A0
:1090D0000000000000000000000000000000000090
:1090E0000000000000000000000000000000000080
:1090F0000000000000000000000000000000000070
:10910000000000000000000000000000000000005F
:10911000000000000000000000000000000000004F
:10912000000000000000000000000000000000003F
:10913000000000000000000000000000000000002F
:10914000000000000000000000000000000000001F
:10915000000000000000000000000000000000000F
:1091600000000000000000000000000000000000FF
:1091700000000000000000000000000000000000EF
:1091800000000000000000000000000000000000DF
:1091900000000000000000000000000000000000CF
:1091A00000000000000000000000000000000000BF
:1091B00000000000000000000000000000000000AF
:1091C000000000000000000000000000000000009F
:1091D000000000000000000000000000000000008F
:1091E000000000000000000000000000000000007F
:1091F000000000000000000000000000000000006F
:10920000DFF80CD000F09CF900480047A9EF0100FE
:10921000203A002030B450E8012F93B2C48923448F
:109220008489A34228BF1B1B0489A34202BFBFF34A
:109230002F8F002007E0C3EA020340E80134002C2E
:10924000E9D14FF001000A6030BC704750E8012FAF
:10925000C2EA024240E801210029F7D1704730B448
:1092600050E8022F1FFAA2F3C488A34202BFBFF343
:109270002F8F00200DE0C48923448489A34228BF96
:109280001B1BC2EA034340E80234002CE8D14FF034
:1092900001000A6030BC704750E8022FC2EA224247
:1092A00040E802210029F7D17047034653E8022F16
:1092B000D988B2EB324F4FF0000017BF92B241EAAB
:1092C000014142EA014104E05A68B2EB324F08BF63
:1092D000012043E80212002AE8D1704730B4044666
:1092E00054E8000F0D4644E80053002BF8D11560F8
:1092F00030BC704730B4044654E8000F40EA010522
:1093000044E80053002BF7D1156030BC704730B4EF
:10931000044654E8000F00EA010544E80053002B1E
:10932000F7D1156030BC704730B4044654E8000FE4
:1093300080EA010544E80053002BF7D1156030BCEA
:10934000704730B4044654E8000F00EB010544E8D0
:109350000053002BF7D1156030BC704730B4044681
:1093600054E8000FA0EB010544E80053002BF7D1AF
:10937000156030BC704770B404464FF0000054E8EC
:10938000006F0D68AE4207BF44E80023012044E8A7
:1093900000630E60002B1CBF0020F0E770BC70471C
:1093A00030B4044654E8000F88422CBF451A0546E5
:1093B00044E80053002BF5D1156030BC7047000025
:1093C0000F4800680F4909680A280AD1002908D106
:1093D0000D4802686FF070031A404FF040031A43C3
:1093E00002600A4880470A480047FEE7FEE7FEE7BA
:1093F000FEE7FEE7FEE7FEE7FEE7FEE7FEE700002A
:109400003001001034010010E40E0040799A010090
:10941000019201002DE9F05F0546002092469B462F
:1094200088460646814640241BE02846414647467A
:10943000224600F074F853465A46C01A914110D3A0
:1094400011461846224600F016F82D1A67EB01085F
:109450004F4622460120002100F00DF817EB0009CD
:109460004E41201EA4F10104DFDC484631462A4665
:109470004346BDE8F09F202A04DB203A00FA02F1BF
:10948000002070479140C2F1200320FA03F31943F2
:109490009040704700487047686A020040EA010344
:1094A0009B0703D009E008C9121F08C0042AFAD29A
:1094B00003E011F8013B00F8013B521EF9D270475E
:1094C000D2B201E000F8012B491EFBD27047002206
:1094D000F6E710B513460A4604461946FFF7F0FFB3
:1094E000204610BD421C10F8011B0029FBD1801A38
:1094F000704730B504460020034600E05B1C9342F1
:1095000003D2E05CCD5C401BF8D030BD034611F8BF
:10951000012B00F8012B002AF9D118467047202AA8
:1095200004DB203A21FA02F00021704721FA02F30D
:10953000D040C2F120029140084319467047000014
:10954000064C074D06E0E06840F0010394E8070090
:1095500098471034AC42F6D3FFF756FE388002002D
:109560005880020070B58C1810F8015B15F00703E5
:1095700001D110F8013B2A1106D110F8012B03E0AC
:1095800010F8016B01F8016B5B1EF9D12B0705D4B4
:109590000023521E0DD401F8013BFAE710F8013BFD
:1095A000CB1A921C03E013F8015B01F8015B521E19
:1095B000F9D5A142D8D3002070BD00002DE9F843B1
:1095C0000025DFF894804FF4807601242F46009523
:1095D000304606F049FE38B1D8F80403204203D0E3
:1095E000304606F037FE2543361D64007F1CB6B2B8
:1095F000082FEDD34FF4BE74204606F035FE48B177
:10960000204606F027FE45F000456A46012100206D
:1096100006F0E8FD15F0FF0F16D0012600242E42BB
:109620000ED008EB8401D1F81005D1F81015C0F365
:1096300004200A4AC1F3014152F8242002B19047A4
:109640007600641C082CEAD3002D02DA68460AF082
:10965000ADFABDE8F88300000060004074260020E9
:1096600070B54FF48076304606F04AF9114CB505D6
:1096700060B1304606F04BF90120C5F80803607967
:1096800020B9012060712168002088474FF482765C
:10969000304606F035F900280AD0304606F037F992
:1096A0000220C5F808032168BDE870400120084782
:1096B00070BD0000301E002002490248091F0968E1
:1096C00000680847901E00202DE9FE434FF4827881
:1096D000404607F0ABF94C4F00254C4C012600B337
:1096E000404607F0ABF994F82E0010B194F82F1013
:1096F000D1B18DF80050616801912189ADF8081051
:10970000E26832B1218B618362602181E56010B132
:1097100002E0257400E03E6021686846884784F8CE
:109720002F5094F82E0060B34FF48077384607F03E
:109730007DF930B3384607F081F9628B94F82D102B
:109740008A420AD9A2EB010080B260832289A2EB8F
:109750000000626802EB400005E007D1E06828B134
:1097600084F82F60658307F04FF904E08A4202D144
:1097700084F82F606583404607F060F92248001D99
:1097800006604FF48877384607F050F948B13846FC
:1097900007F054F9257402208DF80000216868460E
:1097A00088474FF48A77384607F040F928B13846A1
:1097B00007F044F92574BDE8FE834FF000484FF4EC
:1097C0008C7967691DE000BFB7FA87F028FA00F1CD
:1097D00009EB80058F43284607F028F988B1284611
:1097E00007F02CF9A5F58C75E8088DF8040045F311
:1097F0008000401C8DF800608DF8050021686846E7
:109800008847002FE0D1D6E70070004020270020D5
:1098100000F0E4BAF8B50D4B0646144618780D462C
:1098200008B900F0DBFA00208DF80000684600F06F
:109830006BFF22462946304600F00AF804469DF8A0
:10984000000000F085FF2046F8BD0000982F0020A2
:1098500070B50E46144900EB400001EBC0051446FC
:10986000E86A183520B101280FD0022805D113E08D
:10987000284600F0E7FAA04201D2002411E0224677
:109880003146284600F004FC0BE0284600F0DAFAE6
:10989000A042F4D20446F2E73146284600F0CBFB62
:1098A0000446204670BD0000982F00200FB408B574
:1098B00004A900916A46039900F003F801B05DF82D
:1098C00014FB2DE9F04198B0064607A8029040200D
:1098D0000025CDE90305CDE9055690460C4614F860
:1098E000011B002973D0252908D002A800F084FBB1
:1098F00005980028F3DA18B0BDE8F08100200121B6
:109900002278232A1ED02B2A19D02D2A02D0302AC1
:1099100008D102E040F0010001E040F00200641CC8
:109920000029EDD100222178A1F130030A2B0CD2BD
:1099300002EB820201EB4202303A641CF3E740F092
:109940000400ECE740F00800E9E70023CFB22E2F37
:109950000BD114F8011FA1F130070A2F05D203EB38
:10996000830301EB4303303BF3E76C290DD06829F7
:109970000BD0702954D00BDC252916D0582931D0B2
:1099800063290CD0642913D114E014F8011FECE70B
:10999000732934D075291BD0782909D122E0D8F851
:1099A0000000011DC8F80010017802A800F024FB97
:1099B000641C9DE7D8F800100F1DC8F800700968F6
:1099C000CDE900200A2202A800F048FAF0E733E0CF
:1099D000D8F800100F1DC8F800700968CDE9002004
:1099E0000A2208E0D8F800100F1DC8F800700968B6
:1099F000CDE90020102202A800F094FAD8E7D8F8A8
:109A00000000011DC8F80010076817F8011B0029A5
:109A1000CED002A800F0F0FA05980028F5DAC7E7E2
:109A2000D8F80000011DC8F8001001680820CDE931
:109A3000000503461022DEE7059800287FF75BAF9C
:109A4000049820B1024607A93046FFF7E3FEDDE99E
:109A50000410084405904EE710B50021054A084659
:109A600000F06EFD002803D0BDE8104000F05CBDA2
:109A700010BD000099A801002DE9F041C34AC44976
:109A80004FF080551468D5F830010978D5F83421A5
:109A9000431CC1F3031106D0844601260023BCF108
:109AA000060F03D00AE004F0FF0CF6E7B5F82473C4
:109AB000DFF8E0C2C7F30427CCF80070E7B2062F46
:109AC00006D1032904D1DFF8D4C2B34FCCF87470A7
:109AD000471C08D04FEA000CBCF1060F06D0BCF1C1
:109AE0000A0F03D00AE004F0FF0CF5E7D5F8447242
:109AF000DFF8ACC2C7F34237CCF80070E7B2062FEC
:109B000008D1032906D1A74FD7F800C02CF0807CDC
:109B1000C7F800C0471C08D04FEA000CBCF1060F84
:109B200006D0BCF10A0F03D00BE004F0FF0CF5E700
:109B30004FF08047C7F80C31C7F81031984F3F1FDE
:109B40003B60E7B2062F08D1032906D1DFF850C2E7
:109B500003270CF1640CCCF80070E7B2062F11D18A
:109B600003290FD1DFF840C20527CCF800708E4FD3
:109B700078373E608C4F08373B600CF1040C3F2770
:109B8000CCF80070471C08D084461746BCF1060F7D
:109B900007D0BCF10A0F08D081E004F0FF0C0F469B
:109BA000F4E7032F7BD0042F79D0804F3F68DFF894
:109BB00000C2CCF800707D4F3F1D3F680CF1040CD3
:109BC000CCF80070794F08373F680CF1040CCCF8E2
:109BD0000070764F0C373F680CF1040CCCF8007025
:109BE000724F10373F680CF1040CCCF800706F4FC7
:109BF00014373F680CF1040CCCF800706B4F183729
:109C00003F68DFF8ACC10CF1200CCCF80070674F56
:109C10001C373F680CF1040CCCF80070634F203700
:109C20003F680CF1040CCCF80070604F24373F689B
:109C30000CF1040CCCF800705C4F28373F680CF135
:109C4000040CCCF80070594F2C373F680CF1040C11
:109C5000CCF80070554F30373F68DFF854C10CF135
:109C6000400CCCF80070514F34373F680CF1040CB5
:109C7000CCF800704D4F38373F680CF1040CCCF82D
:109C800000704A4F3C373F680CF1040CCCF8007070
:109C9000464F40373F680CF1040CCCF80070471C6D
:109CA00005D08646434FBEF1060F03D007E004F00F
:109CB000FF0EF7E7D5F8585205F04F053D60451CFB
:109CC00005D00446062C04D00A2C02D008E0E4B2E9
:109CD000F8E739490C68E40702D06FF001040C6022
:109CE00006280BD11146032A08D0042906D00529DD
:109CF00004D032490C6844F480640C600A2804D112
:109D00001AB1386840F00F0038604FF01021D1F8D8
:109D100000422B4A2B48002C03DBD1F80442002CD4
:109D200013DA16600468002CFCD01524C1F8004238
:109D30000568002DFCD0C1F8044201680029FCD060
:109D4000136001680029FCD019E091F80042E40793
:109D500003D191F80442E40713D016600468002C84
:109D6000FCD0C1F800320468002CFCD0C1F80432E9
:109D700001680029FCD0136001680029FCD000F0C4
:109D8000A9F9124910480860BDE8F081E00F00F021
:109D9000E80F00F0403501400DF0ADBA00C00740BB
:109DA0003C050040FCED00E01056004004040010AB
:109DB00020C50040E40E0040000400403C17004075
:109DC00004E5014000E401400090D0035C1F002046
:109DD0000148006800470000381E002010B5124CF2
:109DE00002202061606111A0A06104F17800E061AF
:109DF0004FF4007020620020A06260620BA1A16499
:109E0000E06204F51E71E1641021A065C4E914103C
:109E1000E06509A1E01DFFF779FB08A12046FFF7E7
:109E200075FB2020A07110BD982F00205465726D25
:109E3000696E616C0000000052545400534547475E
:109E4000455200000269C1688A4203D88068401AFE
:109E5000104400E0501A401E704700002DE9FC5FDE
:109E60000E008146DDE90C47C6F100009846934696
:109E7000824600D40846012503E000BF90FBFBF0BA
:109E80006D1C5845FADAA84500D9454624B1002E84
:109E900001DB780700D5641EB80702D5B8F1000FC2
:109EA0000FD0F8070DD164B1A5420AD2202148464F
:109EB000641E00F0A1F8D9F80C000028F3DABDE820
:109EC000FC9FD9F80C000028F9DB002E02DA564678
:109ED0002D2102E0780707D52B21484600F08CF8A9
:109EE000D9F80C000028EADB07F0030002280FD1A4
:109EF000B8F1000F0CD15CB1A54209D2302148461F
:109F0000641E00F079F8D9F80C000028F3DAD6E7DF
:109F1000CDE9004743465A463146484600F002F82C
:109F2000CDE700002DE9F84F8246DDE90A4B012616
:109F3000984691460D460846374602E0B0FBF9F0D8
:109F40007F1C4845FAD2B84500D947465FEACB7036
:109F500017D1B4B15FEA8B7002D5B8F1000F02D00F
:109F6000202000900BE03020FBE75046641E009953
:109F700000F042F8DAF80C00002838DB0CB1A742F8
:109F8000F3D3DAF80C00002831DB00BFB8F1010F81
:109F900002D9A8F1010803E0B5FBF6F0484502D369
:109FA00006FB09F6F2E7DFF84C8000BFB5FBF6F0E0
:109FB00000FB165518F80010504600F01DF8DAF8AE
:109FC0000C00002803DBB6FBF9F6002EEED15FEAA9
:109FD000CB700CD0002C0AD0A74208D220215046CA
:109FE000641E00F009F8DAF80C000028F2DABDE887
:109FF000F88F00003069020010B50446D4E9013042
:10A00000421C934205D323681954A260E068401CA7
:10A01000E060D4E90102824209D121682069FFF79A
:10A02000F9FBA168884203D04FF0FF30E06010BD1B
:10A030000020A06010BD2DE9F047C468174689468E
:10A0400006464FF000083069A04201D9051B02E026
:10A05000B168201A0D1AB0686D1E001BA84200D806
:10A060000546BD4200D33D4670682A462044494615
:10A07000FFF714FAB0687F1B2C44A844A944A042FF
:10A0800000D10024F460002FDDD14046BDE8F08708
:10A090002DE9F04104468846D4E90207C51BE16872
:10A0A000606816460844B54206D94146FFF7F6F9FE
:10A0B000B819E060BDE8F0812A464146FFF7EEF9A5
:10A0C000761B08EB050132466068FFF7E7F9E660AA
:10A0D000F0E70000BFF34F8F05480168054A01F41F
:10A0E000E06111430160BFF34F8F00BFFDE7000047
:10A0F0000CED00E00400FA0502E008C8121F08C1D8
:10A10000002AFAD170477047002001E001C1121FF8
:10A11000002AFBD1704700000121202803DA81408A
:10A120000548014003E0402802DA2038814009B1A7
:10A130000120704700207047FC06FFBD2DE9F84361
:10A14000804643F2020659B9694608F037FEB0422C
:10A1500002D008B100F0E8F99DF80000800744D46F
:10A160000021404608F034FE05003ED0112D3CD0C1
:10A170001F482049401AC708022000EB07440D2D54
:10A180000AD00B2D1DD0B5421FD11B492046424697
:10A19000BDE8F84306F08ABA20464246174906F061
:10A1A00085FA1321404676DF00281ED006F0B2FE65
:10A1B000024601B020464346BDE8F04310A106F038
:10A1C0007CBA204642461C49E2E7284606F0A2FE39
:10A1D0000246012000EB0740434618A106F06DFA45
:10A1E0002846BDE8F84300F09FB9BDE8F8830000B9
:10A1F000B080020078800200F07102007C710200E1
:10A2000073645F626C655F6761705F646973636FDD
:10A210006E6E65637428292072657475726E65644C
:10A22000202573206F6E20636F6E6E5F68616E64B1
:10A230006C652025642E00003C720200417373653A
:10A240007274696E672E20706D5F636F6E6E5F73E0
:10A25000656375726528292072657475726E656410
:10A26000202573206F6E20636F6E6E5F68616E6471
:10A270006C652025642E000010B560B159B10278DC
:10A280000B785208B2EB530F05D10622401C491C33
:10A29000FFF72FF908B1002010BD012010BD800785
:10A2A00001D00020704701207047C3688B4206D858
:10A2B00011440069491E814201D8012070470020E5
:10A2C000704790F824001F20704710B5012202212A
:10A2D000002001F07BFF08B1072810D107220221DE
:10A2E000012001F073FF08B1072808D100210A22DC
:10A2F000084601F06BFF08B1072800D1002010BD0F
:10A3000010B5ACB0AC216846FFF7E1F802218DF83A
:10A310000010012405208DF802408DF803001A4832
:10A320000590ADF8104000F5EC7009903C226946AC
:10A330001648FFF7B3F800208DF879408DF87A4081
:10A340008DF87B00209021902820229040F6B83094
:10A350008DF87C4023908DF87D40A020249044F21D
:10A36000506025900A4829900A482A9069460A4870
:10A3700000F037FD08B100F0D7F80121064800F0E1
:10A380002BFD2CB010BD0000581A0020E021002049
:10A3900029190200DFAD0100D820002070B58CB073
:10A3A00015460E4600236C46C3F10F01415CE15493
:10A3B0005B1C102BF8D30D2104F11000FFF787F878
:10A3C0000020C0F10F02315C2244401C11740328AC
:10A3D000F7D3684646DF0020C0F10F01214491F811
:10A3E00020102954401C0328F6D30CB070BD022065
:10A3F00001F0C4BD0149C97801F03EB8BC1D002080
:10A4000070B50024064D06E06868012110F834009C
:10A4100006F0FCFD641C28788442F5D3002070BD52
:10A42000401E0020F8B516460C4605460A2A01D201
:10A430000720F8BD06F0E4FE18B906F0A7FE0028D4
:10A44000F7D1134F102113487D603C70BE60FFF7B9
:10A450003EF80020C7E904000F4E0DE005EBC400F4
:10A460003168009181788DF8011000780B4A6946B7
:10A4700006F01CFE0028DCD1641EE4B2EED2BDE87A
:10A48000F84005480021064A001D00F0E5B800002C
:10A49000401E0020702700209866020061DF010046
:10A4A0003DCC010072B606F0A7F900BF05F0DEFF53
:10A4B0000028FBD111481249401AC408012000EBC2
:10A4C000044010A106F0EEF811480068C00700D063
:10A4D00000BE022000EB04400EA106F0E3F8BFF33B
:10A4E0004F8F0B48E43801680E4A01F4E0611143D4
:10A4F0000160BFF34F8F00BFFDE700003081020015
:10A5000078800200466174616C206572726F72001F
:10A51000F0ED00E053797374656D207265736574B6
:10A52000000000000400FA050EB500210091CDE9FD
:10A5300001106A4644F20100FFF7B4FF0EBD0000AF
:10A540002DE9F84F254C8146924660880E4681429F
:10A5500041D800274FF6FF788DF80070684600F06C
:10A56000D3F822786078A188884201DA401C00E0A4
:10A570000020C0B2904204D19DF8000000F0E8F83D
:10A5800027E065786078884201DA401C00E000200E
:10A5900060709DF8000000F0DBF8454519D0A06818
:10A5A000B9F1000F40F835A00DD066B16188E068C0
:10A5B000324605FB01004946FEF770FFA06800EB3C
:10A5C000C500868002E000EBC50087800020BDE862
:10A5D000F88F0420FBE70920F9E70000581E00204F
:10A5E00010B50E4C03E0401C00E0002020702078E5
:10A5F0006178814210D022786188E068A36802FB0C
:10A60000010003EBC20153F832208988904720787B
:10A61000A1888842E9DAE6E710BD0000581E002054
:10A6200030B5CB0008339DB293074FF0000401D042
:10A63000072030BD044B9A602A44DA605C701C70BD
:10A6400058809980002030BD581E0020014802F03B
:10A650003CBC0000701E00203AB100680129426134
:10A6600000D00021016100207047072070470000E2
:10A6700038B5114808235822416800910F490068F5
:10A6800004F017FF002815D10D4A69460D4802F065
:10A6900021FC04000ED101210A4802F096FC01239E
:10A6A000094A1946074802F0E8FB06490120083923
:10A6B0000870204638BD0000A066020090270020E8
:10A6C000DD440200701E0020FFFF7F0070B50446CD
:10A6D000007F0D4608B1002070BDA26103F026FC8A
:10A6E000401941F10001C4E90201206900B125616E
:10A6F0002146BDE8704000200BF0E4B80146002080
:10A70000087701200BF0DEB830B5EFF3108172B698
:10A710000D4A9468012324B10370002900D162B668
:10A7200030BD93604FF0E023D3F88051074C2540B3
:10A730001560C3F88041D3F8844154605A17C3F8B8
:10A74000842100220270E8E7E8270020FC06FFBD14
:10A750000B498A68002A11D000280FD1EFF310802E
:10A7600072B60B684FF0E022C2F800314B68C2F8B5
:10A77000043100228A60002800D162B670470000D0
:10A78000E82700202DE9F041064608680C46411CE8
:10A790004FF0A0474FF0010506D005FA00F1C7F8C9
:10A7A0000815206805F0F8FC6068411C02D0002103
:10A7B00005F0E0FC3168A069C1F82405607D227DC8
:10A7C00031681043C1F86C05D4E900123068C0F854
:10A7D0001425C0F80C15207D012815D1A068411C56
:10A7E00002D0002105F0C6FCE068411C05D0854080
:10A7F000C7F80855E06805F0CFFCD4E902123068CC
:10A80000C0F80825C0F81015BDE8F0812DE9F04129
:10A81000064608680C46411C4FF0A0474FF0010562
:10A8200006D005FA00F1C7F80815206805F0BEFC4F
:10A830006068411C02D0002105F0A5FC3168A069C8
:10A84000C1F82405607D217D32680843C2F86C059B
:10A85000D4E900123068C0F80C15C0F81425207D2A
:10A86000012815D1A068411C02D0002105F08BFC05
:10A87000E068411C05D08540C7F80855E06805F040
:10A8800095FCD4E902123068C0F80825C0F810150C
:10A89000BDE8F08104F054BA06F08ABA2DE9F04719
:10A8A000814605884A484FF000088AB00178424640
:10A8B000284600F0F9FD99F80500400701D4002171
:10A8C00076E005F58077B8B205AB0122072107F0E5
:10A8D00065FE04003F48404A4FF00101A0EB020032
:10A8E0004FEAD00001EB00460AD0204606F012FBEA
:10A8F000024630462B46394905F0DFFE214629E065
:10A90000284603F001FF4FF6FF71044688422BD121
:10A910008A46069803F062FE0446504510D0014670
:10A92000284603F0D1FE2846FFF764FDE0B928462B
:10A930000AF036F92846FFF75DFD0028BFD013E086
:10A9400008F002F80446504508D1304624A105F02D
:10A95000A9FE042128460AF087F9B0E701462846F7
:10A9600003F0B2FE4FF00108B8B22246072107F00B
:10A970008DFE07001BD0862F1ED006F0CBFA0246B4
:10A9800030462B462349009405F09FFE3946284661
:10A990000AF06AF90021484607F0F8FCB8F1000F08
:10A9A00002D0204603F09AFE0AB0BDE8F0870121EC
:10A9B000484607F0EBFCF7E7142217496846FEF714
:10A9C0006DFDADF80250684602F020FDEFE7000093
:10A9D000BC1D0020B880020078800200387502009B
:10A9E000436F756C64206E6F7420616C6C6F636173
:10A9F0007465206E657720706565725F6964206696
:10AA00006F7220696E636F6D696E6720626F6E642E
:10AA10002E000000547602002C66020070B5044639
:10AA200090B0087B0D468DF83800202105A8FEF770
:10AA30004EFD42F61920ADF814000120ADF81800C3
:10AA4000ADF81A000EA80790617C9DF82100A21DA8
:10AA500061F3041040F002008DF82100A87B8DF80E
:10AA60002700687B8DF82500A08805A901F06EFEFF
:10AA700000281CD1A968E1B10FA801F003FA06462D
:10AA800014216846FEF723FD42F60810ADF80000D9
:10AA9000E87B8DF806000FA8ADF80A60ADF80E60EF
:10AAA0000490E08804F10E02694602F071F810B0DB
:10AAB00070BD0020E081FAE710B50E490E480AF09B
:10AAC0000EF9C1B24FF6FE720C4800F07DFB002873
:10AAD0000FD011280DD013280BD00F2809D008282B
:10AAE00007D043F20141884203D0BDE81040FFF790
:10AAF0001BBD10BDD0210020A01A0020A8200020DE
:10AB00000A4601461046AEDF704770B51500044690
:10AB100009D00020286034B1206820B1A0798007D6
:10AB200003D0072070BD0E2070BD084600F02EFC3B
:10AB3000C0B2142804D02179814203D8042070BD0A
:10AB4000052070BDE288216800FB0210286000200B
:10AB500070BD2DE9FC47002517880646158090F842
:10AB60002D001446894630B13A462146484600F049
:10AB7000C1FC051E09D1B0784FF00C0A18B320882B
:10AB8000C846001DB84202D95046BDE8FC87684659
:10AB900079DF0028F9D12088032108F800102088E7
:10ABA0001921401C80B2208008F800102088401C29
:10ABB00080B2208000EB0801BDF800000BF051F8D6
:10ABC000218808442080F0780222C8B1218896F9B3
:10ABD000033001F1030C4846BC45D5D842542188C6
:10ABE0004FF0010C491C89B2218000F801C0218876
:10ABF000491C89B2218009F801302088401C20803E
:10AC00007068B8B1218890F9003001F1030C484612
:10AC1000BC45B9D8425421880A22491C89B22180F6
:10AC200042542188491C89B2218009F801302088CA
:10AC3000401C2080308950B1CDE900474B460622A8
:10AC4000022106F108000BF0FBF8051E9DD1308AA9
:10AC500050B1CDE900474B460722032106F1100011
:10AC60000BF0EEF8051E90D1308B50B1CDE90047C6
:10AC70004B461522142106F118000BF0E1F8051ED1
:10AC800083D1306A30B13B462246494601F093FEFB
:10AC9000051EDBD1706A30B13B462246494604F0BE
:10ACA0005EFA051ED2D196F82C0038B13B462246FA
:10ACB000494630460AF070F9051EC7D1307838B1E0
:10ACC0003B4622464946304604F05CFB051EBDD19A
:10ACD00028465AE718B504460020ADF80000134690
:10ACE0006A46204600F006F8002802D0BDF80000B1
:10ACF000204418BD70B5E0B1DAB1002402E0045D73
:10AD00002C44A4B2651C8D4206D21688A642F6D801
:10AD1000061976789E42F2D18C420AD2A31C005DBD
:10AD20009BB200B1401E0004000C02D01C188C42E3
:10AD300001D9002070BD138070BD7FB516460D4649
:10AD4000040047D02078E8B355EA060042D000203E
:10AD50000090019002900390A5B1D4F8E40001683E
:10AD600004F15500814200D11F3000902046FFF7CA
:10AD7000A8FAADF80400284601AA0099FFF7E9FEF9
:10AD8000002823D1A6B1D4F8E400816804F193002F
:10AD9000814200D11F3002902046FFF792FAADF8B1
:10ADA0000C00304603AA0299FFF7D3FE00280DD10C
:10ADB0009DE80F00D4340FC4A4F1100144F8E41945
:10ADC000002200E004E004F1540072DF04B070BD22
:10ADD0000820FBE70E20F9E780F830107047FFF7F6
:10ADE000A3BB2DE9F0410D00044606D02CB195F827
:10ADF0007A000026012803D006E00E20BDE8F0818D
:10AE000095F89800012829D0D5F8A000042825D06D
:10AE1000D5F89C00042821D04FF00108A6702C2200
:10AE200005F17801201DFEF739FB84F83060D5F874
:10AE3000A4006063D5F8A800A0634FF6FF70A4F8E3
:10AE4000E80004F1D400C4F8E400C4F8EA60A4F80F
:10AE5000EE6084F8F060207810B104E00720CDE7C0
:10AE6000FF2084F8540004F155072046C4F8D4703C
:10AE7000FFF727FAA4F8D80004F1D802394628468B
:10AE8000FFF767FE0028B9D104F19300C4F8DC0095
:10AE90002046FFF716FAA4F8E00004F1E00205F1FD
:10AEA0003C00D4F8DC10FFF754FE0028A6D184F84B
:10AEB0005180208BA4F8480084F83C80266484F8F4
:10AEC0005060606900216064454604F13C02781ED0
:10AED00072DF002892D1257090E710B50288102A01
:10AEE0001BD0112A20D0262A1DD1007A0C46012819
:10AEF00001D0022817D1A0780521401CB0FBF1F247
:10AF000001FB1201204600F04BF800280BD0A16B8A
:10AF1000002908D0BDE810400847C27B012A02D1B1
:10AF20008088A1F8E80010BD0C46002184F8F210DA
:10AF30008088B4F8E8108842F5D120790028F2D151
:10AF40000121DFE790F8F1205AB1002280F8F120CA
:10AF50000A6840F8EA2F8A88828089798171002006
:10AF600070470820704710B5044690F8540074DF0D
:10AF7000012084F8F200002084F8F40084F85000E6
:10AF80000621204602F07BFC002808D1A17820464B
:10AF900000F006F810B1A16B01B18847002010BD88
:10AFA0002DE9F05F044600780F4698B1A7700025A0
:10AFB000C4F8EA50A4F8EE5084F8F050A0790126C5
:10AFC00008B1012F09D0E07980B1012F05D0022FFF
:10AFD00003D00BE00820BDE8F09F616B21B184F83D
:10AFE000F1600820884701E084F8F15004F1EB019A
:10AFF00000200A5C0AB1304603E0401C0628F8D362
:10B0000000204FF002084FF0030A4FF0040B012F0D
:10B0100006D0022F0CD0032F0FD0042F15D110E033
:10B02000A17929B194F8241011B908B130460DE086
:10B03000E17911B108B1404608E0207A08B15046E4
:10B0400004E0607A08B1584600E02846A070616BC1
:10B0500041B1032801D0042804D1607910B194F8DB
:10B06000F20098B184F8F35004F13C00182107462F
:10B07000FEF72DFA84F83C6004F12C0007F0F8FD8F
:10B0800058B194F82C0084F8510008E084F8F4508A
:10B0900084F8F36007208847E6E784F8516094F865
:10B0A000240058B104F1280007F0E2FD20B194F823
:10B0B000280084F8520001E084F8526084F850506F
:10B0C000A27804F1EA0104F1D409052A4DD2DFE89F
:10B0D00002F065030F1B320084F83160C4F8E450BD
:10B0E000C4E9101584F83C808020A4F848003EE0B4
:10B0F00084F8318087F800A0228ABA81C4F8E4502D
:10B100007960E168B96032E06069B860208BB8812D
:10B110003D4684F83C6020460AF05EFE40B185F86A
:10B1200014800421204602F0AAFBF0B9052115E0A5
:10B1300084F831A017E0E069B860208CB8813D4602
:10B1400084F83C6020460AF047FE50B185F8148030
:10B150000421204602F093FB38B9062184F831100F
:10B1600001E084F831B0C4F8E490A07878B13A46B0
:10B1700004F15400D4F8E41072DF00287FF42BAF00
:10B1800094F8301094F8540073DF0028F6D1616B06
:10B1900011B194F83100884700201CE784F8315041
:10B1A000F5E790F8F330009933B1002380F8F330DD
:10B1B0000A4303D0012102E008207047002180F8F3
:10B1C000F410002070470000F7B594B01746050052
:10B1D0003CD0287C9DF854100024884252D0002690
:10B1E0004FF0010E0D9615A8ADF834E00E90ADF8B5
:10B1F0003660E9880DAA4FF6FF70ACDF040026D157
:10B200009DF854002874687CA0B30F961096119690
:10B210001296E888ADF83C00BDF83600ADF8400065
:10B220000DA811900E981290A7F57F408DF83EE082
:10B23000FE3805D039460FA8FFF762FC044621E02E
:10B24000684600F09DF800256F460FE00E2017B00D
:10B25000F0BD00BF07EB4506B08800F0EFF802280C
:10B2600003D144B10FA9B088AEDF6D1C0098A8428D
:10B27000F0D807E005E0B1880FA8FFF741FC0446CD
:10B28000F3E708242046E2E738B50D46040018D05D
:10B29000BDB12868206028796074FF2020740120E7
:10B2A0008DF8020041F60F00ADF80000221D69463E
:10B2B0000120A8DF002803D129462046FFF7AEFB76
:10B2C00038BD0E2038BD38B5002924D0002822D042
:10B2D0000288502A1FD10546487C0C4600281AD007
:10B2E000E9886289A81D914215D14189022912D1AC
:10B2F000216800290FD00C3000F0C0FD08B10020FB
:10B3000000E001208DF80000A888ADF80200226856
:10B3100069462046904738BD70B5040012D00146FA
:10B320001C221448FEF7BAF81248134D0560206835
:10B3300050B17ADF002806D1206801682960406892
:10B34000686005E00E2070BD0B487BDF0028FAD155
:10B3500008484FF6FF711438084A20F8041B0549C5
:10B36000343901600021FFF777F90028EBD0032082
:10B3700070BD0000E4220020101D0020715D02005D
:10B380000149496801F0F8BA0023002010B50446CD
:10B3900000F0A6F808B1204610BD142010BD000032
:10B3A00010B5044600F09CF8002805D02146BDE801
:10B3B0001040024804F0FCB810BD0000102300202B
:10B3C00070B515460E4604460AF012FD002809D055
:10B3D000054800EB8400C0692A463146BDE870404C
:10B3E00002F07ABA70BD00000023002010B50446B8
:10B3F00000F076F8002805D02146BDE8104002484C
:10B4000004F0D6B810BD00001823002010B5044683
:10B4100000F066F8002805D02146BDE8104002483B
:10B4200004F0C6B810BD00001423002010B500249D
:10B4300000F056F800B10124204610BD70B5054655
:10B44000002400F04DF838B12946044804F0B0F863
:10B4500008B1022400E00124204670BD082300202A
:10B4600010B51821034804F07EF8182800D0C0B2A7
:10B4700010BD00000023002070B505460C460846AC
:10B480000AF0B6FC60B1284600F02AF840B1054841
:10B49000294600EB8400BDE870401C3004F088B8F9
:10B4A000002070BD0023002070B5054616460C46EE
:10B4B00008460AF09DFC00280ED0284600F010F83F
:10B4C000002809D00548324600EB84002946BDE833
:10B4D00070401C3002F0CEB970BD00000023002087
:10B4E000142801D3002070470146014804F060B8D9
:10B4F000042300207CB5054608880C46093090429C
:10B5000001D90C207CBD68466DDF0028FAD1218866
:10B510000820685420881B21401C80B220802954B8
:10B520002088401C80B220802844DDF80110016092
:10B53000BDF8051081802088801D80B220809DF894
:10B540000010490800D0012129542088401C208087
:10B5500000207CBD1FB5044601208DF8060041F691
:10B560000A00ADF80400494A01A90120A8DF00281B
:10B570007DD122885AB14548801C009094F83C3017
:10B5800042F62920616801F0B1F800287BD12289B8
:10B590005AB13E480A30009094F83C3042F62420DC
:10B5A000E16801F0A3F800286DD1228A5AB137482A
:10B5B0001230009094F83C3042F62520616901F089
:10B5C00095F800285FD1228B5AB130481A3000908C
:10B5D00094F83C3042F62720E16901F087F8002812
:10B5E00051D1228C5AB129482230009094F83C3035
:10B5F00042F62620616A01F079F8002843D1228DB5
:10B600005AB122482A30009094F83C3042F6282063
:10B61000E16A01F06BF8002835D1216B79B102A8FD
:10B620000AF0BAF8194808223230009094F83C30F9
:10B6300002A942F6232001F059F8002823D1606BBB
:10B6400060B112493A3100910279016894F83C30B6
:10B6500042F62A2001F04AF8002814D1A16B89B1E2
:10B6600002A808F089FA09484230009000E00AE098
:10B6700094F83C30072202A942F6502001F036F837
:10B68000002800D1002004B010BD0000DA1D002009
:10B6900038B501880446212932D015DC1F48204ADC
:10B6A000204DA0EB02004FEAD0004FF0030202EB66
:10B6B0000040102910D0112905D11BA104F0F2FF80
:10B6C0004FF6FF70688038BD3B2923D05629FAD148
:10B6D0008088132176DF0DE017A104F0E3FF072037
:10B6E00000F096FD08B1FEF71FFFA188698015489C
:10B6F00004F08EF80028E6D0BDE83840FEF714BF0D
:10B7000000200090A08869468FDF0028DBD0FEF77C
:10B710000BFF38BD8088132176DFEBE73081020014
:10B7200078800200501A0020446973636F6E6E6562
:10B730006374656400000000436F6E6E656374653A
:10B7400064000000CC20002010B51A4C018860680D
:10B7500010290ED011292BD1401E606028D1FEF790
:10B76000B4FD002824D02168002921D0BDE8104074
:10B770000847D0B900210122084600F027FD08B192
:10B7800007280FD107220221012000F01FFD08B178
:10B79000072807D104220221002000F017FD20B164
:10B7A000072802D0216801B188476068401C6060AA
:10B7B00010BD0000081D00202DE9F04701883B4E18
:10B7C00040F2F3194FF6FF7510291BD011293ED016
:10B7D000122954D0502946D1C188F289841D914242
:10B7E00041D1618902293ED18688304603F0C6F8EE
:10B7F000050038D004F10C0000F040FBA8B3294646
:10B8000030464EE0C17B8788044601292BD1A846EB
:10B81000284603F0B3F8050017D02F8000202872C7
:10B82000234843464A460168C5F80A104068C5F8EF
:10B830000E0004F1100105F10A0003F063F96872CB
:10B84000F08900280FD129462AE0042013E08088DF
:10B8500003F094F8040006D06068FEF74FFF08B1CB
:10B8600009F0B0F92580BDE8F087FFE76868FEF7CA
:10B8700045FF0028F7D0BDE8F04709F0A3B9878855
:10B880000646384603F07AF80400ECD02B464A46C8
:10B8900006F1080104F10A0003F034F96072214650
:10B8A0003846BDE8F04701F0CDB80000E4220020A2
:10B8B000101D00202DE9F04702888688DFF8F8A0E7
:10B8C00098B0102A0DD0112A46D00AF11003192A77
:10B8D00061D01A2A6CD1007A0409042C43D30122C6
:10B8E00042E0354C083CA068C0430B9061680BA84F
:10B8F00003F082FE0B990CA801F03EF82C220CA953
:10B900006846FDF7CBFD0027E8460FE008EB47004F
:10B910005FF00005B0F8049004EB85004946001D77
:10B9200003F006FE6D1C1E2DF6D37F1C0098B84256
:10B93000ECD8142E05D318B00420BDE8F047FEF76C
:10B94000F3BD3146504603F03EFE18B03146201D8F
:10B95000BDE8F04703F037BE18B031465046BDE8A9
:10B96000F04703F0E5BD00223146184601F082FFA2
:10B97000032C01D3012200E000220F4831460C3095
:10B9800001F078FF022C01D3012200E000220A48D6
:10B990003146083007E0017A002909D1407A314662
:10B9A000C0F3C002184618B0BDE8F04701F062BF0E
:10B9B00018B0BDE8F08700000823002010B5044649
:10B9C0000748007800280AD0204602F003FD2046F0
:10B9D00009F0AAFB2046BDE8104002F0CDB810BD2A
:10B9E0004C1D0020F0B587B016460C4605001F46DA
:10B9F00035D09EB3A7F57F40FF3832D0ADF8144064
:10BA000004AA1946D5F87801FFF77FF8002823D15A
:10BA10000498801C0490082C03D822463146FDF778
:10BA20003DFD00200090019002900390B5F84E116A
:10BA3000ADF8040005A8ADF80010CDE9020601211B
:10BA40008DF8021069463846AEDF002804D102990D
:10BA50000988A14200D00C2007B0F0BDFFE70E20FE
:10BA6000FAE70820F8E72DE9F04F8BB01F46DDE933
:10BA7000144BDDF8589090468A46060045D0A9F54B
:10BA80007F41FF3943D0E51CA8B2ADF8200008285B
:10BA900037D807AA4946D6F87801FFF736F80028C4
:10BAA00030D107988DF810A08DF811800B308DF8EB
:10BAB0001270079004AF24B122465946F81CFDF7D6
:10BAC000EDFCBDF8202004A90798FDF7E7FC002055
:10BAD0000090019002900390B6F85E11ADF804005A
:10BAE00008A8ADF80010CDE9020701218DF8021079
:10BAF00069464846AEDF002804D102990988A94268
:10BB000000D00C200BB0BDE8F08F0E20FAE7082023
:10BB1000F8E72DE9F04391B00C4605000DD064B173
:10BB2000A07A0A2805D8207C0A2802D8207E0A2874
:10BB300005D9072011B0BDE8F0830E20FAE7206890
:10BB4000286060686860A07AA874207C85F8780016
:10BB5000207E85F8DE0001268DF8226041F6120075
:10BB6000ADF8200005F1080208A93046A8DF00283A
:10BB7000E0D1002709E0A06B01AA30F8171028894E
:10BB8000A9DF0028D6D17F1CFFB294F83600B84256
:10BB9000F1D8207A4FF0000808B9607A38B394F8E9
:10BBA0003C9094F83D708DF8306020216846FDF798
:10BBB0008EFC42F64E20ADF800000CA802909DF8D5
:10BBC0000D00ADF8046040F006008DF80D008DF812
:10BBD0001190ADF806608DF812708DF80F6028890D
:10BBE00005F10A02694600F0B1FD0028A2D1214604
:10BBF000284602F08DFE00289CD1207C18B3606995
:10BC000008B300271CE06069CDF8108000EBC70383
:10BC10009DF8100007EB870140F00E008DF8100032
:10BC200005EB4100191D7A30CDE9001033F8022BE5
:10BC300004A9284608F02AFB002899D17F1CFFB2EE
:10BC4000207CB842DFD8207E18B3E06908B3002713
:10BC50001CE0E069CDF80C8000EBC7039DF80C00F8
:10BC600007EB870140F00A008DF80C0005EB41005E
:10BC7000191DE030CDE9001033F8022B03A9284646
:10BC800008F004FB0028B1D17F1CFFB2207EB8422F
:10BC9000DFD82146284608F046FB0028A6D1207AA6
:10BCA00070B305F5A770009004F14203082242F634
:10BCB0002221284600F0ECF8002897D12021684680
:10BCC000FDF705FC42F63220ADF800009DF80D00AE
:10BCD000ADF8046040F00E008DF80D0094F84500BA
:10BCE0008DF8110094F846008DF812008DF80F6061
:10BCF000288905F5AB72694600F028FD00289CD123
:10BD0000607A60B105F5AF70009004F13F0308223E
:10BD100042F63321284600F0BBF800288DD1214699
:10BD2000284602F05AFA002887D194F83E708DF820
:10BD30000880202109A8FDF7CAFB42F64C20ADF887
:10BD400024009DF83100ADF8286040F004008DF823
:10BD5000310002A88DF83670ADF82A600B90288962
:10BD600005F5B77209A900F0F1FC00288BD1E16854
:10BD7000C5F87C116169C5F88011E169C5F88411C5
:10BD8000D8E600002DE9F04786B09846DDF838A0E7
:10BD900016460F4604001ED0B8F1000F1BD0A07C41
:10BDA000B8424FD907EB870004EB4000AAF57F416A
:10BDB00000F11409FF3943D0ADF81460002504AA3E
:10BDC0005146D4F87801FEF7A0FE002804D104986B
:10BDD000133004900BE00E2006B0BDE8F08700BFE2
:10BDE00030F8350004996D1C0844EDB20490D4F885
:10BDF0007C01BD42F4D330F83700B0421ED3324646
:10BE000041460498FDF74AFB002000900190029003
:10BE10000390B9F80010ADF8040005A8ADF80010C3
:10BE2000CDE9020801218DF8021069465046AEDFC7
:10BE30000028D1D102990988B142CDD00C20CBE79E
:10BE40000820C9E70720C7E70A46014610460A88C6
:10BE5000102A05D0502A05D0512A05D106F00CB879
:10BE600005F03CBE06F070B8704770B504460D464C
:10BE70000846FDF737FB2080656070BD007800F054
:10BE8000010070470A7802704978417002207047BB
:10BE90002DE9F04188B00F4605461C461646202184
:10BEA0006846DDF83880FDF712FB9DF80D00ADF80F
:10BEB000007040F00201ADF804608DF80D1060785C
:10BEC00010B141F0080101E021F0080141F010003B
:10BED0008DF80D0020788DF8110060788DF8120033
:10BEE000A0788DF8130001208DF80F0028894246B4
:10BEF000694600F02BFC08B0BDE8F0810149085C00
:10BF000070470000C96402000649095C4FF0A04078
:10BF1000D0F81005C84010F0010000D0012080F0DA
:10BF200001007047C96402002DE9FC410646C007C4
:10BF30004FF000050ED0104F00240122385D00950F
:10BF400000231146019504F0B1F8641C042CF4D3CD
:10BF500000F046F8B0070DD5074E0024361D00222C
:10BF6000305D032300951146019504F09FF8641C91
:10BF7000042CF4D3BDE8FC81C564020007490B5CC6
:10BF80004FF0A041D1F804250120984020EA020397
:10BF9000C1F808351040C1F80C057047C5640200AF
:10BFA0000249085C012104F04AB90000C56402009E
:10BFB0000249085C002104F042B90000C564020097
:10BFC0000649095C4FF0A040D0F80405C84010F0C5
:10BFD000010000D0012080F001007047C56402001C
:10BFE00010B500242046FFF7DBFF641C042CF9D3B6
:10BFF00010BD10B500242046FFF7DAFF641C042CA6
:10C00000F9D310BD10B50246064B4FF0FF300021AA
:10C010005C5C944201D1084610BD491C0429F7D349
:10C0200010BD0000C964020070B50C4E0C004FF04A
:10C03000000530600BD0012000F06AF808B1022042
:10C0400004E0002000F064F800B10B20207070685C
:10C0500010B9FEF73AF90546284670BD081D0020C4
:10C0600010B5002000F00EFA08B1062806D1012014
:10C0700000F008FA08B1062800D1002010BD000029
:10C080002DE9F0470D468146FFF7BCFF0446042822
:10C0900036D2DFF874801B481C4EA8F10C0725B37C
:10C0A000012D0ED0022D2BD104EB440030444578F5
:10C0B000002D25D0B968002922D02846BDE8F047D8
:10C0C000084704EB4401755C0E44717849B10E4A8F
:10C0D0004FF48041093A8068FEF7F8FA08B987F80A
:10C0E0000390B17808F80410E2E78068FEF706FBD9
:10C0F00004EB4401314418F804008D78A842D7D0ED
:10C10000BDE8F087D0640200041D002080220020DA
:10C11000042801D2FFF7F8BE00207047294A10B565
:10C12000031F50884FF6FF710E2B1CD2DFE803F07F
:10C130000B1B1B141B1B071B1B1B1C212941BDE8D0
:10C14000104008F0DDBF132176DF0AE000280AD096
:10C15000BDE81040FEF7E8B9884204D11A48FEF75E
:10C1600002FF0828F2D110BD8842FCD00021481FF0
:10C1700023E08842F7D0516CBDE81040012002F066
:10C18000F3BC8842EFD000220A21104603F070F879
:10C1900000210A22084603F06BF800221146022013
:10C1A00003F066F80022BDE810401146104603F087
:10C1B0005FB88842D7D005210020BDE8104003F0C9
:10C1C00097B80000501A0020D820002070B5002336
:10C1D000042810D20D4D00EB4004012A02D10129A0
:10C1E0000CD00022094E00EB4000304461B101291F
:10C1F00006D0022906D00723184670BD0E30C2B201
:10C200002A55F9E74270F7E78270F5E780220020AF
:10C21000044A014600201279D20702D0084600F0F5
:10C220004DB87047F81C002070B506461E48002423
:10C23000C0E90161B00720D500250122114628463A
:10C24000FFF7C4FF6D1C0446042D02D2002CF4D06D
:10C2500013E094B940F2333204211448FEF7E2F8B7
:10C2600004000AD1FEF7CCF8040006D10F48104AAA
:10C270000021001FFEF7F0F90446F00712D001205C
:10C28000FFF752FE74B909480A4A00210C38FEF73C
:10C29000E3F9040006D10548074A01210838FEF7F2
:10C2A000DBF90446204670BDF81C0020DC64020067
:10C2B000E1C50100E5EB0100EFA301002DE9F05F0E
:10C2C0006E4C054600266078B34618B184F801B07C
:10C2D00002F070FC6A4F4FF47A694FF4C87A4FF05D
:10C2E0000108182D69D2DFE805F00C131338475404
:10C2F000696E727B727BC58484848484B3B6B9BC56
:10C30000C5C502F057FC3868FEF7F8F906465CE050
:10C310000020FFF755FE00284FF0000008D0FFF77F
:10C320003FFE022D02D14FF4E16008E0484606E0EE
:10C33000FFF73EFE022D01D1C82000E05046410C1F
:10C34000C0034FF47A72801841F100012570520049
:10C350000023FDF75FF801462AE00020FFF730FEDA
:10C3600000284FF0000004D0FFF71AFE4FF4487089
:10C37000E5E7FFF71DFEDFE70020FFF721FE0028BD
:10C380004FF0000002D0FFF70BFECFE7FFF710FEE3
:10C39000D4E70020FFF714FE00284FF0000002D081
:10C3A000FFF7FEFD01E0FFF703FE257040F6CD41EB
:10C3B00000223868FEF78AF9064646E00020FFF7BB
:10C3C000DDFD257008E0002051E025703DE084F897
:10C3D00001800120FFF7D2FD002240F26661E8E70C
:10C3E00084F801800120FFF7C9FD00224FF40051BD
:10C3F000DFE77868FEF782F90646D5F1110000D034
:10C400002EB10220FFF7CCFD84F802B01DE0012818
:10C4100016D980B2C8214843C117C90341EA504127
:10C42000C0034FF47A72801841F1000152000023DA
:10C43000FCF7F0FF014600227868FEF747F9064650
:10C440000220FFF7B5FD84F802803046BDE8F09F7A
:10C4500002F0B0FBB9E702F0ADFBB4E702F0AAFBD3
:10C4600004E002F0A7FB0020FFF7A2FD0120FFF788
:10C470009FFDAAE7FFF7BDFDA7E70000F81C00201D
:10C48000D0640200012109F042BD00002DE9F84FFF
:10C490000546861C00208DF8000091460F464FF09F
:10C4A000010A6846FEF730F91B4C04F21C4860682C
:10C4B0003860D4E90101194F401A3968081A0EE0B2
:10C4C0000121404603F092F802F01CFD014640466F
:10C4D00003F08CF8D4E90101401A3968081A401CAD
:10C4E0008642EDD8B9F1000F03D0052065F389101D
:10C4F00002E0062065F39F5061683A68114004EB42
:10C500008101C8606068304460609DF80000FEF7FB
:10C510001FF95046BDE8F88F782B0020041F00203B
:10C5200070B50D4604460A2902D10D21FFF7F8FF28
:10C53000A0682268411CA1601554D4E90101814220
:10C5400004D32046BDE8704003F075BA70BD00000A
:10C5500070B5124C0646002094F83E50062D1AD0B5
:10C5600094F83D5005EB450504EB8505C5E901163A
:10C570002B706A7094F83E10491C84F83E1094F8B1
:10C580003D10491CC9B284F83D10052902D1002193
:10C5900084F83D1070BD042070BD000068200020AC
:10C5A000044881684068814201D101207047002021
:10C5B00070470000782B0020034630B50748002163
:10C5C0000478426806E000BF02EBC10005789D4296
:10C5D00003D0491CA142F7DB002030BD401E0020E3
:10C5E00000780221FFF74CBD1CB5044602F08CF820
:10C5F00000236A46092106F013F9052805D10348EE
:10C60000012241792046FEF74FFF1CBD181D002076
:10C610001CB504460020009042F6A620ADF80000AC
:10C6200001208DF80200084801AA694600680190BF
:10C630002046A0DF002805D1044801228179204648
:10C64000FEF732FF1CBD0000FC640200181D002034
:10C6500030B5084A012592F82C30126B9B1A5C1EEB
:10C66000A54028445B1CD84009B1101A30BD801A7F
:10C6700030BD0000501A002005494FF0FF32082855
:10C6800041F8202002D3084480F848207047000079
:10C6900074260020F0B54FF0FF3512B100230826B4
:10C6A00001E008230C260C4C05E000BF54F8237071
:10C6B0007F1C04D05B1CB342F8D32846F0BD26187B
:10C6C0005DB286F8305044F82310002AF5D1E11805
:10C6D00081F84800F1E70000742600200249084470
:10C6E00090F9300070470000742600202DE9F041D9
:10C6F00088B01E46DDF8388014460D00074602D18A
:10C700000020FDF711FF14B90020FDF70DFF2021D7
:10C710006846FCF7DCFE9DF80D00ADF8044040F0E3
:10C7200002008DF80D000848ADF80070ADF8064025
:10C7300002958DF8116042466946008800F006F8BF
:10C7400008B0BDE8F0810000DA1D00202DE9F043BB
:10C750008146887891B090460C4600B901208DF84A
:10C760003E002088ADF83C0000250095607C6946BD
:10C7700008F0AEFC6E46A07C711C08F0A9FCE07BC2
:10C7800000289DF8020002D040F0080001E020F0EF
:10C7900008008DF80200217C11B140F0100001E08A
:10C7A00020F010008DF80200217B11B140F0010053
:10C7B00001E020F001008DF80200217D09B1022185
:10C7C00000E0012161F342008DF802001C2102A863
:10C7D000FCF77DFE607BC10601D4800617D50E955F
:10C7E0000EAFE07C791C08F073FC9DF838000797C9
:10C7F00020F00F00401C20F0F00010308DF83800C1
:10C800009DF83A0020F00600801C8DF83A00607B0D
:10C810008DF80800A07B8DF80900142109A8FCF709
:10C8200056FE0FA8CDE90906A088ADF83000A06833
:10C8300020B1E088ADF82C00A0680D90A06998B3F5
:10C8400001950088ADF81000A06901AD01A94088EC
:10C85000ADF81200A069406806950390A069007BBE
:10C8600008F036FCA069691C407B08F031FCA06927
:10C87000807A00289DF8060002D040F0080001E010
:10C8800020F008008DF80600A169C97A11B140F0C6
:10C89000100001E020F010008DF80600A169097A6F
:10C8A00019B140F0010002E00DE020F001008DF828
:10C8B0000600A169897B09B1022100E0012161F331
:10C8C00042008DF80600E06900B10590434609AAD0
:10C8D00002A94846AADF11B0BDE8F08370B504464E
:10C8E0004FF6FF750A462846AC4209D14FF48074D2
:10C8F0002146104602F037FE80B2A0420BD070BD38
:10C90000FF2CFCD82146104602F01DFE90F0010FCE
:10C9100001D0204670BD284670BD000070B5084C9F
:10C92000050009D010342168002907D0086820606C
:10C93000496828468847F6E70834F4E770BD0000E8
:10C9400060260020054A012120B1012805D19170FF
:10C95000FFF7E4BF51700020FAE77047602600201F
:10C9600010B5D0E90234D1E90220D11AA04101D397
:10C97000012010BD002010BD73B58CB0064600200C
:10C9800000900D9880B100246D4621460DA802F05C
:10C990000FFE30B1009805EB400084800098401CE9
:10C9A0000090641C142CF0D32C2269463046FCF70E
:10C9B00075FD0EB070BD2DE9F04117880646B81D13
:10C9C00014460D46984202D90C20BDE8F08131880A
:10C9D000072206290AD34FF4486C4FF6FF736145CE
:10C9E00001D9994202D17088062801D21046ECE79D
:10C9F000604501D99842F9D1994203D0984201D0BB
:10CA00008142F3D80520E85520881221401C80B2CD
:10CA1000208029542088401C80B220804119308811
:10CA200009F01FF92188084480B2208041197088DC
:10CA300009F017F92188084420800020C5E7FDF798
:10CA400073BD000038B54A7A0F4B62B100220A72FA
:10CA50005969002906D001228DF80020ADF80200A6
:10CA60006846884738BD0A7A62B19B684C680246BE
:10CA700019462046FDF72AFE0028F3D0BDE83840CD
:10CA800008F0A0B85B68F1E7E4220020F0B585B0BB
:10CA900016460F4604461D4614220B496846FCF70D
:10CAA000FDFC0A488DF80870ADF80240ADF80A6048
:10CAB0008DF80C50017800222046FEF7F5FC684600
:10CAC00000F0A4FC05B0F0BD40660200BC1D0020D3
:10CAD000FDF734BB70B504460948012102F0A1FD01
:10CAE000BFF35F8F0025002808D1204602F084F9AB
:10CAF000002803D1BFF35F8F0148056070BD0000BF
:10CB0000241D00202DE9FF410C4620B14FF40640C2
:10CB100004B0BDE8F0812079002748F2096538B1FA
:10CB200041F61D5601281BD0022826D0681DEFE7CC
:10CB30000220207102970397E0680190694601A8DE
:10CB400007F0BCFA50B102988188E180008820810A
:10CB5000BDF80010029807F02FFBD9E72846D7E769
:10CB60000A4B6A460021A01D07F060FA38B1074958
:10CB700018398F61CF61A842CAD13046C8E703484F
:10CB80008188019807F018FBF5E70000B01E00202F
:10CB9000F0B587B00C4607461646142101A8FCF7ED
:10CBA00096FCA07800B901208DF81A002088ADF815
:10CBB000180006A80190A079694608F089FA6D4628
:10CBC000E079691C08F084FAE07800289DF80200FA
:10CBD00002D040F0080001E020F008008DF80200CB
:10CBE000217911B140F0100001E020F010008DF823
:10CBF0000200617911B140F0010001E020F0010074
:10CC00008DF80200217A09B1022100E0012161F3CF
:10CC100042008DF8020002956089ADF80C00A089F1
:10CC2000ADF80E00E089ADF810002069059032469D
:10CC300001A93846ABDF07B0F0BD000070B5002495
:10CC40000F4D10E0686800EBC406307804F094FAE9
:10CC50007178012901D0012100E0002141403078A4
:10CC600000F028FB641C28788442EBDBD5E9040142
:10CC7000084303D0BDE8704008F040BE70BD00001E
:10CC8000401E002010B507F0F3FC054C012160693F
:10CC900003F066FA206ABDE81040012103F060BA93
:10CCA000501A002070B5664C606903F0C0FA012884
:10CCB00005D0206A03F0BBFA012821D035E0962088
:10CCC00002F02EFE4FF4C87002F02AFE606903F0F5
:10CCD000AEFA80B100221146022002F0C9FA002209
:10CCE0001146104602F0C4FA606903F0A0FA012868
:10CCF000FAD0962017E0607880F001006070F3E7CA
:10CD0000322002F00DFE00221146012002F0B0FA9E
:10CD1000206A03F08CFA0128FAD00022114610464E
:10CD200002F0A6FA322002F0FBFD616BE06801F030
:10CD3000E7F80021FFF78CFC6062A16B206901F02D
:10CD4000DFF80121FFF784FCA062636A53EA000167
:10CD50005BD0617831B141B25AB2002002F088FA5A
:10CD60000A2050E0216B8A1E904210DB34490120DA
:10CD7000483101F0F9FEA16B206901F0C1F80121F1
:10CD8000FFF766FC216B891E8842F4DA3AE0C1F1B4
:10CD900002052B494831854210DB0120491C01F076
:10CDA000E3FEA16B206901F0ABF80121FFF750FC15
:10CDB000216BC1F102018842F3DD23E09D4210DBCB
:10CDC0000120891C01F0D0FE616BE06801F098F849
:10CDD0000021FFF73DFC216BC1F102018842F3DD28
:10CDE00010E093420EDB0120C91C01F0BDFE616B17
:10CDF000E06801F085F80021FFF72AFC216B891E0D
:10CE00008842F4DA322002F08BFDE16BA06901F078
:10CE100077F80121FFF71CFC6062216CE06901F0EA
:10CE20006FF80121FFF714FCA062626A52EA000168
:10CE300005D0BDE8704001B210B202F059BA70BD21
:10CE4000501A002010B50021024802F0EAFB80F3DE
:10CE5000100010BD942F00204FF480328A400168EA
:10CE6000C1F848230068C0F8082370474FF4A07247
:10CE700002EB810189B200F08DBA2DE9F04105463F
:10CE80000E464FF4A07000EB860081B228684FF484
:10CE90008034B440984622F07F47C0F808432868A1
:10CEA000C0F84843286803F0A9FD286800EB860015
:10CEB000C0F840752868C0F84443B8F1000F02D0AC
:10CEC0002868C0F80443BDE8F0810068D0F8040584
:10CED0007047000070B54379234C44F82320427911
:10CEE000231D03EBC202224C1579204A121BD408E1
:10CEF0002DB10825022000EB04401EA130E005689A
:10CF00000A88C5F8082590F904208978002A4FEA94
:10CF1000411104DB02F1E02282F8001405E002F086
:10CF20000F0202F1E02282F8141D90F90410012290
:10CF3000002909DB01F01F0502FA05F549098900FE
:10CF400001F1E021C1F800514179002503EBC10155
:10CF50000A71417943F83100032000EB04400EA12F
:10CF600003F0A0FB284670BD8C1E0020108102003B
:10CF70007880020052544320696E7374616E636559
:10CF800020616C726561647920696E697469616C95
:10CF9000697A65642E0000005254433A20696E6934
:10CFA0007469616C697A65642E00000090F9040070
:10CFB000002809DB00F01F02012191404009800098
:10CFC00000F1E020C0F8001270470A46022100F08C
:10CFD00067B94FF4827100F0DDB90068012101608A
:10CFE000704700680121416070472DE9F05F0746F6
:10CFF0000C464FF4A07000EB84001FFA80FA3868EA
:10D000004FF48036A6409B4622F07F45C0F8486327
:10D010003868C0F808633868D0F8048500EB8402EB
:10D02000D2F84095C2F840855146386803F0E6FCD6
:10D03000A9EB080020F07F40012806D1102003F062
:10D04000DDFF5146386803F0D9FC3868D0F8048514
:10D05000C0F84463A5EB080121F07F41386801293D
:10D0600000EB840010D0C0F840553868D0F80415A3
:10D070006FF07F4C6A1A521E22F07F42ACEB0B031A
:10D08000934217D362B118E06D1CC0F840551020D0
:10D0900003F0B4FF3868D0F8040540450AD10CE02D
:10D0A00000EB84006D1CC0F840553868D0F80405CA
:10D0B000884202D00D20BDE8F09F0122314638465B
:10D0C00000F0EEF80020F6E713460A460021FFF7CD
:10D0D000DDBC00002DE9F843104D0F4680461E468A
:10D0E00091466946286802F0F7F9040014D01C2123
:10D0F000FCF7EDF901202071C4F81490380BC4F846
:10D100000080C4E902606946286802F006FA06F069
:10D11000F5FE0020BDE8F8830420FBE7506702001D
:10D1200010B503780022072B06D2DFE803F00504D0
:10D130000610202930000A7010BD01230B700389EE
:10D140008B818388CB81C06888600A7410BD0222FD
:10D150000A7002898A818288CA81C2688A60807D59
:10D16000062802D00020087410BD0120FBE703222E
:10D170000A70C2888A810289CA81C068886010BD2D
:10D1800004230B70C0888881CA818A6010BD052085
:10D19000087010BD70B5064D0646002455F82410E1
:10D1A00009B130468847641C042CF7D370BD0000D9
:10D1B0001028002030B50446006887B00D4680680E
:10D1C00000281FD018216846FCF781F90195A06856
:10D1D0000590207910B1012810D107E001208DF8C9
:10D1E000000020690290E068039005E002208DF8BD
:10D1F0000000E06800030290606904902068816884
:10D200006846884707B030BDF0B585B017460C00BA
:10D2100005463AD0112C38D0082C36D01C481D4970
:10D22000401AC6080D2C11D0204603F073FE0246AA
:10D23000012000EB06402B46174903F03EFA2A4630
:10D240000721684602F0FCF802941BE0022000EB84
:10D2500006402A46114903F029FA2A460321684666
:10D2600002F0EEF827B13878C00701D0012000E0C5
:10D2700002208DF8080000208DF80C0041F201100A
:10D28000ADF80A00684600F0CFF805B0F0BD000028
:10D29000C08002007880020020780200107702002F
:10D2A0000368C3F84413002A02D00068C0F80413CE
:10D2B000704700002DE9F84F0E463449804601EBD7
:10D2C0005001C007097801D00F0901E001F00F07F4
:10D2D0004FF00009424601204946FCF7CCF8DFF840
:10D2E000B0A004460D46052F4ED2DFE807F0031626
:10D2F0001B282C00002E47D00121404608F0B4F92D
:10D300008DF800906846FDF7FFF95046D0E9041209
:10D310000C431543CAE9044532E00EB1022114E082
:10D32000002112E04EB10321404608F09DF940462D
:10D33000BDE8F84F012108F073BD012105E0002E82
:10D3400022D1042101E02EB103214046BDE8F84F6F
:10D3500008F08AB90021404608F086F900214046CD
:10D3600008F05EFD8DF800906846FDF7CDF9504657
:10D37000E243D0E904341A4024EA0501CAE9042151
:10D380009DF80000FDF7E4F9BDE8F88F7027002054
:10D39000401E002010B5006842581AB103F02EFB61
:10D3A000012010BD002010BD10B50446408801F0DA
:10D3B000ABF9A080024801682046BDE8104008474C
:10D3C000201D002010B50446808801F071F86080AF
:10D3D000024801682046BDE810400847301D002083
:10D3E0002DE9F04107460024064E074D05E000BF39
:10D3F00056F8241038468847641CE8788442F7DBE6
:10D40000BDE8F081142600204C1D002010B5044614
:10D41000408801F079F9A080024801682046BDE803
:10D4200010400847006602000149096808470000EB
:10D430007C66020070B586B0044614216846FCF78D
:10D4400046F8A0890125A0F54040ADF804002078F9
:10D450002F4E062833D2DFE800F0320303032C4AB4
:10D46000A08900F0EBF930B9E08943F6FE71A0F530
:10D470004040884223D8A07B8DF8080020780328FC
:10D480000FD000208DF80900A0680390606850B1AB
:10D4900009208DF8000060680490684605F012F9D4
:10D4A0000DE00120EEE708208DF800008DF8105007
:10D4B000F3E7A08900F0C2F908B1E08930B17078D3
:10D4C000002801D005F054FA06B070BD606830B194
:10D4D0000B208DF80000606802907570DDE70A206F
:10D4E0008DF80000BDF8040005F0E6FAF5E7606885
:10D4F00048B114208DF80000606802904FF6FF706C
:10D50000ADF80400C9E713208DF80000F6E700002D
:10D51000381D002038B504460F480078B0B1A4F596
:10D520007F40FF380FD0684606F018FC88B105210F
:10D53000017001210171C480684606F01DFC06F0EF
:10D54000CFFC002038BD48F2036038BD48F20160CE
:10D5500038BD48F2076038BDB81E00200D4808B538
:10D56000007888B1684606F0F9FB80B106210170A9
:10D57000684606F001FC0848017809B101210173F1
:10D5800006F0AEFC002008BD48F2016008BD48F27C
:10D59000076008BDB81E0020D4280020F0B587B071
:10D5A00014216846FBF793FF304C207818B1684689
:10D5B000FFF7F0FD57E0201D02F015F898BB40F68C
:10D5C000F8700168481C02D14FF0102041694FF0FB
:10D5D000805000694A1C02D100EB40000101244840
:10D5E00000220161A1F54051C160224902F0B8FB5F
:10D5F000002823D121481C238C221F49006801F0F8
:10D6000058FF04F0EBFD050016D0022D14D00027C2
:10D610000126062D14D005A806F0A0FB98B10670CF
:10D620000C2D1BD200E01EE0DFE805F018101810EA
:10D63000181718171812141248F20A6007B0F0BD34
:10D6400026706760B3E748F20760F7E7077105E007
:10D65000032100E00221017100E0067105A806F037
:10D660008BFB06F03DFC0020E8E70000B81E002020
:10D67000601F00206067020020280020C8660200AA
:10D6800038B5040014D0694606F018FDB0B1BDF8F5
:10D69000000000EB80010B4800EB8100C16851B134
:10D6A000A17A41B1C168491EC1600020A07238BD95
:10D6B00048F2046038BD48F2056038BD48F20960A0
:10D6C00038BD0000AC2800201FB501A9684606F04F
:10D6D000ADFC04B010BD07B513460A4669460020EC
:10D6E00006F0A4FC0EBD07B513460A4600216846A5
:10D6F00006F09CFC0EBD20B119B100680860002046
:10D70000704748F204607047F8B50D46040018D021
:10D71000BDB1694606F0D2FCB0B1BDF800000C49BD
:10D7200000EB800001EB800001210C30666801F005
:10D730005DFF2E6060680C3068600120A0720020E0
:10D74000F8BD48F20460F8BD48F20960F8BD000079
:10D75000AC28002018B10323002208F05DBD48F278
:10D76000046070470223002208F056BD094910B535
:10D770000A69042A0AD0084A096942F821000548C2
:10D780000121103001F032FF002010BD48F20B6083
:10D7900010BD0000981E0020102800202DE9F84F31
:10D7A000044624480078D8B1F4B112212046FBF792
:10D7B0008EFE0320DFF880902080002504F1100801
:10D7C00004F10E0A05EB850109EB810630897189A8
:10D7D000084487B2706804F08BFC032807D009E086
:10D7E00048F20160BDE8F88F48F20460FAE720884B
:10D7F000401E20806088F16808446080208971891B
:10D8000008442081608938446081C7F58060A1891F
:10D8100080B2814200D2A0815346A21D211D28461C
:10D82000CDF8008006F0E6FC6D1CADB2022DC9D328
:10D830000020D7E7B81E0020AC28002043F6FE7178
:10D84000A0F54040884201D8012070470020704771
:10D8500010B504460078182802D1FDF701FE2070AB
:10D8600010BD10B504460078182802D1FDF7F8FD68
:10D87000207010BD0AB101F0A6BE01F059BE70B50E
:10D880000D460446B0F8D810D0F8D4000122FDF7B8
:10D8900021FA00B1057004F13C0204F1D40104F155
:10D8A000540072DF70BD000070B5134600220546BB
:10D8B000112900D10122074C33B12179FDF7F4FD84
:10D8C00000226178284600E06178BDE87040FDF7ED
:10D8D000EBBD0000C41D0020F7B517460E0011D0A7
:10D8E0000098002560B100242146684601F060FEE2
:10D8F00018B1A0B23946B0476D1C641C142CF3D388
:10D900002846FEBD0020FEBD406806F047BA000074
:10D910000EB517A19DF8080020F00F00401C20F064
:10D92000F00010308DF808000A2202A87CDF08B150
:10D93000FCF7FAFD40F2C23078DF08B1FCF7F4FDE5
:10D940000020009001900620ADF800000C20ADF8FA
:10D9500002001420ADF804004FF49670ADF80600F4
:10D9600068467ADF002801D0FCF7DEFD0EBD00001E
:10D970006E5246355F4D6F757365000070B510B11E
:10D980004FF4064070BD1A4C0025207B08B125736A
:10D9900001E000F0A1F82078082826D2DFE800F0A6
:10D9A0002504080C10251420BDE8704000F022B8B2
:10D9B000BDE8704000F07EB8BDE8704000F060B88F
:10D9C000BDE8704000F03CB86088094900EB800079
:10D9D000283901EB80004068BDE8704004F0DEBBF0
:10D9E0006560BDE8704004F0E7BB48F20E6070BDB2
:10D9F000D42800201149F0B48A1C00200346A1F16C
:10DA000028050C18A67A4EB1A37200EB800405EB32
:10DA10008404E66816B9247C012C0AD0401C80B22C
:10DA20000228EED30B704B804B60F0BC41F61D50CA
:10DA300070471080F0BC00F03DB80000D4280020F2
:10DA40000C48418801EB8102A0F1280101EB820121
:10DA5000CA6852B10521017007480221818001681E
:10DA600000230122054802F0DFB804220270496851
:10DA7000F6E70000D4280020C01E0020601F002010
:10DA800038B50A49084803240B684268898803EBC3
:10DA9000810153880470DB1C00201B0400909B0B49
:10DAA000034802F015FA38BDD4280020C01E00201B
:10DAB000601F0020074910B54888091D06F04EFB7D
:10DAC00018B1BDE81040FFF7DBBFBDE81040FFF71D
:10DAD000B7BF0000D428002070B5194C0121207870
:10DAE00008281AD2DFE800F00419191C2529291882
:10DAF0002089134A401C2081002060802073283A2E
:10DB000000EB800312F8233043B100232518401C9A
:10DB100080B2AB720228F3D3217070BD0123F5E708
:10DB20006068084940888A88C01C104488800220A8
:10DB300004E000F009F8062000E00720207070BD26
:10DB4000D4280020C01E00200A49094849880268DC
:10DB500001EB81030749283901EB83014B6803601E
:10DB60004A6082880A8102228280002008747047FD
:10DB7000C01E0020D42800202DE9F04306468088EE
:10DB80003288DFF85C8185B00746502A37D010DC38
:10DB90005449554B06F10A05A1EB03014FEAD101A7
:10DBA0004FF0020303EB0144352A3AD0362A07D15D
:10DBB00068E0522A02D0542AF9D102E001F0C0F8FC
:10DBC00082E0142249496846FBF768FCADF8027010
:10DBD000384600F099FDADF8040000F0DFF90022AE
:10DBE000444698F804103846FDF75EFC0022E178C0
:10DBF0003846FDF759FC6846FFF7D6FB64E0307BFA
:10DC0000012861D1B07A01285ED13089A0F5245174
:10DC1000023959D10121384601F0E6F808F090F8B0
:10DC200052E098F80610FDF727FC00284CD000229F
:10DC300098F806103846FDF737FCF288B2F5857F74
:10DC400017D012B120462AA10BE02A88012A03D05E
:10DC5000204636A102F02AFD6A88012A04D0204617
:10DC600041A102F023FD04E0A98800223846A1DF8B
:10DC700008B1002125E0012298F807103846FDF789
:10DC800013FC21E04FF0000998F80710FDF7F4FBB2
:10DC9000D0B1002298F807103846FDF705FCF2884D
:10DCA00012B1204612A104E0AA88012A04D020461D
:10DCB0002DA102F0FBFC03E0A87900B10120814610
:10DCC0004946384607F032FD0022364998F80200EE
:10DCD000FDF776FB05B0BDE8F04307F055B800004E
:10DCE000181D002078800200788002005465020030
:10DCF000556E65787065637465642047415454209F
:10DD0000737461747573207768696C6520676574D6
:10DD100074696E67204341522063686172207661A6
:10DD20006C75653A20307825780000004D756C746C
:10DD300069706C652028256429204341522063685E
:10DD40006172616374657269737469637320666F6D
:10DD5000756E642C207573696E6720746865206623
:10DD6000697273742E000000556E65787065637477
:10DD70006564204341522063686172616374657217
:10DD800069737469632076616C7565206C656E6774
:10DD9000746820282564292C2073746F72652030E4
:10DDA0002E00000095A8010070B5044600780028F8
:10DDB00014D1608800F0C4FF6588284600F0B0F9EF
:10DDC00028B107480122C1782846FDF76DFB60881D
:10DDD000FEF70AFCBDE8704007F0B2BF70BD00005E
:10DDE000181D002070B5204C00252570FDF738FB6C
:10DDF0006070FDF735FBA070FDF732FBE070FDF7BA
:10DE00002FFB2071FDF72CFB6071FDF729FBA07142
:10DE1000FDF726FBE07162780121182A18D0A2785C
:10DE2000182A15D0E278182A12D02279182A0FD091
:10DE30006279182A0CD0A279182A09D0182807D09C
:10DE400004F10C000560BFF35F8F2170002070BDEE
:10DE50000648074A801AC00801EB0040054902F055
:10DE600021FC032070BD0000181D002078800200F6
:10DE7000788002006C6A02007CB5044600780828AD
:10DE800037D1607A58BB207A1C4E4FF6FF750128B7
:10DE900011D0072802D008282BD121E0A08800F05B
:10DEA00007FB0446A84224D0012100F09DFF204634
:10DEB000FEF79AFB1DE0A0886A46012104F024FBCE
:10DEC00068B90198007850B1A08800F0F1FAA84232
:10DED0000FD00122F178FDF7E7FA06F055FF08E0D0
:10DEE000F068012805D1BFF35F8F044900200C3191
:10DEF0000860BDE87C4007F023BF0000181D00202B
:10DF000010B50C46C0B2084903F052FA0648001F8B
:10DF1000B0F9041090F82C20012021449040814257
:10DF200000DA084610BD0000541A002010B50B4856
:10DF3000FEF7CBFF094A083AD2E90434C018D2E907
:10DF4000063244F10001C31A71EB020204D24FF011
:10DF50008072801841F1000110BD0000701E002089
:10DF600010B5C0B2FEF728FB0446007803F004F9B0
:10DF700001466078012801D0012000E0002090EAED
:10DF8000010F08D00449D1E90401084303D1BDE8D9
:10DF9000104007F0B3BC10BD401E00201CB5054A60
:10DFA000D2E90212CDE900120022694604F072FCA7
:10DFB0001CBD00006C65020003484FF6FF718180B4
:10DFC0000121017000207047281D00202DE9FC412F
:10DFD000804600F099FB002403250127A0F57F412E
:10DFE0002646FF3908D06A46082104F08DFA18B990
:10DFF0000198841D8688056832462B462146404696
:10E00000B1DF042804D0082804D00B2808D002E08F
:10E01000112000E00020002F00D10B20BDE8FC8182
:10E020000027A80701D50125E6E7344303D00024E3
:10E0300026460325E0E7064806494246401AC0083E
:10E04000012101EB0040044902F030FBE5E700004C
:10E050008080020078800200346D02002DE9FC41CE
:10E06000804600F051FBA0F57F410646FF390ED0F7
:10E0700001252A466D1C0027ADB26B4608213046AB
:10E0800004F08CFA040006D0072C33D033E043F2BE
:10E090000200BDE8FC81019903230A1D0B60404684
:10E0A000891DB2DF040004D00C2C09D0052C09D046
:10E0B00009E032460821104604F0E8FA04461AE066
:10E0C000012700E000240821304604F0D5FA70B1A1
:10E0D00002F020FF0346094809493246401AC008A9
:10E0E000012101EB0040074902F0E7FA0324002F69
:10E0F000BFD100E00C242046CBE700008080020066
:10E1000078800200B46C020004488088A0F57F414A
:10E11000FF3901D006F042BE70470000281D0020E4
:10E120000EB502A9019100F0EFFA6A46012104F050
:10E13000EBF908B100200EBD019800780EBD00007B
:10E140002DE9F04107464FF6FF761048B3DF78B16E
:10E1500002F0E0FE02460E480E49401AC0080121B6
:10E1600001EB00400C4902F0A1FA0320BDE8F08168
:10E17000064C43F20305A41E324661883846AFDFE1
:10E18000A842F3D16088401C6080F5E72A1D00207A
:10E190008080020078800200686C0200428800EBF8
:10E1A00082020C328A4201D9022070478188A1F58F
:10E1B0007F42FF3A06D0018821B18068401C01D01F
:10E1C0000020704701207047884204D20068401C3C
:10E1D00001D0012070470020704770B50C468AB00E
:10E1E000064634F8300F8DF82000000A8DF8210023
:10E1F000A0788DF82200E0788DF8230004252021F6
:10E200006846FBF764F942F64A20ADF800009DF835
:10E210000D00ADF8045040F002008DF80D0020799B
:10E220008DF8110008A8ADF806500290308906F567
:10E23000B3726946FEF78AFA0AB070BDF0B593B0C2
:10E2400020213348FBF743F9314803260125068096
:10E250008570C570022484714471047106818472D2
:10E26000C57284734473047305828674C57484759F
:10E27000447504750821018304278776C576847761
:10E280004477047748216846FBF721F9214800903C
:10E29000214801901E48039000208DF81000B721FE
:10E2A000ADF824101D498DF8085008918DF80950DB
:10E2B0008DF80A70079040F2011105908DF8180052
:10E2C000ADF830108DF832008DF82C408DF83F40BD
:10E2D0008DF836008DF841408DF83C408DF8336064
:10E2E0000E908DF840408DF83D408DF834408DF80B
:10E2F00044408DF842408DF83E4069460848FDF79D
:10E3000008FC002801D0FCF70FF913B0F0BD0000A5
:10E31000981F0020C51C0200215002003C1C002058
:10E32000A81A002000B585B00821034604914FF6D5
:10E33000FF7204A9684605F04FFA08B1FCF7F4F83B
:10E340006846049904F052FD002801D0FCF7ECF86F
:10E3500005B000BD3EB5027802230C46B3EB520F68
:10E3600017D1B0F80110ADF80010C1788DF8021087
:10E370008188ADF8041080798DF8060002AA01A901
:10E380002046FCF70BF8032202A96846FBF7B1F818
:10E3900008B100203EBD01203EBD000070B50D4615
:10E3A0000446142810D2FDF79BF868B1084904EB25
:10E3B000840001EB4000D0F802102960C188A980D8
:10E3C000007AA871002070BD43F2020070BD000009
:10E3D0007C23002070B5018890B0102961D1011D07
:10E3E00028226846FBF75AF89DF804004FF6FF769E
:10E3F00003213446B1EB500F2BD004F009FA9DF8FD
:10E4000004006D4640080ED001280CD0022820D10F
:10E4100018E00C99281D1131FBF72EFF18B100BF31
:10E42000BDF8284015E00BAA0AA9072004F0C4F99A
:10E430000028EED10DE00C99281D491CFFF78AFF3A
:10E440000028EDD10BAA0AA9072004F0B5F900288D
:10E45000F1D1BDF80000B44200EB8001124820F871
:10E46000114000EB41000199C0F80210BDF80810FE
:10E47000C1809DF80A10017213D0BDF80000ADF8FC
:10E480002A000020ADF82C40084E8DF828000AAD77
:10E49000044600BF56F8241028468847641C022C06
:10E4A000F8D310B070BD00007C230020806502000E
:10E4B0002DE9F0414FF6FF760546B04213D00B4FE1
:10E4C000002400BF04EB840037F81000A84206D1F6
:10E4D0002046FDF705F810B12046BDE8F081641C28
:10E4E000A4B2142CEED33046F7E700007C230020C2
:10E4F0002DE9F043CFB00E460746082903D907207F
:10E500004FB0BDE8F08317B30EB350204D90E846EE
:10E51000CDF830D1B82114A8FAF7D9FF002043AACA
:10E520000DF15001C0EBC00303EB00130B4442F8A4
:10E530002030401C0828F5D32448254A0024801A9E
:10E54000C0080222C14602EB0045884636E00022A0
:10E55000114610466FDFD3E750216846FAF7B7FF40
:10E5600037F814004DAB4BAA072104F059F90528E0
:10E5700010D007280ED09DF81100400812D00128B5
:10E5800010D037F814202846124902F08FF843F2D1
:10E590000220B5E737F8142028460F4902F086F824
:10E5A0000520ADE7C4EBC40000EB041101EB08004B
:10E5B000172209F10101FAF771FF641CB442CBD3B1
:10E5C000F2B2002143A86FDF9AE7000088800200C2
:10E5D00078800200AC6D0200346E02003EB50C463D
:10E5E000054604F015F90BE0BDF80000A04207D085
:10E5F0002846029900F00EF810B1BDF800003EBDAB
:10E6000001AA6946072004F0D7F80028ECD14FF69C
:10E61000FF703EBD2DE9F0410C46054600F11107A3
:10E6200001F111061022491C401CFAF762FF48B99B
:10E63000681C00F089FA28B1601C00F085FA08B166
:10E64000012400E0002431463846FBF715FE3B78F4
:10E650000222B2EB530F0CD00321B1EB530F08D0C1
:10E660003378B2EB530F04D0B1EB530F01D001213B
:10E6700000E00021084201D18C4302D00120BDE816
:10E68000F0810020FBE7018811B9421892780AB1A5
:10E6900001207047491C0829F7D30020704710B5A6
:10E6A0000C460346FFF7EFFF00280AD018882188A0
:10E6B000884205D10822A11C981CFAF71AFF08B15C
:10E6C000002010BD012010BD142804D2024A00EB26
:10E6D000800022F8101070477C23002070B505469A
:10E6E000FFF7E6FE0446284603F012FF002808D193
:10E6F000142C06D2034B04EB84024FF6FF7123F86F
:10E70000121070BD7C23002010B50446142808D2D6
:10E71000FCF7E6FE28B1044904EB840031F8100050
:10E7200010BD4FF6FF7010BD7C2300203EB504469F
:10E7300004F06EF80EE0019920464631FFF7AFFF76
:10E7400028B9019920462A31FFF7A9FF10B1BDF879
:10E7500008003EBD6A4602A9072004F02DF80028F3
:10E76000E9D14FF6FF703EBD7CB514460A000A4958
:10E77000097802D015688D4203D323B11D688D42FC
:10E7800001D204207CBDCDE9004313460246034874
:10E7900004F00EFA7CBD0000341D0020442400204B
:10E7A00070B50C4606469AB010211848FAF78FFE4D
:10E7B000174800252EB324B3047062003146134875
:10E7C000FAF76CFE382102A81895FAF780FE00953A
:10E7D00018AB02AA21463046019504F0E9F9002859
:10E7E0000DD110AA0DF10801C0EBC0030B4442F893
:10E7F0002030401C0828F7D3E1B210466EDF1AB073
:10E8000070BD0570002108466EDFF8E74424002043
:10E81000341D002010B50A4941600A4800F0E3FEAB
:10E8200058B902F0D7FA07491C238C22087404480F
:10E830008C39001F006800F03CFE002010BD000075
:10E8400054670200802900202DE9F0412D4F00255A
:10E8500020B17D604FF40640BDE8F08108790122C7
:10E8600058B1294E01280CD0264C4FF0020808342C
:10E87000022820D0032841D127E00A7103F09CFC34
:10E880003AE0002000EB800116F82110022908D0A0
:10E89000401C80B20228F5D33A707D6041F61D50CD
:10E8A000DAE700EB800006F8205006EB80004068B5
:10E8B00003F074FC20E00D71A4F804800023012211
:10E8C0001248216801F0B0F916E00D71206803F0DC
:10E8D00065FC0D4923682831498801EB810206EB6C
:10E8E0008201D1F804C0C4F800C04B60A3880B813A
:10E8F000A4F8048006F822500028ADD07D6048F2CC
:10E900000D60A9E7B81E0020AC280020601F002081
:10E91000FEB50646887A0D4670B3E86860B30024F9
:10E9200027E0E86800EBC403002002909DF808008F
:10E9300040F002008DF80800597911B140F008004C
:10E9400001E020F0080040F010008DF8080004EB12
:10E95000840006EB4000191D1430CDE9001033F897
:10E96000022B02A9304605F091FC002805D1641C59
:10E97000E4B2A87AA042D4D80020FEBD01460348E4
:10E9800002888A4200D0002070470000D022002078
:10E990002DE9FC5F0E008346DDE90C47C6F100005F
:10E9A00098469246814600D40846012503E000BF00
:10E9B00090FBFAF06D1C5045FADAA84500D945469F
:10E9C00024B1002E01DB780700D5641EB80702D5FC
:10E9D000B8F1000F0AD0F80708D13CB1A54205D222
:10E9E00020215846641EFDF79BFDF6E7002E02DA53
:10E9F0004E462D2102E0780703D52B215846FDF71E
:10EA00008FFD07F0030002280BD1B8F1000F08D1E9
:10EA10003CB1A54205D230215846641EFDF780FD69
:10EA2000F6E7CDE90047434652463146584607F0DF
:10EA30002DF9BDE8FC9F000070B50D460446006846
:10EA40004FF4887102F086FA4FF49071206802F05A
:10EA500081FA4FF49271206802F07CFA4FF4A271AF
:10EA6000206802F077FA4FF4AC71206802F072FA75
:10EA700020681249C0F804132068690740F3073082
:10EA8000090E002804DB00F1E02080F8001405E006
:10EA900000F00F0000F1E02080F8141D206840F322
:10EAA0000730002809DB00F01F02012191404009D6
:10EAB000800000F1E020C0F8001170BD100342009A
:10EAC000024600201268530713D502F00300012804
:10EAD00002D002280CD105E0C2F383100B68801C21
