:020000040002F8
:10600000D0590020C1630200C9630200CB630200C3
:10601000CD630200CF630200D163020000000000E4
:10602000000000000000000000000000D363020038
:10603000D563020000000000D7630200D9630200AC
:106040001D660200DB630200856B0200DB63020059
:10605000DB630200DB6302007965020085660200F3
:10606000DB630200DB630200DB630200DB63020030
:10607000DB630200DB630200DB630200DB63020020
:10608000DB63020075660200DB630200DB63020073
:10609000DB630200DB630200CD670200DB6302000A
:1060A000DB630200DB630200DB630200DB630200F0
:1060B000DB630200DB630200000000000000000060
:1060C000DB630200DB630200DB630200DB630200D0
:1060D000DB630200DB630200DB6302000000000000
:1060E00000000000000000000000000000000000B0
:1060F00000000000000000000000000000000000A0
:10610000000000000000000000000000000000008F
:10611000000000000000000000000000000000007F
:10612000000000000000000000000000000000006F
:10613000000000000000000000000000000000005F
:10614000000000000000000000000000000000004F
:10615000000000000000000000000000000000003F
:10616000000000000000000000000000000000002F
:10617000000000000000000000000000000000001F
:10618000000000000000000000000000000000000F
:1061900000000000000000000000000000000000FF
:1061A00000000000000000000000000000000000EF
:1061B00000000000000000000000000000000000DF
:1061C00000000000000000000000000000000000CF
:1061D00000000000000000000000000000000000BF
:1061E00000000000000000000000000000000000AF
:1061F000000000000000000000000000000000009F
:10620000DFF80CD000F07AF90048004759B80200D6
:10621000D059002030B450E8012F93B2C4892344F0
:106220008489A34228BF1B1B0489A34202BFBFF37A
:106230002F8F002007E0C3EA020340E80134002C5E
:10624000E9D14FF001000A6030BC704750E8012FDF
:10625000C2EA024240E801210029F7D1704730B478
:1062600050E8022F1FFAA2F3C488A34202BFBFF373
:106270002F8F00200DE0C48923448489A34228BFC6
:106280001B1BC2EA034340E80234002CE8D14FF064
:1062900001000A6030BC704750E8022FC2EA224277
:1062A00040E802210029F7D17047034653E8022F46
:1062B000D988B2EB324F4FF0000017BF92B241EADB
:1062C000014142EA014104E05A68B2EB324F08BF93
:1062D000012043E80212002AE8D1704730B4044696
:1062E00054E8000F0D4644E80053002BF8D1156028
:1062F00030BC704730B4044654E8000F40EA010552
:1063000044E80053002BF7D1156030BC704730B41F
:10631000044654E8000F00EA010544E80053002B4E
:10632000F7D1156030BC704730B4044654E8000F14
:1063300080EA010544E80053002BF7D1156030BC1A
:10634000704730B4044654E8000F00EB010544E800
:106350000053002BF7D1156030BC704730B40446B1
:1063600054E8000FA0EB010544E80053002BF7D1DF
:10637000156030BC704770B404464FF0000054E81C
:10638000006F0D68AE4207BF44E80023012044E8D7
:1063900000630E60002B1CBF0020F0E770BC70474C
:1063A00030B4044654E8000F88422CBF451A054615
:1063B00044E80053002BF5D1156030BC7047000055
:1063C0000648804706480047FEE7FEE7FEE7FEE78F
:1063D000FEE7FEE7FEE7FEE7FEE7FEE7ED67020009
:1063E000016202002DE9F05F0546002092469B46BF
:1063F00088460646814640241BE0284641464746DB
:10640000224600F06BF853465A46C01A914110D309
:1064100011461846224600F016F82D1A67EB0108BF
:106420004F4622460120002100F00DF817EB00092D
:106430004E41201EA4F10104DFDC484631462A46C5
:106440004346BDE8F09F202A04DB203A00FA02F11F
:10645000002070479140C2F1200320FA03F3194352
:1064600090407047004870472030030040EA010325
:106470009B0703D009E008C9121F08C0042AFAD2FA
:1064800003E011F8013B00F8013B521EF9D27047BE
:10649000D2B201E000F8012B491EFBD27047002266
:1064A000F6E710B513460A4604461946FFF7F0FF13
:1064B000204610BD421C10F8011B0029FBD1801A98
:1064C000704730B504460020034600E05B1C934251
:1064D00003D2E05CCD5C401BF8D030BD202A04DB49
:1064E000203A21FA02F00021704721FA02F3D0404D
:1064F000C2F120029140084319467047064C074DEF
:1065000006E0E06840F0010394E807009847103483
:10651000AC42F6D3FFF778FECC460300EC4603000E
:1065200070B58C1810F8015B15F0070301D110F855
:10653000013B2A1106D110F8012B03E010F8016B82
:1065400001F8016B5B1EF9D12B0705D40023521E05
:106550000DD401F8013BFAE710F8013BCB1A921C6D
:1065600003E013F8015B01F8015B521EF9D5A1426B
:10657000D8D3002070BD00002DE9F8430025DFF8D6
:1065800094804FF4807601242F460095304606F023
:106590007DFA38B1D8F80403204203D0304606F023
:1065A0006BFA2543361D64007F1CB6B2082FEDD36D
:1065B0004FF4BE74204606F069FA48B1204606F052
:1065C0005BFA45F000456A460121002006F024FAF6
:1065D00015F0FF0F16D0012600242E420ED008EB36
:1065E0008401D1F81005D1F81015C0F304200A4A2F
:1065F000C1F3014152F8242002B190477600641C97
:10660000082CEAD3002D02DA684609F0C3FEBDE883
:10661000F883000000600040EC30002070B54FF4BB
:106620008076304605F0A0FD114CB50560B13046CE
:1066300005F0A1FD0120C5F80803607920B901200B
:1066400060712168002088474FF48276304605F05B
:106650008BFD00280AD0304605F08DFD0220C5F8DC
:1066600008032168BDE870400120084770BD0000A4
:10667000C425002002490248091F0968006808472C
:10668000282600202DE9FE434FF48278404606F08C
:10669000E5FD4C4F00254C4C012600B3404606F06A
:1066A000E5FD94F82E0010B194F82F10D1B18DF8BB
:1066B0000050616801912189ADF80810E26832B19B
:1066C000218B618362602181E56010B102E0257455
:1066D00000E03E6021686846884784F82F5094F8AF
:1066E0002E0060B34FF48077384606F0B7FD30B324
:1066F000384606F0BBFD628B94F82D108A420AD909
:10670000A2EB010080B260832289A2EB00006268E4
:1067100002EB400005E007D1E06828B184F82F6063
:10672000658306F089FD04E08A4202D184F82F6077
:106730006583404606F09AFD2248001D06604FF42E
:106740008877384606F08AFD48B1384606F08EFD57
:10675000257402208DF800002168684688474FF4B0
:106760008A77384606F07AFD28B1384606F07EFD75
:106770002574BDE8FE834FF000484FF48C796769BB
:106780001DE000BFB7FA87F028FA00F109EB800599
:106790008F43284606F062FD88B1284606F066FD64
:1067A000A5F58C75E8088DF8040045F38000401CC1
:1067B0008DF800608DF80500216868468847002F35
:1067C000E0D1D6E7007000409831002010B50021DC
:1067D000054A084600F030FC002803D0BDE8104010
:1067E00000F01EBC10BD000091730200F0B5D34A4A
:1067F000D3494FF080541368D4F830010978D4F8A5
:106800003421451CC1F3031107D0844616460127E5
:106810000025BCF1060F04D013E003F0FF0C0E4678
:10682000F5E7032E05D0042E03D0052E01D0062E49
:1068300007D1B4F82463DFF80CC3C6F30426CCF800
:106840000060DEB2062E06D1032904D1DFF8FCC2B7
:10685000BD4ECCF87460461C06D084464FEA020652
:10686000BCF1060F04D013E003F0FF0C0E46F7E76F
:10687000032E05D0042E03D0052E01D0062E07D1FD
:10688000D4F84462DFF8C8C2C6F34236CCF80060E0
:10689000DEB2062E08D1032906D1AE4ED6F800C0CE
:1068A0002CF0807CC6F800C0461C05D084461646F5
:1068B000BCF1060F04D014E003F0FF0C0E46F7E71E
:1068C000032E05D0042E03D0052E01D0062E08D1AC
:1068D0004FF08046C6F80C51C6F810519C4E361F3A
:1068E0003560DEB2062E08D1032906D1DFF860C27A
:1068F00003260CF1640CCCF80060DEB2062E11D138
:1069000003290FD1DFF850C20526CCF80060924E63
:1069100078363760904E083635600CF1040C3F260F
:10692000CCF80060461C05D084461646BCF1060F24
:1069300004D087E003F0FF0C0E46F7E7032E7CD06F
:10694000042E7FD0052E01D0062E7BD1834E3668D3
:10695000DFF80CC2CCF80060804E361D36680CF1B2
:10696000040CCCF800607D4E083636680CF1040C3F
:10697000CCF80060794E0C3636680CF1040CCCF87B
:106980000060764E103636680CF1040CCCF80060CE
:10699000724E143636680CF1040CCCF800606F4E61
:1069A00018363668DFF8B8C10CF1200CCCF800605E
:1069B0006A4E1C3636680CF1040CCCF80060674E49
:1069C000203636680CF1040CCCF80060634E243697
:1069D00036680CF1040CCCF80060604E283636683E
:1069E0000CF1040CCCF800605C4E2C3636680CF1CF
:1069F000040CCCF80060594E30363668DFF860C1C0
:106A00000CF1400CCCF80060544E343636680CF172
:106A1000040CCCF80060514E383636680CF1040C8A
:106A2000CCF800604D4E3C3636680CF1040CCCF8C6
:106A300000604A4E4036366800E003E00CF1040C7A
:106A4000CCF80060461C05D084461646BCF1060F03
:106A500004D011E003F0FF0C0E46F7E7032E05D03B
:106A6000042E03D0052E01D0062E05D1D4F85842AD
:106A70003C4E04F04F043460441C04D003461146DD
:106A8000062B02D010E0DBB2FAE7032905D0042977
:106A900003D0052901D0062906D133490B68DB074D
:106AA00002D06FF001030B6006280CD1032A0AD034
:106AB000042A08D0052A06D0062A04D12B480168EA
:106AC00041F48061016023487438016841F4700129
:106AD0000160BFF34F8FBFF36F8F4FF01021D1F8DC
:106AE0000002002803DBD1F80402002822DA204A41
:106AF000176020480368002BFCD01523C1F8003232
:106B00000468002CFCD0C1F8043201680029FCD0D4
:106B1000156001680029FCD0BFF34F8F0D48F03895
:106B20000168154A01F4E06111430160BFF34F8F22
:106B300000BFFDE7124911480860F0BDE00F00F00A
:106B4000E80F00F0403501400DF0ADBA00C007403D
:106B50003C050040FCED00E010560040040400102D
:106B600020C50040E40E0040000400403C170040F7
:106B700004E5014000E401400400FA050090D00360
:106B8000E82600200148006800470000CC250020CE
:106B900002E008C8121F08C1002AFAD170477047E6
:106BA000002001E001C1121F002AFBD17047000044
:106BB0000121202803DA81400548014003E04028F4
:106BC00002DA2038814009B1012070470020704767
:106BD000FC06FFBD2DE9F843804643F2020659B991
:106BE000694608F0A7FCB04202D008B100F018FADC
:106BF0009DF80000800744D40021404608F0A4FC22
:106C000005003ED0112D3CD01F482049401AC7082E
:106C1000022000EB07440D2D0AD00B2D1DD0B542EC
:106C20001FD11B4920464246BDE8F84306F034B95F
:106C300020464246174906F02FF91321404676DFD9
:106C400000281ED006F082FD024601B020464346D1
:106C5000BDE8F04310A106F026B9204642461C4983
:106C6000E2E7284606F072FD0246012000EB0740ED
:106C7000434618A106F017F92846BDE8F84300F08E
:106C8000CFB9BDE8F883000034470300FC46030099
:106C9000943803002038030073645F626C655F679B
:106CA00061705F646973636F6E6E65637428292019
:106CB00072657475726E6564202573206F6E206333
:106CC0006F6E6E5F68616E646C652025642E0000D7
:106CD000E0380300417373657274696E672E20702B
:106CE0006D5F636F6E6E5F736563757265282920D3
:106CF00072657475726E6564202573206F6E2063F3
:106D00006F6E6E5F68616E646C652025642E000096
:106D100010B560B159B102780B785208B2EB530F3D
:106D200005D10622401C491CFFF7CBFB08B100200F
:106D300010BD012010BD800701D000207047012048
:106D40007047C3688B4206D811440069491E8142CE
:106D500001D8012070470020704790F824000128D6
:106D600001D01F207047EE20704710B5012202218C
:106D7000002001F07BFF08B1072810D10722022173
:106D8000012001F073FF08B1072808D100210A2271
:106D9000084601F06BFF08B1072800D1002010BDA4
:106DA00010B5ACB0AC216846FFF779FB02218DF835
:106DB0000010012405208DF802408DF803001A48C8
:106DC0000590ADF8104000F5CB7009903C22694663
:106DD0001648FFF74BFB00208DF879408DF87A407C
:106DE0008DF87B00209021902820229040F6B8302A
:106DF0008DF87C4023908DF87D40A020249044F2B3
:106E0000506025900A4829900A482A9069460A4805
:106E100000F064FD08B100F003F90121064800F01C
:106E200058FD2CB010BD00005E220020602C002018
:106E300091E00200D97802001C28002010B560B152
:106E40000D480E49401AC008032101EB00400CA177
:106E500006F01EF809F0F4F906E001200BF080FBC3
:106E600003210B4800F01BFE002803D0BDE81040B2
:106E700000F0D6B810BD0000B4470300FC46030084
:106E8000457261736520626F6E64732100000000BB
:106E90001C28002070B58CB015460E4600236C46A9
:106EA000C3F10F01415CE1545B1C102BF8D30D21A1
:106EB00004F11000FFF7F3FA0020C0F10F02315C7B
:106EC0002244401C11740328F7D3684646DF002093
:106ED000C0F10F01214491F820102954401C0328CF
:106EE000F6D30CB070BD022001F0AEBD0149C978E7
:106EF00001F062B85025002070B50024064D06E070
:106F00006868012110F8340006F094FC641C2878AD
:106F10008442F5D3002070BDD8250020F8B5164670
:106F20000C4605460A2A01D20720F8BD06F07CFD72
:106F300018B906F03FFD0028F7D1134F1021134870
:106F40007D603C70BE60FFF7AAFA0020C7E904002C
:106F50000F4E0DE005EBC4003168009181788DF88B
:106F6000011000780B4A694606F0B4FC0028DCD119
:106F7000641EE4B2EED2BDE8F84005480021064A9E
:106F8000001D00F0E5B80000D8250020E831002001
:106F9000802C030071A802002597020072B606F04B
:106FA00021F800BF05F058FE0028FBD11148124916
:106FB000401AC408012000EB044010A105F068FF4E
:106FC00011480068C00700D000BE022000EB04405A
:106FD0000EA105F05DFFBFF34F8F0B48E438016849
:106FE0000E4A01F4E06111430160BFF34F8F00BF0F
:106FF000FDE70000B4470300FC46030046617461EE
:107000006C206572726F7200F0ED00E0537973745A
:10701000656D207265736574000000000400FA0558
:107020000EB500210091CDE901106A4644F201003D
:10703000FFF7B4FF0EBD00002DE9F84F254C814647
:10704000924660880E46814241D800274FF6FF786D
:107050008DF80070684600F0D3F822786078A18837
:10706000884201DA401C00E00020C0B2904204D106
:107070009DF8000000F0E8F827E065786078884225
:1070800001DA401C00E0002060709DF8000000F074
:10709000DBF8454519D0A068B9F1000F40F835A0DC
:1070A0000DD066B16188E068324605FB01004946B3
:1070B000FFF7DCF9A06800EBC500868002E000EB7A
:1070C000C50087800020BDE8F88F0420FBE7092079
:1070D000F9E70000F025002010B50E4C03E0401C3D
:1070E00000E00020207020786178814210D0227862
:1070F0006188E068A36802FB010003EBC20153F85A
:107100003220898890472078A1888842E9DAE6E72A
:1071100010BD0000F025002030B5CB0008339DB233
:1071200093074FF0000401D0072030BD044B9A6054
:107130002A44DA605C701C7058809980002030BD51
:10714000F0250020014802F05EBB00000826002068
:107150003AB100680129426100D00021016100209C
:10716000704707207047000038B51148082358229F
:10717000416800910F49006804F0A1FD002815D175
:107180000D4A69460D4802F043FB04000ED101216F
:107190000A4802F0B8FB0123094A1946074802F0E1
:1071A0000AFB0649012008390870204638BD000056
:1071B000882C030008320020C50C0300082600209C
:1071C000FFFF7F0070B50446007F0D4608B1002028
:1071D00070BDA26103F032FB401941F10001C4E926
:1071E0000201206900B125612146BDE87040002000
:1071F0000AF074BE01460020087701200AF06EBE36
:1072000030B5EFF3108172B60D4A9468012324B1B2
:107210000370002900D162B630BD93604FF0E023C7
:10722000D3F88051074C25401560C3F88041D3F84E
:10723000844154605A17C3F8842100220270E8E7A1
:1072400060320020FC06FFBD0B498A68002A11D07D
:1072500000280FD1EFF3108072B60B684FF0E022D8
:10726000C2F800314B68C2F8043100228A6000285D
:1072700000D162B670470000603200202DE9F04175
:10728000064608680C46411C4FF0A0474FF0010528
:1072900006D005FA00F1C7F80815206805F096FB3E
:1072A0006068411C02D0002105F07EFB3168A069B6
:1072B000C1F82405607D227D31681043C1F86C055A
:1072C000D4E900123068C0F81425C0F80C15207DF0
:1072D000012815D1A068411C02D0002105F064FBF3
:1072E000E068411C05D08540C7F80855E06805F006
:1072F0006DFBD4E902123068C0F80825C0F81015FB
:10730000BDE8F0812DE9F041064608680C46411CB5
:107310004FF0A0474FF0010506D005FA00F1C7F87D
:107320000815206805F05CFB6068411C02D0002154
:1073300005F043FB3168A069C1F82405607D217D1B
:1073400032680843C2F86C05D4E900123068C0F80E
:107350000C15C0F81425207D012815D1A068411C0A
:1073600002D0002105F029FBE068411C05D08540D2
:10737000C7F80855E06805F033FBD4E9021230681D
:10738000C0F80825C0F81015BDE8F08104F030B948
:1073900006F02AB92DE9F047814605884A484FF0A2
:1073A00000088AB001784246284600F01DFE99F890
:1073B0000500400701D4002176E005F58077B8B2DA
:1073C00005AB0122072107F0A9FC04003F48404A11
:1073D0004FF00101A0EB02004FEAD00001EB0046A4
:1073E0000AD0204606F0B2F9024630462B4639490B
:1073F00005F059FD214629E0284603F001FE4FF62D
:10740000FF71044688422BD18A46069803F062FD3C
:107410000446504510D00146284603F0D1FD2846C9
:10742000FFF764FDE0B9284609F02EFF2846FFF774
:107430005DFD0028BFD013E007F046FE044650452E
:1074400008D1304624A105F023FD0421284609F087
:1074500049FFB0E70146284603F0B2FD4FF00108AE
:10746000B8B22246072107F0D1FC07001BD0862FB7
:107470001ED006F06BF9024630462B462349009495
:1074800005F019FD3946284609F02CFF0021484631
:1074900007F03CFBB8F1000F02D0204603F09AFD44
:1074A0000AB0BDE8F0870121484607F02FFBF7E757
:1074B000142217496846FEF7D9FFADF80250684616
:1074C00002F042FCEFE70000502500203C4703009B
:1074D000FC460300DC3B0300436F756C64206E6F59
:1074E0007420616C6C6F63617465206E65772070C9
:1074F0006565725F696420666F7220696E636F6D87
:10750000696E6720626F6E642E000000F83C030015
:10751000202C030070B5044690B0087B0D468DF812
:107520003800202105A8FEF7BAFF42F61920ADF871
:1075300014000120ADF81800ADF81A000EA807904D
:10754000617C9DF82100A21D61F3041040F002004F
:107550008DF82100A87B8DF82700687B8DF8250029
:10756000A08805A901F006FE00281CD1A968E1B198
:107570000FA801F0EDF9064614216846FEF78FFFCB
:1075800042F60810ADF80000E87B8DF806000FA861
:10759000ADF80A60ADF80E600490E08804F10E02C8
:1075A000694602F069F810B070BD0020E081FAE78A
:1075B00010B50E490E4809F0D0FEC1B24FF6FE726A
:1075C0000C4800F097FB00280FD011280DD013288D
:1075D0000BD00F2809D0082807D043F20141884278
:1075E00003D0BDE81040FFF71BBD10BD502C00209C
:1075F00064220020E82700200A4601461046AEDF3C
:10760000704770B51500044609D00020286034B1D9
:10761000206820B1A079800703D0072070BD0E201C
:1076200070BD084600F048FCC0B2142804D021798F
:10763000814203D8042070BD052070BDE288216816
:1076400000FB02102860002070BD2DE9FC470025DA
:1076500017880646158090F82D001446894630B1EB
:107660003A462146484600F0E5FC051E09D1B078AF
:107670004FF00C0A18B32088C846001DB84202D942
:107680005046BDE8FC87684679DF0028F9D120889C
:10769000032108F8001020881921401C80B22080A6
:1076A00008F800102088401C80B2208000EB080100
:1076B000BDF800000AF0E1FD218808442080F07840
:1076C0000222C8B1218896F9033001F1030C484623
:1076D000BC45D5D8425421884FF0010C491C89B2D1
:1076E000218000F801C02188491C89B2218009F855
:1076F00001302088401C20807068B8B1218890F942
:10770000003001F1030C4846BC45B9D842542188E9
:107710000A22491C89B2218042542188491C89B21D
:10772000218009F801302088401C2080308950B128
:10773000CDE900474B460622022106F108000AF077
:107740008BFE051E9DD1308A50B1CDE900474B46D6
:107750000722032106F110000AF07EFE051E90D1DB
:10776000308B50B1CDE900474B461522142106F16C
:1077700018000AF071FE051E83D1306A30B13B4615
:107780002246494601F02BFE051EDBD1706A30B15E
:107790003B462246494604F028F9051ED2D196F808
:1077A0002C0038B13B4622464946304609F00AFFD4
:1077B000051EC7D1307838B13B462246494630468F
:1077C00004F0E6F9051EBDD128465AE718B504466F
:1077D0000020ADF8000013466A46204600F006F887
:1077E000002802D0BDF80000204418BD70B5E0B1FB
:1077F000DAB1002402E0045D2C44A4B2651C8D4281
:1078000006D21688A642F6D8061976789E42F2D19C
:107810008C420AD2A31C005D9BB200B1401E000442
:10782000000C02D01C188C4201D9002070BD1380BE
:1078300070BD7FB516460D46040048D02078F0B3E1
:1078400055EA060043D0002000900190029003907A
:10785000A5B1D4F82004016804F15500814200D19B
:10786000EE3000902046FFF778FAADF80400284685
:1078700001AA0099FFF7E9FE002824D1A6B1D4F8A7
:107880002004816804F23120814200D1EE30029060
:107890002046FFF762FAADF80C00304603AA0299C1
:1078A000FFF7D3FE00280ED19DE80F0004F5826596
:1078B00085E80F002946002204F1540000E004E0AE
:1078C000C4F8201472DF04B070BD0820FBE70E205E
:1078D000F9E780F830107047FFF7A2BB2DE9F041BF
:1078E0000D00044606D02CB195F87A000026012838
:1078F00003D006E00E20BDE8F08195F8980001283D
:1079000029D0D5F8A000042825D0D5F89C0004285B
:1079100021D04FF00108A6702C2205F17801201D1E
:10792000FEF7A4FD84F83060D5F8A4006063D5F8B4
:10793000A800A0634FF6FF70A4F8240404F5826049
:10794000C4F82004C4F82664A4F82A6484F82C64DB
:10795000207810B104E00720CDE7FF2084F8540020
:1079600004F155072046C4F81074FFF7F6F9A4F89F
:10797000140404F2144239462846FFF766FE002834
:10798000B9D104F23120C4F818042046FFF7E5F914
:10799000A4F81C0404F21C4205F13C00D4F81814AD
:1079A000FFF753FE0028A6D184F85180208BA4F85D
:1079B000480084F83C80266484F8506060690021A7
:1079C0006064454604F13C02781E72DF002892D1C3
:1079D000257090E710B50288102A1BD0112A20D0FC
:1079E000262A1DD1007A0C46012801D0022817D181
:1079F000A0780521401CB0FBF1F201FB12012046EA
:107A000000F04DF800280BD0A16B002908D0BDE88C
:107A100010400847C27B012A02D18088A1F82404C3
:107A200010BD0C46002184F82E148088B4F824146C
:107A30008842F5D120790028F2D10121DFE790F8C2
:107A40002D246AB1002280F82D240A68C0F826246B
:107A50008A88A0F82A24897980F82C14002070479D
:107A60000820704710B5044690F8540074DF0120D8
:107A700084F82E04002084F8300484F85000062195
:107A8000204602F09AFB002808D1A178204600F099
:107A900006F810B1A16B01B18847002010BD2DE997
:107AA000F05F044600780F4698B1A7700025C4F82F
:107AB0002654A4F82A5484F82C54A079012608B13D
:107AC000012F09D0E07980B1012F05D0022F03D01A
:107AD0000BE00820BDE8F09F616B21B184F82D64B4
:107AE0000820884701E084F82D5404F22741002043
:107AF0000A5C0AB1304603E0401C0628F8D3002097
:107B00004FF002084FF0030B012F06D0022F0CD0CC
:107B1000032F0FD0042F15D110E0A17929B194F8CB
:107B2000241011B908B130460DE0E17911B108B166
:107B3000404608E0207A08B1584604E0607A08B16F
:107B4000042000E02846A070616B41B1032801D0F9
:107B5000042804D1607910B194F82E0498B184F807
:107B60002F5404F13C0018210746FEF798FC84F8D6
:107B70003C6004F12C0007F03BFC58B194F82C0059
:107B800084F8510008E084F8305484F82F6407200A
:107B90008847E6E784F8516094F8240058B104F16E
:107BA000280007F025FC20B194F8280084F8520042
:107BB00001E084F8526084F85050A27804F2264123
:107BC00004F582694FF0060A052A64D2DFE802F064
:107BD0007C030F22420084F83160C4F82054C4E9C9
:107BE000101584F83C808020A4F8480055E084F803
:107BF000318094F82420384612B10722027001E047
:107C000080F800B0228A8281C4F820544160E16883
:107C1000B96042E06069B860208BB88194F82400B4
:107C20003D460028204602D084F83CA001E084F8BC
:107C30003C600AF0DDFB50B185F814800421204639
:107C400002F0BBFA38BB052184F8311021E084F83A
:107C500031B01EE0E069B860208CB88194F824004F
:107C60003D460028204602D084F83CA001E084F87C
:107C70003C600AF0BDFB48B185F814800421204621
:107C800002F09BFA38B984F831A002E0042084F8AD
:107C90003100C4F82094A07878B13A4604F1540039
:107CA000D4F8201472DF00287FF414AF94F8301059
:107CB00094F8540073DF0028F6D1616B11B194F889
:107CC00031008847002005E784F83150F5E790F847
:107CD0002F34009933B1002380F82F340A4303D0A6
:107CE000012102E008207047002180F830140020B4
:107CF00070470000F7B594B0174605003CD0287CCB
:107D00009DF854100024884252D000264FF0010EF6
:107D10000D9615A8ADF834E00E90ADF83660E98800
:107D20000DAA4FF6FF70ACDF040026D19DF8540079
:107D30002874687CA0B30F96109611961296E88866
:107D4000ADF83C00BDF83600ADF840000DA811902C
:107D50000E981290A7F57F408DF83EE0FE3805D0D2
:107D600039460FA8FFF748FC044621E0684600F0BA
:107D70009DF800256F460FE00E2017B0F0BD00BF44
:107D800007EB4506B08800F0F9F8022803D144B1AA
:107D90000FA9B088AEDF6D1C0098A842F0D807E0AC
:107DA00005E0B1880FA8FFF727FC0446F3E7082495
:107DB0002046E2E738B50D46040018D0BDB128686A
:107DC000206028796074FF20207401208DF8020063
:107DD00041F60F00ADF80000221D69460120A8DF22
:107DE000002803D129462046FFF794FB38BD0E201A
:107DF00038BD38B5002924D0002822D00288502A66
:107E00001FD10546487C0C4600281AD0E9886289B3
:107E1000A81D914215D14189022912D1216800295A
:107E20000FD00C3000F090FD08B1002000E00120E0
:107E30008DF80000A888ADF8020022686946204647
:107E4000904738BD70B5040012D001461C2214487A
:107E5000FEF70CFB1248134D0560206850B17ADF25
:107E6000002806D12068016829604068686005E044
:107E70000E2070BD0B487BDF0028FAD108484FF672
:107E8000FF711438084A20F8041B05493439016091
:107E90000021FFF75DF90028EBD0032070BD000042
:107EA0005C2D0020A4240020892303000149496897
:107EB00001F076BA782D002010B5044600F0B0F835
:107EC00008B1204610BD142010BD000010B50446B6
:107ED00000F0A6F8002805D02146BDE81040024871
:107EE00003F06CBF10BD0000882D002070B5154652
:107EF0000E4604460AF088FA002809D0054800EB2F
:107F00008400C0692A463146BDE8704002F082B95B
:107F100070BD0000782D002010B5044600F080F8F8
:107F2000002805D02146BDE81040024803F046BFB6
:107F300010BD0000902D002010B5044600F070F830
:107F4000002805D02146BDE81040024803F036BFA6
:107F500010BD00008C2D002070B50546002400F0F7
:107F60005FF838B12946044803F028FF08B102241D
:107F700000E00124204670BD842D002070B5054628
:107F8000002400F04DF838B12946044803F016FFEC
:107F900008B1022400E00124204670BD802D00209D
:107FA00010B51821034803F0E4FE182800D0C0B231
:107FB00010BD0000782D002070B505460C4608461F
:107FC0000AF022FA60B1284600F02AF840B10548CC
:107FD000294600EB8400BDE870401C3003F0EEBE83
:107FE000002070BD782D002070B5054616460C4661
:107FF00008460AF009FA00280ED0284600F010F8CA
:10800000002809D00548324600EB84002946BDE827
:1080100070401C3002F0CCB870BD0000782D0020FC
:10802000142801D3002070470146014803F0C6BE62
:108030007C2D00207CB5054608880C46093090420E
:1080400001D90C207CBD68466DDF0028FAD121885B
:108050000820685420881B21401C80B220802954AD
:108060002088401C80B220802844DDF80110016087
:10807000BDF8051081802088801D80B220809DF889
:108080000010490800D0012129542088401C20807C
:1080900000207CBD1FB5044601208DF8060041F686
:1080A0000A00ADF80400494A01A90120A8DF002810
:1080B0007DD122885AB14548801C009094F83C300C
:1080C00042F62920616801F025F800287BD1228939
:1080D0005AB13E480A30009094F83C3042F62420D1
:1080E000E16801F017F800286DD1228A5AB13748AB
:1080F0001230009094F83C3042F62520616901F07E
:1081000009F800285FD1228B5AB130481A3000900C
:1081100094F83C3042F62720E16900F0FBFF00288C
:1081200051D1228C5AB129482230009094F83C3029
:1081300042F62620616A00F0EDFF002843D1228D2F
:108140005AB122482A30009094F83C3042F6282058
:10815000E16A00F0DFFF002835D1216B79B102A878
:1081600009F026FE194808223230009094F83C307D
:1081700002A942F6232000F0CDFF002823D1606B36
:1081800060B112493A3100910279016894F83C30AB
:1081900042F62A2000F0BEFF002814D1A16B89B15D
:1081A00002A808F0DDF809484230009000E00AE03B
:1081B00094F83C30072202A942F6502000F0AAFFB2
:1081C000002800D1002004B010BD00006E25002062
:1081D00038B501880446212932D015DC1F48204AD1
:1081E000204DA0EB02004FEAD0004FF0030202EB5B
:1081F0000040102910D0112905D11BA104F048FE20
:108200004FF6FF70688038BD3B2923D05629FAD13C
:108210008088132176DF0DE017A104F039FE0720D6
:1082200000F046FD08B1FEF7FBFEA1886980154805
:1082300003F022FF0028E6D0BDE83840FEF7F0BE8C
:1082400000200090A08869468FDF0028DBD0FEF771
:10825000E7FE38BD8088132176DFEBE7B4470300E3
:10826000FC46030058220020446973636F6E6E65FC
:108270006374656400000000436F6E6E656374652F
:10828000640000001028002010B51A4C01886068B6
:1082900010290ED011292BD1401E606028D1FEF785
:1082A00064FD002824D02168002921D0BDE81040B9
:1082B0000847D0B900210122084600F0D7FC08B1D8
:1082C00007280FD107220221012000F0CFFC08B1BE
:1082D000072807D104220221002000F0C7FC20B1AA
:1082E000072802D0216801B188476068401C60609F
:1082F00010BD00009C2400202DE9F04701883B4E72
:1083000040F2F3194FF6FF7510291BD011293ED00A
:10831000122954D0502946D1C188F289841D914236
:1083200041D1618902293ED18688304602F0A2FF00
:10833000050038D004F10C0000F006FBA8B3294674
:1083400030464EE0C17B8788044601292BD1A846E0
:10835000284602F08FFF050017D02F8000202872DA
:10836000234843464A460168C5F80A104068C5F8E4
:108370000E0004F1100105F10A0003F03FF86872E5
:10838000F08900280FD129462AE0042013E08088D4
:1083900002F070FF040006D06068FEF72BFF08B102
:1083A00008F084FF2580BDE8F087FFE76868FEF7E6
:1083B00021FF0028F7D0BDE8F04708F077BF878895
:1083C0000646384602F056FF0400ECD02B464A46DB
:1083D00006F1080104F10A0003F010F8607221466A
:1083E0003846BDE8F04701F041B800005C2D0020A0
:1083F000A42400202DE9F04F0446868801884248D5
:1084000097B0834610290CD0112950D0103019296B
:108410006AD01A2974D1217A0C09042C4DD3012277
:108420004CE0394D083DA868C0430B9069680BA823
:1084300003F0E8FC0B990CA800F0B2FF2C220CA969
:108440006846FEF713F80027E946A84610E000BF8B
:1084500009EB47005FF00005B0F804A008EB8500C9
:108460005146001D03F06AFC6D1C1E2DF6D37F1CC7
:108470000098B842ECD8142E05D317B00420BDE8FC
:10848000F04FFEF7CDBD3146584603F0A2FC314611
:1084900008F1040003F09DFCE07B022830D117B006
:1084A0003146BDE8F04F1848001D03F092BC17B0EC
:1084B0003146BDE8F04F03F041BC0022314601F0E7
:1084C00077FE032C01D3012200E000220E48314642
:1084D0000C3001F06DFE022C01D3012200E00022DD
:1084E00009483146083006E0217A002908D1617A2E
:1084F000C1F3C002314617B0BDE8F04F01F058BEDD
:1085000017B0BDE8F08F0000802D002010B50446A4
:108510000748007800280AD0204602F0D7FB204602
:1085200009F018F92046BDE8104001F0C3BF10BDA6
:10853000E02400202DE9F04F8BB01F46DDE9144BFD
:10854000DDF8589090468A46060045D0A9F57F414F
:10855000FF3943D0E51CA8B2ADF82000082837D871
:1085600007AA4946D6F87801FFF74BF8002830D122
:1085700007988DF810A08DF811800B308DF81270CF
:10858000079004AF24B122465946F81CFDF76EFF50
:10859000BDF8202004A90798FDF768FF002000908F
:1085A000019002900390B6F85E11ADF8040008A89F
:1085B000ADF80010CDE9020701218DF802106946DF
:1085C0004846AEDF002804D102990988A94200D0AC
:1085D0000C200BB0BDE8F08F0E20FAE70820F8E77A
:1085E0002DE9F04391B00C4605000DD064B1A07A9E
:1085F0000A2805D8207C0A2802D8207E0A2805D916
:10860000072011B0BDE8F0830E20FAE7206828604B
:1086100060686860A07AA874207C85F87800207E65
:1086200085F8DE0001268DF8226041F61200ADF8D3
:10863000200005F1080208A93046A8DF0028E0D193
:10864000002709E0A06B01AA30F817102889A9DFDC
:108650000028D6D17F1CFFB294F83600B842F1D87A
:10866000207A4FF0000808B9607A38B394F83C904B
:1086700094F83D708DF8306020216846FDF70FFFBB
:1086800042F64E20ADF800000CA802909DF80D00B7
:10869000ADF8046040F006008DF80D008DF81190E3
:1086A000ADF806608DF812708DF80F60288905F11D
:1086B0000A02694600F05EFD0028A2D12146284644
:1086C00002F0A2FD00289CD1207C18B3606908B399
:1086D00000271CE06069CDF8108000EBC7039DF80F
:1086E000100007EB870140F00E008DF8100005EB3D
:1086F0004100191D7A30CDE9001033F8022B04A98E
:10870000284608F0B7F9002899D17F1CFFB2207CD9
:10871000B842DFD8207E18B3E06908B300271CE018
:10872000E069CDF80C8000EBC7039DF80C0007EB67
:10873000870140F00A008DF80C0005EB4100191D7F
:10874000E030CDE9001033F8022B03A9284608F0E9
:1087500091F90028B1D17F1CFFB2207EB842DFD84A
:108760002146284608F0D3F90028A6D1207A70B314
:1087700005F5A770009004F14203082242F6222179
:10878000284600F0EBF8002897D120216846FDF735
:1087900086FE42F63220ADF800009DF80D00ADF8DF
:1087A000046040F00E008DF80D0094F845008DF83F
:1087B000110094F846008DF812008DF80F6028899A
:1087C00005F5AB72694600F0D5FC00289CD1607AB3
:1087D00060B105F5AF70009004F13F03082242F646
:1087E0003321284600F0BAF800288DD121462846CA
:1087F00002F07BF9002887D194F83E708DF808804C
:10880000202109A8FDF74BFE42F64C20ADF82400CC
:108810009DF83100ADF8286040F004008DF831007B
:1088200002A88DF83670ADF82A600B90288905F5FE
:10883000B77209A900F09EFC00288BD1E168C5F849
:108840007C116169C5F88011E169C5F88411D8E629
:108850002DE9F04786B09846DDF838A016460F4659
:1088600004001ED0B8F1000F1BD0A07CB8424FD935
:1088700007EB870004EB4000AAF57F4100F11409E3
:10888000FF3943D0ADF81460002504AA5146D4F84E
:108890007801FEF7B6FE002804D104981330049046
:1088A0000BE00E2006B0BDE8F08700BF30F83500C1
:1088B00004996D1C0844EDB20490D4F87C01BD42CB
:1088C000F4D330F83700B0421ED332464146049804
:1088D000FDF7CCFD00200090019002900390B9F8C4
:1088E0000010ADF8040005A8ADF80010CDE90208AD
:1088F00001218DF8021069465046AEDF0028D1D123
:1089000002990988B142CDD00C20CBE70820C9E7F5
:108910000720C7E70A46014610460A88102A05D0F4
:10892000502A05D0512A05D105F066BE05F08ABC53
:1089300005F0CABE704770B504460D460846FDF7FF
:10894000B9FD2080656070BD007800F001007047BF
:108950000A78027049784170022070472DE9F04191
:1089600088B00F4605461C46164620216846DDF8AD
:108970003880FDF794FD9DF80D00ADF8007040F0D3
:108980000201ADF804608DF80D10607810B141F06F
:10899000080101E021F0080141F010008DF80D0000
:1089A00020788DF8110060788DF81200A0788DF88D
:1089B000130001208DF80F0028894246694600F017
:1089C000D9FB08B0BDE8F0810149085C70470000A0
:1089D000B52A03000649095C4FF0A040D0F8100505
:1089E000C84010F0010000D0012080F00100704765
:1089F000B52A03002DE9FC410646C0074FF00005EB
:108A00000ED0104F00240122385D0095002311463E
:108A1000019503F06FFF641C042CF4D300F046F8BA
:108A2000B0070DD5074E0024361D0022305D03230C
:108A300000951146019503F05DFF641C042CF4D3EE
:108A4000BDE8FC81B12A030007490B5C4FF0A0414F
:108A5000D1F804250120984020EA0203C1F8083526
:108A60001040C1F80C057047B12A03000249085CA8
:108A7000012103F0F6BF0000B12A03000249085C9F
:108A8000002103F0EEBF0000B12A03000649095C93
:108A90004FF0A040D0F80405C84010F0010000D00D
:108AA000012080F001007047B12A030010B50024B6
:108AB0002046FFF7DBFF641C042CF9D310BD10B572
:108AC00000242046FFF7DAFF641C042CF9D310BD04
:108AD00010B50246064B4FF0FF3000215C5C94421B
:108AE00001D1084610BD491C0429F7D310BD000070
:108AF000B52A030070B50C4E0C004FF00005306035
:108B00000BD0012000F06AF808B1022004E0002038
:108B100000F064F800B10B202070706810B9FEF707
:108B200024F90546284670BD9C24002010B500207D
:108B300000F0F8F908B1062806D1012000F0F2F99A
:108B400008B1062800D1002010BD00002DE9F04733
:108B50000D468146FFF7BCFF0446042836D2DFF8F5
:108B600074801B481C4EA8F10C0725B3012D0ED0B4
:108B7000022D2BD104EB440030444578002D25D044
:108B8000B968002922D02846BDE8F047084704EB21
:108B90004401755C0E44717849B10E4A4FF480412E
:108BA000093A8068FEF70EFB08B987F80390B178A0
:108BB00008F80410E2E78068FEF71CFB04EB4401B0
:108BC000314418F804008D78A842D7D0BDE8F0876A
:108BD000BC2A030098240020F82C0020042801D28D
:108BE000FFF7F8BE00207047011F1E4810B54088EF
:108BF0004FF6FF726FF004030E291CD2DFE801F07C
:108C00000B1B1B141B1B071B1B1B1C21252ABDE850
:108C1000104008F08BBD132176DF0AE000280AD04F
:108C2000BDE81040FEF7FCB9904204D10E48FEF7B3
:108C300019FF0828F2D110BD9042FCD0002118463F
:108C40000CE09042F7D0194607E09042F3D00021A3
:108C5000052003E09042EED005210020BDE8104041
:108C600002F04CBF582200201C28002070B50023C1
:108C7000042810D20D4D00EB4004012A02D1012935
:108C80000CD00022094E00EB4000304461B10129B4
:108C900006D0022906D00723184670BD0E30C2B296
:108CA0002A55F9E74270F7E78270F5E7F82C0020C3
:108CB000044A014600201279D20702D0084600F08B
:108CC0004DB870478C24002070B506461E4800241D
:108CD000C0E90161B00720D50025012211462846D0
:108CE000FFF7C4FF6D1C0446042D02D2002CF4D003
:108CF00013E094B940F2333204211448FEF70EF920
:108D000004000AD1FEF7F8F8040006D10F48104A13
:108D10000021001FFEF71CFA0446F00712D00120C4
:108D2000FFF768FE74B909480A4A00210C38FEF7BB
:108D30000FFA040006D10548074A01210838FEF75A
:108D400007FA0446204670BD8C240020C82A030080
:108D50003190020091B40200E76E02002DE9F05F4D
:108D60006E4C054600266078B34618B184F801B011
:108D700002F076FB6A4F4FF47A694FF4C87A4FF0ED
:108D80000108182D69D2DFE805F00C131338475499
:108D9000696E727B727BC58484848484B3B6B9BCEB
:108DA000C5C502F05DFB3868FEF724FA06465CE0B4
:108DB0000020FFF76BFE00284FF0000008D0FFF7FF
:108DC00055FE022D02D14FF4E16008E0484606E06E
:108DD000FFF754FE022D01D1C82000E05046410C9F
:108DE000C0034FF47A72801841F1000125705200DF
:108DF0000023FDF7F7FA01462AE00020FFF746FEC0
:108E000000284FF0000004D0FFF730FE4FF4487008
:108E1000E5E7FFF733FEDFE70020FFF737FE002826
:108E20004FF0000002D0FFF721FECFE7FFF726FE4C
:108E3000D4E70020FFF72AFE00284FF0000002D000
:108E4000FFF714FE01E0FFF719FE257040F6CD4153
:108E500000223868FEF7B6F9064646E00020FFF724
:108E6000F3FD257008E0002051E025703DE084F816
:108E700001800120FFF7E8FD002240F26661E8E78B
:108E800084F801800120FFF7DFFD00224FF400513C
:108E9000DFE77868FEF7AEF90646D5F1110000D09D
:108EA0002EB10220FFF7E2FD84F802B01DE0012898
:108EB00016D980B2C8214843C117C90341EA5041BD
:108EC000C0034FF47A72801841F100015200002370
:108ED000FDF788FA014600227868FEF773F9064626
:108EE0000220FFF7CBFD84F802803046BDE8F09FFA
:108EF00002F0B6FAB9E702F0B3FAB4E702F0B0FA5A
:108F000004E002F0ADFA0020FFF7B8FD0120FFF702
:108F1000B5FDAAE7FFF7D3FDA7E700008C240020EA
:108F2000BC2A0300012109F0FEBA00002DE9F84F28
:108F30000546861C00208DF8000091460F464FF034
:108F4000010A6846FEF75CF91B4C04F21C48606895
:108F50003860D4E90101194F401A3968081A0EE047
:108F60000121404602F048FF02F024FC0146404641
:108F700002F042FFD4E90101401A3968081A401C86
:108F80008642EDD8B9F1000F03D0052065F38910B2
:108F900002E0062065F39F5061683A68114004EBD7
:108FA0008101C8606068304460609DF80000FEF791
:108FB0004BF95046BDE8F88FB035002090260020D0
:108FC00070B50D4604460A2902D10D21FFF7F8FFBE
:108FD000A0682268411CA1601554D4E901018142B6
:108FE00004D32046BDE8704003F049B970BD0000CD
:108FF000044881684068814201D101207047002007
:1090000070470000B0350020034630B50748002106
:109010000478426806E000BF02EBC10005789D427B
:1090200003D0491CA142F7DB002030BDD825002029
:1090300000780221FFF78ABD1CB5044601F0E0FF6D
:1090400000236A46092105F0ABFF052805D1034836
:10905000012241792046FEF7C7FF1CBDAC24002049
:109060001CB504460020009042F6A620ADF8000092
:1090700001208DF80200084801AA694600680190A5
:109080002046A0DF002805D104480122817920462E
:10909000FEF7AAFF1CBD0000E82A0300AC24002054
:1090A00005494FF0FF32082841F8202002D3084438
:1090B00080F8482070470000EC300020F0B54FF0F9
:1090C000FF3512B10023082601E008230C260C4CC2
:1090D00005E000BF54F823707F1C04D05B1CB34232
:1090E000F8D32846F0BD26185DB286F8305044F813
:1090F0002310002AF5D1E11881F84800F1E70000BB
:10910000EC3000200249084490F93000704700001C
:10911000EC3000202DE9F04188B01E46DDF83880A3
:1091200014460D00074602D10020FDF779FF14B95F
:109130000020FDF775FF20216846FDF7B0F99DF886
:109140000D00ADF8044040F002008DF80D00084815
:10915000ADF80070ADF8064002958DF811604246FA
:109160006946008800F006F808B0BDE8F08100000C
:109170006E2500202DE9F0438146887891B0904615
:109180000C4600B901208DF83E002088ADF83C0067
:1091900000250095607C694608F0B0FA6E46A07C18
:1091A000711C08F0ABFAE07B00289DF8020002D0A9
:1091B00040F0080001E020F008008DF80200217C5A
:1091C00011B140F0100001E020F010008DF8020015
:1091D000217B11B140F0010001E020F001008DF889
:1091E0000200217D09B1022100E0012161F342006A
:1091F0008DF802001C2102A8FDF751F9607BC10621
:1092000001D4800617D50E950EAFE07C791C08F0CE
:1092100075FA9DF83800079720F00F00401C20F0E9
:10922000F00010308DF838009DF83A0020F006006C
:10923000801C8DF83A00607B8DF80800A07B8DF8CB
:109240000900142109A8FDF72AF90FA8CDE909069C
:10925000A088ADF83000A06820B1E088ADF82C00FF
:10926000A0680D90A06998B301950088ADF8100032
:10927000A06901AD01A94088ADF81200A06940685D
:1092800006950390A069007B08F038FAA069691C74
:10929000407B08F033FAA069807A00289DF8060028
:1092A00002D040F0080001E020F008008DF8060030
:1092B000A169C97A11B140F0100001E020F010005E
:1092C0008DF80600A169097A19B140F0010002E0A9
:1092D0000DE020F001008DF80600A169897B09B13D
:1092E000022100E0012161F342008DF80600E069EF
:1092F00000B10590434609AA02A94846AADF11B069
:10930000BDE8F08370B504464FF6FF750A4628465F
:10931000AC4209D14FF480742146104602F029FD79
:1093200080B2A0420BD070BDFF2CFCD82146104665
:1093300002F00FFD90F0010F01D0204670BD2846CD
:1093400070BD000070B5084C050009D010342168CC
:10935000002907D008682060496828468847F6E752
:109360000834F4E770BD0000D8300020054A012120
:1093700020B1012805D19170FFF7E4BF51700020A2
:10938000FAE77047D830002010B5D0E90234D1E9AF
:109390000220D11AA04101D3012010BD002010BD30
:1093A00073B58CB00646002000900D9880B1002463
:1093B0006D4621460DA802F001FD30B1009805EB85
:1093C000400084800098401C0090641C142CF0D352
:1093D0002C2269463046FDF749F80EB070BD2DE9E4
:1093E000F04117880646B81D14460D46984202D92A
:1093F0000C20BDE8F0813188072206290AD34FF4FA
:10940000486C4FF6FF73614501D9994202D17088CB
:10941000062801D21046ECE7604501D99842F9D1FF
:10942000994203D0984201D08142F3D80520E855F3
:1094300020881221401C80B2208029542088401CA2
:1094400080B220804119308808F017FF2188084435
:1094500080B220804119708808F00FFF21880844ED
:1094600020800020C5E7FDF7DBBD000038B54A7A53
:109470000F4B62B100220A725969002906D00122FD
:109480008DF80020ADF802006846884738BD0A7A9A
:1094900062B19B684C68024619462046FDF792FE71
:1094A0000028F3D0BDE8384007F000BF5B68F1E763
:1094B0005C2D0020F0B585B016460F4604461D46CB
:1094C00014220B496846FCF7D1FF0A488DF8087052
:1094D000ADF80240ADF80A608DF80C50017800221A
:1094E0002046FEF781FD684600F02EFC05B0F0BD79
:1094F000342C030050250020FDF76CBB70B588B0FC
:109500000646002005900690ADF81410ADF8161030
:109510000190029001AA05A9304690DF050021D0F4
:1095200004F014F90346114811493246401AC108A3
:10953000012000EB014004460E4903F0B4FCBDF8E5
:10954000042012B9BDF8060028B1BDF80630204647
:1095500009A103F0A8FCBDF808201AB1204616495D
:1095600003F09AFC08B0284670BD000014470300C1
:10957000FC4603005434030054686520726571751D
:1095800065737465642054582F5258207061636B62
:109590006574206C656E67746820697320746F6FE2
:1095A000206C6F6E672062792025752F2575206FDE
:1095B00063746574732E0000A034030070B5044614
:1095C0000948012102F033FCBFF35F8F002500281A
:1095D00008D1204602F068F8002803D1BFF35F8F5E
:1095E0000148056070BD0000B82400202DE9FF414E
:1095F0000C4620B14FF4064004B0BDE8F08120795C
:10960000002748F2096538B141F61D5601281BD0E4
:10961000022826D0681DEFE70220207102970397E9
:10962000E0680190694601A807F03CF950B1029842
:109630008188E18000882081BDF80010029807F041
:10964000AFF9D9E72846D7E70A4B6A460021A01DA3
:1096500007F0E0F838B1074918398F61CF61A842A7
:10966000CAD13046C8E703488188019807F098F9C5
:10967000F5E7000048260020F0B587B00C46074605
:109680001646142101A8FCF70AFFA07800B90120B2
:109690008DF81A002088ADF8180006A80190A0796E
:1096A000694608F02BF86D46E079691C08F026F849
:1096B000E07800289DF8020002D040F0080001E0A8
:1096C00020F008008DF80200217911B140F010005F
:1096D00001E020F010008DF80200617911B140F036
:1096E000010001E020F001008DF80200217A09B1AB
:1096F000022100E0012161F342008DF80200029591
:109700006089ADF80C00A089ADF80E00E089ADF8D5
:10971000100020690590324601A93846ABDF07B03A
:10972000F0BD000070B500240F4D10E0686800EB3C
:10973000C406307804F034F97178012901D0012190
:1097400000E000214140307800F052FA641C287893
:109750008442EBDBD5E90401084303D0BDE8704047
:1097600008F0D8BB70BD0000D825002010B507F068
:1097700073FB02490C20C1F8000710BD180000500F
:1097800010B50021024802F052FB80F3100010BD1A
:10979000CC3900204FF480328A400168C1F8482358
:1097A0000068C0F8082370474FF4A07202EB8101F3
:1097B00089B200F08DBA2DE9F04105460E464FF40E
:1097C000A07000EB860081B228684FF48034B4406A
:1097D000984622F07F47C0F808432868C0F84843FD
:1097E000286803F023FD286800EB8600C0F8407568
:1097F0002868C0F84443B8F1000F02D02868C0F8C8
:109800000443BDE8F0810068D0F80405704700000B
:1098100070B54379234C44F823204279231D03EB90
:10982000C202224C1579204A121BD4082DB10825FA
:10983000022000EB04401EA130E005680A88C5F84C
:10984000082590F904208978002A4FEA411104DBA9
:1098500002F1E02282F8001405E002F00F0202F1AA
:10986000E02282F8141D90F904100122002909DB7E
:1098700001F01F0502FA05F54909890001F1E0210F
:10988000C1F800514179002503EBC1010A7141790A
:1098900043F83100032000EB04400EA103F0F8FA76
:1098A000284670BD2426002094470300FC46030090
:1098B00052544320696E7374616E636520616C72EB
:1098C0006561647920696E697469616C697A65643F
:1098D0002E0000005254433A20696E697469616C2D
:1098E000697A65642E00000090F90400002809DB05
:1098F00000F01F02012191404009800000F1E020AA
:10990000C0F8001270470A46022100F067B94FF410
:10991000827100F0DDB900680121016070470068C4
:109920000121416070472DE9F05F07460C464FF476
:10993000A07000EB84001FFA80FA38684FF480367C
:10994000A6409B4622F07F45C0F848633868C0F8BF
:1099500008633868D0F8048500EB8402D2F840959B
:10996000C2F840855146386803F060FCA9EB080056
:1099700020F07F40012806D1102003F053FF51460C
:10998000386803F053FC3868D0F80485C0F84463A5
:10999000A5EB080121F07F413868012900EB840024
:1099A00010D0C0F840553868D0F804156FF07F4CDF
:1099B0006A1A521E22F07F42ACEB0B03934217D37C
:1099C00062B118E06D1CC0F84055102003F02AFF6A
:1099D0003868D0F8040540450AD10CE000EB84005B
:1099E0006D1CC0F840553868D0F80405884202D094
:1099F0000D20BDE8F09F01223146384600F0EEF818
:109A00000020F6E713460A460021FFF753BD000089
:109A10002DE9F843104D0F4680461E469146694693
:109A2000286802F05FF9040014D01C21FCF737FD10
:109A300001202071C4F81490380BC4F80080C4E9E8
:109A400002606946286802F06EF906F04BFE0020BD
:109A5000BDE8F8830420FBE7302D030010B5037840
:109A60000022072B06D2DFE803F0050406102029A8
:109A700030000A7010BD01230B7003898B8183882D
:109A8000CB81C06888600A7410BD02220A70028906
:109A90008A818288CA81C2688A60807D062802D055
:109AA0000020087410BD0120FBE703220A70C28861
:109AB0008A810289CA81C068886010BD04230B7046
:109AC000C0888881CA818A6010BD0520087010BDD9
:109AD00070B5064D0646002455F8241009B13046ED
:109AE0008847641C042CF7D370BD00008832002026
:109AF00030B50446006887B00D46806800281FD046
:109B000018216846FCF7CBFC0195A06805902079E8
:109B100010B1012810D107E001208DF80000206964
:109B20000290E068039005E002208DF80000E068F4
:109B30000003029060690490206881686846884745
:109B400007B030BDF0B585B017460C0005463AD0D9
:109B5000112C38D0082C36D01C481D49401AC60894
:109B60000D2C11D0204603F0F1FD0246012000EB40
:109B700006402B46174903F096F92A460721684606
:109B800002F064F802941BE0022000EB06402A4633
:109B9000114903F081F92A460321684602F056F87C
:109BA00027B13878C00701D0012000E002208DF8ED
:109BB000080000208DF80C0041F20110ADF80A00F9
:109BC000684600F0CFF805B0F0BD00004447030040
:109BD000FC460300C43E0300B43D03000368C3F821
:109BE0004413002A02D00068C0F804137047000034
:109BF0002DE9F84F0E463449804601EB5001C0076D
:109C0000097801D00F0901E001F00F074FF00009BA
:109C1000424601204946FCF716FCDFF8B0A0044696
:109C20000D46052F4ED2DFE807F003161B282C0047
:109C3000002E47D00121404608F022F88DF8009010
:109C40006846FDF7DDFA5046D0E904120C4315438F
:109C5000CAE9044532E00EB1022114E0002112E00D
:109C60004EB10321404608F00BF84046BDE8F84FDE
:109C7000012108F0E1BB012105E0002E22D10421E1
:109C800001E02EB103214046BDE8F84F07F0F8BFD0
:109C90000021404607F0F4FF0021404608F0CCFBCD
:109CA0008DF800906846FDF7ABFA5046E243D0E9E4
:109CB00004341A4024EA0501CAE904219DF8000091
:109CC000FDF7C2FABDE8F88FE8310020D825002062
:109CD00010B5006842581AB103F0A8FA012010BD6F
:109CE000002010BD10B50446408801F089F9A0801D
:109CF000024801682046BDE810400847B42400200F
:109D000010B50446808801F04FF860800248016871
:109D10002046BDE810400847C42400202DE9F0414A
:109D200007460024064E074D05E000BF56F82410F4
:109D300038468847641CE8788442F7DBBDE8F08148
:109D40008C300020E024002010B50446408801F04B
:109D500057F9A080024801682046BDE81040084736
:109D6000F42B03000149096808470000702C030028
:109D700070B586B0044614216846FCF790FBA089B4
:109D80000125A0F54040ADF8040020782F4E0628AC
:109D900033D2DFE800F0320303032C4AA08900F03D
:109DA000EBF930B9E08943F6FE71A0F540408842F6
:109DB00023D8A07B8DF80800207803280FD000203E
:109DC0008DF80900A0680390606850B109208DF8F3
:109DD000000060680490684605F034F80DE001204A
:109DE000EEE708208DF800008DF81050F3E7A08909
:109DF00000F0C2F908B1E08930B17078002801D0D4
:109E000005F076F906B070BD606830B10B208DF8B2
:109E10000000606802907570DDE70A208DF8000090
:109E2000BDF8040005F008FAF5E7606848B11420B1
:109E30008DF80000606802904FF6FF70ADF80400E6
:109E4000C9E713208DF80000F6E70000CC240020BD
:109E500038B504460F480078B0B1A4F57F40FF380C
:109E60000FD0684606F06EFB88B105210170012114
:109E70000171C480684606F073FB06F025FC0020E3
:109E800038BD48F2036038BD48F2016038BD48F281
:109E9000076038BD502600200D4808B5007888B10D
:109EA000684606F04FFB80B106210170684606F057
:109EB00057FB0848017809B10121017306F004FC41
:109EC000002008BD48F2016008BD48F2076008BDE7
:109ED000502600204C330020F0B587B0142168468E
:109EE000FCF7DDFA304C207818B16846FFF7F0FD3A
:109EF00057E0201D01F07DFF98BB40F6F870016827
:109F0000481C02D14FF0102041694FF08050026987
:109F100040694B1C01D100FB02F124480022016181
:109F2000A1F54051C160224902F03EFB002823D137
:109F300021481C238C221F49006801F0C0FE04F058
:109F40000DFD050016D0022D14D000270126062D88
:109F500014D005A806F0F6FA98B106700C2D1BD2A5
:109F600000E01EE0DFE805F01810181018171817A9
:109F70001812141248F20A6007B0F0BD267067602C
:109F8000B3E748F20760F7E7077105E0032100E057
:109F90000221017100E0067105A806F0E1FA06F061
:109FA00093FB0020E8E7000050260020EC2600206C
:109FB000402D030098320020A82C030038B504007F
:109FC00014D0694606F06EFCB0B1BDF8000000EB9D
:109FD00080010B4800EB8100C16851B1A17A41B109
:109FE000C168491EC1600020A07238BD48F20460FB
:109FF00038BD48F2056038BD48F2096038BD000040
:10A00000243300201FB501A9684606F003FC04B004
:10A0100010BD07B513460A466946002006F0FAFB54
:10A020000EBD07B513460A460021684606F0F2FB4E
:10A030000EBD20B119B1006808600020704748F2D9
:10A0400004607047F8B50D46040018D0BDB16946EC
:10A0500006F028FCB0B1BDF800000C4900EB800010
:10A0600001EB800001210C30666801F0C5FE2E6016
:10A0700060680C3068600120A0720020F8BD48F2D2
:10A080000460F8BD48F20960F8BD000024330020E8
:10A0900018B10323002208F0CBBB48F204607047DC
:10A0A0000223002208F0C4BB094910B50A69042A3A
:10A0B0000AD0084A096942F82100054801211030F8
:10A0C00001F09AFE002010BD48F20B6010BD0000A8
:10A0D00030260020883200202DE9F84F044624481D
:10A0E0000078D8B1F4B112212046FCF7D8F903204A
:10A0F000DFF880902080002504F1100804F10E0A9A
:10A1000005EB850109EB810630897189084487B226
:10A11000706804F0ADFB032807D009E048F2016045
:10A12000BDE8F88F48F20460FAE72088401E2080DE
:10A130006088F16808446080208971890844208122
:10A14000608938446081C7F58060A18980B281420E
:10A1500000D2A0815346A21D211D2846CDF80080C3
:10A1600006F03CFC6D1CADB2022DC9D30020D7E730
:10A17000502600202433002043F6FE71A0F5404015
:10A18000884201D8012070470020704710B504466E
:10A190000078182802D1FDF703FF207010BD10B51C
:10A1A00004460078182802D1FDF7FAFE207010BD91
:10A1B0000AB101F00EBE01F0C1BD70B50D460446F6
:10A1C000B0F81414D0F810040122FDF7FFFA00B122
:10A1D000057004F13C0204F5826104F1540072DF61
:10A1E00070BD000070B5134600220546112900D14C
:10A1F0000122074C33B12179FDF7F6FE0022617888
:10A20000284600E06178BDE87040FDF7EDBE000033
:10A2100058250020F7B517460E0011D000980025EC
:10A2200060B100242146684601F0C8FD18B1A0B213
:10A230003946B0476D1C641C142CF3D32846FEBD70
:10A240000020FEBD406806F09DB900000EB517A1C4
:10A250009DF8080020F00F00401C20F0F0001030A6
:10A260008DF808000A2202A87CDF08B1FCF7D8FEAE
:10A2700040F2C23078DF08B1FCF7D2FE0020009037
:10A2800001900620ADF800000C20ADF8020014206B
:10A29000ADF804004FF49670ADF8060068467ADF1A
:10A2A000002801D0FCF7BCFE0EBD00006E52463502
:10A2B0005F4D6F757365000070B510B14FF40640C7
:10A2C00070BD1A4C0025207B08B1257301E000F019
:10A2D000A1F82078082826D2DFE800F02504080C31
:10A2E00010251420BDE8704000F022B8BDE8704091
:10A2F00000F07EB8BDE8704000F060B8BDE8704086
:10A3000000F03CB86088094900EB8000283901EB77
:10A3100080004068BDE8704004F000BB6560BDE8A7
:10A32000704004F009BB48F20E6070BD4C33002051
:10A330001149F0B48A1C00200346A1F128050C182D
:10A34000A67A4EB1A37200EB800405EB8404E668A4
:10A3500016B9247C012C0AD0401C80B20228EED30E
:10A360000B704B804B60F0BC41F61D507047108065
:10A37000F0BC00F03DB800004C3300200C48418890
:10A3800001EB8102A0F1280101EB8201CA6852B100
:10A390000521017007480221818001680023012204
:10A3A000054802F065B8042202704968F6E700002B
:10A3B0004C33002058260020EC26002038B50A49EE
:10A3C000084803240B684268898803EB810153889D
:10A3D0000470DB1C00201B0400909B0B034802F060
:10A3E0009BF938BD4C33002058260020EC26002075
:10A3F000074910B54888091D06F0A4FA18B1BDE850
:10A400001040FFF7DBBFBDE81040FFF7B7BF00000B
:10A410004C33002070B5194C0121207808281AD23D
:10A42000DFE800F00419191C252929182089134A8E
:10A43000401C2081002060802073283A00EB8003BC
:10A4400012F8233043B100232518401C80B2AB72B0
:10A450000228F3D3217070BD0123F5E76068084935
:10A4600040888A88C01C10448880022004E000F0E4
:10A4700009F8062000E00720207070BD4C33002052
:10A48000582600200A4909484988026801EB8103DF
:10A490000749283901EB83014B6803604A608288D1
:10A4A0000A8102228280002008747047582600200A
:10A4B0004C3300202DE9F043064680883288DFF8CF
:10A4C0005C8185B00746502A37D010DC5449554B83
:10A4D00006F10A05A1EB03014FEAD1014FF0020397
:10A4E00003EB0144352A3AD0362A07D168E0522AD4
:10A4F00002D0542AF9D102E001F07AF882E0142265
:10A5000049496846FBF7B2FFADF80270384600F0E3
:10A5100077FDADF8040000F0C9F90022444698F830
:10A5200004103846FDF760FD0022E1783846FDF75B
:10A530005BFD6846FFF7D6FB64E0307B012861D104
:10A54000B07A01285ED13089A0F52451023959D161
:10A550000121384601F0A0F807F0FEFE52E098F81D
:10A560000610FDF729FD00284CD0002298F80610AF
:10A570003846FDF739FDF288B2F5857F17D012B164
:10A5800020462AA10BE02A88012A03D0204636A1C2
:10A5900002F082FC6A88012A04D0204641A102F020
:10A5A0007BFC04E0A98800223846A1DF08B1002125
:10A5B00025E0012298F807103846FDF715FD21E047
:10A5C0004FF0000998F80710FDF7F6FCD0B1002213
:10A5D00098F807103846FDF707FDF28812B12046BB
:10A5E00012A104E0AA88012A04D020462DA102F07D
:10A5F00053FC03E0A87900B1012081464946384662
:10A6000007F0A0FB0022364998F80200FDF76EFC27
:10A6100005B0BDE8F04306F0CDBE0000AC2400203C
:10A62000FC460300FC460300402B0300556E657892
:10A630007065637465642047415454207374617479
:10A640007573207768696C652067657474696E67D7
:10A650002043415220636861722076616C75653ACF
:10A6600020307825780000004D756C7469706C6539
:10A670002028256429204341522063686172616368
:10A6800074657269737469637320666F756E642C88
:10A69000207573696E6720746865206669727374CB
:10A6A0002E000000556E6578706563746564204304
:10A6B0004152206368617261637465726973746981
:10A6C000632076616C7565206C656E677468202800
:10A6D0002564292C2073746F726520302E000000D1
:10A6E0008D73020070B504460078002814D160888C
:10A6F00000F07EFF6588284600F09AF928B10748E7
:10A700000122C1782846FDF76FFC6088FEF794FCB3
:10A71000BDE8704007F020BE70BD0000AC240020F2
:10A7200070B5204C00252570FDF73AFC6070FDF7F0
:10A7300037FCA070FDF734FCE070FDF731FC2071B0
:10A74000FDF72EFC6071FDF72BFCA071FDF728FCD6
:10A75000E07162780121182A18D0A278182A15D041
:10A76000E278182A12D02279182A0FD06279182A92
:10A770000CD0A279182A09D0182807D004F10C00AF
:10A780000560BFF35F8F2170002070BD0648074A47
:10A79000801AC00801EB0040054902F079FB032054
:10A7A00070BD0000AC240020FC460300FC46030002
:10A7B000243003007CB504460078082837D1607A3D
:10A7C00058BB207A1C4E4FF6FF75012811D0072880
:10A7D00002D008282BD121E0A08800F0E5FA044639
:10A7E000A84224D0012100F057FF2046FEF724FCA8
:10A7F0001DE0A0886A46012104F046FA68B9019874
:10A80000007850B1A08800F0CFFAA8420FD0012202
:10A81000F178FDF7E9FB06F0CDFD08E0F0680128CE
:10A8200005D1BFF35F8F044900200C310860BDE8FB
:10A830007C4007F091BD0000AC24002010B50B480F
:10A84000FEF7E1FF094A083AD2E90434C018D2E918
:10A85000063244F10001C31A71EB020204D24FF038
:10A860008072801841F1000110BD00000826002010
:10A8700010B5C0B2FEF7C8FB0446007803F090F8AC
:10A8800001466078012801D0012000E0002090EA14
:10A89000010F08D00449D1E90401084303D1BDE800
:10A8A000104007F037BB10BDD82500201CB5054A65
:10A8B000D2E90212CDE900120022694604F0AAFB97
:10A8C0001CBD0000582B030003484FF6FF71818028
:10A8D0000121017000207047BC2400202DE9FC41BB
:10A8E000804600F08DFB002403250127A0F57F4161
:10A8F0002646FF3908D06A46082104F0C5F918B980
:10A900000198841D8688056832462B4621464046BC
:10A91000B1DF042804D0082804D00B2808D002E0B6
:10A92000112000E00020002F00D10B20BDE8FC81A9
:10A930000027A80701D50125E6E7344303D000240A
:10A9400026460325E0E7064806494246401AC00865
:10A95000012101EB0040044902F09EFAE5E7000006
:10A9600004470300FC460300EC3203002DE9FC41E0
:10A97000804600F045FBA0F57F410646FF390ED02A
:10A9800001252A466D1C0027ADB26B4608213046D2
:10A9900004F0C4F9040006D0072C33D033E043F2AE
:10A9A0000200BDE8FC81019903230A1D0B604046AB
:10A9B000891DB2DF040004D00C2C09D0052C09D06D
:10A9C00009E032460821104604F020FA04461AE055
:10A9D000012700E000240821304604F00DFA70B190
:10A9E00002F0B4FE0346094809493246401AC0083D
:10A9F000012101EB0040074902F055FA0324002F22
:10AA0000BFD100E00C242046CBE700000447030040
:10AA1000FC4603006C32030004488088A0F57F41A7
:10AA2000FF3901D006F0D0BC70470000BC240020E4
:10AA30000EB502A9019100F0E3FA6A46012104F083
:10AA400023F908B100200EBD019800780EBD00006A
:10AA50002DE9F04107464FF6FF761048B3DF78B195
:10AA600002F074FE02460E480E49401AC008012149
:10AA700001EB00400C4902F00FFA0320BDE8F08121
:10AA8000064C43F20305A41E324661883846AFDF08
:10AA9000A842F3D16088401C6080F5E7BE24002006
:10AAA00004470300FC46030020320300428800EB09
:10AAB00082020C328A4201D9022070478188A1F5B6
:10AAC0007F42FF3A06D0018821B18068401C01D046
:10AAD0000020704701207047884204D20068401C63
:10AAE00001D0012070470020704770B50C468AB035
:10AAF000064634F8300F8DF82000000A8DF821004A
:10AB0000A0788DF82200E0788DF82300042520211C
:10AB10006846FBF7C4FC42F64A20ADF800009DF8F9
:10AB20000D00ADF8045040F002008DF80D002079C2
:10AB30008DF8110008A8ADF806500290308906F58E
:10AB4000B3726946FEF716FB0AB070BD70B592B0DD
:10AB500018212D48FBF7A3FC2B480326012506806E
:10AB60008570C570022484714471047106818472F9
:10AB7000C57284734473047305828674C5748475C6
:10AB80004475047548216846FBF789FC1F4800900E
:10AB90001F48019000201C4903918DF81000882166
:10ABA000ADF824101B498DF8080008918DF8095064
:10ABB0008DF80A600590079040F201118DF8180099
:10ABC000ADF830108DF83F408DF832008DF836002A
:10ABD0008DF82C408DF83C400E908DF841408DF85A
:10ABE0003D408DF833608DF834408DF840408DF84D
:10ABF0003E4069460848FDF7F3FC002801D0FCF709
:10AC00000FFA12B070BD00002027002045E40200BA
:10AC10004D160300002400206C22002000B585B0F2
:10AC20000821034604914FF6FF7204A9684605F017
:10AC30007DF908B1FCF7F4F96846049904F092FC38
:10AC4000002801D0FCF7ECF905B000BD3EB5027854
:10AC500002230C46B3EB520F17D1B0F80110ADF838
:10AC60000010C1788DF802108188ADF80410807949
:10AC70008DF8060002AA01A92046FCF70BF9032271
:10AC800002A96846FBF71DFC08B100203EBD01206B
:10AC90003EBD000070B50D460446142810D2FDF7E5
:10ACA000BFF968B1084904EB840001EB4000D0F81B
:10ACB00002102960C188A980007AA871002070BDA7
:10ACC00043F2020070BD0000F42D002070B5018831
:10ACD00090B0102961D1011D2C226846FBF7C6FBFC
:10ACE0009DF804004FF6FF7603213446B1EB500F78
:10ACF0002BD004F04DF99DF804006D4640080ED0AD
:10AD000001280CD0022820D118E00D99281D1131FE
:10AD1000FBF7FEFF18B100BFBDF82C4015E00CAAF0
:10AD20000BA9072004F008F90028EED10DE00D99D9
:10AD3000281D491CFFF78AFF0028EDD10CAA0BA99A
:10AD4000072004F0F9F80028F1D1BDF80000B44262
:10AD500000EB8001124820F8114000EB41000199FE
:10AD6000C0F80210BDF80810C1809DF80A100172E9
:10AD700013D0BDF80000ADF82E000020ADF8304033
:10AD8000084E8DF82C000BAD044600BF56F8241079
:10AD900028468847641C022CF8D310B070BD000010
:10ADA000F42D00206C2B03002DE9F0414FF6FF76C7
:10ADB0000546B04213D00B4F002400BF04EB8400C3
:10ADC00037F81000A84206D12046FDF729F910B146
:10ADD0002046BDE8F081641CA4B2142CEED33046AA
:10ADE000F7E70000F42D00202DE9F043CFB00E4628
:10ADF0000746082903D907204FB0BDE8F08317B3F1
:10AE00000EB350204D90E846CDF830D1B82114A8AB
:10AE1000FBF745FB002043AA0DF15001C0EBC00336
:10AE200003EB00130B4442F82030401C0828F5D3F4
:10AE30002448254A0024801AC0080222C14602EB99
:10AE40000045884636E00022114610466FDFD3E702
:10AE500050216846FBF723FB37F814004DAB4BAA93
:10AE6000072104F09DF8052810D007280ED09DF882
:10AE70001100400812D0012810D037F814202846BD
:10AE8000124902F009F843F20220B5E737F814201E
:10AE900028460F4902F000F80520ADE7C4EBC400D6
:10AEA00000EB041101EB0800172209F10101FBF787
:10AEB000DDFA641CB442CBD3F2B2002143A86FDFA9
:10AEC0009AE700000C470300FC46030064330300CC
:10AED000EC3303003EB50C46054604F059F80BE090
:10AEE000BDF80000A04207D02846029900F00EF8F5
:10AEF00010B1BDF800003EBD01AA6946072004F06C
:10AF00001BF80028ECD14FF6FF703EBD2DE9F04153
:10AF10000C46054600F1110701F111061022491CEB
:10AF2000401CFBF7CEFA48B9681C00F089FA28B13A
:10AF3000601C00F085FA08B1012400E000243146CD
:10AF40003846FBF7E5FE3B780222B2EB530F0CD0FC
:10AF50000321B1EB530F08D03378B2EB530F04D079
:10AF6000B1EB530F01D0012100E00021084201D1D3
:10AF70008C4302D00120BDE8F0810020FBE701886E
:10AF800011B9421892780AB101207047491C08296A
:10AF9000F7D30020704710B50C460346FFF7EFFFCC
:10AFA00000280AD018882188884205D10822A11CCF
:10AFB000981CFBF786FA08B1002010BD012010BDD7
:10AFC000142804D2024A00EB800022F810107047C7
:10AFD000F42D002070B50546FFF7E6FE044628462E
:10AFE00003F056FE002808D1142C06D2034B04EBC4
:10AFF00084024FF6FF7123F8121070BDF42D00206B
:10B0000010B50446142808D2FDF70AF828B10449FF
:10B0100004EB840031F8100010BD4FF6FF7010BD36
:10B02000F42D00203EB5044603F0B2FF0EE0019976
:10B0300020464631FFF7AFFF28B9019920462A3153
:10B04000FFF7A9FF10B1BDF808003EBD6A4602A98E
:10B05000072003F071FF0028E9D14FF6FF703EBDD5
:10B060007CB514460A000A49097802D015688D4259
:10B0700003D323B11D688D4201D204207CBDCDE9EC
:10B08000004313460246034804F052F97CBD000019
:10B09000C8240020BC2E002070B50C4606469AB08D
:10B0A00010211848FBF7FBF9174800252EB324B3ED
:10B0B0000470620031461348FBF7D8F9382102A822
:10B0C0001895FBF7ECF9009518AB02AA214630461B
:10B0D000019504F02DF900280DD110AA0DF10801F9
:10B0E000C0EBC0030B4442F82030401C0828F7D3C3
:10B0F000E1B210466EDF1AB070BD0570002108463F
:10B100006EDFF8E7BC2E0020C824002010B50A49E5
:10B1100041600A4800F06DFE58B902F077FA07491D
:10B120001C238C22087404488C39001F006800F02E
:10B13000C6FD002010BD0000342D0300F8330020B0
:10B140002DE9F0412D4F002520B17D604FF40640E0
:10B15000BDE8F0810879012258B1294E01280CD0B0
:10B16000264C4FF002080834022820D0032841D191
:10B1700027E00A7103F0E0FB3AE0002000EB8001D9
:10B1800016F82110022908D0401C80B20228F5D3FD
:10B190003A707D6041F61D50DAE700EB800006F85A
:10B1A000205006EB8000406803F0B8FB20E00D71F2
:10B1B000A4F80480002301221248216801F058F904
:10B1C00016E00D71206803F0A9FB0D4923682831B2
:10B1D000498801EB810206EB8201D1F804C0C4F872
:10B1E00000C04B60A3880B81A4F8048006F82250AD
:10B1F0000028ADD07D6048F20D60A9E75026002000
:10B2000024330020EC260020FEB50646887A0D4641
:10B2100070B3E86860B3002427E0E86800EBC4037B
:10B22000002002909DF8080040F002008DF8080010
:10B23000597911B140F0080001E020F0080040F019
:10B2400010008DF8080004EB840006EB4000191D87
:10B250001430CDE9001033F8022B02A9304605F076
:10B2600009FC002805D1641CE4B2A87AA042D4D815
:10B270000020FEBD0146034802888A4200D000201B
:10B2800070470000482D00202DE9FC5F0E0083462A
:10B29000DDE90C47C6F1000098469246814600D48D
:10B2A0000846012503E000BF90FBFAF06D1C5045F5
:10B2B000FADAA84500D9454624B1002E01DB78070B
:10B2C00000D5641EB80702D5B8F1000F0AD0F80700
:10B2D00008D13CB1A54205D220215846641EFDF795
:10B2E0006FFEF6E7002E02DA4E462D2102E07807C7
:10B2F00003D52B215846FDF763FE07F00300022813
:10B300000BD1B8F1000F08D13CB1A54205D23021D4
:10B310005846641EFDF754FEF6E7CDE90047434664
:10B3200052463146584606F0BDFFBDE8FC9F00007E
:10B3300070B50D46044600684FF4887102F026FA95
:10B340004FF49071206802F021FA4FF49271206856
:10B3500002F01CFA4FF4A271206802F017FA4FF4C1
:10B36000AC71206802F012FA20681249C0F8041388
:10B370002068690740F30730090E002804DB00F15C
:10B38000E02080F8001405E000F00F0000F1E0205C
:10B3900080F8141D206840F30730002809DB00F016
:10B3A0001F02012191404009800000F1E020C0F817
:10B3B000001170BD100342000246002012685307BE
:10B3C00013D502F00300012802D002280CD105E0B9
:10B3D000C2F383100B68801C184404E00223086841
:10B3E00003EB925210440860012070470248007A33
:10B3F000002800D001207047F8330020F0B5848881
:10B40000A518944200D82246A41AC288D6189A4297
:10B4100000D81346D21A4B880788BB420CD3408809
:10B42000834209D88888A04206D3A84204D8C88895
:10B43000904201D3B04201D90020F0BD0120F0BDFF
:10B440000021425C0AB101207047491C1029F8D341
:10B4500000207047800701D000207047012070470E
:10B460000A4810B5807860B1002401E0022C06D0B3
:10B470002046FDF7FBFA641C042CF7D310BD03240F
:10B48000F6E7BDE81040FDF711BB00008C2400205A
:10B4900003480179C90702D00078FDF75FBC704707
:10B4A0008C2400201721018041800021017141710D
:10B4B0001B218171C17170472DE9FE4F2E4F9846B7
:10B4C00092460D00814601D000260DE0684600F04E
:10B4D000B3FB6A460021484603F032FB3878009EF1
:10B4E00010B99DF8090098B152463146484606F019
:10B4F000DFFA0446014600224846FEF773FE0D2C93
:10B5000037D008DCA4B3082C33D00B2C09D130E0A1
:10B510000520BDE8FE8F112C1ED0A4F54050023846
:10B5200027D0204602F012F90246144814494B462F
:10B53000401AC008012101EB0040124901F0B3FCA0
:10B540005FF00305B8F1000F04D0324621464846AB
:10B55000FEF7F8FA2846DCE72A46F9784846FCF771
:10B5600043FD5246B9784846FCF73EFD0025E9E721
:10B57000FFE72546E6E70000582500204447030082
:10B58000FC4603006C3E030070B50E460C491546A0
:10B5900004460978FCF710FD00280FD0204603F080
:10B5A00075FA00282A463146204603D0BDE870408F
:10B5B00003F072BABDE87040FEF724BA70BD000017
:10B5C0005025002070B5094D0646A978FCF7F4FC1B
:10B5D0000446E9783046FCF7EFFC01462246304647
:10B5E000BDE870400123FFF767BF00005825002029
:10B5F000F0B585B00546002714216846FAF74FFFDD
:10B60000A5F57F40ADF80250FF3825D02846FFF75A
:10B6100065F9040022D01B481B49401AC6080B2CB0
:10B6200022D0112C1ED0A4F5405002380ED0204656
:10B6300002F08CF80246012000EB06402B4613492D
:10B6400001F031FC2146284605F038FE10483A4604
:10B6500081782846FCF7C8FC05B0F0BD0E208DF8B7
:10B6600000000BE00127F1E70F208DF80000022019
:10B6700000EB06402A46074901F00EFC6846FEF73B
:10B6800031FBE3E7FC460300FC460300F430030013
:10B69000AC240020483103000A4602494978FCF7EF
:10B6A000A3BC0000AC2400202DE9F041002786B0A7
:10B6B00080463E46FFF75AF9040022D0112C22D0D2
:10B6C0001B481C49401AC508862C1ED0A4F54050C2
:10B6D00002380ED0204602F039F80246012000EB75
:10B6E0000540434614A101F0DEFB2146404605F02B
:10B6F000E5FD39464046FFF7CFFF06B03046BDE8CE
:10B70000F0810126F5E70127F3E714221A4968467C
:10B71000FAF7ACFE0220ADF8028000EB054042468D
:10B7200016A101F0B9FB6846FEF7DCFAE1E700007C
:10B73000FC460300FC4603006773636D5F6C6F6338
:10B74000616C5F64625F63616368655F75706461AB
:10B75000746528292072657475726E65642025737E
:10B7600020666F7220636F6E6E5F68616E646C65D9
:10B770003A20256400000000182B0300466C61731A
:10B78000682066756C6C2E20436F756C64206E6F3C
:10B79000742073746F7265206461746120666F72C7
:10B7A00020636F6E6E5F68616E646C653A2025641D
:10B7B000000000002DE9FF410026244800F016FBA0
:10B7C0002248001F074600F011FB214C2149A068C8
:10B7D00000900D6800E000986946284004EB800066
:10B7E0000C30FFF7E9FD0028F5D101AA009901EA24
:10B7F000050304EB8303491CDB6842F82030401C3E
:10B8000000910228F2D3019800F0030001280BD028
:10B81000022810D10198032101EB90500099BDF846
:10B820000A6001EB900005E00198BDF80A60C0F3E2
:10B83000831008440090384600F0D5FA08B100980B
:10B84000A06004B03046BDE8F0810000C839002097
:10B85000B03500209026002088B0FDF787FF4FF418
:10B860008041002001F092FB08B1FBF7D9FB01F009
:10B87000E5F9FBF779FC08B1FBF7D2FB464A012159
:10B880004648FBF765FC08B1FBF7CAFB44490320B7
:10B89000FDF71AFA08B1FBF7C3FB69460020FDF774
:10B8A00029F908B1FBF7BCFB01F07AFC08B1FBF702
:10B8B000B7FB01F05FFE08B1FBF7B2FB002469465D
:10B8C0000120009401F0E6FC08B1FBF7A9FB6846F3
:10B8D00001F060FD08B1FBF7A3FB324A0A21082002
:10B8E000FBF71AFC08B1FBF79BFBFEF7AFFC2D48FA
:10B8F0000021C43000F006FB08B1FBF791FBFBF719
:10B900004FFA05F0A5FE28485121016064214160ED
:10B910000121816001730146244805F013FD1C21BB
:10B920006846FAF7BCFD4FF4A030CDE900404FF473
:10B93000F020032502908DF80C501D48ADF80E4004
:10B940008DF81040CDE905406846FCF77BFA08B158
:10B95000FBF766FB03F0B6FC16481749401AC0080F
:10B9600005EB004015A101F093FA0C4800224FF4BA
:10B9700000410068FBF726FC08B1FBF751FB0020F3
:10B98000FBF75CFAFBF7A8FB01F066F90028F9D198
:10B9900001F01AFCF6E70000B1750200942A0300DA
:10B9A000E98B020038270020502C00206422002060
:10B9B00067940200B4470300FC4603004849442052
:10B9C0004D6F757365206578616D706C652073745B
:10B9D00061727465642E0000002360F30F03184643
:10B9E00061F3174062F31F60704770B51446828898
:10B9F0000E4605462088111D0144921C994201D82B
:10BA0000FE2A01D90C2070BD521C32542088FF211F
:10BA1000401C80B2208031542088401C80B220809D
:10BA20008119288806F029FC2188084480B22080EA
:10BA3000AA8842B1A96841B13044FAF717FD2088BD
:10BA4000A98808442080002070BD072070BD2DE922
:10BA5000F047C5881E1DB6FBF5F78946B6FBF5F124
:10BA6000044605FB176C407916686843DDF820A092
:10BA7000F718001F874200D9C61A166001E0246833
:10BA8000491E0029FBD1A5EB0C078846B74216D802
:10BA900018E004EB0C00001D09EB0803BAF1000FDD
:10BAA0003A4602D00146184600E01946FAF7DEFC95
:10BAB0002468F61B4FF0000CB844B54201D9374654
:10BAC00000E02F46002EE4D1BDE8F08730B50246F5
:10BAD00051B101F06FFA0021074C08E034F8213031
