:020000040002F8
:1060000070590020C1630200C9630200CB63020023
:10601000CD630200CF630200D163020000000000E4
:10602000000000000000000000000000D363020038
:10603000D563020000000000D7630200D9630200AC
:106040001D660200DB63020029670200DB630200B9
:10605000DB630200DB63020079650200DB630200A0
:10606000DB630200DB630200DB630200DB63020030
:10607000DB630200DB630200DB630200DB63020020
:10608000DB63020075660200DB630200DB63020073
:10609000DB630200DB63020085660200DB63020053
:1060A000DB630200DB630200DB630200DB630200F0
:1060B000DB630200DB630200000000000000000060
:1060C000DB630200DB630200DB630200DB630200D0
:1060D000DB630200DB630200DB6302000000000000
:1060E00000000000000000000000000000000000B0
:1060F00000000000000000000000000000000000A0
:10610000000000000000000000000000000000008F
:10611000000000000000000000000000000000007F
:10612000000000000000000000000000000000006F
:10613000000000000000000000000000000000005F
:10614000000000000000000000000000000000004F
:10615000000000000000000000000000000000003F
:10616000000000000000000000000000000000002F
:10617000000000000000000000000000000000001F
:10618000000000000000000000000000000000000F
:1061900000000000000000000000000000000000FF
:1061A00000000000000000000000000000000000EF
:1061B00000000000000000000000000000000000DF
:1061C00000000000000000000000000000000000CF
:1061D00000000000000000000000000000000000BF
:1061E00000000000000000000000000000000000AF
:1061F000000000000000000000000000000000009F
:10620000DFF80CD000F07AF900480047DDB4020056
:106210007059002030B450E8012F93B2C489234450
:106220008489A34228BF1B1B0489A34202BFBFF37A
:106230002F8F002007E0C3EA020340E80134002C5E
:10624000E9D14FF001000A6030BC704750E8012FDF
:10625000C2EA024240E801210029F7D1704730B478
:1062600050E8022F1FFAA2F3C488A34202BFBFF373
:106270002F8F00200DE0C48923448489A34228BFC6
:106280001B1BC2EA034340E80234002CE8D14FF064
:1062900001000A6030BC704750E8022FC2EA224277
:1062A00040E802210029F7D17047034653E8022F46
:1062B000D988B2EB324F4FF0000017BF92B241EADB
:1062C000014142EA014104E05A68B2EB324F08BF93
:1062D000012043E80212002AE8D1704730B4044696
:1062E00054E8000F0D4644E80053002BF8D1156028
:1062F00030BC704730B4044654E8000F40EA010552
:1063000044E80053002BF7D1156030BC704730B41F
:10631000044654E8000F00EA010544E80053002B4E
:10632000F7D1156030BC704730B4044654E8000F14
:1063300080EA010544E80053002BF7D1156030BC1A
:10634000704730B4044654E8000F00EB010544E800
:106350000053002BF7D1156030BC704730B40446B1
:1063600054E8000FA0EB010544E80053002BF7D1DF
:10637000156030BC704770B404464FF0000054E81C
:10638000006F0D68AE4207BF44E80023012044E8D7
:1063900000630E60002B1CBF0020F0E770BC70474C
:1063A00030B4044654E8000F88422CBF451A054615
:1063B00044E80053002BF5D1156030BC7047000055
:1063C0000648804706480047FEE7FEE7FEE7FEE78F
:1063D000FEE7FEE7FEE7FEE7FEE7FEE7A566020052
:1063E000016202002DE9F05F0546002092469B46BF
:1063F00088460646814640241BE0284641464746DB
:10640000224600F06BF853465A46C01A914110D309
:1064100011461846224600F016F82D1A67EB0108BF
:106420004F4622460120002100F00DF817EB00092D
:106430004E41201EA4F10104DFDC484631462A46C5
:106440004346BDE8F09F202A04DB203A00FA02F11F
:10645000002070479140C2F1200320FA03F3194352
:106460009040704700487047C02B030040EA01038A
:106470009B0703D009E008C9121F08C0042AFAD2FA
:1064800003E011F8013B00F8013B521EF9D27047BE
:10649000D2B201E000F8012B491EFBD27047002266
:1064A000F6E710B513460A4604461946FFF7F0FF13
:1064B000204610BD421C10F8011B0029FBD1801A98
:1064C000704730B504460020034600E05B1C934251
:1064D00003D2E05CCD5C401BF8D030BD202A04DB49
:1064E000203A21FA02F00021704721FA02F3D0404D
:1064F000C2F120029140084319467047064C074DEF
:1065000006E0E06840F0010394E807009847103483
:10651000AC42F6D3FFF778FE6442030084420300E6
:1065200070B58C1810F8015B15F0070301D110F855
:10653000013B2A1106D110F8012B03E010F8016B82
:1065400001F8016B5B1EF9D12B0705D40023521E05
:106550000DD401F8013BFAE710F8013BCB1A921C6D
:1065600003E013F8015B01F8015B521EF9D5A1426B
:10657000D8D3002070BD00002DE9F8430025DFF8D6
:1065800094804FF4807601242F460095304606F023
:1065900095F838B1D8F80403204203D0304606F00D
:1065A00083F82543361D64007F1CB6B2082FEDD357
:1065B0004FF4BE74204606F081F848B1204606F03C
:1065C00073F845F000456A460121002006F03CF8CA
:1065D00015F0FF0F16D0012600242E420ED008EB36
:1065E0008401D1F81005D1F81015C0F304200A4A2F
:1065F000C1F3014152F8242002B190477600641C97
:10660000082CEAD3002D02DA684609F085FCBDE8C3
:10661000F883000000600040BC30002070B54FF4EB
:106620008076304605F0B8FB114CB50560B13046B8
:1066300005F0B9FB0120C5F80803607920B90120F5
:1066400060712168002088474FF48276304605F05B
:10665000A3FB00280AD0304605F0A5FB0220C5F8B0
:1066600008032168BDE870400120084770BD0000A4
:10667000A825002002490248091F09680068084748
:106680000826002010B50021054A084600F09CFAB3
:10669000002803D0BDE8104000F08ABA10BD000009
:1066A000216F02001B4800B5016841F470010160D0
:1066B000BFF34F8FBFF36F8F4FF01022D2F800025D
:1066C000002803DBD2F8040200281FDA012007F0BB
:1066D00033FA1521C2F800120F480368002BFCD0D2
:1066E000C2F8041201680029FCD0002007F024FA47
:1066F000BFF34F8F07487C380168084A01F4E06116
:1067000011430160BFF34F8F00BFFDE70549044807
:10671000086000BD88ED00E000E401400400FA05D7
:106720000090D003C8260020014800680047000000
:10673000B025002002E008C8121F08C1002AFAD1C3
:1067400070477047002001E001C1121F002AFBD1F1
:10675000704700000121202803DA814005480140EC
:1067600003E0402802DA2038814009B10120704757
:1067700000207047FC06FFBD2DE9F843804643F238
:10678000020659B9694608F097FCB04202D008B138
:1067900000F00EFA9DF80000800744D40021404626
:1067A00008F094FC05003ED0112D3CD01F48204934
:1067B000401AC708022000EB07440D2D0AD00B2D0C
:1067C0001DD0B5421FD11B4920464246BDE8F843C3
:1067D00006F07AB920464246174906F075F91321AA
:1067E000404676DF00281ED006F0A4FD024601B028
:1067F00020464346BDE8F04310A106F06CB92046A0
:1068000042461C49E2E7284606F094FD0246012074
:1068100000EB0740434618A106F05DF92846BDE8A5
:10682000F84300F0C5B9BDE8F8830000CC4203008E
:106830009442030034340300C033030073645F6286
:106840006C655F6761705F646973636F6E6E6563CB
:106850007428292072657475726E65642025732012
:106860006F6E20636F6E6E5F68616E646C6520256D
:10687000642E000080340300417373657274696E86
:10688000672E20706D5F636F6E6E5F7365637572E8
:106890006528292072657475726E656420257320E1
:1068A0006F6E20636F6E6E5F68616E646C6520252D
:1068B000642E000010B560B159B102780B7852080F
:1068C000B2EB530F05D10622401C491CFFF7F9FD1E
:1068D00008B1002010BD012010BD800701D00020AC
:1068E000704701207047C3688B4206D81144006985
:1068F000491E814201D8012070470020704790F85E
:106900002400012801D01F207047EE20704710B5E9
:1069100001220221002001F061FF08B1072810D1F7
:1069200007220221012001F059FF08B1072808D1F0
:1069300000210A22084601F051FF08B1072800D1C2
:10694000002010BD00B5ABB0AC216846FFF7A7FD35
:1069500002208DF80000012006218DF802008DF83C
:106960000310164905918DF879008DF87A00002101
:10697000ADF8100020918DF87C008DF87D004FF46B
:106980004860249044F250608DF87B10219125904E
:1069900028210B482291299040F6B83109482391CB
:1069A0002A906946084800F011FD08B100F000F98E
:1069B0000121054800F005FD2BB000BD602200203C
:1069C00051DB0200C9730200E427002010B560B15A
:1069D0000D480E49401AC008032101EB00400CA1EC
:1069E00006F06EF809F0EEF906E001200BF092FBDC
:1069F00003210B4800F0CBFD002803D0BDE8104078
:106A000000F0D6B810BD00004443030094420300D8
:106A1000457261736520626F6E647321000000002F
:106A2000E427002070B58CB015460E4600236C4656
:106A3000C3F10F01415CE1545B1C102BF8D30D2115
:106A400004F11000FFF72BFD0020C0F10F02315CB4
:106A50002244401C11740328F7D3684646DF002007
:106A6000C0F10F01214491F820102954401C032843
:106A7000F6D30CB070BD022001F0A4BD0149C97865
:106A800001F012B83425002070B50024064D06E050
:106A90006868012110F8340006F0C0FC641C2878F6
:106AA0008442F5D3002070BDB8250020F8B5164605
:106AB0000C4605460A2A01D20720F8BD06F0A8FDBB
:106AC00018B906F06BFD0028F7D1134F10211348B9
:106AD0007D603C70BE60FFF7E2FC0020C7E9040067
:106AE0000F4E0DE005EBC4003168009181788DF800
:106AF000011000780B4A694606F0E0FC0028DCD162
:106B0000641EE4B2EED2BDE8F84005480021064A12
:106B1000001D00F0E5B80000B825002088310020F5
:106B20001828030095A402005D93020072B606F0D7
:106B300071F800BF05F0A8FE0028FBD111481249EA
:106B4000401AC408012000EB044010A105F0B8FF72
:106B500011480068C00700D000BE022000EB0440CE
:106B60000EA105F0ADFFBFF34F8F0B48E43801686D
:106B70000E4A01F4E06111430160BFF34F8F00BF83
:106B8000FDE7000044430300944203004661746142
:106B90006C206572726F7200F0ED00E053797374CF
:106BA000656D207265736574000000000400FA05CD
:106BB0000EB500210091CDE901106A4644F20100B2
:106BC000FFF7B4FF0EBD00002DE9F84F254C8146BC
:106BD000924660880E46814241D800274FF6FF78E2
:106BE0008DF80070684600F0D3F822786078A188AC
:106BF000884201DA401C00E00020C0B2904204D17B
:106C00009DF8000000F0E8F827E065786078884299
:106C100001DA401C00E0002060709DF8000000F0E8
:106C2000DBF8454519D0A068B9F1000F40F835A050
:106C30000DD066B16188E068324605FB0100494627
:106C4000FFF714FCA06800EBC500868002E000EBB3
:106C5000C50087800020BDE8F88F0420FBE70920ED
:106C6000F9E70000D025002010B50E4C03E0401CD1
:106C700000E00020207020786178814210D02278D6
:106C80006188E068A36802FB010003EBC20153F8CE
:106C90003220898890472078A1888842E9DAE6E79F
:106CA00010BD0000D025002030B5CB0008339DB2C8
:106CB00093074FF0000401D0072030BD044B9A60C9
:106CC0002A44DA605C701C7058809980002030BDC6
:106CD000D0250020014802F0A8BB0000E8250020D4
:106CE0003AB100680129426100D000210161002011
:106CF000704707207047000038B511480823582214
:106D0000416800910F49006804F0F1FD002815D199
:106D10000D4A69460D4802F08DFB04000ED1012199
:106D20000A4802F002FC0123094A1946074802F00A
:106D300054FB0649012008390870204638BD000080
:106D400020280300A831002049080300E82500207E
:106D5000FFFF7F0070B50446007F0D4608B100209C
:106D600070BDA26103F07CFB401941F10001C4E950
:106D70000201206900B125612146BDE87040002074
:106D80000AF086BE01460020087701200AF080BE86
:106D900030B5EFF3108172B60D4A9468012324B127
:106DA0000370002900D162B630BD93604FF0E0233C
:106DB000D3F88051074C25401560C3F88041D3F8C3
:106DC000844154605A17C3F8842100220270E8E716
:106DD00000320020FC06FFBD0B498A68002A11D052
:106DE00000280FD1EFF3108072B60B684FF0E0224D
:106DF000C2F800314B68C2F8043100228A600028D2
:106E000000D162B670470000003200202DE9F04149
:106E1000064608680C46411C4FF0A0474FF001059C
:106E200006D005FA00F1C7F80815206805F0E6FB62
:106E30006068411C02D0002105F0CEFB3168A069DA
:106E4000C1F82405607D227D31681043C1F86C05CE
:106E5000D4E900123068C0F81425C0F80C15207D64
:106E6000012815D1A068411C02D0002105F0B4FB17
:106E7000E068411C05D08540C7F80855E06805F07A
:106E8000BDFBD4E902123068C0F80825C0F810151F
:106E9000BDE8F0812DE9F041064608680C46411C2A
:106EA0004FF0A0474FF0010506D005FA00F1C7F8F2
:106EB0000815206805F0ACFB6068411C02D0002179
:106EC00005F093FB3168A069C1F82405607D217D40
:106ED00032680843C2F86C05D4E900123068C0F883
:106EE0000C15C0F81425207D012815D1A068411C7F
:106EF00002D0002105F079FBE068411C05D08540F7
:106F0000C7F80855E06805F083FBD4E90212306841
:106F1000C0F80825C0F81015BDE8F08104F0AAB942
:106F200006F056B92DE9F047814605884A484FF0EA
:106F300000088AB001784246284600F0CDFD99F855
:106F40000500400701D4002176E005F58077B8B24E
:106F500005AB0122072107F0A3FC04003F48404A8B
:106F60004FF00101A0EB02004FEAD00001EB004618
:106F70000AD0204606F0DEF9024630462B46394953
:106F800005F0A9FD214629E0284603F055FE4FF6FD
:106F9000FF71044688422BD18A46069803F0B6FD5D
:106FA0000446504510D00146284603F025FE2846E9
:106FB000FFF764FDE0B9284609F000FF2846FFF717
:106FC0005DFD0028BFD013E007F040FE04465045A9
:106FD00008D1304624A105F073FD0421284609F0AC
:106FE0005BFFB0E70146284603F006FE4FF00108BC
:106FF000B8B22246072107F0CBFC07001BD0862F32
:107000001ED006F097F9024630462B4623490094DD
:1070100005F069FD3946284609F03EFF0021484643
:1070200007F036FBB8F1000F02D0204603F0EEFD6A
:107030000AB0BDE8F0870121484607F029FBF7E7D1
:10704000142217496846FFF711FAADF80250684656
:1070500002F08CFCEFE7000034250020D44203004E
:10706000944203007C370300436F756C64206E6F9D
:107070007420616C6C6F63617465206E657720703D
:107080006565725F696420666F7220696E636F6DFB
:10709000696E6720626F6E642E00000098380300EE
:1070A000B827030070B5044690B0087B0D468DF8F4
:1070B0003800202105A8FFF7F2F942F61920ADF8B3
:1070C00014000120ADF81800ADF81A000EA80790C2
:1070D000617C9DF82100A21D61F3041040F00200C4
:1070E0008DF82100A87B8DF82700687B8DF825009E
:1070F000A08805A901F05AFE00281CD1A968E1B1B9
:107100000FA801F0E3F9064614216846FFF7C7F916
:1071100042F60810ADF80000E87B8DF806000FA8D5
:10712000ADF80A60ADF80E600490E08804F10E023C
:10713000694602F0BDF810B070BD0020E081FAE7AA
:1071400010B50E490E4809F0E2FEC1B24FF6FE72CC
:107150000C4800F047FB00280FD011280DD0132851
:107160000BD00F2809D0082807D043F201418842EC
:1071700003D0BDE81040FFF71BBD10BD182C002048
:1071800094220020B02700200A4601461046AEDFB8
:10719000704770B51500044609D00020286034B14E
:1071A000206820B1A079800703D0072070BD0E2091
:1071B00070BD084600F0F8FBC0B2142804D0217955
:1071C000814203D8042070BD052070BDE28821688B
:1071D00000FB02102860002070BD2DE9FC4700254F
:1071E00017880646158090F82D001446894630B160
:1071F0003A462146484600F095FC051E09D1B07874
:107200004FF00C0A18B32088C846001DB84202D9B6
:107210005046BDE8FC87684679DF0028F9D1208810
:10722000032108F8001020881921401C80B220801A
:1072300008F800102088401C80B2208000EB080174
:10724000BDF800000AF0F3FD218808442080F078A2
:107250000222C8B1218896F9033001F1030C484697
:10726000BC45D5D8425421884FF0010C491C89B245
:10727000218000F801C02188491C89B2218009F8C9
:1072800001302088401C20807068B8B1218890F9B6
:10729000003001F1030C4846BC45B9D8425421885E
:1072A0000A22491C89B2218042542188491C89B292
:1072B000218009F801302088401C2080308950B19D
:1072C000CDE900474B460622022106F108000AF0EC
:1072D0009DFE051E9DD1308A50B1CDE900474B4639
:1072E0000722032106F110000AF090FE051E90D13E
:1072F000308B50B1CDE900474B461522142106F1E1
:1073000018000AF083FE051E83D1306A30B13B4677
:107310002246494601F07FFE051EDBD1706A30B17E
:107320003B462246494604F0BEF9051ED2D196F8E6
:107330002C0038B13B4622464946304609F01CFF36
:10734000051EC7D1307838B13B4622464946304603
:1073500004F036FA051EBDD128465AE718B5044692
:107360000020ADF8000013466A46204600F006F8FB
:10737000002802D0BDF80000204418BD70B5E0B16F
:10738000DAB1002402E0045D2C44A4B2651C8D42F5
:1073900006D21688A642F6D8061976789E42F2D111
:1073A0008C420AD2A31C005D9BB200B1401E0004B7
:1073B000000C02D01C188C4201D9002070BD138033
:1073C00070BD80F830107047FFF7F2BB2DE9F04137
:1073D0000D00044606D02CB195F87A00002601284D
:1073E00003D006E00E20BDE8F08195F89800012852
:1073F00029D0D5F8A000042825D0D5F89C00042871
:1074000021D04FF00108A6702C2205F17801201D33
:10741000FFF72CF884F83060D5F8A4006063D5F845
:10742000A800A0634FF6FF70A4F8240404F582605E
:10743000C4F82004C4F82664A4F82A6484F82C64F0
:10744000207810B104E00720CDE7FF2084F8540035
:1074500004F155072046C4F81074FFF750FAA4F859
:10746000140404F2144239462846FFF7B6FE0028F9
:10747000B9D104F23120C4F818042046FFF73FFACE
:10748000A4F81C0404F21C4205F13C00D4F81814C2
:10749000FFF7A3FE0028A6D184F85180208BA4F822
:1074A000480084F83C80266484F8506060690021BC
:1074B0006064454604F13C02781E72DF002892D1D8
:1074C000257090E710B50288102A1BD0112A20D011
:1074D000262A1DD1007A0C46012801D0022817D196
:1074E000A0780521401CB0FBF1F201FB12012046FF
:1074F00000F04DF800280BD0A16B002908D0BDE8A2
:1075000010400847C27B012A02D18088A1F82404D8
:1075100010BD0C46002184F82E148088B4F8241481
:107520008842F5D120790028F2D10121DFE790F8D7
:107530002D246AB1002280F82D240A68C0F8262480
:107540008A88A0F82A24897980F82C1400207047B2
:107550000820704710B5044690F8540074DF0120ED
:1075600084F82E04002084F8300484F850000621AA
:10757000204602F034FC002808D1A178204600F013
:1075800006F810B1A16B01B18847002010BD2DE9AC
:10759000F05F044600780F4698B1A7700025C4F844
:1075A0002654A4F82A5484F82C54A079012608B152
:1075B000012F09D0E07980B1012F05D0022F03D02F
:1075C0000BE00820BDE8F09F616B21B184F82D64C9
:1075D0000820884701E084F82D5404F22741002058
:1075E0000A5C0AB1304603E0401C0628F8D30020AC
:1075F0004FF002084FF0030B012F06D0022F0CD0E2
:10760000032F0FD0042F15D110E0A17929B194F8E0
:10761000241011B908B130460DE0E17911B108B17B
:10762000404608E0207A08B1584604E0607A08B184
:10763000042000E02846A070616B41B1032801D00E
:10764000042804D1607910B194F82E0498B184F81C
:107650002F5404F13C0018210746FEF720FF84F860
:107660003C6004F12C0007F085FC58B194F82C0024
:1076700084F8510008E084F8305484F82F6407201F
:107680008847E6E784F8516094F8240058B104F183
:10769000280007F06FFC20B194F8280084F852000D
:1076A00001E084F8526084F85050A27804F2264138
:1076B00004F582694FF0060A052A64D2DFE802F079
:1076C0007C030F22420084F83160C4F82054C4E9DE
:1076D000101584F83C808020A4F8480055E084F818
:1076E000318094F82420384612B10722027001E05C
:1076F00080F800B0228A8281C4F820544160E16899
:10770000B96042E06069B860208BB88194F82400C9
:107710003D460028204602D084F83CA001E084F8D1
:107720003C600AF03FFC50B185F8148004212046EB
:1077300002F055FB38BB052184F8311021E084F8B4
:1077400031B01EE0E069B860208CB88194F8240064
:107750003D460028204602D084F83CA001E084F891
:107760003C600AF01FFC48B185F8148004212046D3
:1077700002F035FB38B984F831A002E0042084F827
:107780003100C4F82094A07878B13A4604F154004E
:10779000D4F8201472DF00287FF414AF94F830106E
:1077A00094F8540073DF0028F6D1616B11B194F89E
:1077B00031008847002005E784F83150F5E790F85C
:1077C0002F34009933B1002380F82F340A4303D0BB
:1077D000012102E008207047002180F830140020C9
:1077E00070470000F7B594B0174605003CD0287CE0
:1077F0009DF854100024884252D000264FF0010E0C
:107800000D9615A8ADF834E00E90ADF83660E98815
:107810000DAA4FF6FF70ACDF040026D19DF854008E
:107820002874687CA0B30F96109611961296E8887B
:10783000ADF83C00BDF83600ADF840000DA8119041
:107840000E981290A7F57F408DF83EE0FE3805D0E7
:1078500039460FA8FFF798FC044621E0684600F07F
:107860009DF800256F460FE00E2017B0F0BD00BF59
:1078700007EB4506B08800F0F9F8022803D144B1BF
:107880000FA9B088AEDF6D1C0098A842F0D807E0C1
:1078900005E0B1880FA8FFF777FC0446F3E708245A
:1078A0002046E2E738B50D46040018D0BDB128687F
:1078B000206028796074FF20207401208DF8020078
:1078C00041F60F00ADF80000221D69460120A8DF37
:1078D000002803D129462046FFF7E4FB38BD0E20DF
:1078E00038BD38B5002924D0002822D00288502A7B
:1078F0001FD10546487C0C4600281AD0E9886289C9
:10790000A81D914215D14189022912D1216800296F
:107910000FD00C3000F0D6FD08B1002000E00120AF
:107920008DF80000A888ADF802002268694620465C
:10793000904738BD70B5040012D001461C2214488F
:10794000FEF794FD1248134D0560206850B17ADFB0
:10795000002806D12068016829604068686005E059
:107960000E2070BD0B487BDF0028FAD108484FF687
:10797000FF711438084A20F8041B054934390160A6
:107980000021FFF7ADF90028EBD0032070BD000007
:107990002C2D0020882400203D1F03000149496848
:1079A00001F01ABB482D002010B5044600F0B0F8D5
:1079B00008B1204610BD142010BD000010B50446CB
:1079C00000F0A6F8002805D02146BDE81040024886
:1079D00004F00CB810BD0000582D002070B51546FD
:1079E0000E4604460AF0EAFA002809D0054800EBE2
:1079F0008400C0692A463146BDE8704002F01CBAD6
:107A000070BD0000482D002010B5044600F080F83D
:107A1000002805D02146BDE81040024803F0E6BF2B
:107A200010BD0000602D002010B5044600F070F875
:107A3000002805D02146BDE81040024803F0D6BF1B
:107A400010BD00005C2D002070B50546002400F03C
:107A50005FF838B12946044803F0C8FF08B1022492
:107A600000E00124204670BD542D002070B505466D
:107A7000002400F04DF838B12946044803F0B6FF61
:107A800008B1022400E00124204670BD502D0020E2
:107A900010B51821034803F084FF182800D0C0B2A5
:107AA00010BD0000482D002070B505460C46084664
:107AB0000AF084FA60B1284600F02AF840B105487F
:107AC000294600EB8400BDE870401C3003F08EBFF7
:107AD000002070BD482D002070B5054616460C46A6
:107AE00008460AF06BFA00280ED0284600F010F87D
:107AF000002809D00548324600EB84002946BDE83D
:107B000070401C3002F066B970BD0000482D0020A6
:107B1000142801D3002070470146014803F066BFD6
:107B20004C2D00207CB5054608880C460930904253
:107B300001D90C207CBD68466DDF0028FAD1218870
:107B40000820685420881B21401C80B220802954C2
:107B50002088401C80B220802844DDF8011001609C
:107B6000BDF8051081802088801D80B220809DF89E
:107B70000010490800D0012129542088401C208091
:107B800000207CBD1FB5044601208DF8060041F69B
:107B90000A00ADF80400494A01A90120A8DF002825
:107BA0007DD122885AB14548801C009094F83C3021
:107BB00042F62920616801F0C9F800287BD12289AA
:107BC0005AB13E480A30009094F83C3042F62420E6
:107BD000E16801F0BBF800286DD1228A5AB137481C
:107BE0001230009094F83C3042F62520616901F093
:107BF000ADF800285FD1228B5AB130481A3000907E
:107C000094F83C3042F62720E16901F09FF8002803
:107C100051D1228C5AB129482230009094F83C303E
:107C200042F62620616A01F091F8002843D1228DA6
:107C30005AB122482A30009094F83C3042F628206D
:107C4000E16A01F083F8002835D1216B79B102A8EF
:107C500009F088FE194808223230009094F83C3030
:107C600002A942F6232001F071F8002823D1606BAD
:107C700060B112493A3100910279016894F83C30C0
:107C800042F62A2001F062F8002814D1A16B89B1D4
:107C900002A808F027F909484230009000E00AE005
:107CA00094F83C30072202A942F6502001F04EF829
:107CB000002800D1002004B010BD00005225002093
:107CC000F8B5018804463B2946D01ADC2648274AE5
:107CD000274DA0EB02004FEAD0004FF0030202EB69
:107CE0000040102916D00026112927D0212907D1BC
:107CF0000096A08869468FDF002801D0FEF758FF64
:107D0000F8BD56292CD05729FAD1BDE8F8400120FA
:107D100000F026BF17A104F0D3FE072000F080FD7D
:107D200008B1FEF745FFA188A980154803F0BCFF04
:107D30000028E5D0BDE8F840FEF73ABF11A104F0F5
:107D4000BFFE002000F00CFF4FF6FF70A8806E70A1
:107D5000112000F065FDEBE78088132176DFE7E76F
:107D60008088132176DFE3E7444303009442030055
:107D700058220020436F6E6E6563746564000000D6
:107D8000D8270020446973636F6E6E656374656401
:107D90000000000010B51A4C0188606810290ED050
:107DA00011292BD1401E606028D1FEF7B0FD0028BC
:107DB00024D02168002921D0BDE810400847D0B95F
:107DC00000210122084600F009FD08B107280FD163
:107DD00007220221012000F001FD08B1072807D188
:107DE00004220221002000F0F9FC20B1072802D073
:107DF000216801B188476068401C606010BD0000C8
:107E0000802400202DE9F04701883B4E40F2F31911
:107E10004FF6FF7510291BD011293ED0122954D0DE
:107E2000502946D1C188F289841D914241D161898E
:107E300002293ED18688304603F038F8050038D054
:107E400004F10C0000F03EFBA8B3294630464EE09A
:107E5000C17B8788044601292BD1A846284603F018
:107E600025F8050017D02F800020287223484346AC
:107E70004A460168C5F80A104068C5F80E0004F1CA
:107E8000100105F10A0003F0D5F86872F0890028A6
:107E90000FD129462AE0042013E0808803F006F879
:107EA000040006D06068FEF76DFF08B108F098FF87
:107EB0002580BDE8F087FFE76868FEF763FF0028CC
:107EC000F7D0BDE8F04708F08BBF878806463846F4
:107ED00002F0ECFF0400ECD02B464A4606F1080104
:107EE00004F10A0003F0A6F8607221463846BDE8A6
:107EF000F04701F0D7B800002C2D00208824002086
:107F00002DE9F04F044686880188424897B08346A1
:107F100010290CD0112950D0103019296AD01A29F3
:107F200074D1217A0C09042C4DD301224CE0394D37
:107F3000083DA868C0430B9069680BA803F07AFD60
:107F40000B990CA801F048F82C220CA96846FEF702
:107F50008DFA0027E946A84610E000BF09EB47006C
:107F60005FF00005B0F804A008EB85005146001D45
:107F700003F0FCFC6D1C1E2DF6D37F1C0098B8424C
:107F8000ECD8142E05D317B00420BDE8F04FFEF74F
:107F90000FBE3146584603F034FD314608F1040067
:107FA00003F02FFDE07B022830D117B03146BDE849
:107FB000F04F1848001D03F024BD17B03146BDE84E
:107FC000F04F03F0D3BC0022314601F003FF032C35
:107FD00001D3012200E000220E4831460C3001F0AE
:107FE000F9FE022C01D3012200E0002209483146AB
:107FF000083006E0217A002908D1617AC1F3C00275
:10800000314617B0BDE8F04F01F0E4BE17B0BDE84F
:10801000F08F0000502D002010B50446074800786E
:1080200000280AD0204602F06DFC204609F06CF9C9
:108030002046BDE8104002F04FB810BDC424002017
:10804000F0B587B016460C4605001F4635D09EB3E6
:10805000A7F57F40FF3832D0ADF8144004AA194686
:10806000D5F87801FFF795F8002823D10498801CF3
:108070000490082C03D822463146FEF7F7F9002079
:108080000090019002900390B5F84E11ADF80400F5
:1080900005A8ADF80010CDE9020601218DF8021007
:1080A00069463846AEDF002804D102990988A1420A
:1080B00000D00C2007B0F0BDFFE70E20FAE7082043
:1080C000F8E72DE9F04391B00C4605000DD064B1FE
:1080D000A07A0A2805D8207C0A2802D8207E0A28FF
:1080E00005D9072011B0BDE8F0830E20FAE720681B
:1080F000286060686860A07AA874207C85F87800A1
:10810000207E85F8DE0001268DF8226041F61200FF
:10811000ADF8200005F1080208A93046A8DF0028C4
:10812000E0D1002709E0A06B01AA30F817102889D8
:10813000A9DF0028D6D17F1CFFB294F83600B842E0
:10814000F1D8207A4FF0000808B9607A38B394F873
:108150003C9094F83D708DF8306020216846FEF721
:108160009EF942F64E20ADF800000CA802909DF852
:108170000D00ADF8046040F006008DF80D008DF89C
:108180001190ADF806608DF812708DF80F60288997
:1081900005F10A02694600F009FE0028A2D1214635
:1081A000284602F04DFE00289CD1207C18B360695F
:1081B00008B300271CE06069CDF8108000EBC7030E
:1081C0009DF8100007EB870140F00E008DF81000BD
:1081D00005EB4100191D7A30CDE9001033F8022B70
:1081E00004A9284608F008FA002899D17F1CFFB29C
:1081F000207CB842DFD8207E18B3E06908B300279E
:108200001CE0E069CDF80C8000EBC7039DF80C0082
:1082100007EB870140F00A008DF80C0005EB4100E8
:10822000191DE030CDE9001033F8022B03A92846D0
:1082300008F0E2F90028B1D17F1CFFB2207EB842DD
:10824000DFD82146284608F024FA0028A6D1207A53
:1082500070B305F5A770009004F14203082242F6BE
:108260002221284600F038F9002897D120216846BD
:10827000FEF715F942F63220ADF800009DF80D002A
:10828000ADF8046040F00E008DF80D0094F8450044
:108290008DF8110094F846008DF812008DF80F60EB
:1082A000288905F5AB72694600F080FD00289CD155
:1082B000607A60B105F5AF70009004F13F030822C9
:1082C00042F63321284600F007F900288DD12146D7
:1082D000284602F01CFA002887D194F83E708DF8E9
:1082E0000880202109A8FEF7DAF842F64C20ADF804
:1082F00024009DF83100ADF8286040F004008DF8AE
:10830000310002A88DF83670ADF82A600B902889EC
:1083100005F5B77209A900F049FD00288BD1E16885
:10832000C5F87C116169C5F88011E169C5F884114F
:10833000D8E600002DE9F04786B09846DDF838A071
:1083400016460F4604001ED0B8F1000F1BD0A07CCB
:10835000B8424FD907EB870004EB4000AAF57F41F4
:1083600000F11409FF3943D0ADF81460002504AAC8
:108370005146D4F87801FEF70CFF002804D1049888
:10838000133004900BE00E2006B0BDE8F08700BF6C
:1083900030F8350004996D1C0844EDB20490D4F80F
:1083A0007C01BD42F4D330F83700B0421ED33246D0
:1083B00041460498FEF75AF8002000900190029080
:1083C0000390B9F80010ADF8040005A8ADF800104E
:1083D000CDE9020801218DF8021069465046AEDF52
:1083E0000028D1D102990988B142CDD00C20CBE729
:1083F0000820C9E70720C7E70A46014610460A8851
:10840000102A05D0502A05D0512A05D105F0B6BE54
:1084100005F06EBC05F01ABF704700002DE9F84367
:108420000D46DDE908171E469046040007D037B117
:1084300094F87800A84204D80720BDE8F8830E20FD
:10844000FBE76A46D4F87801FEF7A3FE0028F4D1D2
:10845000009813300090002009E000BFD4F87C1190
:10846000009A31F83010401C1144C0B20091A17C38
:108470008142F3D8002008E0D4F88011009A31F846
:108480003010401C1144C0B20091A842F4D3D4F87B
:10849000800130F8351008EB0600814207D30098C0
:1084A000424681193846FDF7E1FF0020C5E7092063
:1084B000C3E770B504460D460846FDF7FBFF208074
:1084C000656070BD007800F0010070470A780270A6
:1084D00049784170022070472DE9F04188B00F467D
:1084E00005461C46164620216846DDF83880FDF713
:1084F000D6FF9DF80D00ADF8007040F00201ADF818
:1085000004608DF80D10607810B141F0080101E0B1
:1085100021F0080141F010008DF80D0020788DF851
:10852000110060788DF81200A0788DF813000120FA
:108530008DF80F0028894246694600F037FC08B0E4
:10854000BDE8F0810149085C704700005026030037
:108550000649095C4FF0A040D0F81005C84010F063
:10856000010000D0012080F0010070475026030078
:108570002DE9FC410646C0074FF000050ED0104F14
:1085800000240122385D009500231146019503F077
:10859000C9FF641C042CF4D300F046F8B0070DD5D5
:1085A000074E0024361D0022305D0323009511463E
:1085B000019503F0B7FF641C042CF4D3BDE8FC81E3
:1085C0004C26030007490B5C4FF0A041D1F804256D
:1085D0000120984020EA0203C1F808351040C1F894
:1085E0000C0570474C2603000249085C012104F089
:1085F00050B800004C2603000249085C002104F03A
:1086000048B800004C2603000649095C4FF0A04022
:10861000D0F80405C84010F0010000D0012080F01F
:10862000010070474C26030010B500242046FFF7D8
:10863000DBFF641C042CF9D310BD10B500242046C8
:10864000FFF7DAFF641C042CF9D310BD10B5024605
:10865000064B4FF0FF3000215C5C944201D108468C
:1086600010BD491C0429F7D310BD0000502603009B
:1086700070B50C4E0C004FF0000530600BD001209F
:1086800000F06AF808B1022004E0002000F064F86D
:1086900000B10B202070706810B9FEF738F905465C
:1086A000284670BD8024002010B5002000F0F2F9AB
:1086B00008B1062806D1012000F0ECF908B106281F
:1086C00000D1002010BD00002DE9F0470D46814685
:1086D000FFF7BCFF0446042836D2DFF874801B483D
:1086E0001C4EA8F10C0725B3012D0ED0022D2BD165
:1086F00004EB440030444578002D25D0B9680029AA
:1087000022D02846BDE8F047084704EB4401755CD9
:108710000E44717849B10E4A4FF48041093A80689D
:10872000FEF718FB08B987F80390B17808F8041031
:10873000E2E78068FEF726FB04EB4401314418F8B9
:1087400004008D78A842D7D0BDE8F08754260300F6
:108750007C240020C82C0020042801D2FFF7F8BE9A
:108760000020704710B51B4C0246042AA08820D078
:108770004FF6FF71072A25D00A2A16D00E2A13D1E8
:10878000884211D00120E16802F086FCE068401CBC
:10879000E060A078401CC0B2A070062804D104F1AB
:1087A0001000E0600020A07010BDBDE8104008F08F
:1087B00097BD132176DF0AE00028F5D0BDE8104010
:1087C000FEF7F6B98842EFD10348FEF7C3FE08284A
:1087D000F2D110BD58220020E427002070B50023FC
:1087E000042810D20D4D00EB4004012A02D10129CA
:1087F0000CD00022094E00EB4000304461B1012949
:1088000006D0022906D00723184670BD0E30C2B22A
:108810002A55F9E74270F7E78270F5E7C82C002087
:10882000044A014600201279D20702D0084600F01F
:108830004DB870477024002070B506461E480024CD
:10884000C0E90161B00720D5002501221146284664
:10885000FFF7C4FF6D1C0446042D02D2002CF4D097
:1088600013E094B940F2333204211448FEF71EF9A4
:1088700004000AD1FEF708F9040006D10F48104A97
:108880000021001FFEF72CFA0446F00712D0012049
:10889000FFF76EFE74B909480A4A00210C38FEF74A
:1088A0001FFA040006D10548074A01210838FEF7DF
:1088B00017FA0446204670BD70240020602603008D
:1088C000698C020015B10200776A02002DE9F05FA1
:1088D0006E4C054600266078B34618B184F801B0A6
:1088E00002F000FC6A4F4FF47A694FF4C87A4FF0F7
:1088F0000108182D69D2DFE805F00C13133847542E
:10890000696E727B727BC58484848484B3B6B9BC7F
:10891000C5C502F0E7FB3868FEF734FA06465CE0AE
:108920000020FFF771FE00284FF0000008D0FFF78D
:108930005BFE022D02D14FF4E16008E0484606E0FC
:10894000FFF75AFE022D01D1C82000E05046410C2D
:10895000C0034FF47A72801841F100012570520073
:108960000023FDF73FFD01462AE00020FFF74CFE03
:1089700000284FF0000004D0FFF736FE4FF4487097
:10898000E5E7FFF739FEDFE70020FFF73DFE0028AF
:108990004FF0000002D0FFF727FECFE7FFF72CFED5
:1089A000D4E70020FFF730FE00284FF0000002D08F
:1089B000FFF71AFE01E0FFF71FFE257040F6CD41DC
:1089C00000223868FEF7C6F9064646E00020FFF7A9
:1089D000F9FD257008E0002051E025703DE084F8A5
:1089E00001800120FFF7EEFD002240F26661E8E71A
:1089F00084F801800120FFF7E5FD00224FF40051CB
:108A0000DFE77868FEF7BEF90646D5F1110000D021
:108A10002EB10220FFF7E8FD84F802B01DE0012826
:108A200016D980B2C8214843C117C90341EA504151
:108A3000C0034FF47A72801841F100015200002304
:108A4000FDF7D0FC014600227868FEF783F9064660
:108A50000220FFF7D1FD84F802803046BDE8F09F88
:108A600002F040FBB9E702F03DFBB4E702F03AFB4D
:108A700004E002F037FB0020FFF7BEFD0120FFF706
:108A8000BBFDAAE7FFF7D9FDA7E70000702400208F
:108A900054260300012109F020BB00002DE9F84F06
:108AA0000546861C00208DF8000091460F464FF0C9
:108AB000010A6846FEF76CF91B4C04F21C4860681A
:108AC0003860D4E90101194F401A3968081A0EE0DC
:108AD0000121404602F0A8FF02F0AEFC01464046EC
:108AE00002F0A2FFD4E90101401A3968081A401CBB
:108AF0008642EDD8B9F1000F03D0052065F3891047
:108B000002E0062065F39F5061683A68114004EB6B
:108B10008101C8606068304460609DF80000FEF725
:108B20005BF95046BDE8F88F5035002070260020D4
:108B300070B50D4604460A2902D10D21FFF7F8FF52
:108B4000A0682268411CA1601554D4E9010181424A
:108B500004D32046BDE8704003F0A9B970BD000001
:108B60007CB51C4C0146002094F83E208AB194F854
:108B70003C2002EB420204EB820599B101A800906F
:108B8000D5E901102B786A7808F032F9132802D061
:108B900008E005207CBD6A78BDF804108A4201D344
:108BA00029707CBD94F83C20002102EB420204EBCA
:108BB0008202516094F83C20521CD2B284F83C20CE
:108BC00094F83E305B1E84F83E30052AE9D184F8E3
:108BD0003C107CBD282C002070B5124C06460020AD
:108BE00094F83E50062D1AD094F83D5005EB4505FB
:108BF00004EB8505C5E901162B706A7094F83E10E8
:108C0000491C84F83E1094F83D10491CC9B284F800
:108C10003D10052902D1002184F83D1070BD0420CB
:108C200070BD0000282C0020044881684068814203
:108C300001D101207047002070470000503500200E
:108C4000034630B5074800210478426806E000BFBB
:108C500002EBC10005789D4203D0491CA142F7DB1D
:108C6000002030BDB825002000780221FFF72CBD80
:108C70001CB5044601F0E0FF00236A46092105F017
:108C800051FF052805D10348012241792046FEF70E
:108C900023FF1CBD902400201CB50446002000903A
:108CA00042F6A620ADF8000001208DF80200084829
:108CB00001AA6946006801902046A0DF002805D17E
:108CC0000448012281792046FEF706FF1CBD000002
:108CD000802603009024002005494FF0FF32082829
:108CE00041F8202002D3084480F848207047000053
:108CF000BC300020F0B54FF0FF3512B1002308263C
:108D000001E008230C260C4C05E000BF54F823704A
:108D10007F1C04D05B1CB342F8D32846F0BD261854
:108D20005DB286F8305044F82310002AF5D1E118DE
:108D300081F84800F1E70000BC30002002490844F7
:108D400090F9300070470000BC3000202DE9F04160
:108D500088B01E46DDF8388014460D00074602D163
:108D60000020FDF725FF14B90020FDF721FF202189
:108D70006846FDF794FB9DF80D00ADF8044040F007
:108D800002008DF80D000848ADF80070ADF80640FF
:108D900002958DF8116042466946008800F006F899
:108DA00008B0BDE8F0810000522500202DE9F04315
:108DB0008146887891B090460C4600B901208DF824
:108DC0003E002088ADF83C0000250095607C694697
:108DD00008F06EFA6E46A07C711C08F069FAE07B20
:108DE00000289DF8020002D040F0080001E020F0C9
:108DF00008008DF80200217C11B140F0100001E064
:108E000020F010008DF80200217B11B140F001002C
:108E100001E020F001008DF80200217D09B102215E
:108E200000E0012161F342008DF802001C2102A83C
:108E3000FDF735FB607BC10601D4800617D50E9582
:108E40000EAFE07C791C08F033FA9DF838000797E4
:108E500020F00F00401C20F0F00010308DF838009A
:108E60009DF83A0020F00600801C8DF83A00607BE7
:108E70008DF80800A07B8DF80900142109A8FDF7E2
:108E80000EFB0FA8CDE90906A088ADF83000A06858
:108E900020B1E088ADF82C00A0680D90A06998B3CF
:108EA00001950088ADF81000A06901AD01A94088C6
:108EB000ADF81200A069406806950390A069007B98
:108EC00008F0F6F9A069691C407B08F0F1F9A06987
:108ED000807A00289DF8060002D040F0080001E0EA
:108EE00020F008008DF80600A169C97A11B140F0A0
:108EF000100001E020F010008DF80600A169097A49
:108F000019B140F0010002E00DE020F001008DF801
:108F10000600A169897B09B1022100E0012161F30A
:108F200042008DF80600E06900B10590434609AAA9
:108F300002A94846AADF11B0BDE8F08370B5044627
:108F40004FF6FF750A462846AC4209D14FF48074AB
:108F50002146104602F025FD80B2A0420BD070BD24
:108F6000FF2CFCD82146104602F00BFD90F0010FBB
:108F700001D0204670BD284670BD000070B5084C79
:108F8000050009D010342168002907D00868206046
:108F9000496828468847F6E70834F4E770BD0000C2
:108FA000A8300020054A012120B1012805D1917087
:108FB000FFF7E4BF51700020FAE77047A8300020A7
:108FC00010B5D0E90234D1E90220D11AA04101D371
:108FD000012010BD002010BD73B58CB006460020E6
:108FE00000900D9880B100246D4621460DA802F036
:108FF000FDFC30B1009805EB400084800098401CD7
:109000000090641C142CF0D32C2269463046FDF7E6
:109010002DFA0EB070BD2DE9F04117880646B81D37
:1090200014460D46984202D90C20BDE8F0813188E3
:10903000072206290AD34FF4486C4FF6FF736145A7
:1090400001D9994202D17088062801D21046ECE776
:10905000604501D99842F9D1994203D0984201D094
:109060008142F3D80520E85520881221401C80B2A7
:10907000208029542088401C80B2208041193088EB
:1090800008F0D5FE2188084480B2208041197088FC
:1090900008F0CDFE2188084420800020C5E7FDF7B8
:1090A00087BD000038B54A7A0F4B62B100220A72C0
:1090B0005969002906D001228DF80020ADF8020080
:1090C0006846884738BD0A7A62B19B684C68024698
:1090D00019462046FDF73EFE0028F3D0BDE8384093
:1090E00007F07EBE5B68F1E72C2D0020F0B585B05F
:1090F00016460F4604461D4614220B496846FDF7E6
:10910000B5F90A488DF80870ADF80240ADF80A606C
:109110008DF80C50017800222046FEF7DDFC6846F1
:1091200000F024FC05B0F0BDCC270300342500205E
:10913000FDF722BB70B588B006460020059006906A
:10914000ADF81410ADF816100190029001AA05A90F
:10915000304690DF050021D004F0ECF803461148BA
:1091600011493246401AC108012000EB0140044673
:109170000E4903F0B0FCBDF8042012B9BDF806009A
:1091800028B1BDF80630204609A103F0A4FCBDF8C3
:1091900008201AB12046164903F096FC08B028466C
:1091A00070BD0000AC42030094420300F42F0300A2
:1091B00054686520726571756573746564205458D0
:1091C0002F5258207061636B6574206C656E6774F4
:1091D0006820697320746F6F206C6F6E67206279EE
:1091E0002025752F2575206F63746574732E00001C
:1091F0004030030070B504460948012102F02FFCFD
:10920000BFF35F8F0025002808D1204602F08EF8BA
:10921000002803D1BFF35F8F0148056070BD0000D7
:109220009C2400202DE9FF410C4620B14FF406405C
:1092300004B0BDE8F0812079002748F2096538B113
:1092400041F61D5601281BD0022826D0681DEFE7E5
:109250000220207102970397E0680190694601A8F7
:1092600007F0E2F850B102988188E18000882081FF
:10927000BDF80010029807F055F9D9E72846D7E75E
:109280000A4B6A460021A01D07F086F838B107494D
:1092900018398F61CF61A842CAD13046C8E7034868
:1092A0008188019807F03EF9F5E7000028260020A4
:1092B000F0B587B00C4607461646142101A8FDF705
:1092C000EEF8A07800B901208DF81A002088ADF8DA
:1092D000180006A80190A079694607F0E9FF6D46DD
:1092E000E079691C07F0E4FFE07800289DF80200AF
:1092F00002D040F0080001E020F008008DF80200E4
:10930000217911B140F0100001E020F010008DF83B
:109310000200617911B140F0010001E020F001008C
:109320008DF80200217A09B1022100E0012161F3E8
:1093300042008DF8020002956089ADF80C00A0890A
:10934000ADF80E00E089ADF81000206905903246B6
:1093500001A93846ABDF07B0F0BD000070B50024AE
:109360000F4D10E0686800EBC406307804F00CF98B
:109370007178012901D0012100E0002141403078BD
:1093800000F048FA641C28788442EBDBD5E904013C
:10939000084303D0BDE8704008F096BB70BD0000E4
:1093A000B825002010B50021024802F058FB80F3D8
:1093B000100010BD6C3900204FF480328A400168E3
:1093C000C1F848230068C0F8082370474FF4A07222
:1093D00002EB810189B200F08DBA2DE9F04105461A
:1093E0000E464FF4A07000EB860081B228684FF45F
:1093F0008034B440984622F07F47C0F8084328687C
:10940000C0F84843286803F029FD286800EB86006F
:10941000C0F840752868C0F84443B8F1000F02D086
:109420002868C0F80443BDE8F0810068D0F804055E
:109430007047000070B54379234C44F823204279EB
:10944000231D03EBC202224C1579204A121BD408BB
:109450002DB10825022000EB04401EA130E0056874
:109460000A88C5F8082590F904208978002A4FEA6F
:10947000411104DB02F1E02282F8001405E002F061
:109480000F0202F1E02282F8141D90F9041001226B
:10949000002909DB01F01F0502FA05F549098900D9
:1094A00001F1E021C1F800514179002503EBC10130
:1094B0000A71417943F83100032000EB04400EA10A
:1094C00003F0FEFA284670BD042600202443030062
:1094D0009442030052544320696E7374616E636555
:1094E00020616C726561647920696E697469616C70
:1094F000697A65642E0000005254433A20696E690F
:109500007469616C697A65642E00000090F904004A
:10951000002809DB00F01F02012191404009800072
:1095200000F1E020C0F8001270470A46022100F066
:1095300067B94FF4827100F0DDB900680121016064
:10954000704700680121416070472DE9F05F0746D0
:109550000C464FF4A07000EB84001FFA80FA3868C4
:109560004FF48036A6409B4622F07F45C0F8486302
:109570003868C0F808633868D0F8048500EB8402C6
:10958000D2F84095C2F840855146386803F066FC31
:10959000A9EB080020F07F40012806D1102003F03D
:1095A00035FF5146386803F059FC3868D0F8048517
:1095B000C0F84463A5EB080121F07F413868012918
:1095C00000EB840010D0C0F840553868D0F804157E
:1095D0006FF07F4C6A1A521E22F07F42ACEB0B03F5
:1095E000934217D362B118E06D1CC0F840551020AB
:1095F00003F00CFF3868D0F8040540450AD10CE0B0
:1096000000EB84006D1CC0F840553868D0F80405A4
:10961000884202D00D20BDE8F09F01223146384635
:1096200000F0EEF80020F6E713460A460021FFF7A7
:109630005DBD00002DE9F843104D0F4680461E46E3
:1096400091466946286802F065F9040014D01C218F
:10965000FCF725FF01202071C4F81490380BC4F8E2
:109660000080C4E902606946286802F074F906F0D7
:10967000FBFD0020BDE8F8830420FBE7D0280300B1
:1096800010B503780022072B06D2DFE803F00504AB
:109690000610202930000A7010BD01230B700389C9
:1096A0008B818388CB81C06888600A7410BD0222D8
:1096B0000A7002898A818288CA81C2688A60807D34
:1096C000062802D00020087410BD0120FBE7032209
:1096D0000A70C2888A810289CA81C068886010BD08
:1096E00004230B70C0888881CA818A6010BD052060
:1096F000087010BD70B5064D0646002455F82410BC
:1097000009B130468847641C042CF7D370BD0000B3
:109710002832002030B50446006887B00D468068C6
:1097200000281FD018216846FCF7B9FE0195A068F3
:109730000590207910B1012810D107E001208DF8A3
:10974000000020690290E068039005E002208DF897
:109750000000E0680003029060690490206881685E
:109760006846884707B030BDF0B585B017460C0095
:1097700005463AD0112C38D0082C36D01C481D494B
:10978000401AC6080D2C11D0204603F0D3FD024626
:10979000012000EB06402B46174903F09CF92A46AE
:1097A0000721684602F06AF802941BE0022000EBF1
:1097B00006402A46114903F087F92A4603216846E4
:1097C00002F05CF827B13878C00701D0012000E032
:1097D00002208DF8080000208DF80C0041F20110E5
:1097E000ADF80A00684600F0CFF805B0F0BD000003
:1097F000DC42030094420300643A0300543903003E
:109800000368C3F84413002A02D00068C0F80413A8
:10981000704700002DE9F84F0E463449804601EBB1
:109820005001C007097801D00F0901E001F00F07CE
:109830004FF00009424601204946FCF704FEDFF8DC
:10984000B0A004460D46052F4ED2DFE807F0031600
:109850001B282C00002E47D00121404607F0EAFFCC
:109860008DF800906846FDF793FA5046D0E904124F
:109870000C431543CAE9044532E00EB1022114E05D
:10988000002112E04EB10321404607F0D3FF4046CD
:10989000BDE8F84F012108F0A9BB012105E0002E29
:1098A00022D1042101E02EB103214046BDE8F84F4A
:1098B00007F0C0BF0021404607F0BCFF0021404632
:1098C00008F094FB8DF800906846FDF761FA504669
:1098D000E243D0E904341A4024EA0501CAE904212C
:1098E0009DF80000FDF778FABDE8F88F8831002078
:1098F000B825002010B5006842581AB103F0AEFA3E
:10990000012010BD002010BD10B50446408801F0B4
:1099100093F9A080024801682046BDE8104008473E
:109920009824002010B50446808801F059F8608022
:10993000024801682046BDE810400847A8240020DE
:109940002DE9F04107460024064E074D05E000BF13
:1099500056F8241038468847641CE8788442F7DBC0
:10996000BDE8F0815C300020C424002010B504461E
:10997000408801F061F9A080024801682046BDE8F6
:10998000104008478C270300014909680847000078
:109990000828030070B586B0044614216846FCF719
:1099A0007EFDA0890125A0F54040ADF80400207897
:1099B0002F4E062833D2DFE800F0320303032C4A8F
:1099C000A08900F0EBF930B9E08943F6FE71A0F50B
:1099D0004040884223D8A07B8DF8080020780328D7
:1099E0000FD000208DF80900A0680390606850B186
:1099F00009208DF8000060680490684604F0E4FFD8
:109A00000DE00120EEE708208DF800008DF81050E1
:109A1000F3E7A08900F0C2F908B1E08930B17078AD
:109A2000002801D005F026F906B070BD606830B19D
:109A30000B208DF80000606802907570DDE70A2049
:109A40008DF80000BDF8040005F0B8F9F5E760688E
:109A500048B114208DF80000606802904FF6FF7046
:109A6000ADF80400C9E713208DF80000F6E7000008
:109A7000B024002038B504460F480078B0B1A4F5F2
:109A80007F40FF380FD0684606F01EFB88B10521E5
:109A9000017001210171C480684606F023FB06F0C5
:109AA000D5FB002038BD48F2036038BD48F20160A4
:109AB00038BD48F2076038BD302600200D4808B593
:109AC000007888B1684606F0FFFA80B1062101707F
:109AD000684606F007FB0848017809B101210173C7
:109AE00006F0B4FB002008BD48F2016008BD48F252
:109AF000076008BD30260020EC320020F0B587B0AA
:109B000014216846FCF7CBFC304C207818B168462D
:109B1000FFF7F0FD57E0201D01F083FF98BB40F6F2
:109B2000F8700168481C02D14FF0102041694FF0D5
:109B30008050026940694B1C01D100FB02F12448AE
:109B400000220161A1F54051C160224902F044FBAD
:109B5000002823D121481C238C221F49006801F0D2
:109B6000C6FE04F0BDFC050016D0022D14D000275F
:109B70000126062D14D005A806F0A6FA98B10670A5
:109B80000C2D1BD200E01EE0DFE805F018101810C5
:109B9000181718171812141248F20A6007B0F0BD0F
:109BA00026706760B3E748F20760F7E7077105E0E2
:109BB000032100E00221017100E0067105A806F012
:109BC00091FA06F043FB0020E8E700003026002071
:109BD000CC260020E028030038320020482803006B
:109BE00038B5040014D0694606F01EFCB0B1BDF8CB
:109BF000000000EB80010B4800EB8100C16851B10F
:109C0000A17A41B1C168491EC1600020A07238BD6F
:109C100048F2046038BD48F2056038BD48F209607A
:109C200038BD0000C43200201FB501A9684606F007
:109C3000B3FB04B010BD07B513460A4669460020C1
:109C400006F0AAFB0EBD07B513460A46002168467A
:109C500006F0A2FB0EBD20B119B10068086000201B
:109C6000704748F204607047F8B50D46040018D0FC
:109C7000BDB1694606F0D8FBB0B1BDF800000C4993
:109C800000EB800001EB800001210C30666801F0E0
:109C9000CBFE2E6060680C3068600120A07200204E
:109CA000F8BD48F20460F8BD48F20960F8BD000054
:109CB000C432002018B10323002208F093BB48F2FD
:109CC000046070470223002208F08CBB094910B5DC
:109CD0000A69042A0AD0084A096942F8210005489D
:109CE0000121103001F0A0FE002010BD48F20B60F1
:109CF00010BD000010260020283200202DE9F84F6A
:109D0000044624480078D8B1F4B112212046FCF76B
:109D1000C6FB0320DFF880902080002504F11008A6
:109D200004F10E0A05EB850109EB81063089718982
:109D3000084487B2706804F05DFB032807D009E08F
:109D400048F20160BDE8F88F48F20460FAE7208825
:109D5000401E20806088F1680844608020897189F5
:109D600008442081608938446081C7F58060A189FA
:109D700080B2814200D2A0815346A21D211D2846F7
:109D8000CDF8008006F0ECFB6D1CADB2022DC9D3FE
:109D90000020D7E730260020C432002043F6FE71B1
:109DA000A0F54040884201D801207047002070474C
:109DB00010B504460078182802D1FDF769FE20701E
:109DC00010BD10B504460078182802D1FDF760FEDA
:109DD000207010BD0AB101F014BE01F0C7BD70B50E
:109DE0000D460446B0F81414D0F810040122FDF713
:109DF000B5FA00B1057004F13C0204F5826104F18A
:109E0000540072DF70BD000070B513460022054695
:109E1000112900D10122074C33B12179FDF75CFEF5
:109E200000226178284600E06178BDE87040FDF7C7
:109E300053BE00003C250020F7B517460E0011D098
:109E40000098002560B100242146684601F0CEFD4F
:109E500018B1A0B23946B0476D1C641C142CF3D362
:109E60002846FEBD0020FEBD406806F04DB900004A
:109E70000EB516A19DF8080020F00F00401C20F040
:109E8000F00010308DF808000F2202A87CDF08B126
:109E9000FCF78EFE40F2C13078DF08B1FCF788FE97
:109EA0000020009001900620ADF800001821ADF8C8
:109EB00004002B20ADF80600ADF8021068467ADFEA
:109EC000002801D0FCF774FE0EBD00004E6F7264D6
:109ED00069635F4B6579626F6172640070B510B140
:109EE0004FF4064070BD1A4C0025207B08B1257345
:109EF00001E000F0A1F82078082826D2DFE800F081
:109F00002504080C10251420BDE8704000F022B88C
:109F1000BDE8704000F07EB8BDE8704000F060B869
:109F2000BDE8704000F03CB86088094900EB800053
:109F3000283901EB80004068BDE8704004F0B0BAF9
:109F40006560BDE8704004F0B9BA48F20E6070BDBB
:109F5000EC3200201149F0B48A1C00200346A1F124
:109F600028050C18A67A4EB1A37200EB800405EB0D
:109F70008404E66816B9247C012C0AD0401C80B207
:109F80000228EED30B704B804B60F0BC41F61D50A5
:109F900070471080F0BC00F03DB80000EC320020AB
:109FA0000C48418801EB8102A0F1280101EB8201FC
:109FB000CA6852B1052101700748022181800168F9
:109FC00000230122054802F06BB8042202704968A0
:109FD000F6E70000EC32002038260020CC260020D6
:109FE00038B50A49084803240B684268898803EB9E
:109FF000810153880470DB1C00201B0400909B0B24
:10A00000034802F0A1F938BDEC32002038260020C8
:10A01000CC260020074910B54888091D06F054FADF
:10A0200018B1BDE81040FFF7DBBFBDE81040FFF7F7
:10A03000B7BF0000EC32002070B5194C0121207828
:10A0400008281AD2DFE800F00419191C252929185C
:10A050002089134A401C2081002060802073283A08
:10A0600000EB800312F8233043B100232518401C75
:10A0700080B2AB720228F3D3217070BD0123F5E7E3
:10A080006068084940888A88C01C10448880022083
:10A0900004E000F009F8062000E00720207070BD01
:10A0A000EC320020382600200A4909484988026815
:10A0B00001EB81030749283901EB83014B680360F9
:10A0C0004A6082880A8102228280002008747047D8
:10A0D00038260020EC3200202DE9F0430646808827
:10A0E0003288DFF85C8185B00746502A37D010DC13
:10A0F0005449554B06F10A05A1EB03014FEAD10182
:10A100004FF0020303EB0144352A3AD0362A07D137
:10A1100068E0522A02D0542AF9D102E001F0AAF8EC
:10A1200082E0142249496846FCF7A0F9ADF80270B4
:10A13000384600F081FDADF8040000F0C9F90022B6
:10A14000444698F804103846FDF7C6FC0022E17832
:10A150003846FDF7C1FC6846FFF7D6FB64E0307B6C
:10A16000012861D1B07A01285ED13089A0F524514F
:10A17000023959D10121384601F0D0F807F0C6FE66
:10A1800052E098F80610FDF78FFC00284CD0002212
:10A1900098F806103846FDF79FFCF288B2F5857FE7
:10A1A00017D012B120462AA10BE02A88012A03D039
:10A1B000204636A102F088FC6A88012A04D0204695
:10A1C00041A102F081FC04E0A98800223846A1DF09
:10A1D00008B1002125E0012298F807103846FDF764
:10A1E0007BFC21E04FF0000998F80710FDF75CFCBC
:10A1F000D0B1002298F807103846FDF76DFCF288C0
:10A2000012B1204612A104E0AA88012A04D02046F7
:10A210002DA102F059FC03E0A87900B1012081468C
:10A220004946384607F068FB0022364998F8020094
:10A23000FDF7D4FB05B0BDE8F04306F095BE000085
:10A24000902400209442030094420300D826030087
:10A25000556E657870656374656420474154542079
:10A26000737461747573207768696C6520676574B1
:10A2700074696E6720434152206368617220766181
:10A280006C75653A20307825780000004D756C7447
:10A2900069706C6520282564292043415220636839
:10A2A0006172616374657269737469637320666F48
:10A2B000756E642C207573696E67207468652066FE
:10A2C000697273742E000000556E65787065637452
:10A2D00065642043415220636861726163746572F2
:10A2E00069737469632076616C7565206C656E674F
:10A2F000746820282564292C2073746F72652030BF
:10A300002E0000001D6F020070B504460078002882
:10A3100014D1608800F0AEFF6588284600F09AF9F5
:10A3200028B107480122C1782846FDF7D5FB60888F
:10A33000FEF79EFCBDE8704007F0E8BD70BD000070
:10A340009024002070B5204C00252570FDF7A0FB5F
:10A350006070FDF79DFBA070FDF79AFBE070FDF7C4
:10A3600097FB2071FDF794FB6071FDF791FBA071E5
:10A37000FDF78EFBE07162780121182A18D0A278CF
:10A38000182A15D0E278182A12D02279182A0FD06C
:10A390006279182A0CD0A279182A09D0182807D077
:10A3A00004F10C000560BFF35F8F2170002070BDC9
:10A3B0000648074A801AC00801EB0040054902F030
:10A3C0007FFB032070BD0000902400209442030016
:10A3D00094420300C42B03007CB50446007808288F
:10A3E00037D1607A58BB207A1C4E4FF6FF75012892
:10A3F00011D0072802D008282BD121E0A08800F036
:10A40000EFFA0446A84224D0012100F087FF20463D
:10A41000FEF72EFC1DE0A0886A46012104F0F6F943
:10A4200068B90198007850B1A08800F0D9FAA84224
:10A430000FD00122F178FDF74FFB06F095FD08E003
:10A44000F068012805D1BFF35F8F044900200C316B
:10A450000860BDE87C4007F059BD00009024002052
:10A4600010B50B48FEF7E1FF094A083AD2E9043477
:10A47000C018D2E9063244F10001C31A71EB02029E
:10A4800004D24FF08072801841F1000110BD00002D
:10A49000E825002010B5C0B2FEF7D2FB04460078D4
:10A4A00003F072F801466078012801D0012000E035
:10A4B000002090EA010F08D00449D1E904010843C3
:10A4C00003D1BDE8104007F0FFBA10BDB825002049
:10A4D0001CB5054AD2E90212CDE9001200226946F4
:10A4E00004F05AFB1CBD0000F026030003484FF6A1
:10A4F000FF7181800121017000207047A02400209D
:10A500002DE9FC41804600F097FB0024032501273C
:10A51000A0F57F412646FF3908D06A46082104F09D
:10A5200075F918B90198841D8688056832462B464E
:10A5300021464046B1DF042804D0082804D00B2867
:10A5400008D002E0112000E00020002F00D10B20F5
:10A55000BDE8FC810027A80701D50125E6E73443C3
:10A5600003D0002426460325E0E706480649424674
:10A57000401AC008012101EB0040044902F0A4FA8E
:10A58000E5E700009C420300944203008C2E030088
:10A590002DE9FC41804600F04FFBA0F57F410646C7
:10A5A000FF390ED001252A466D1C0027ADB26B463F
:10A5B0000821304604F074F9040006D0072C33D08B
:10A5C00033E043F20200BDE8FC81019903230A1D38
:10A5D0000B604046891DB2DF040004D00C2C09D06A
:10A5E000052C09D009E032460821104604F0D0F9C4
:10A5F00004461AE0012700E000240821304604F058
:10A60000BDF970B102F096FE034609480949324689
:10A61000401AC008012101EB0040074902F05BFA33
:10A620000324002FBFD100E00C242046CBE700001C
:10A630009C420300944203000C2E030004488088CF
:10A64000A0F57F41FF3901D006F098BC70470000AB
:10A65000A02400200EB502A9019100F0EDFA6A468F
:10A66000012104F0D3F808B100200EBD0198007854
:10A670000EBD00002DE9F04107464FF6FF76104869
:10A68000B3DF78B102F056FE02460E480E49401A7A
:10A69000C008012101EB00400C4902F015FA03202B
:10A6A000BDE8F081064C43F20305A41E32466188E2
:10A6B0003846AFDFA842F3D16088401C6080F5E7E0
:10A6C000A22400209C42030094420300C02D0300FA
:10A6D000428800EB82020C328A4201D90220704784
:10A6E0008188A1F57F42FF3A06D0018821B18068B8
:10A6F000401C01D00020704701207047884204D2DE
:10A700000068401C01D0012070470020704770B5E0
:10A710000C468AB0064634F8300F8DF82000000A47
:10A720008DF82100A0788DF82200E0788DF82300C4
:10A73000042520216846FBF7B2FE42F64A20ADF818
:10A7400000009DF80D00ADF8045040F002008DF8B7
:10A750000D0020798DF8110008A8ADF80650029080
:10A76000308906F5B3726946FEF720FB0AB070BD6A
:10A77000F0B5344893B0002540F8225F08214560C9
:10A780008560C560056145612E480126223002249E
:10A7900001808570C670847144710471083003278C
:10A7A00006808570C47044710471083048210480AB
:10A7B0008570C770047144716846FBF770FE2248CB
:10A7C0000090224801901F488DF8086022300390C5
:10A7D000083005908DF809508DF80A600830079010
:10A7E0008DF810604C20ADF824001948089040F214
:10A7F0000110ADF830008DF832508DF833708DF8BF
:10A8000018608DF844408DF83C400E488DF8365065
:10A810008DF82C408DF845408DF83D400E958DF813
:10A8200034408DF842408DF846408DF83E406946F0
:10A830004430FDF746FC002801D0FCF7B9F913B00D
:10A84000F0BD000058220020C1DF02000112030009
:10A850002424002000B585B00821034604914FF65A
:10A86000FF7204A9684605F023F908B1FCF7A0F9C6
:10A870006846049904F038FC002801D0FCF798F9E8
:10A8800005B000BD3EB5027802230C46B3EB520F73
:10A8900017D1B0F80110ADF80010C1788DF8021092
:10A8A0008188ADF8041080798DF8060002AA01A90C
:10A8B0002046FCF7B7F8032202A96846FBF701FE21
:10A8C00008B100203EBD01203EBD000070B50D4620
:10A8D0000446142810D2FDF71BF968B1084904EBAF
:10A8E000840001EB4000D0F802102960C188A980E3
:10A8F000007AA871002070BD43F2020070BD000014
:10A90000C42D002070B5018890B0102961D1011DBF
:10A910002C226846FBF7AAFD9DF804004FF6FF764F
:10A9200003213446B1EB500F2BD004F0F3F89DF81F
:10A9300004006D4640080ED001280CD0022820D11A
:10A9400018E00D99281D1131FBF7B4FF18B100BFB5
:10A95000BDF82C4015E00CAA0BA9072004F0AEF8B6
:10A960000028EED10DE00D99281D491CFFF78AFF44
:10A970000028EDD10CAA0BA9072004F09FF80028AD
:10A98000F1D1BDF80000B44200EB8001124820F87C
:10A99000114000EB41000199C0F80210BDF8081009
:10A9A000C1809DF80A10017213D0BDF80000ADF807
:10A9B0002E000020ADF83040084E8DF82C000BAD75
:10A9C000044600BF56F8241028468847641C022C11
:10A9D000F8D310B070BD0000C42D00200427030080
:10A9E0002DE9F0414FF6FF760546B04213D00B4FEC
:10A9F000002400BF04EB840037F81000A84206D101
:10AA00002046FDF785F810B12046BDE8F081641CB2
:10AA1000A4B2142CEED33046F7E70000C42D00207A
:10AA20002DE9F043CFB00E460746082903D9072089
:10AA30004FB0BDE8F08317B30EB350204D90E846F9
:10AA4000CDF830D1B82114A8FBF729FD002043AA86
:10AA50000DF15001C0EBC00303EB00130B4442F8AF
:10AA60002030401C0828F5D32448254A0024801AA9
:10AA7000C0080222C14602EB0045884636E00022AB
:10AA8000114610466FDFD3E750216846FBF707FDFC
:10AA900037F814004DAB4BAA072104F043F8052802
:10AAA00010D007280ED09DF81100400812D00128C0
:10AAB00010D037F814202846124902F005F843F266
:10AAC0000220B5E737F8142028460F4901F0FCFFB3
:10AAD0000520ADE7C4EBC40000EB041101EB080056
:10AAE000172209F10101FBF7C1FC641CB442CBD36E
:10AAF000F2B2002143A86FDF9AE70000A4420300EE
:10AB000094420300042F03008C2F03003EB50C4633
:10AB1000054603F0FFFF0BE0BDF80000A04207D0A0
:10AB20002846029900F00EF810B1BDF800003EBDB5
:10AB300001AA6946072003F0C1FF0028ECD14FF6B7
:10AB4000FF703EBD2DE9F0410C46054600F11107AE
:10AB500001F111061022491C401CFBF7B2FC48B958
:10AB6000681C00F089FA28B1601C00F085FA08B171
:10AB7000012400E0002431463846FBF79BFE3B7879
:10AB80000222B2EB530F0CD00321B1EB530F08D0CC
:10AB90003378B2EB530F04D0B1EB530F01D0012146
:10ABA00000E00021084201D18C4302D00120BDE821
:10ABB000F0810020FBE7018811B9421892780AB1B0
:10ABC00001207047491C0829F7D30020704710B5B1
:10ABD0000C460346FFF7EFFF00280AD018882188AB
:10ABE000884205D10822A11C981CFBF76AFC08B119
:10ABF000002010BD012010BD142804D2024A00EB31
:10AC0000800022F810107047C42D002070B5054652
:10AC1000FFF7E6FE0446284603F0FCFD002808D1B5
:10AC2000142C06D2034B04EB84024FF6FF7123F879
:10AC3000121070BDC42D002010B50446142808D28F
:10AC4000FCF766FF28B1044904EB840031F81000DA
:10AC500010BD4FF6FF7010BDC42D00203EB5044658
:10AC600003F058FF0EE0019920464631FFF7AFFF91
:10AC700028B9019920462A31FFF7A9FF10B1BDF884
:10AC800008003EBD6A4602A9072003F017FF00280E
:10AC9000E9D14FF6FF703EBD7CB514460A000A4963
:10ACA000097802D015688D4203D323B11D688D4207
:10ACB00001D204207CBDCDE900431346024603487F
:10ACC00004F0F8F87CBD0000AC2400208C2E00209D
:10ACD00070B50C4606469AB010211848FBF7DFFB0A
:10ACE000174800252EB324B3047062003146134880
:10ACF000FBF7BCFB382102A81895FBF7D0FB0095A9
:10AD000018AB02AA21463046019504F0D3F800287A
:10AD10000DD110AA0DF10801C0EBC0030B4442F89D
:10AD20002030401C0828F7D3E1B210466EDF1AB07D
:10AD300070BD0570002108466EDFF8E78C2E0020FC
:10AD4000AC24002010B50A4941600A4800F069FEB1
:10AD500058B902F04FFA07491C238C2208740448A2
:10AD60008C39001F006800F0C2FD002010BD0000FB
:10AD7000D4280300983300202DE9F0412D4F002501
:10AD800020B17D604FF40640BDE8F08108790122D2
:10AD900058B1294E01280CD0264C4FF00208083437
:10ADA000022820D0032841D127E00A7103F086FB56
:10ADB0003AE0002000EB800116F82110022908D0AB
:10ADC000401C80B20228F5D33A707D6041F61D50D8
:10ADD000DAE700EB800006F8205006EB80004068C0
:10ADE00003F05EFB20E00D71A4F804800023012233
:10ADF0001248216801F054F916E00D71206803F043
:10AE00004FFB0D4923682831498801EB810206EB8D
:10AE10008201D1F804C0C4F800C04B60A3880B8144
:10AE2000A4F8048006F822500028ADD07D6048F2D6
:10AE30000D60A9E730260020C4320020CC26002077
:10AE4000FEB50646887A0D4670B3E86860B3002404
:10AE500027E0E86800EBC403002002909DF808009A
:10AE600040F002008DF80800597911B140F0080057
:10AE700001E020F0080040F010008DF8080004EB1D
:10AE8000840006EB4000191D1430CDE9001033F8A2
:10AE9000022B02A9304605F0AFFB002805D1641C47
:10AEA000E4B2A87AA042D4D80020FEBD01460348EF
:10AEB00002888A4200D0002070470000182D002030
:10AEC0002DE9FC5F0E008346DDE90C47C6F100006A
:10AED00098469246814600D40846012503E000BF0B
:10AEE00090FBFAF06D1C5045FADAA84500D94546AA
:10AEF00024B1002E01DB780700D5641EB80702D507
:10AF0000B8F1000F0AD0F80708D13CB1A54205D22C
:10AF100020215846641EFDF70BFEF6E7002E02DAEC
:10AF20004E462D2102E0780703D52B215846FDF728
:10AF3000FFFD07F0030002280BD1B8F1000F08D184
:10AF40003CB1A54205D230215846641EFDF7F0FD04
:10AF5000F6E7CDE90047434652463146584606F0EB
:10AF60007BFFBDE8FC9F000070B50D4604460068FD
:10AF70004FF4887102F0FEF94FF49071206802F0EE
:10AF8000F9F94FF49271206802F0F4F94FF4A271CC
:10AF9000206802F0EFF94FF4AC71206802F0EAF992
:10AFA00020681249C0F804132068690740F307308D
:10AFB000090E002804DB00F1E02080F8001405E011
:10AFC00000F00F0000F1E02080F8141D206840F32D
:10AFD0000730002809DB00F01F02012191404009E1
:10AFE000800000F1E020C0F8001170BD10034200A5
:10AFF000024600201268530713D502F0030001280F
:10B0000002D002280CD105E0C2F383100B68801C2B
:10B01000184404E00223086803EB925210440860CD
:10B02000012070470248007A002800D001207047B4
:10B0300098330020F0B58488A518944200D82246A1
:10B04000A41AC288D6189A4200D81346D21A4B883E
:10B050000788BB420CD34088834209D88888A04225
:10B0600006D3A84204D8C888904201D3B04201D97F
:10B070000020F0BD0120F0BD0021425C0AB101209A
:10B080007047491C1029F8D300207047800701D071
:10B0900000207047012070477CB5044601A800904D
:10B0A0000D46002322460E4805F0A2FE13280CD0C0
:10B0B000002809D0082807D0112805D043F2014103
:10B0C000884201D0FBF774FD7CBDBDF80430A3427B
:10B0D000FAD8224629460248FDF77EFD7CBD0000D5
:10B0E0009C2200200A4810B5807860B1002401E05D
:10B0F000022C06D02046FDF777FA641C042CF7D307
:10B1000010BD0324F6E7BDE81040FDF78DBA00003E
:10B110007024002003480179C90702D00078FDF7A8
:10B12000D5BB704770240020172101804180002189
:10B13000017141711B218171C17170472DE9FE4F71
:10B140002E4F984692460D00814601D000260DE014
:10B15000684600F089FB6A460021484603F0B2FACF
:10B160003878009E10B99DF8090098B152463146D2
:10B17000484606F077FA0446014600224846FEF7A4
:10B1800043FE0D2C37D008DCA4B3082C33D00B2C95
:10B1900009D130E00520BDE8FE8F112C1ED0A4F5AA
:10B1A0004050023827D0204602F0C4F80246144826
:10B1B00014494B46401AC008012101EB00401249D6
:10B1C00001F089FC5FF00305B8F1000F04D03246AE
:10B1D00021464846FEF7C8FA2846DCE72A46F978B1
:10B1E0004846FCF779FC5246B9784846FCF774FCAF
:10B1F0000025E9E7FFE72546E6E700003C250020BB
:10B20000DC420300944203000C3A030070B50E4682
:10B210000C49154604460978FCF746FC00280FD077
:10B22000204603F0F5F900282A463146204603D08F
:10B23000BDE8704003F0F2B9BDE87040FEF7F4B924
:10B2400070BD00003425002070B5094D0646A97870
:10B25000FCF72AFC0446E9783046FCF725FC014659
:10B2600022463046BDE870400123FFF767BF00006B
:10B270003C250020F0B585B005460027142168461E
:10B28000FBF70DF9A5F57F40ADF80250FF3825D04A
:10B290002846FFF735F9040022D01B481B49401A05
:10B2A000C6080B2C22D0112C1ED0A4F54050023819
:10B2B0000ED0204602F03EF80246012000EB064088
:10B2C0002B46134901F007FC2146284605F0D0FD26
:10B2D00010483A4681782846FCF7FEFB05B0F0BDE1
:10B2E0000E208DF800000BE00127F1E70F208DF80C
:10B2F0000000022000EB06402A46074901F0E4FB6B
:10B300006846FEF701FBE3E7944203009442030022
:10B31000942C030090240020E82C03000A460249E4
:10B320004978FCF7D9BB0000902400202DE9F041BA
:10B33000002786B080463E46FFF72AF9040022D057
:10B34000112C22D01B481C49401AC508862C1ED03F
:10B35000A4F5405002380ED0204601F0EBFF024623
:10B36000012000EB0540434614A101F0B4FB214647
:10B37000404605F07DFD39464046FFF7CFFF06B059
:10B380003046BDE8F0810126F5E70127F3E71422F6
:10B390001A496846FBF76AF80220ADF8028000EB14
:10B3A0000540424616A101F08FFB6846FEF7ACFA55
:10B3B000E1E7000094420300944203006773636D69
:10B3C0005F6C6F63616C5F64625F63616368655F3C
:10B3D00075706461746528292072657475726E6574
:10B3E0006420257320666F7220636F6E6E5F6861E4
:10B3F0006E646C653A20256400000000B0260300EE
:10B40000466C6173682066756C6C2E20436F756C9A
:10B4100064206E6F742073746F7265206461746150
:10B4200020666F7220636F6E6E5F68616E646C651C
:10B430003A202564000000002DE9FF410026244841
:10B4400000F0ECFA2248001F074600F0E7FA214C12
:10B450002149A06800900D6800E0009869462840E6
:10B4600004EB80000C30FFF7C3FD0028F5D101AAE2
:10B47000009901EA050304EB8303491CDB6842F8E9
:10B480002030401C00910228F2D3019800F0030004
:10B4900001280BD0022810D10198032101EB905014
:10B4A0000099BDF80A6001EB900005E00198BDF835
:10B4B0000A60C0F3831008440090384600F0ABFAED
:10B4C00008B10098A06004B03046BDE8F0810000EB
:10B4D00068390020503500207026002088B04FF4D5
:10B4E0008041002001F06AFB08B1FBF761FB01F02D
:10B4F000BDF9FBF701FC08B1FBF75AFB544A0121E7
:10B500005448FBF7EDFB08B1FBF752FB524903200F
:10B51000FDF792F908B1FBF74BFB69460020FDF7F8
:10B52000A7F808B1FBF744FB9DF8000002287DD086
:10B530005FF0000501F04CFC08B1FBF739FB01F0AE
:10B540000DFE08B1FBF734FB00246946012000948E
:10B5500001F094FC08B1FBF72BFB684601F00EFDEF
:10B5600008B1FBF725FB3D4A0A210820FBF79CFBAD
:10B5700008B1FBF71DFBFEF77BFC38480021C43007
:10B5800000F0D8FA08B1FBF713FBFBF7DBF905F085
:10B5900039FE3348512101606421416001218160FD
:10B5A000017301462F4805F0A7FC1C216846FAF7F5
:10B5B00076FF4FF4A030CDE900404FF4F020032691
:10B5C00002908DF80C602848ADF80E408DF81040C0
:10B5D000CDE905406846FCF7ADF908B1FBF7E8FA9C
:10B5E0001F4810305FF0000180F83C4080F83D407B
:10B5F00080F83E4001EB410200EB8202491C54609E
:10B600000529F7D303F020FC18481949401AC0084F
:10B6100006EB004017A101F053FA0E4800224FF448
:10B6200000410068FBF796FB18B100E00DE0FBF766
:10B63000BFFA2846FBF7CAF9FBF716FB01F024F91D
:10B640000028F9D101F0D8FBF6E7012572E70000E8
:10B650004171020048260300658702000027002090
:10B66000182C0020942200209F90020044430300E5
:10B6700094420300484944204B6579626F617264CB
:10B68000206578616D706C65207374617274656497
:10B690002E000000002360F30F03184661F31740EB
:10B6A00062F31F60704770B5144682880E460546E7
:10B6B0002088111D0144921C994201D8FE2A01D90B
:10B6C0000C2070BD521C32542088FF21401C80B2D7
:10B6D000208031542088401C80B220808119288825
:10B6E00006F0A5FB2188084480B22080AA8842B1D8
:10B6F000A96841B13044FAF7B9FE2088A988084406
:10B700002080002070BD072070BD2DE9F047C5885E
:10B710001E1DB6FBF5F78946B6FBF5F1044605FBA1
:10B72000176C407916686843DDF820A0F718001FF1
:10B73000874200D9C61A166001E02468491E002914
:10B74000FBD1A5EB0C078846B74216D818E004EBEE
:10B750000C00001D09EB0803BAF1000F3A4602D0B5
:10B760000146184600E01946FAF780FE2468F61BE9
:10B770004FF0000CB844B54201D9374600E02F46DF
:10B78000002EE4D1BDE8F08730B5024651B101F09A
:10B7900029FA0021074C08E034F821301568AB4243
:10B7A00002D11160002030BD491C8142F4D3052034
:10B7B00030BD000000000000BFF35F8F00F016B93D
:10B7C000F8B50F46017814460546012901D168787D
:10B7D00030B12088821C9A4232D8012902D006E07A
:10B7E0000720F8BD69780144891C994228D8181AA5
:10B7F000801E86B2ADF800602188B81C08446946F6
:10B800007DDF0028EDD12978022904D06878BDF8C1
:10B810000020904205D3BDF80000B04201D80920B5
:10B820000AE00820012905D16978B14202D8ADF8B3
:10B83000001001E0ADF80060BDF80010FE2901D94C
:10B840000C20F8BD2288491CB9542188491C89B2B2
:10B85000218078542088401C2080BDF800100844C6
:10B8600020800020F8BD0000034A00219268C0E952
:10B8700000218160704700003C25002070B586B033
:10B880000D460646144614216846FAF708FE8DF860
:10B890000050ADF802402046FFF7CEF9ADF80400A5
:10B8A000142269463046FAF7E1FD06B070BD70B566
:10B8B0004FF6FF750E46A84201D1002000E0401C63
:10B8C00084B208E02146304600F090F808B12046E6
:10B8D00070BD641CA4B2FF2CF4D9284670BD10B50D
:10B8E000FAF7E3FC08B1002010BD112010BD10B51F
:10B8F00031B1B2FBF3F403FB14241CB1092010BDD9
:10B900000E2010BD01600021416081608281C381F1
:10B91000084610BD70B50C460546FAF77BFC0028BA
:10B9200002D021882868084470BD10B50A8849886B
:10B930008A4203D1FAF7B0FC012010BD002010BDEF
:10B9400070B50C460546FAF78AFC002802D06188DB
:10B950002868084470BD10B50A8849888A4203D116
:10B96000FAF774FC012010BD002010BD01F01F0388
:10B9700001229A40D243490900EB8100114600F0B0
:10B9800059B80A4601F01F030121994010B5520928
:10B990000C4600EB820000F05DF8204000D0012052
:10B9A00010BD2DE9F04180460D460024481E0121BE
:10B9B00001EB501716E058F82400C04390FAA0F0AD
:10B9C000B0FA80F020280CD200EB4416AE4208D228
:10B9D00031464046FFF7D5FF0028ECD13046BDE8A0
:10B9E000F081641CA742E6D82846F8E74A0950F8D7
:10B9F000220001F01F0201219140084000D00120E7
:10BA0000704701F01F0301229A40490900EB8100B1
:10BA1000114600F029B8002100F017B8012100F00C
:10BA200023B8012100F016B808B56A46FAF789FC78
:10BA3000009808BD08B56A46FAF769FC009808BD89
:10BA400008B56A46FAF77DFC08BD08B56A46FAF7FC
:10BA50005EFC08BD08B56A46FAF74CFC08BD08B59F
:10BA60006A46FAF73BFC08BD08B56A46FAF742FC9D
:10BA7000009808BD08B56A46FAF770FC009808BD42
:10BA800038B5044600258DF800506846FBF780F96C
:10BA900021686268086890420ED9401E08600178EB
:10BAA000238AE26801FB0325227A2168101AC0B2BA
:10BAB0000A79824200D208719DF80000FBF78CF9E8
:10BAC000284638BD38B5054600208DF800000C46E4
:10BAD0006846FBF75DF9E868298A201AB0FBF1F1A6
