:020000040002F8
:10600000C85D0020DD630200E5630200E763020073
:10601000E9630200EB630200ED6302000000000090
:10602000000000000000000000000000EF6302001C
:10603000F163020000000000F3630200F563020058
:1060400065660200F7630200A16E0200F7630200BA
:10605000F7630200F7630200A9650200D16602003F
:10606000F7630200F7630200F7630200F7630200C0
:10607000F7630200F7630200F7630200F7630200B0
:10608000F7630200B9660200F7630200F7630200DB
:10609000F7630200F7630200916B0200F7630200EE
:1060A000F7630200F7630200F7630200F763020080
:1060B000F7630200F7630200000000000000000028
:1060C000F7630200F7630200F7630200F763020060
:1060D000F7630200F7630200F763020000000000AC
:1060E00000000000000000000000000000000000B0
:1060F00000000000000000000000000000000000A0
:10610000000000000000000000000000000000008F
:10611000000000000000000000000000000000007F
:10612000000000000000000000000000000000006F
:10613000000000000000000000000000000000005F
:10614000000000000000000000000000000000004F
:10615000000000000000000000000000000000003F
:10616000000000000000000000000000000000002F
:10617000000000000000000000000000000000001F
:10618000000000000000000000000000000000000F
:1061900000000000000000000000000000000000FF
:1061A00000000000000000000000000000000000EF
:1061B00000000000000000000000000000000000DF
:1061C00000000000000000000000000000000000CF
:1061D00000000000000000000000000000000000BF
:1061E00000000000000000000000000000000000AF
:1061F000000000000000000000000000000000009F
:10620000DFF80CD000F092F90048004785DD02006D
:10621000C85D002000B583B002900091019244F265
:10622000010071466A4601F0EFFA03B000BD0000BC
:1062300030B450E8012F93B2C48923448489A34227
:1062400028BF1B1B0489A34202BFBFF32F8F00206E
:1062500007E0C3EA020340E80134002CE9D14FF023
:1062600001000A6030BC704750E8012FC2EA0242C8
:1062700040E801210029F7D1704730B450E8022FDF
:106280001FFAA2F3C488A34202BFBFF32F8F0020DE
:106290000DE0C48923448489A34228BF1B1BC2EAA2
:1062A000034340E80234002CE8D14FF001000A60BB
:1062B00030BC704750E8022FC2EA224240E8022177
:1062C0000029F7D17047034653E8022FD988B2EB73
:1062D000324F4FF0000017BF92B241EA014142EA4B
:1062E000014104E05A68B2EB324F08BF012043E895
:1062F0000212002AE8D1704730B4044654E8000F77
:106300000D4644E80053002BF8D1156030BC7047AF
:1063100030B4044654E8000F40EA010544E8005355
:10632000002BF7D1156030BC704730B4044654E8F8
:10633000000F00EA010544E80053002BF7D1156077
:1063400030BC704730B4044654E8000F80EA0105C1
:1063500044E80053002BF7D1156030BC704730B4CF
:10636000044654E8000F00EB010544E80053002BFD
:10637000F7D1156030BC704730B4044654E8000FC4
:10638000A0EB010544E80053002BF7D1156030BCA9
:10639000704770B404464FF0000054E8006F0D6879
:1063A000AE4207BF44E80023012044E800630E60CA
:1063B000002B1CBF0020F0E770BC704730B40446CF
:1063C00054E8000F88422CBF451A054644E80053A4
:1063D000002BF5D1156030BC70470000064880479F
:1063E00006480047FEE7FEE7FEE7FEE7FEE7FEE7BA
:1063F000FEE7FEE7FEE7FEE7096C0200016202002D
:106400002DE9F05F0546002092469B4688460646E9
:10641000814640241BE0284641464746224600F07C
:1064200074F853465A46C01A914110D31146184683
:10643000224600F016F82D1A67EB01084F46224657
:106440000120002100F00DF817EB00094E41201E3D
:10645000A4F10104DFDC484631462A464346BDE844
:10646000F09F202A04DB203A00FA02F10020704756
:106470009140C2F1200320FA03F319439040704782
:1064800000487047B888030040EA01039B0703D027
:1064900009E008C9121F08C0042AFAD203E011F863
:1064A000013B00F8013B521EF9D27047D2B201E025
:1064B00000F8012B491EFBD270470022F6E710B509
:1064C00013460A4604461946FFF7F0FF204610BD62
:1064D000421C10F8011B0029FBD1801A704730B50F
:1064E00004460020034600E05B1C934203D2E05CBC
:1064F000CD5C401BF8D030BD034611F8012B00F8ED
:10650000012B002AF9D118467047202A04DB203AD3
:1065100021FA02F00021704721FA02F3D040C2F1C3
:10652000200291400843194670470000064C074D71
:1065300006E0E06840F0010394E807009847103453
:10654000AC42F6D3FFF760FE2CA403004CA403007A
:1065500070B58C1810F8015B15F0070301D110F825
:10656000013B2A1106D110F8012B03E010F8016B52
:1065700001F8016B5B1EF9D12B0705D40023521ED5
:106580000DD401F8013BFAE710F8013BCB1A921C3D
:1065900003E013F8015B01F8015B521EF9D5A1423B
:1065A000D8D3002070BD00002DE9F84F0026002050
:1065B00000904FF480770125002410E0384609F060
:1065C000A3F840B100BF25480068284018B13846FC
:1065D00009F08CF82E436D00381D87B2641C082C1E
:1065E000ECD34FF4BE7009F08FF850B14FF4BE7089
:1065F00009F07CF846F000466A460121002009F0C7
:1066000005F8F0B210B3012500241DE005EA0600EC
:10661000C0B100BF124850F82400C0F304208146E6
:1066200000BF0F4850F82400C0F3014082462046C6
:1066300003F0EAFE8046B8F1000F02D0514648460A
:10664000C04700BF6D00641C082CDFD306F000407B
:1066500010B168460EF088F9BDE8F88F0463004079
:106660001065004010B54FF4807008F0B4FA80B1A6
:106670004FF4807008F0B8FA012008F0BFFA0D4816
:10668000407930B901200B49487108460168002063
:1066900088474FF4827008F09EFA50B14FF4827030
:1066A00008F0A2FA022008F0A9FA024801680120C5
:1066B000884710BD7426002010B5034A1068034AAD
:1066C0001168884710BD0000D8260020D42600207D
:1066D000FEB54FF4827009F0B5FD002837D04FF4B5
:1066E000827009F0B9FD6C4890F82E0018B16A4824
:1066F00090F82F0058B300208DF8000066484068DD
:10670000019065480189ADF80810C06818B90020EB
:106710006149087412E06048008B5F49488308466D
:10672000C06848600846008B08810020C8600846A1
:1067300090F82E0010B9002009F09AFD5648016823
:10674000684688470020544981F82F0000BF52480E
:1067500090F82E00002852D04FF4807009F072FD9E
:1067600000284CD04FF4807009F076FD4A48408BE9
:10677000494991F82D10884216DD4748408B46491B
:1067800091F82D10401A444948830A4612890B4655
:106790005B8BD21A0B465B6803EB42000A4692F809
:1067A0002D1009F047FD23E03B48408B3A4991F812
:1067B0002D1088420FD13848C06860B10120364999
:1067C00081F82F00002048830A4692F82D10D068E7
:1067D00009F030FD0CE03048408B2F4991F82D1026
:1067E000884205D101202C4981F82F0000204883E0
:1067F0004FF4827009F030FD042009F039FD4FF4A8
:10680000887009F01FFD70B14FF4887009F024FD05
:1068100000202149087402208DF800000846016814
:106820006846884700BF4FF48A7009F00BFD38B105
:106830004FF48A7009F010FD0020174908742AE00F
:106840001548456924E0B5FA85F64FF00040F04060
:106850008543B00000F58C74204609F0F3FCB8B114
:10686000204609F0F9FC01208DF80000A4F58C7099
:10687000C0F3C7008DF80400A4F58C70012121EA53
:1068800090018DF80510044801686846884700BFEC
:10689000002DD8D100BFFEBDA832002010B500F0F9
:1068A00007FB10BDF8B504460D46164600BF0B4861
:1068B000007808B900F0FCFA00BF0020009068469C
:1068C00001F001FA32462946204600F009F8074651
:1068D0009DF8000001F0FEF93846F8BD403B00206D
:1068E0002DE9F047074688461646C24607EB4701A2
:1068F0001B4800EBC109D9F8140020B1012811D0C0
:10690000022826D11EE0484600F00AFB0546B542A3
:1069100001D2002405E0344632465146484600F094
:1069200054FC18E0484600F0FBFA0546B54201D297
:10693000284600E03046044622465146484600F0CC
:1069400044FC08E032465146484600F005FC044647
:1069500001E0002400BF00BF2046BDE8F087000032
:10696000583B00200FB438B5044606A800906A468C
:106970002046059900F007F80546002000902846BB
:1069800038BC5DF814FB2DE9F04F99B082460D46F6
:10699000144603A814904020159000201690CDF8BE
:1069A00060A0179000BF2E786D1C06B9DDE0252E83
:1069B00079D100274FF0010900BF2E78232E12D085
:1069C0002B2E0CD02D2E02D0302E10D103E047F00C
:1069D00001076D1C0EE047F002076D1C0AE047F04E
:1069E00004076D1C06E047F008076D1C02E04FF03D
:1069F000000900BF00BFB9F1000FDED14FF0000861
:106A000000BF2E78302E01DB392E00DD07E06D1C33
:106A1000A6F1300008EB880100EB4108F1E700BF68
:106A2000002013902E782E2E12D16D1C00BF2E78D0
:106A3000302E01DB392E00DD09E06D1CA6F130009F
:106A4000139901EB810100EB41001390EFE700BFC8
:106A50002E7800BF6C2E01D0682E02D16D1C2E78CE
:106A600000E000E0F6E700BF702E5DD008DC252EC8
:106A70006AD0582E35D0632E09D0642E69D113E028
:106A8000732E3CD0752E1DD0782E62D128E021685F
:106A9000081D2060D1F8009009F0FF0B594614A89A
:106AA00000F038FB56E058E02168081D2060D1F85E
:106AB0000090CDE900870A22494614A8139B00F0F4
:106AC0003DFA47E02168081D2060D1F80090CDE92B
:106AD00000870A22494614A8139B00F0A5FA39E062
:106AE00000BF2168081D2060D1F80090CDE9008723
:106AF0001022494614A8139B00F096FA2AE0216858
:106B0000081D2060D1F800B000BF9BF800600BF1B9
:106B1000010B06B906E0314614A800F0FBFA1798FD
:106B20000028F2DA00BF15E02168081D2060D1F8C6
:106B30000090002008210B461022CDE900104946A4
:106B400014A800F071FA05E0252114A800F0E2FA7B
:106B500000E000BF00BF6D1C03E0314614A800F048
:106B6000D9FA17980028BFF61EAF00BF1798002863
:106B70000ADD169820B103A95046169AFFF792FE37
:106B8000DDE9161008441790179819B0BDE8F08F8A
:106B900070B5094A0021084600F05EFF044600BFB8
:106BA00025463DB100BF05A240F287112846FFF7F8
:106BB00031FB00BF00BF70BD757E02002E2E5C2E23
:106BC0002E5C2E2E5C2E2E5C2E2E5C2E2E5C636F89
:106BD0006D706F6E656E74735C736F6674646576EA
:106BE0006963655C636F6D6D6F6E5C6E72665F731B
:106BF00064682E6300000000014802490860704785
:106C00000090D003A427002010B507F0ABFB28B1FB
:106C100092480088C0F304209149086007F0FAFB0D
:106C200010B190489049486707F030FC30B18B486C
:106C3000E0380068C0F342308C49086007F052FC2D
:106C400028B18B48006820F080708949086007F0FF
:106C500067FC48B10020874908604FF08041C1F8C7
:106C600010018249091F086007F086FC18B1032053
:106C70007E496431086007F09DFC68B105207E49BB
:106C8000086001207C497831086000207A49083189
:106C900008603F20091F086007F0AAFC002855D0B3
:106CA0006E48E0300068754908606C48E430006860
:106CB000091D08606948E8300068091D08606748D8
:106CC000EC300068091D08606448F0300068091D58
:106CD00008606248F4300068091D08605F48F830B9
:106CE00000686649203108605C48FC300068091D76
:106CF000086063480068091D08606148001D00685D
:106D0000091D08605E4808300068091D08605C487D
:106D10000C300068091D0860594810300068574958
:106D200040310860564814300068091D0860544816
:106D300018300068091D086051481C300068091DA2
:106D400008604F4820300068091D086007F0DEFA2F
:106D500030B14248CC38006800F04F004949086023
:106D600007F02CFB40B14848006800F0010018B162
:106D70006FF001004449086007F06AFB28B14348FE
:106D8000006840F480604149086039487438006800
:106D900040F4700036497439086000BF00BF00BF7E
:106DA000BFF34F8F00BF00BF00BF00BF00BF00BFD9
:106DB000BFF36F8F00BF00BF00BF3548006800F011
:106DC000004028B93248001D006800F00040E8B3D8
:106DD00001203049086000BF2F4800680028FBD020
:106DE00015202B49086000BF2B4800680028FBD005
:106DF00015212748001D016000BF274800680028B2
:106E0000FBD000202349086000BF23480068002809
:106E1000FBD000BF00BF00BF00BF00BFBFF34F8F5C
:106E200000BF00BF00BF1248F038006800F4E06007
:106E30001A490843001D0E49F039086000BF00BF21
:106E400000BFBFF34F8F00BF00BF00E003E000BFF3
:106E500000BF00BFFDE7FFF7CFFE10BD2403001009
:106E6000403501400DF0ADBA00C007403C05004080
:106E7000FCED00E00C0100401056004020C5004031
:106E800024040010E40E0040000400403C170040C1
:106E90000012001004E5014000E401400000FA0582
:106EA00010B502490868804710BD00007C2600200C
:106EB00010B5124C02202061606111A0A06113493D
:106EC000E1614FF4007121620021A1626162E1621F
:106ED0000BA0A0640E49E164102121650021A16589
:106EE0006165E1650BA1E01DFFF706FB0AA12046E5
:106EF000FFF702FB2020A07110BD0000403B0020E6
:106F00005465726D696E616C00000000B83B002032
:106F1000B83D0020525454005345474745520000A5
:106F200010B501460A69CB689A4204D88C68641E81
:106F3000E41AA01801E0D41A601E10BD2DE9FC5F10
:106F400006460F4692469846DDE90C45002F01DAC9
:106F5000784200E0384683464FF0010903E09BFB8E
:106F6000FAFB09F10109D345F9DAC84500D9C14650
:106F700034B1002F03DB05F00400042800D1641EA7
:106F800005F0020010B1B8F1000F11D005F00100BA
:106F900070B96CB108E0641E2021304600F0BAF8E8
:106FA000F068002800DA02E00CB1A145F3D300BF7D
:106FB000F068002836DB002F05DA7F422D213046AD
:106FC00000F0A8F807E005F00400042803D12B2105
:106FD000304600F09FF8F068002823DB05F002003F
:106FE000022814D105F0010088B9B8F1000F0ED1C4
:106FF0006CB108E0641E3021304600F08BF8F06878
:10700000002800DA02E00CB1A145F3D300BFF0681C
:10701000002807DB4346524639463046CDE9004555
:1070200000F002F8BDE8FC9F2DE9FC5F8046894630
:1070300015461E460C9CCDF804900127BB4605E082
:107040000198B0FBF5F001900BF1010B0198A842FB
:10705000F6D25E4500D9B3460D9800F00100D0B9D4
:10706000CCB10D9800F00200022803D116B93020EF
:10707000009001E02020009009E0641E4046009945
:1070800000F048F8D8F80C00002800DA02E00CB153
:10709000A345F2D300BFD8F80C00002835DB09E087
:1070A000012E01D9761E04E0B9FBF7FAAA4500D2F9
:1070B00001E06F43F4E700BF00BFB9FBF7FA0AFB3A
:1070C0001799134810F80A10404600F023F8D8F832
:1070D0000C00002800DA03E0B7FBF5F7002FECD135
:1070E00000BF0D9800F0010078B174B109E0641E92
:1070F0002021404600F00EF8D8F80C00002800DAF5
:1071000002E00CB1A345F2D300BFBDE8FC9F000034
:107110008087030070B504460E46A568681C616848
:10712000814206D320684655681CA060E068401C78
:10713000E060D4E9011088420DD1A268216820697D
:10714000FFF7B0FBA168884203D04FF0FF30E0604A
:1071500001E00020A06070BD2DE9F047044689469B
:1071600017464FF0000AE56800BFD4F81080A84524
:1071700003D9A8EB0500461E04E0A5EB0800401C5F
:10718000A1680E1AA068401BB04201D9304601E048
:10719000A068401B0646BE4201D2304600E0384699
:1071A00006466168481932464946FFF76DF9B24410
:1071B000B144BF1B3544A068A84200D10025E5605A
:1071C000002FD2D15046BDE8F0872DE9F0470446A4
:1071D00089461546E668A068871BAF4208D96168F2
:1071E00088192A464946FFF74FF97019E06010E008
:1071F000B8466168881942464946FFF745F9A5EB4C
:10720000070809EB070142466068FFF73DF9C4F83B
:107210000C80BDE8F08702E008C8121F08C1002AF0
:10722000FAD170477047002001E001C1121F002A07
:10723000FBD170470146202908DA012088400A4A1C
:10724000104008B1012070470020FCE7402909DA0E
:10725000A1F12000012202FA00F008B10120F2E7BA
:107260000020F0E70120EEE7FC06FFBD00BFEFF3D2
:107270001081084672B67047F8B505460E46D6B975
:10728000694628460CF09AF9044643F202018C4202
:107290000AD000BF274637B100BF3B4AB12138466C
:1072A000FEF7B8FF00BF00BF9DF80000C0F340002C
:1072B00000B1F8BD00BF002128460CF091F904464A
:1072C000002C5ED0112C5CD00D2C21D12F49304ADE
:1072D000891AC908022242EA01402A462D4908F0CB
:1072E000E5FC1321284676DF0446002C49D02046D1
:1072F00009F002FB07462549254A891AC9080222D6
:1073000042EA01402B463A4623A108F0DBFC38E074
:107310000B2C0BD11D491E4A891AC908022242EAC8
:1073200001402A462A4908F0C1FC2AE043F2020043
:1073300084420BD11549164A891AC908022242EA29
:1073400001402A46234908F0B1FC1AE0204609F022
:10735000D3FA07460D490E4A891AC908012242EAA2
:1073600001402B463A461CA108F0ACFC00BF274662
:1073700037B100BF044AE0213846FEF74BFF00BF9B
:1073800000BF00BF95E70000E0950300A4A4030040
:107390006CA403009891030073645F626C655F677F
:1073A00061705F646973636F6E6E65637428292012
:1073B00072657475726E6564202573206F6E20632C
:1073C0006F6E6E5F68616E646C652025642E0000D0
:1073D000589203000C920300417373657274696ED6
:1073E000672E20706D5F636F6E6E5F73656375727D
:1073F0006528292072657475726E65642025732076
:107400006F6E20636F6E6E5F68616E646C652025C1
:10741000642E000070B505460C4605B10CB900207D
:1074200070BD287840082178B0EB510F01D00020C2
:10743000F6E70622611C681CFFF751F808B9012025
:10744000EEE70020ECE7014601F0030008B9012057
:1074500070470020FCE7024650680068401E084064
:1074600008B9012070470020FCE70246002104E033
:10747000505C08B101207047491C0629F8D3002050
:10748000F9E710B50346D868884206D88818401E28
:107490001C69A04201D8012010BD0020FCE70000BB
:1074A00010B504466CB10848C068A04209D8064827
:1074B0000069A04205D3204606F073F908B1012007
:1074C00010BD0020FCE70000A827002070B504468E
:1074D0000D4604F22740FFF7C8FF0646012D06D0EF
:1074E000022D0DD0032D11D0042D19D113E0A07958
:1074F00028B194F8240010B90EB1012070BD00BF6E
:10750000E07910B10EB10220F8E700BF207A08B18F
:107510000320F3E700BF607A08B10420EEE700BF64
:107520000020EBE70146481C052290FBF2F302FB2A
:107530001300C0B27047014691F82420012A01D1FE
:10754000EE2000E01F20704710B50122022100202C
:1075500002F084FB044600BF1CB1072C01D020467A
:1075600010BD00BF07220221012002F077FB044674
:1075700000BF1CB1072C01D02046F1E700BF0A2252
:107580000021084602F06AFB044600BF1CB1072C2C
:1075900001D02046E4E700BF0020E1E770B5ACB0C1
:1075A000AC2101A8FEF789FF052602208DF8040012
:1075B00001208DF806008DF80760ADF814001F4912
:1075C00006911F480A903C2201A91E48FEF75CFF65
:1075D00001218DF87D108DF87E1000218DF87F102F
:1075E0002191229101218DF880102821239140F6CC
:1075F000B831249101218DF88110A021259144F208
:107600005061269110482A9010482B9001A91048EB
:1076100000F0C0FF044600BF25463DB100BF0DA2EB
:1076200040F2DE412846FEF7F5FD00BF00BF012114
:10763000074800F097FF2CB070BD00000424002024
:107640000C240020BC2C0020F51103006D850200E5
:10765000782800202E2E5C2E2E5C2E2E5C6D61690B
:107660006E2E630070B50446012C02D103F014FBAA
:1076700014E0012010F06CFA0321094801F066F8CB
:10768000054600BF2E463EB100BF06A24FF4CC71A6
:107690003046FEF7BFFD00BF00BF00BF70BD000059
:1076A000782800202E2E5C2E2E5C2E2E5C6D6169BB
:1076B0006E2E630070B58CB004460D461646002051
:1076C00005E0C0F10F01615C0DF80010401C1028AE
:1076D000F7D30D2104A8FEF7F0FE002005E02A5C98
:1076E000C0F10F0304A9CA54401C0328F7D368460D
:1076F00046DF002005E0C0F10F0208A9895C315483
:10770000401C0328F7D30CB070BD10B5044602200E
:1077100002F0F8F810BD000010B5044602480178E8
:10772000204601F065FA10BD0026002010B50024A7
:1077300007E00749096811F83400012109F0ACF9A4
:10774000641C044800788442F3D3002010BD00007C
:10775000882600208C2600202DE9F84306460D4699
:1077600017460A2F02D20720BDE8F88309F0D8FA9D
:1077700038B909F06BFA044600BF204600B1F3E7C0
:1077800000BF184806601848057018480760184878
:107790000021016041608160C160164A1160516042
:1077A00015E006EBC50814480068009098F8020040
:1077B0008DF8010098F80000104A694609F0C2F9F6
:1077C000044600BF204600B1CEE700BF00BF281E20
:1077D000A5F10101CDB2E4D1094A0021094800F028
:1077E00007FAC1E7882600208C260020902600207A
:1077F000F832002098260020F084030071C60200B1
:1078000009AE0200EC8403002DE9FE4307460E4654
:10781000144672B600BF08F049FB00BF00BF08F075
:10782000ADF80028FBD100BF00BF012F0CD06FF4D2
:107830008050384498B1B0F5405F2CD06FF440517F
:107840000844002847D115E03149324A891AC9084D
:10785000012242EA014030A108F01EFA47E02C491B
:107860002C4A891AC908012242EA014032A108F0D3
:1078700013FA3CE025462649DFF898C0A1EB0C013D
:10788000C9084FF0010C4CEA014034A1D5E900329F
:1078900008F018FA2BE02546A86809F02DF8804674
:1078A000D5E900108DE8430019491A4BC91AC908D7
:1078B000012343EA014043462FA1AA6808F03CFA9D
:1078C0001349144A891AC908012242EA014034A125
:1078D00008F0E2F90BE00E490E4A891AC9080122A4
:1078E00042EA0140324633A108F0E0F900BF00BF90
:1078F00000BF3648006800F0010000B100BE00BFC4
:1079000022463146384600F063F8BDE8FE830000A9
:1079100024A503006CA40300534F46544445564924
:1079200043453A20415353455254494F4E20464116
:10793000494C454400000000534F465444455649C5
:1079400043453A20494E56414C4944204D454D4F00
:10795000525920414343455353000000415353457E
:107960005254494F4E204641494C454420617420B1
:1079700025733A25750000004552524F5220257557
:10798000205B25735D2061742025733A25750D0AEF
:1079900050432061743A2030782530387800000058
:1079A000456E64206F66206572726F72207265701A
:1079B0006F727400554E4B4E4F574E204641554CFA
:1079C000542061742030782530385800F0ED00E004
:1079D00018B5012300939DF800301E4B18605960C4
:1079E0009A606FF48043034463B1012B19D1194BA2
:1079F000DA60DB681B68174CA3612346DB685B68B1
:107A0000E3610EE0134B1A611B699B68114C6361C3
:107A100023461B691B68A36123461B695B68E361FE
:107A200000BF00BF0B4B1B680A4B5B68094B9B6890
:107A3000084BDB68074B1B69064B5B69054B9B6971
:107A4000044BDB6972B600BF9DF80030002BFBD100
:107A500062B618BD083300202DE9F84307460C46EE
:107A6000904626480088844244DC4FF6FF7500208B
:107A70000090684600F027F900BF214890F8009078
:107A80002048007806F036FC484501D1012000E08E
:107A9000002030B91B480578007806F02BFC194906
:107AA00008709DF8000000F015F94FF6FF70854250
:107AB0001ED01548006840F835808FB1002C0FDDCE
:107AC000124909680D4A128805FB02102246394600
:107AD000FEF7DAFC0C48006800EBC500848005E086
:107AE00000200949096801EBC5018880002600E0F3
:107AF000042600E009263046BDE8F883AA260020C7
:107B0000A8260020A9260020A0260020A4260020C8
:107B10002DE9F0411AE01648047816480068164925
:107B2000098804FB01051548006800EBC40086883D
:107B30001248006850F8347031462846B8470C485F
:107B4000007806F0D7FB0A49087000BF00BF00208C
:107B500058B900BF0649087809490978814201D11E
:107B6000012100E000210029D5D0BDE8F08100000E
:107B7000A8260020A4260020AA260020A026002057
:107B8000A926002030B50346481C4FF6FF7505EACC
:107B9000C004104600F003050DB9012500E00025E2
:107BA0000DB9072030BD084802601019074D286044
:107BB0000020074D2870074D2870074803800748AC
:107BC00001800020EEE70000A0260020A42600206F
:107BD000A9260020A8260020AA260020AC260020E6
:107BE00010B5024803F0E6F910BD0000B0260020F1
:107BF00010B503460C460AB9072010BD19684A6142
:107C0000012C01D1012000E0002008610020F4E7F0
:107C100038B51348006800900823582211491248CB
:107C2000006806F01CFD04460CB1204638BD0F4A22
:107C300069460F4803F0C4F904460CB12046F5E745
:107C400001210B4803F062FA01230A4A1946084849
:107C500003F082F90120084908702046E6E7000099
:107C60000485030028330020F484030085560300B4
:107C7000B0260020FFFF7F00BC2600202DE9F04148
:107C800006460D4617463446207F10B10020BDE859
:107C9000F081A76104F0CEFC401941F10001C4E974
:107CA0000201206900B12561214600200FF0DEFAB3
:107CB000EDE770B5044625460020287729460120C7
:107CC0000FF0D4FA70BD10B5044620460DF08EFEBC
:107CD00010BD000070B5044625460E488068B0B15E
:107CE000ADB9FFF7C3FA06460A4800680A490860BA
:107CF000084840684FF0E021C1F804010020054920
:107D000088601EB900BF62B600BF00BF00BF00BFE1
:107D100070BD00009033002000E100E0F8B505469A
:107D20000C4617462088001DB84201D90C20F8BD2A
:107D3000684679DF064600BF304600B1F7E700BF6E
:107D40000320218868542088401C20801920218825
:107D500068542088401C208020884119BDF800000C
:107D60000FF028FD2188084420800020DFE770B54F
:107D700005460C462068401C28B1206807F07DFCB1
:107D8000206807F011FC6068401C18B10021606891
:107D900007F0F0FB2868A169C0F8241500BF617DD9
:107DA000227D286841EA0203C0F86C3500BFD4E99F
:107DB0000012286808F0D9FD207D012814D1A068A0
:107DC000401C18B10021A06807F0D4FBE068401CFB
:107DD00028B1E06807F051FCE06807F0E5FBD4E962
:107DE0000221286808F0AAFD70BD70B505460C4652
:107DF0002068401C28B1206807F04AFC206807F082
:107E0000DFFB6068401C18B10021606807F0BFFB11
:107E10002868A169C0F8241500BF617D227D28680B
:107E200041EA0203C0F86C3500BFD4E900122868AB
:107E300008F0D3FD207D012814D1A068401C18B1A2
:107E40000021A06807F0A3FBE068401C28B1E068AF
:107E500007F01EFCE06807F0B3FBD4E902212868B4
:107E600008F09CFD70BD70B504460D46204605F037
:107E700007FE70BD70B504460D4608F02DFC70BDC0
:107E800010B50446637903F003022179208805F0D8
:107E9000AFFD10BD10B50446207918B9204600F09A
:107EA00007F803E02046FFF7EBFF00BF00BF10BD5F
:107EB0002DE9FE4307463E884FF00008002259484E
:107EC0000178304600F0AAFE7879C0F3800028B926
:107ED000002138460AF096FCBDE8FE8306F5807165
:107EE00088B201AB012207210AF0ACFD0546C5B1FD
:107EF000284608F001FD81464B494C4A891AC908B9
:107F0000012242EA014033464A46494907F0DAFE77
:107F1000294630460EF0D6F8002138460AF072FCA9
:107F2000DAE7304605F056F804464FF6FF718C420A
:107F30001BD1029804F09EFF04464FF6FF70844266
:107F400013D02146304605F023F83046FFF7E4FB16
:107F500058B930460EF002F83046FFF7DDFB20B985
:107F6000002138460AF04EFCB6E74FF6FF70844217
:107F70001FD10AF07DFF04464FF6FF70844212D1F4
:107F800029492A4A891AC908012242EA014029A13D
:107F900007F082FE042130460EF094F800213846A6
:107FA0000AF030FC98E72146304604F0F1FF4FF02C
:107FB000010806F5807188B2224607210AF0CAFD41
:107FC000054625B9012138460AF01CFC28E0862D1B
:107FD00007D130460EF03CF8012138460AF012FC79
:107FE0001EE0284608F088FC81460F490F4A891A8E
:107FF000C908012242EA014033464A461A49009420
:1080000007F070FE294630460EF05CF80021384635
:108010000AF0F8FBB8F1000F02D0204604F0C2FFCE
:1080200000BF59E7FD250020ACA403006CA40300A9
:10803000A0980300436F756C64206E6F7420616CB0
:108040006C6F63617465206E657720706565725F23
:10805000696420666F7220696E636F6D696E672058
:10806000626F6E642E000000BC990300002114E0D2
:108070000C48D0F81024012308E000BFD068007934
:10808000884201D1002303E0D0680268002AF4D1BD
:1080900000BF0BB108467047491C0A29E8DB4FF0C6
:1080A000FF30F8E7203700207FB5002000900190D6
:1080B00002900390009001208DF8040000200290AF
:1080C00064208DF80C0002208DF80D008DF80E0054
:1080D0008DF80F006946084800F06FFC044600BFA9
:1080E00025463DB100BF05A24FF422712846FEF798
:1080F00091F800BF00BF7FBD202800202E2E5C2EEF
:108100002E5C2E2E5C6D61696E2E6300F0B58FB013
:1081100004460D46287B0190202107A8FEF7CDF9E3
:1081200042F61920ADF81C000120ADF82000ADF892
:10813000220001A80990617C9DF8290061F30410D8
:108140008DF829009DF8290020F00200801C8DF890
:108150002900A87B8DF82F00687B8DF82D00A08862
:10816000A21D07A902F00AFA064616B130460FB062
:10817000F0BDA86800B36846A96801F091FA074607
:10818000142102A8FEF799F942F60810ADF808008C
:10819000E87B8DF80E00ADF81270BDF81200ADF856
:1081A0001600CDF818D0E08804F10E0202A902F002
:1081B000CCFD06463046DAE70020E08100BFD6E776
:1081C00010B5044600F002F810BD000070B511496A
:1081D00011480DF0EBFFC5B24FF6FE7229460F486D
:1081E00000F082FB04469CB1112C11D0132C0FD04F
:1081F0000F2C0DD0082C0BD043F20140844207D045
:1082000000BF07A240F2F1112046FEF703F800BFBD
:1082100070BD0000AC2C0020FC2300202028002092
:108220002E2E5C2E2E5C2E2E5C6D61696E2E6300F0
:1082300070B504460D4621462846AEDF0646304658
:1082400070BD2DE9F04104460F46154615B90E20C4
:10825000BDE8F0810020286000BF0CB90E20F7E7D0
:1082600000BF00BF206808B90E20F1E700BF00BFC3
:10827000E088C11700EB91718910A0EB810109B171
:108280000720E5E700BF384600F02AFCC6B2142EEE
:1082900001D10520DCE72079B04201DC0420D7E7DA
:1082A000E188206806FB010028600020D0E72DE966
:1082B000FC41054688461646002437880020308059
:1082C00095F82D0058B13A463146404600F0CAFCB8
:1082D000044600BF204608B1BDE8FC8100BFA87875
:1082E00050B13A4631464046FFF718FD044600BFFC
:1082F000204600B1F0E700BFE87860B1E97848B205
:108300003B463246414603F0BBFC044600BF2046D4
:1083100000B1E1E700BF686868B1696891F90000E1
:108320003B46324641460FF070F8044600BF2046F7
:1083300000B1D1E700BF288900280EDD43460622A0
:10834000022105F10800CDE900670FF040FB04466B
:1083500000BF204600B1BFE700BF288A00280EDD1D
:1083600043460722032105F11000CDE900670FF015
:108370002EFB044600BF204600B1ADE700BF288BAE
:1083800000280EDD43461522142105F11800CDE921
:1083900000670FF01CFB044600BF204600B19BE7BE
:1083A00000BF286A58B13B4632464146286A02F06F
:1083B0008DFA044600BF204600B18DE700BF686A11
:1083C00058B13B4632464146686A05F035FD0446E1
:1083D00000BF204600B17FE700BF95F82C000028C1
:1083E0000BDD3B463246414628460EF0B1F80446C6
:1083F00000BF204600B16FE700BF287858B13B4668
:1084000032464146284605F0CCFE044600BF2046D1
:1084100000B161E700BF20465EE7F8B504460E46AE
:108420001546002000902B466A463146204600F053
:1084300008F807460FB90020F8BDBDF80000204439
:10844000FAE7F0B504460D461E4604B10AB900200D
:10845000F0BD002103E0605C401C084481B2481C70
:10846000A84206DA10888842F5DC481C205CB0423D
:10847000F1D1A94201DB0020EAE7881C87B2605CE9
:1084800010B1605C401E00E0002083B213B1F81808
:10849000A84201DD0020DBE717801846D8E72DE968
:1084A000FF4104460D46164600BF1CB90E2004B01D
:1084B000BDE8F08100BF207808B90820F7E715B9BA
:1084C0000EB90E20F3E70020009001900290039077
:1084D000DDB1D4F82004016804F15500814200D0D8
:1084E00001E004F2431000902046FFF724F8ADF8B5
:1084F000040001AA28460099FFF7D9FE074600BFED
:10850000384600B1D3E700BF00BFDEB1D4F8200485
:10851000816804F23120814200D001E004F21F3072
:1085200002902046FFF707F8ADF80C0003AA30468A
:108530000299FFF7BCFE074600BF384600B1B6E718
:1085400000BF00BF04F580609DE88E0010308EC033
:108550001038C4F82004002204F15400D4F8201488
:1085600072DFA4E780F830107047000010B50446B1
:1085700000BF04A240F2DB112046FDF74BFE00BF16
:1085800010BD00002E2E5C2E2E5C2E2E5C6D6169BF
:108590006E2E630070B504460D4605B10CB90E2071
:1085A00070BD05F1780002F032F908B90720F7E74D
:1085B0000020A0702C2205F17801201DFDF764FF3A
:1085C000002084F83000D5F8A4006063D5F8A80036
:1085D000A0634FF6FF70A4F8240404F58260C4F889
:1085E0002004002140F22C40C4F82614A4F82A14D8
:1085F0000155207810B9FF2084F8540004F155008B
:10860000C4F810042046FEF796FF40F214410853C8
:1086100004F2144204F155012846FFF748FE0646CD
:1086200000BF304600B1BBE700BF04F231204FF479
:10863000836108512046FEF77EFFA4F81C044FF426
:108640008360015904F21C4205F13C00FFF72FFE44
:10865000064600BF304600B1A2E700BF012151200D
:108660000155208B81B248200153012084F83C0041
:1086700000212164502001556169616404F13C02CC
:10868000002104F1540072DF064600BF304600B1FD
:1086900086E700BF01202070304681E770B50446B0
:1086A0000D462E462088102804D0112807D02628F1
:1086B0000FD109E02146304608F0DCFF0AE02146F0
:1086C000304609F0BCF905E02146304609F041FD8D
:1086D00000E000BF00BF70BD024692F82D0408B94B
:1086E00008207047002082F82D040B6840F22C40CF
:1086F000C2F826348B88A2F82A348B798354002060
:10870000EFE770B5044694F8540074DF012084F854
:108710002E04002084F83004002150200155062149
:10872000204603F0C8FA054600BF284600B170BDD8
:1087300000BFA178204600F009F8054625B1A06BDE
:1087400010B12846A16B88470020F0E770B50446B9
:108750000E46207808B9082070BDA670002140F2AE
:108760002C40C4F82614A4F82A140155A07910B19D
:10877000A078012809D0E07910B1A078012804D0B0
:10878000E07970B1A07802280BD1606B30B1012084
:1087900084F82D040820616B884702E0002084F8EB
:1087A0002D0431462046FEF791FEA070606BA0B10B
:1087B000A078032802D0A07804280ED1607960B197
:1087C00094F82E0448B9002084F83004012084F87D
:1087D0002F040720616B884702E0002084F82F04F3
:1087E000182104F13C00FDF768FE012084F83C00EC
:1087F00004F12C000AF0A1FD20B194F82C105120B6
:10880000015502E001215120015594F8240060B186
:1088100004F128000AF091FD20B194F828105220AC
:10882000015502E00121522001550021502001553F
:10883000A078052824D2DFE800F01F030A111800F1
:1088400004F13C0120460DF005FF054619E004F156
:108850003C0120460DF0E6FE054612E004F13C0125
:1088600020460DF009FF05460BE004F13C012046CF
:108870000DF030FF054604E0002084F8310000E0F0
:1088800000BF00BFA07898B104F13C0204F154008D
:10889000D4F8201472DF05460DB128465CE794F841
:1088A000301094F8540073DF05460DB1284653E7A5
:1088B000606B18B194F83100616B884700204BE77A
:1088C00030B50446039D94F82F0408B9082030BD44
:1088D000002084F82F0402B90DB1012000E000202F
:1088E00084F830040020F2E7F7B592B0044617464A
:1088F00014B90E2015B0F0BD0026207C9DF84C1058
:10890000884258D00020109011900120ADF840000E
:108910000020ADF8420013A81190E18810AA4FF68C
:10892000FF70ACDF06461EB99DF84C00207401E0D4
:108930003046DFE7607C00283CD000200C900D9092
:108940000E900F90E088ADF8300001208DF83200D5
:10895000BDF84200ADF8340010A80E9011980F90A9
:108960004FF6FE7087421FD101A800F0AFF8002536
:1089700016E002A931F8150000F016F902280ED110
:108980003EB902A830F815100CA8FFF751FC0646B6
:1089900005E002A830F815100CA8FFF749FC6D1C83
:1089A0000198A842E5D804E039460CA8FFF740FC3E
:1089B000064600E0082630469CE7F8B504460D461A
:1089C00004B10DB90E20F8BD2868206028796074C4
:1089D000FF20207400BF01208DF8020041F60F0037
:1089E000ADF8000000BF221D69460120A8DF064641
:1089F00000BF304600B1E6E700BF29462046FFF73A
:108A000085FB06463046DEE770B504460D4605B1E7
:108A100004B970BD2E462088502804D12146304626
:108A200009F0F4FB00E000BF00BF00BFF1E7000069
:108A30002DE9F041044600BF14B90E20BDE8F081D5
:108A400000BF1C2221461C48FDF71EFD1B481A4989
:108A50000860206860B120687ADF05460DB12846BD
:108A6000ECE7164821680A6802604968416005E041
:108A700012487BDF05460DB12846DFE7002617E0E8
:108A800006EB86000E4901EB800700BF4FF6FF7032
:108A9000388000BF0B4800EB461078600A4A00217E
:108AA000381DFFF7A5F805460DB10320C6E7761C73
:108AB000002EE5D00020C1E76C2E0020FC24002011
:108AC000582E0020382E0020DD78030010B5044613
:108AD00002484168204601F0AEFE10BD882E0020FD
:108AE00010B50446204600F0AFF808B1204610BD8E
:108AF0001420FCE710B50446204600F0A5F820B18C
:108B00002146034805F04DFE10BD0020FCE70000A3
:108B1000982E002070B504460D46164620460EF0ED
:108B200027FF08B9002070BD034951F824003246E0
:108B3000294603F035F9F6E7A42E002010B50446C7
:108B4000204600F081F820B12146034805F029FEB7
:108B500010BD0020FCE70000A02E002010B5044648
:108B6000204600F071F820B12146034805F019FEB7
:108B700010BD0020FCE700009C2E002070B50446CC
:108B80000025204600F060F850B12146054805F068
:108B900008FE06460EB1022000E00120054600BF97
:108BA000284670BD942E002070B50446002520464E
:108BB00000F04AF850B12146054805F0F2FD06469E
:108BC0000EB1022000E00120054600BF284670BD1E
:108BD000902E002010B51821044805F0B2FD04467F
:108BE000182C00D110BDE0B2FCE70000882E002058
:108BF00070B505460C4620460EF0BAFE50B1284628
:108C000000F022F830B1044901EB8400294605F058
:108C1000C8FD70BD0020FCE7A42E002070B50546FD
:108C20000C46164620460EF0A3FE50B1284600F032
:108C30000BF830B1034901EB84003246294603F0BA
:108C400010F870BDA42E002010B50446142C01DBD2
:108C5000002010BD2146024805F0A3FDF9E7000001
:108C60008C2E00202DE9FC4105460C461746208835
:108C70000930B84202D90C20BDE8FC8168466DDF9E
:108C8000064600BF304600B1F6E700BF0820218845
:108C900068542088401C20801B202188685420882C
:108CA000401C208020882844DDF801100160BDF8B8
:108CB000051081802088801D20809DF800004008DC
:108CC00018B900202188685402E0012021886854E6
:108CD0002088401C20800020CEE700007FB504469D
:108CE00000BF01208DF80E0041F60A00ADF80C001F
:108CF00000BF564A03A90120A8DF054615B1284642
:108D000004B070BD208800280DDD5148009094F813
:108D10003C30228842F62920616801F0C3FB0546F9
:108D20000DB12846ECE7208900280DDD4948009068
:108D300094F83C30228942F62420E16801F0B2FB2D
:108D400005460DB12846DBE7208A00280DDD4248A4
:108D5000009094F83C30228A42F62520616901F0A7
:108D6000A1FB05460DB12846CAE7208B00280DDD82
:108D70003A48009094F83C30228B42F62720E16973
:108D800001F090FB05460DB12846B9E7208C00287C
:108D90000DDD3348009094F83C30228C42F62620BA
:108DA000616A01F07FFB05460DB12846A8E7208DDA
:108DB00000280DDD2B48009094F83C30228D42F6BF
:108DC0002820E16A01F06EFB05460DB1284697E7C1
:108DD000206B90B101A8216B0EF022F9224800907F
:108DE00094F83C30082201A942F6232001F05AFBF6
:108DF00005460DB1284683E700BF606B70B11B4884
:108E0000009094F83C30606B0279016842F62A20A9
:108E100001F048FB05460DB1284671E7A06B90B103
:108E200001A8A16B0BF034FD1148009094F83C3080
:108E3000072201A942F6502001F034FB05460DB18E
:108E400028465DE700BF00205AE700001C260020EE
:108E50001E260020262600202E2600203626002052
:108E60003E260020462600204E26002056260020C2
:108E70005E260020F8B505460F462888212849D0EF
:108E800004DC102807D011287CD134E03B285ED0C8
:108E90005628F9D177E04B494B4A891AC908032271
:108EA00042EA014049A106F0F7FE072000F004FF66
:108EB000044600BF26463EB100BF47A240F24B41E8
:108EC0003046FDF7A7F900BF00BFA88846490880D3
:108ED00008460188454805F017FE044600BF2646AF
:108EE0003EB100BF3CA24FF48A613046FDF792F9D3
:108EF00000BF00BF63E03349334A891AC90803221F
:108F000042EA01403AA106F0C7FE4FF6FF7036492B
:108F1000088054E02B492C4A891AC908042242EAE5
:108F2000014037A106F0B8FE00200090A8886946ED
:108F30008FDF044600BF26463EB100BF26A240F2A6
:108F400063413046FDF766F900BF00BF37E01D49B9
:108F50001D4A891AC908042242EA01402DA106F0DF
:108F60009BFEA888132176DF044600BF26463EB14B
:108F700000BF19A240F26B413046FDF74BF900BF2C
:108F800000BF1CE01AE00F490F4A891AC9080422E1
:108F900042EA014025A106F07FFEA888132176DF72
:108FA000044600BF26463EB100BF0BA240F273410B
:108FB0003046FDF72FF900BF00BF00E000BF00BF43
:108FC000F8BD000024A503006CA40300436F6E6E7F
:108FD00065637465640000002E2E5C2E2E5C2E2EC0
:108FE0005C6D61696E2E6300FA2300206C280020FE
:108FF000446973636F6E6E6563746564000000009E
:10900000504859207570646174652072657175658A
:1090100073742E004741545420436C69656E74206C
:1090200054696D656F75742E0000000047415454FB
:10903000205365727665722054696D656F75742E64
:109040000000000070B505460E462888102802D0A2
:1090500011282CD115E01748006860B901F034FDE3
:10906000044600BF34B11448006818B120461249C4
:109070000968884700BF0F480068401C0D49086018
:1090800016E00C480068401E0A490860084600685F
:1090900060B9FEF759FA044600BF34B106480068CB
:1090A00018B1204604490968884700BF00E000BFA6
:1090B00000BF70BDF8240020F424002070B50446E1
:1090C0000D462088102806D0112808D012280ED06E
:1090D000502810D107E0204608F056FA0CE0204650
:1090E00008F094FC08E0204609F064F804E020460B
:1090F00008F032FA00E000BF00BF70BD2DE9F0417A
:1091000004460F46A6882088102806D0112819D0BA
:1091100019283FD01A284AD118E00CF0C7F8304679
:109120000BF038FF30B900BF22A2F0210420FDF778
:1091300071F806E0E07B022803D131462C4805F0A7
:109140003FFB34E030460CF0D5F830E0207A0509DA
:10915000042D01DB012000E00020024631462448B6
:109160000C3002F07EFD032D01DB012000E0002029
:10917000024631461E48083002F073FD022D01DB25
:10918000012000E00020024631461948001D02F08F
:1091900068FD0CE0207A48B9607AC0F3C0052A4621
:1091A000314613480C3002F05CFD00BF00BF00BF29
:1091B000BDE8F0812E2E5C2E2E5C2E2E5C2E2E5CB9
:1091C0002E2E5C2E2E5C636F6D706F6E656E7473E9
:1091D0005C626C655C636F6D6D6F6E5C626C655F2D
:1091E000636F6E6E5F73746174652E6300000000C0
:1091F000942E002070B504460D4600BF0748007845
:1092000000B970BD00BF204603F022FD20460DF0DE
:1092100027FB204602F0EEFF00BFF2E738250020D2
:109220002DE9F04186B006460D461746984600BF28
:109230001EB90E2006B0BDE8F08100BF00BF0FB917
:109240000E20F7E700BF4FF6FF70804533D0019541
:109250006A464146D6F87801FEF7F3FF044600BFA0
:10926000204600B1E6E700BF0098801C0090082D62
:1092700004DC2A4639460098FDF706F900200290E2
:10928000039004900590B6F84E01ADF80800012057
:109290008DF80A000020ADF80C0001A80490059795
:1092A00002A94046AEDF044624B904980088A842CB
:1092B00000D00C2400E008242046BBE72DE9F04F45
:1092C00089B00546884691469A46DDE913B7129E55
:1092D00000BF1DB90E2009B0BDE8F08F00BF4FF6EA
:1092E000FF70874251D0F01C80B20890BDF820007A
:1092F000082848DC01AA3946D5F87801FEF7A1FF15
:10930000044600BF204600B1E5E700BF01980B30DE
:10931000019000BF012000BF8DF8188009F0FF0008
:109320008DF819000AF0FF008DF81A00002E05DDF7
:10933000324659460DF11B00FDF7A6F8BDF8202076
:1093400006A90198FDF7A0F8002002900390049070
:109350000590B5F85E01ADF8080001208DF80A000F
:109360000020ADF80C0008A8049006A8059002A9FA
:109370003846AEDF04462CB904980188F01C8142BF
:1093800000D00C2400E00C2400E008242046A2E7D2
:1093900001461320D1F87C2152B1002205E0D1F81A
:1093A0007C3133F832301844521C8B7C9342F6D80F
:1093B000D1F880215AB1002205E0D1F8803133F88C
:1093C00032301844521C91F878309342F5D8D1F8D5
:1093D00084215AB1002205E0D1F8843133F83230CB
:1093E0001844521C91F8DE309342F5D870477CB592
:1093F00006460C4600BF0EB90E207CBD00BF00BF64
:109400000CB90E20F9E700BFA07A0A2805DC207C01
:109410000A2802DC207E0A2801DD0720EDE720680B
:10942000306060687060A07AB074207C86F8780044
:10943000207E86F8DE0000BF01208DF8060041F690
:109440001200ADF8040000BF06F1080201A90120D6
:10945000A8DF05460DB12846CFE72146304603F088
:1094600051FE05460DB12846C7E7207A08B9607A53
:1094700050B194F83D2094F83C1030460BF074FB4A
:1094800005460DB12846B8E72146304603F02AFFCD
:1094900005460DB12846B0E72146304608F093FF57
:1094A00005460DB12846A8E72146304602F062FB8A
:1094B00005460DB12846A0E7214630460BF0EAFFED
:1094C00005460DB1284698E7207AB0B106F5A77099
:1094D00004F14203082242F622210090304600F0B7
:1094E00059F905460DB1284687E72146304600F078
:1094F0008FF905460DB128467FE7607A70B106F511
:10950000AF7004F13F03082242F633210090304649
:1095100000F040F905460DB128466EE72146304679
:1095200003F04FFA05460DB1284666E794F83E1061
:10953000304603F01FFA05460DB128465DE7E068A6
:10954000C6F87C016069C6F88001E069C6F884014C
:10955000284652E72DE9F04F87B004460E461746DD
:109560009846DDF8409000BF1CB90E2007B0BDE85A
:10957000F08F00BF00BFB8F1000F01D10E20F5E75A
:1095800000BFA07CB04257DD06EB860104F1140059
:1095900000EB410B4FF6FF7081454BD04FF0000AB6
:1095A000029701AA4946D4F87801FEF74AFE05461B
:1095B00000BF284600B1D9E700BF019813300190E1
:1095C0000AE0D4F87C0130F83A000199084401908F
:1095D0000AF1010000F0FF0AB245F2DBD4F87C0189
:1095E00030F83600B84205DB3A4641460198FCF7B0
:1095F0004BFF01E00C20B9E7002003900490059098
:109600000690BBF80000ADF80C0001208DF80E00AC
:109610000020ADF8100002A80590CDF8188003A92D
:109620004846AEDF054625B905980088B84200D007
:109630000C2500E0082500E00725284696E770B5D0
:1096400004460D462E462088102804D0502807D006
:1096500051280FD109E02146304607F0CDFF0AE03E
:109660002146304608F0F9FD05E02146304608F075
:10967000F1FC00E000BF00BF70BD70B504460D46B0
:109680002846FCF725FF2080656070BD70B5044654
:1096900020460EF089F8054605F0010070BD000077
:1096A0002DE9F04105460E46002432782146641C1F
:1096B0006A5472782146641C6A5400BF022C01D19E
:1096C000012000E00020074637B900BF04A247216F
:1096D0000020FCF79FFD00BF00BF2046BDE8F081E1
:1096E0002E2E5C2E2E5C2E2E5C2E2E5C2E2E5C2EB4
:1096F0002E5C636F6D706F6E656E74735C626C650B
:109700005C636F6D6D6F6E5C626C655F7372765FCC
:10971000636F6D6D6F6E2E630000000038B506F04C
:1097200099FF044600BF25463DB100BF15A240F297
:1097300086412846FCF76EFD00BF00BF0020009068
:109740006946012006F0A6FD044600BF25463DB14E
:1097500000BF0CA240F28C412846FCF75BFD00BF25
:1097600000BF684606F044FE044600BF25463DB1F2
:1097700000BF04A24FF492612846FCF74BFD00BFE6
:1097800000BF38BD2E2E5C2E2E5C2E2E5C6D6169C6
:109790006E2E63002DE9F04188B005460E4617464F
:1097A0001C46DDF8388020216846FCF786FEADF8BF
:1097B0000060ADF804709DF80D0020F00200801CE0
:1097C0008DF80D00607808B1012000E000209DF8C0
:1097D0000D1060F3C3018DF80D109DF80D0020F001
:1097E000100010308DF80D0020788DF81100607891
:1097F0008DF81200A0788DF8130001208DF80F006D
:1098000028894246694600F0B9FE08B0BDE8F081FB
:1098100030B589B004460D46202101A8FCF74DFE65
:1098200042F63220ADF804000120ADF808009DF8A2
:10983000110020F00200801C8DF811009DF811002D
:1098400020F0080008308DF811009DF8110020F07C
:109850000400001D8DF8110095F845008DF81500E5
:109860004620405D8DF8160001208DF813002089F8
:1098700004F5AB7201A900F081FE09B030BD000013
:1098800001460148405C70476D82030010B50146F7
:10989000094B585C00BF4FF0A044234600BFD3F8EB
:1098A0001045C44004F001040CB1012000E0002088
:1098B000024682F0010010BD6D8203007CB50024D9
:1098C0000DE00848055D032600200090334602465F
:1098D00001460190284605F0E5FD00BF641C042CFC
:1098E000EFD37CBD6D82030010B5044604F0010087
:1098F00008B100F04BF804F0020008B1FFF7DEFFFA
:1099000010BD000010B502460949885C00BF4FF049
:10991000A0442146D1F80435012484409C43C1F879
:109920000845012484401C40C1F80C4500BF10BD0F
:109930006982030010B504460249085D012105F063
:10994000B2FE10BD6982030010B504460249085DED
:10995000002105F0A8FE10BD6982030010B5014684
:10996000094B585C00BF4FF0A044234600BFD3F81A
:109970000445C44004F001040CB1012000E00020C3
:10998000024682F0010010BD698203007CB500240C
:109990000CE00948055D00200090034601221146B5
:1099A0000190284605F07EFD00BF641C042CF0D316
:1099B00000F004F87CBD00006982030010B50024AB
:1099C00003E02046FFF7B6FF641C042CF9D310BD5A
:1099D00010B5002403E02046FFF7B6FF641C042CFA
:1099E000F9D310BD02464FF0FF30002106E0054BD1
:1099F0005B5C934201D1084602E0491C0429F6D37E
:109A000000BF70476D82030070B505460C46002606
:109A10000648056014B120460DF0DAF904480068E4
:109A200010B9FDF791FD0646304670BDF4240020C4
:109A3000F824002010B5002000F068FB044600BFA9
:109A40001CB1062C01D0204610BD00BF012000F043
:109A50005DFB044600BF1CB1062C01D02046F3E795
:109A600000BF0020F0E700002DE9F04106460F4658
:109A70004FF0000800243046FFF7B4FF0446042CE2
:109A80003ED20FB3012F02D0022F38D130E004EBC9
:109A90004400214911F8008004EB44000844407858
:109AA00050B11E4A4FF480411D480068FEF7E6F8A9
:109AB00005460DB91948067004EB440016490844E0
:109AC0008078184908551AE015480068FEF7F1F843
:109AD0001448005D04EB44010F4A11448978884220
:109AE00005D104EB44001146084490F8028006E0DA
:109AF00004EB44000849084490F8018000BF00BF0F
:109B0000B8F1000F06D00848006818B14046064971
:109B100009688847BDE8F081082E0020EC24002069
:109B20007C820300ED240020E824002010B50446C8
:109B3000042C03D22046FFF7A9FE10BD0020FCE74D
:109B400070B50546281F0E2876D2DFE800F00A75AA
:109B5000751E75750775757537424E690CF048FEB0
:109B60006BE013213648008876DF0446082C0BD0C2
:109B700000BF26463EB100BF32A24FF4D36130464B
:109B8000FCF748FB00BF00BF57E02D4800884FF6A8
:109B9000FF71884211D12F48FEF7B3FD0446082C0F
:109BA0000BD000BF26463EB100BF26A240F2A26104
:109BB0003046FCF72FFB00BF00BF3EE02048008886
:109BC0004FF6FF71884203D00021481F04F046FA87
:109BD00033E01B4800884FF6FF71884204D01E48CE
:109BE0000168012003F0FEFD27E0154800884FF6CC
:109BF000FF71884213D000220A21104604F0D8F9E0
:109C00000A220021084604F0D3F90022114602205E
:109C100004F0CEF900221146104604F0C9F90CE018
:109C2000074800884FF6FF71884203D005210020C5
:109C300004F014FA01E0FFE700BF00BF70BD0000B0
:109C4000FA2300202E2E5C2E2E5C2E2E5C6D616978
:109C50006E2E630078280020D824002030B50346FB
:109C60000020042B23D2012A07D1012903D103F1BB
:109C70000E04E4B200E00024224679B1012902D0AA
:109C8000022911D104E003EB43040A4D2A550DE0EB
:109C900003EB4304074D2C44627007E003EB4304DD
:109CA000044D2C44A27001E0072000BF00E0072013
:109CB00030BD0000082E002070B504460025054880
:109CC000007800F0010018B1204600F05BF805466E
:109CD000284670BDE02400202DE9F04105460F46DE
:109CE00000241F4805601F48076005F0020000B30C
:109CF000002606E0012211463046FFF7AFFF04467A
:109D0000761C042E01D2002CF4D034B940F2333248
:109D100004211548FDF720FD044614B9FDF706FDA2
:109D200004462CB9114A00211148FDF761FF044691
:109D300000BF05F0010080B10120FFF7D5FD2CB96F
:109D40000C4A00210C48FDF753FF04462CB90B4A7E
:109D500001210B48FDF74CFF04462046BDE8F08189
:109D6000E0240020E824002080820300DDA202001D
:109D70007C820300A5D80200748203000B770200E6
:109D8000788203002DE9F047044600260025DA48D2
:109D9000007820B10020D849087003F06FFD182C1E
:109DA0007ED2DFE804F00C16174A7EB2F6F4F3F226
:109DB000F1F0EFEEEDECEBEAE9E8E7E6E5E403F0DD
:109DC0005DFDCE480068FDF774FF0646CC48047080
:109DD0008DE100BF0020FFF7C1FD58B10020FFF763
:109DE000A9FD022C02D14FF4E16001E04FF47A604A
:109DF000054609E00020FFF7A7FD022C01D1C8208D
:109E000001E04FF4C8700546BD4804704FF40040AF
:109E1000A5FB00104FF47A73CF1840F100015A00EF
:109E200000233846FCF7ECFA814600224946B34845
:109E30000068FDF723FF064659E10020FFF78EFD7D
:109E400058B10020FFF776FD032C02D14FF4487083
:109E500001E04FF47A60054609E00020FFF774FD49
:109E6000032C01D1C82001E04FF4C8700546A44876
:109E700004704FF40040A5FB00104FF47A728F1865
:109E800040F10001520000233846FCF7B9FA814640
:109E90000022494699480068FDF7F0FE064626E193
:109EA00024E10020FFF75AFD58B10020FFF742FDE2
:109EB000042C02D14FF47A6001E04FF47A60054639
:109EC0000AE00020FFF740FD042C02D14FF4C870D7
:109ED00001E04FF4C8700546894804704FF4004013
:109EE000A5FB00104FF47A73CF1840F100015A001F
:109EF00000233846FCF784FA8146002249467F4811
:109F00000068FDF7BBFE0646F1E00020FFF726FDE6
:109F100050B10020FFF70EFD052C01D1C82001E053
:109F20004FF47A60054609E00020FFF70DFD052C8F
:109F300001D1C82001E04FF4C87005467048047094
:109F40004FF40040A5FB00204FF47A73D71840F17E
:109F500000015A0000233846FCF752FA81460022DD
:109F6000494666480068FDF789FE0646BFE0B8E04E
:109F7000B6E0AAE0A1E098E092E05FE05DE05BE09F
:109F800059E057E051E042E033E024E015E00EE014
:109F9000FFE70020FFF7B6FC59480470002240F2AA
:109FA000666156480068FDF769FE06469FE000209E
:109FB000FFF7CAFC5248047099E001204E4908702E
:109FC000FFF7A0FC002240F266614C480068FDF7F4
:109FD00055FE06468BE0012047490870FFF792FCCA
:109FE00000224FF4005145480068FDF747FE064641
:109FF0007DE0012040490870FFF784FC002240F218
:10A0000066613E480068FDF739FE06466FE00120B4
:10A0100039490870FFF776FC00224FF400513748A9
:10A020000068FDF72BFE064661E0FFF7D1FC3448DF
:10A0300004705CE000BF00BF00BF00BF3148006893
:10A04000FDF737FE0646C4F1110515B30EBB012D11
:10A0500018D9A8B2C82148434FF4004180FB011031
:10A060004FF47A728F1840F10001520000233846F5
:10A07000FCF7C6F981460022494622480068FDF7F0
:10A08000FDFD06460220FFF75FFC01201E49087017
:10A0900005E00220FFF74EFC00201B49087026E077
:10A0A00003F0ECFB1648047021E003F0E7FB00200E
:10A0B000FFF74AFC1248047019E003F0DFFB0120AF
:10A0C000FFF742FC0E48047011E003F0D7FB0020BC
:10A0D000FFF73AFC0120FFF737FC0948047006E05F
:10A0E00000BFFFF775FC0648047000E000BF00BF2A
:10A0F0003046BDE8F0870000DD24002074820300B4
:10A10000DC24002078820300E424002010B50446FB
:10A11000012120460DF0EDFC10BD00002DE9FC47AB
:10A1200004460D461646A71C4FF00108002001907A
:10A1300001A8FDF7C8FD3048406828602E484068F7
:10A140002D498968411A2D480068401CA0EB01097F
:10A1500015E001212A4804F057FB03F0ADFD8246CB
:10A160005146274804F050FB23484068224989683B
:10A17000411A22480068401CA0EB010900BF4F456E
:10A18000E7D8B8F1000F30D00021009176B10099E6
:10A1900021F00301491C0091009921F00401091DDF
:10A1A0000091009964F3891100910DE0009921F06C
:10A1B0000301891C0091009921F00401091D0091FF
:10A1C000009964F39F5100910B4949680B4A12684A
:10A1D0001140094A0C3202EB8100009901600649E6
:10A1E000496839440C3A516000BF9DF80400FDF7FE
:10A1F00071FD4046BDE8FC87203700205C27002029
:10A200003C3B002070B504460D460A2D03D10D21BC
:10A210002046FFF7F7FFA168481CA060206845545E
:10A22000D4E90110884202D3204604F08AFD70BDB3
:10A23000F0B504460D460020164E96F83E60761E98
:10A24000052E01D1012600E000260EB104201FE0FA
:10A25000104E96F83D6006EB46060E4F07EB860162
:10A260008C604D600B704A703E4696F83E60761CDE
:10A2700087F83E603E4696F83D60761C87F83D6064
:10A280003E4696F83D60052E02D1002687F83D60D7
:10A29000F0BD0000C02700200448806803494968D9
:10A2A000884201D1012070470020FCE720370020C0
:10A2B0000246002108E0074B1B6803EBC10003784E
:10A2C000934200D17047491C034800788142F2DB79
:10A2D0000020F7E7882600208C26002010B50446D1
:10A2E00020780221FFF7C0FB10BD0000F8B505463D
:10A2F00015490320FFF7F0FC044600BF26463EB197
:10A3000000BF12A240F2E3613046FBF783FF00BFBB
:10A3100000BF69460020FFF777FB044600BF2646D2
:10A320003EB100BF09A240F2E6613046FBF772FF82
:10A3300000BF00BF9DF80000022801D1012000E00D
:10A3400000202870F8BD0000419B02002E2E5C2EDC
:10A350002E5C2E2E5C6D61696E2E63007CB504460A
:10A36000204602F037FE054600236A46092108F020
:10A37000C7FC052805D10122024801782046FEF7D6
:10A380004DFC7CBD142500207CB504460E46002003
:10A39000019042F6A620ADF8040001208DF80600D9
:10A3A0000748006800906A4601A92046A0DF0546DC
:10A3B0002DB90122034801782046FEF72FFC7CBD11
:10A3C000E48203001525002001468879012809D17F
:10A3D0000879012806D1488842F60212904201D13C
:10A3E000012070470020FCE74FF0FF31054A42F89A
:10A3F0002010082804DBFF23A0F108015032535439
:10A4000070470000FC3100200146024850F821004E
:10A4100070470000FC3100202DE9F04F03460C4648
:10A420004FF0FF390AB1002000E0082084460AB14D
:10A43000082000E00C208046614624E0154850F8D2
:10A440002100401CF0B91D460846274616464FFA23
:10A4500080FBDFF840A00AF1300A0AF805B0DFF807
:10A4600034A04AF820704EB94FFA85FBA0F1080AD3
:10A47000DFF820E00EF1500E0EF80AB000BF4FFAE0
:10A4800081F902E0491C4145D8D300BF4846BDE8E8
:10A49000F08F0000FC310020014601484056704713
:10A4A0002C3200202DE9F04389B006460D461446B3
:10A4B0001F46DDF8408000BF0DB1012000E0002004
:10A4C0008146B9F1000F06D100BF1BA284210020F4
:10A4D000FBF7A0FE00BF00BF00BF002C01DD012084
:10A4E00000E000208146B9F1000F06D100BF12A2A2
:10A4F00085210020FBF78EFE00BF00BF202101A8B0
:10A50000FBF7DBFFADF80460ADF80840ADF80A409A
:10A5100003959DF8110020F00200801C8DF81100B9
:10A520008DF81570424601A91348008800F026F8FE
:10A5300009B0BDE8F08300002E2E5C2E2E5C2E2E7E
:10A540005C2E2E5C2E2E5C2E2E5C636F6D706F6EFB
:10A55000656E74735C626C655C626C655F7365727A
:10A5600076696365735C626C655F6469735C626C79
:10A57000655F6469732E63001C26002070B590B07F
:10A5800006460C461546A07818B901208DF80E0035
:10A5900002E0A0788DF80E002088ADF80C000020B5
:10A5A0000290607C02A90CF0C3F8A07C0DF10901B7
:10A5B0000CF0BEF8E07B08B1012000E000209DF81F
:10A5C0000A1060F3C3018DF80A10207C08B1012045
:10A5D00000E000209DF80A1060F304118DF80A10C5
:10A5E000207B08B1012000E000209DF80A1060F3F4
:10A5F00000018DF80A10207D08B1022000E0012042
:10A600009DF80A1060F342018DF80A101C2109A878
:10A61000FBF753FF607BC0F3001018B9607BC0F3F9
:10A620004010F8B100200090E07C0DF101010CF029
:10A630007FF800BF9DF8000020F00F00401C8DF84F
:10A6400000009DF8000020F0F00010308DF80000B0
:10A6500000BF9DF8020020F00600801C8DF802006B
:10A66000CDF838D0607B8DF82400A07B8DF82500D4
:10A67000142104A8FBF721FF03A8049002A8059069
:10A68000A088ADF81C00A06820B1E088ADF81800E3
:10A69000A0680890A069002849D000200190A06916
:10A6A0000088ADF82C00A0694088ADF82E00A069A4
:10A6B00040680A9001A80D90A169087B01A90CF0DF
:10A6C00037F8A169487B0DF105010CF031F8A0695C
:10A6D000807A08B1012000E000209DF8061060F3A8
:10A6E000C3018DF80610A069C07A08B1012000E00E
:10A6F00000209DF8061060F304118DF80610A06983
:10A70000007A08B1012000E000209DF8061060F3F7
:10A7100000018DF80610A069807B08B1022000E0DE
:10A7200001209DF8061060F342018DF80610E069E3
:10A7300008B1E0690C902B4604AA09A93046AADFAB
:10A7400010B070BD2DE9F04104460D464FF6FF767E
:10A75000304684420AD14FF48071284603F0F1FF5D
:10A7600086B2B6F5807F10D126460EE0FF2C0CDCB9
:10A770002146284603F0CEFF80F001070FB12046A6
:10A7800001E04FF6FF70064600BF3046BDE8F0819D
:10A7900070B505460DB9094C01E0084C083409E0D4
:10A7A000204603F006F8064606B904E0284671681C
:10A7B000884700BFF4E700BF70BD0000F031002003
:10A7C00010B504462CB90120064948700020FFF757
:10A7D000DFFF012C04D1012002498870FFF7D8FF68
:10A7E00010BD0000E83100202DE9F0470246134675
:10A7F0008C46D3E90245DCE90267B6EB040877EB47
:10A80000050002D30120BDE8F0870020FBE70146E8
:10A810008878012805D191F82000012801D1002075
:10A820007047886A042802D0486A042801D10020B1
:10A83000F6E70120F4E733B58BB005460020009021
:10A840000C9878B100240BE021460CA803F0A9FF76
:10A8500028B1009A501C009001A820F81240641CF6
:10A86000142CF1D32C2269462846FBF70DFE0DB0BF
:10A8700030BD01460888062808DB0888B0F5486F17
:10A8800006DD08884FF6FF72904201D0072070471E
:10A890004888062808DB4888B0F5486F06DD4888F8
:10A8A0004FF6FF72904201D00720F0E708884FF67C
:10A8B000FF72904208D04888904205D008884A88A4
:10A8C000904201DD0720E2E70020E0E72DE9F041BA
:10A8D00007460D46144698462088801D404502D9FB
:10A8E0000C20BDE8F0813846FFF7C3FF064600BFE5
:10A8F000304600B1F5E700BF052021886854208864
:10A90000401C20801220218868542088401C208010
:10A910002288511938880CF04DFF21880844208086
:10A920002288511978880CF045FF2188084420803E
:10A930000020D6E710B5044600BF04A24FF45D71B5
:10A940002046FBF767FC00BF10BD00002E2E5C2EDA
:10A950002E5C2E2E5C6D61696E2E630030B587B063
:10A960001C216846FBF7A9FD002000904FF4A030A1
:10A9700001904FF4F020029003208DF80C0000208D
:10A98000ADF80E008DF8100005900A480690684654
:10A99000FEF74EF8044600BF25463DB100BF06A2B3
:10A9A00040F28B312846FBF735FC00BF00BF07B0F3
:10A9B00030BD000035A902002E2E5C2E2E5C2E2EFE
:10A9C0005C6D61696E2E6300F8B505460C46607AD1
:10A9D00088B9207A10B91048476801E00E488768A6
:10A9E0002A4639466068FDF749F9064616B13046F1
:10A9F0000BF0C6FA0EE0002020720748406948B10B
:10AA000001208DF80000ADF8025003484169684606
:10AA1000884700BFF8BD00006C2E0020F0B585B05F
:10AA200004460D4617461E4614220B496846FBF79E
:10AA30002BFDADF802408DF80850ADF80A708DF886
:10AA40000C600022054801782046FEF7E7F86846CA
:10AA500000F02AFE05B0F0BD0C840300FD250020A7
:10AA600010B586B00446208807F082FE00BB20881F
:10AA7000FEF740F830B92088012241F2060100F0CB
:10AA80000BFC15E0208800220A490978FEF7C6F879
:10AA900002208DF804002088ADF8060000208DF813
:10AAA0000C0000218DF80D1001A800F0FDFD00BF85
:10AAB00006B010BDFD25002070B504460D462946A0
:10AAC0002046FCF7D9FB70BD10B5012200210846D5
:10AAD000FFF7C4F8044600BF1CB1072C01D0204684
:10AAE00010BD00BF072202210120FFF7B7F804467E
:10AAF00000BF1CB1072C01D02046F1E700BF0422A3
:10AB000002210020FFF7AAF8044600BF1CB1072C61
:10AB100001D02046E4E700BF0020E1E72DE9FF4136
:10AB200005460C4629492A4A891AC908042242EADC
:10AB300001402B46224627A105F0C4F800200290D0
:10AB40000390ADF80840ADF80A40009001906A46C5
:10AB500002A9284690DF0646002E32D0304605F086
:10AB6000CBFE074619491A4A891AC908012242EA46
:10AB700001403B462A46234905F0A4F8BDF80000F1
:10AB800010B9BDF8020068B1BDF80230BDF8002070
:10AB90000E490F4FC91BC908012747EA01401AA1F6
:10ABA00005F090F8BDF8040058B1BDF8042007493D
:10ABB000074BC91AC908012343EA0140224905F09D
:10ABC00075F8304604B0BDE8F081000084A40300AD
:10ABD0006CA403005570646174696E6720646174CD
:10ABE00061206C656E67746820746F202575206F16
:10ABF0006E20636F6E6E656374696F6E20307825AA
:10AC0000782E0000788D0300546865207265717598
:10AC100065737465642054582F5258207061636BBB
:10AC20006574206C656E67746820697320746F6F3B
:10AC3000206C6F6E672062792025752F2575206F37
:10AC400063746574732E0000C48D03002DE9F04118
:10AC500005460F460F4C0121204603F00CFE064628
:10AC600000BF00BF00BF00BFBFF35F8F00BF00BFCA
:10AC700000BF0EB9012000E0002040B1284602F0DC
:10AC80006DFF08B1BDE8F081024805F029FA00BF68
:10AC9000F8E700000C25002070B50D490D4A891A0F
:10ACA000C908032242EA01400BA104F0F5FF09F0B4
:10ACB00025FD044600BF25463DB100BF0AA24FF462
:10ACC000C3712846FBF7A6FA00BF00BF70BD0000A5
:10ACD00024A503006CA40300457261736520626FB4
:10ACE0006E647321000000002E2E5C2E2E5C2E2E32
:10ACF0005C6D61696E2E630070B506460D4616B137
:10AD00004FF4064070BD287920B1012809D00228EF
:10AD100015D111E00220287128460AF099F904465D
:10AD200010E0284600F060FF044648F209608442C3
:10AD300001D141F61D5405E041F61D5402E048F2F0
:10AD40000E6400BF00BF2046DCE770B588B0054642
:10AD50000C461646142103A8FBF7AFFBA07818B9E0
:10AD600001208DF80A0002E0A0788DF80A00208802
:10AD7000ADF8080002A80390A07901A90BF0D8FC57
:10AD8000E0790DF105010BF0D3FCE07808B101206A
:10AD900000E000209DF8061060F3C3018DF8061056
:10ADA000207908B1012000E000209DF8061060F332
:10ADB00004118DF80610607908B1012000E0002030
:10ADC0009DF8061060F300018DF80610207A08B196
:10ADD000022000E001209DF8061060F342018DF88A
:10ADE000061001A804906089ADF81400A089ADF8A0
:10ADF0001600E089ADF8180020690790324603A9D3
:10AE00002846ABDF08B070BD2DE9F0418046002434
:10AE100014E01248006800EBC405287805F00CFF28
:10AE200007466878012800D100E00020784080F0D3
:10AE300001062878314600F065FB641C084800785C
:10AE40008442E6DB0748D0E900100023594058400F
:10AE5000014301D00CF02AFABDE8F08188260020D9
:10AE60008C2600209826002030B593B002208DF863
:10AE7000040041F61510ADF806004EF6EE60ADF890
:10AE800008000120ADF80A00402103A8FBF715FBDC
:10AE90000DA103A8FEF7F1FB01A8119002208DF887
:10AEA000480003A8FDF71AFF044600BF25463DB140
:10AEB00000BF0AA240F271212846FBF7ABF900BFA0
:10AEC00000BF13B030BD00004E6F726469635365FC
:10AED0006D69636F6E647563746F72002E2E5C2EE5
:10AEE0002E5C2E2E5C6D61696E2E630070B504467B
:10AEF00020793D2802D141F23D0001E04FF4885015
:10AF0000054620880022294602F072FD70BD00002F
:10AF100010B50021034803F0AEFC044684F3100092
:10AF200010BD00003C3B002070B505460C464FF4B8
:10AF3000803000FA04F1284600F0C4FA70BD70B504
:10AF400005460C464FF4A07000EB840086B23146F3
:10AF5000284600F04FFB70BD2DE9F04704460D4632
:10AF600016461F464FF4803000FA05F84FF4A070E3
:10AF700000EB85001FFA80F926F07F4641462068E5
:10AF800005F04EF94146206805F044F9494620682D
:10AF900005F039F932462946206805F02BF941467B
:10AFA000206805F03AF91FB14146206805F03BF9E9
:10AFB000BDE8F08710B50446206805F020F910BD03
:10AFC0002DE9F04704460D4617466079324941F8AD
:10AFD00020706079314901EBC000007968B1082622
:10AFE0002F49304A891AC908022242EA01402EA19B
:10AFF00004F052FE3046BDE8F08729882068C0F88A
:10B00000081500BF94F90420AB78104619460028B3
:10B0100008DB4FEA417C4FEA1C68DFF8B0C00CF84F
:10B0200000800BE04FEA417C4FEA1C69DFF8A0C0CA
:10B0300000F00F08A8F104080CF8089000BF00BF4A
:10B0400094F90410084600280DDB00BF00BF00F093
:10B050001F0301229A4043099B0003F1E023C3F838
:10B06000002100BF00BF00BF00BF012061790B4A73
:10B0700002EBC10108716079114641F830400026A9
:10B080000749084A891AC908032242EA014011A166
:10B0900004F002FE3046AEE7D4260020D826002079
:10B0A00004A503006CA4030052544320696E73741A
:10B0B000616E636520616C726561647920696E6997
:10B0C0007469616C697A65642E00000000E400E038
:10B0D00018ED00E05254433A20696E697469616C5E
:10B0E000697A65642E00000010B5014691F90400EC
:10B0F000002807DB00F01F0301229A40024B44099D
:10B1000043F8242000BF10BD00E200E070B5054602
:10B110000C4622460221284600F0E0F970BD10B529
:10B1200004464FF48271204600F064FA10BD10B559
:10B1300004460021206805F079F810BD10B50446DA
:10B140000421206805F072F810BD2DE9F84F04467F
:10B150008846154699464FF4803000FA08FA4FF4B5
:10B16000A07000EB88001FFA80FB25F07F45514658
:10B17000204600F0A7F9206805F041F80646414650
:10B18000206805F031F8009032464146206805F00D
:10B1900031F85946206805F036F8314600980BF032
:10B1A000A9FF012806D1102005F05AFC5946206855
:10B1B00005F029F8206805F022F8064631462846B1
:10B1C0000BF098FF07465146206805F026F8012F3E
:10B1D0000FD16A1C4146206805F00CF8102005F0DC
:10B1E0003FFC206805F00BF8B04225D00D20BDE8EB
:10B1F000F88F2A464146206804F0FCFF206804F0DE
:10B20000FEFF0646681E31460BF074FF07466FF0DE
:10B210007F40A0EB0900B84201D20D20E7E75FB9FB
:10B220006A1C4146206804F0E5FF206804F0E7FF4F
:10B23000B04201D00D20DAE701225146204600F04D
:10B240004DF90020D3E700002DE9F04104460D46FA
:10B2500028882070010A617002210E46AA783146C2
:10B26000761C6254EA783146761C625400BF042E84
:10B2700001D1012000E0002007463FB900BF054A88
:10B280004FF470710020FAF7C5FF00BF00BF3046D1
:10B29000BDE8F081F49B030070B506460C461546E8
:10B2A0002B46224600213046FFF7B8FB70BD000058
:10B2B0002DE9F84305460E4617469846694610485C
:10B2C000006803F0E0F9044614B90420BDE8F883EF
:10B2D0001C212046FBF7F1F8012020712560C4F8FD
:10B2E000088008480068B6FBF0F0E06067616946D6
:10B2F0000348006803F0F1F909F096FD0020E5E746
:10B30000AC850300A085030010B50446D4E90321F1
:10B31000501828DF10BD0278072A38D2DFE802F083
:10B3200037040712222B340000220A7030E0012279
:10B330000A7003898B818388CB81C2688A6000236D
:10B340000B7425E002220A7003898B818388CB81EC
:10B35000C2688A60827D062A01D1012300E00023B1
:10B360000B7415E003220A70C3888B810389CB819B
:10B37000C2688A600CE004220A70C3888B810023B3
:10B38000CB8100228A6003E005220A7000E000BF42
:10B3900000BF704770B50546002409E0064850F824
:10B3A000240020B1044850F8241028468847641C23
:10B3B000042CF3D370BD00009C33002030B587B05F
:10B3C00004460D462068806808B907B030BD1821D2
:10B3D00001A8FBF772F80295A0680690207910B1D9
:10B3E000012815D109E001208DF80400206903909F
:10B3F000E0680490606905900BE002208DF804007D
:10B400000749E0680968484303906069059000E0D7
:10B4100000BF00BF2068816801A8884700BFD4E74B
:10B42000A0850300F0B585B005460C461646002CF5
:10B430003ED0112C3CD0082C3AD00D2C24D11D49E3
:10B440001D4A891AC908022242EA01402A461B49BC
:10B4500004F02CFC2A460321684602F017FF2EB1A7
:10B46000307800F0010008B1012000E002208DF8E2
:10B47000080000218DF80C1041F20111ADF80A10FE
:10B48000684600F025F913E0204605F035FA074636
:10B490000849094A891AC908012242EA01402B4693
:10B4A0003A46074904F00EFC214628460AF01EFEE3
:10B4B00005B0F0BDB4A403006CA40300789A0300A7
:10B4C000889B030070B504460D462946206804F0A9
:10B4D000A1FE2946206804F0A3FE70BD70B50446A5
:10B4E0000E4615463146206804F097FE1DB13146E0
:10B4F000206804F098FE70BD10B50446204600F0A8
:10B50000E7F810BDF8B505460C4628460BF074FC6C
:10B5100005286AD2DFE800F003212A393F00DCB1B8
:10B52000012128460BF078FC002000906846FCF7CB
:10B53000CAFB2A460126002730463946FAF791FF12
:10B540002B4AD2E9003218431143294A03C29DF81D
:10B550000000FCF7BFFB00BF47E00CB1022000E099
:10B560000020014628460BF057FC3EE044B1032181
:10B5700028460BF051FC012128460CF019FA03E093
:10B58000012128460BF048FC2FE01CB90421284675
:10B590000BF042FC29E024B1032128460BF03CFCCF
:10B5A00022E0002128460BF037FC002128460CF051
:10B5B000FFF9002000906846FCF785FB2A4601262B
:10B5C000002730463946FAF74CFF0A46C143D043BC
:10B5D000074B0CCB11401840054AC2E900109DF8FA
:10B5E0000000FCF777FB00BF00BF00BFF8BD000004
:10B5F0009826002070B505460C462868015929B1E7
:10B600002146286804F0FFFD012070BD0020FCE702
:10B6100070B50446608801F0DDFCA080002505E0DF
:10B62000044850F82510204688476D1C002DF7D09F
:10B6300070BD00000425002070B50446A08801F00C
:10B640007DFB6080002505E0044850F82510204669
:10B6500088476D1C002DF7D070BD00001825002014
:10B6600070B50546002405E0044850F8241028462B
:10B670008847641C022CF7D370BD000024830300AC
:10B6800070B50546002405E0054850F8241028460A
:10B690008847641C034800788442F5DB70BD0000D5
:10B6A0009C3100204625002070B50446608801F0DA
:10B6B00091FCA080002505E0044850F825102046A4
:10B6C00088476D1C002DF7D070BD0000CC830300AF
:10B6D00070B50546002405E0044850F824102846BB
:10B6E0008847641C002CF7D070BD00004484030020
:10B6F00010B586B00446142101A8FAF7DEFEA08931
:10B7000000F08CFAADF80800207806285ED2DFE859
:10B7100000F05D0304052E4A00BF00BFA08900F0C1
:10B7200082FA18B9E08909F0B4FDF8B1E08909F0AE
:10B73000ADFD8DF80C002078032801D1012100E037
:10B7400000218DF80D10A1680491606830B90820BF
:10B750008DF8040001218DF8141004E009208DF803
:10B7600004006168059101A807F016FA2FE0A0898E
:10B7700000F059FAB0B1E089A0B9606838B90A2080
:10B780008DF80400BDF8080007F05CFC04E00B2015
:10B790008DF804006068039001201149087001A829
:10B7A00007F0FAF913E0606818B913208DF8040067
:10B7B00004E014208DF80400606803904FF6FF70D9
:10B7C000ADF8080001A807F0E7F900E000BF00BFEE
:10B7D0000348007808B107F07BFB06B010BD0000FD
:10B7E0002525002038B505461048007810B948F2E4
:10B7F000016038BD4FF6FF70854202D148F2036008
:10B80000F7E7684609F0F0F9044614B948F2076012
:10B81000EFE70520207001202071E580684609F0DF
:10B82000F3F909F0F5FA0020E3E70000E026002034
:10B8300038B50E48007810B948F2016038BD684646
:10B8400009F0D2F9044614B948F20760F6E7062079
:10B850002070684609F0D8F90548007810B1012039
:10B860000349087309F0D4FA0020E7E7E026002036
:10B870007034002070B586B0142101A8FAF71DFEBF
:10B880002E48007828B101A8FFF784FD002006B0FB
:10B8900070BD2A48001D02F0B0FF08B10020F6E795
:10B8A00000F070FA06460EB13046F0E709F0D8F91C
:10B8B00006F0A6FE054625B1022D03D0062D0ED1B9
:10B8C00003E000BF48F20A60E1E701201B4908706D
:10B8D0000020486001A8FFF75DFD0020D7E700BF0A
:10B8E00000BF684609F080F9044614B948F20760C1
:10B8F000CDE7012020700C2D16D2DFE805F01506EB
:10B90000150715111512150A0E0B00BF0020207126
:10B910000BE000BF0320207107E00220207104E04B
:10B9200000BF0120207100E000BF00BF684609F0A1
:10B930006BF909F06DFA0020A9E70000E02600206D
:10B9400038B5044614B948F2046038BD694620464B
:10B9500009F09CFB08B3BDF8000000EB8000114922
:10B9600001EB8000C068A8B1A07A98B1BDF80000D2
:10B9700000EB800001EB8000C068401EBDF80010A5
:10B9800001EB8101074A02EB8101C8600020A0722F
:10B99000002504E048F2056501E048F20965284603
:10B9A000D3E70000483400207FB514461D462B46DF
:10B9B000224601A9684609F001FB04B070BD37B505
:10B9C0000C4615462B4622466946002009F0F6FA39
:10B9D0003EBD37B50C4615462B462246002168462B
:10B9E00009F0ECFA3EBD024602B111B948F204601A
:10B9F0007047106808600020FAE70000F8B50446B8
:10BA00000D4604B115B948F20460F8BD69462046F8
:10BA100009F03CFBA0B16668BDF8001001EB8101A4
:10BA2000094A02EB810101F10C00012102F0ECFE58
:10BA30002E6060680C3068600120A0720020E4E78E
:10BA400048F20960E1E700004834002070B5044680
:10BA50000D4614B948F2046070BD03230022294644
:10BA600020460CF09DFAF7E770B504460D46022318
:10BA70000022294620460CF093FA70BD70B50546A9
:10BA800009480068042802D148F20B6409E007481D
:10BA90000549096840F821500121034802F0B4FE2D
:10BAA0000024204670BD0000EC2600209C330020BE
:10BAB0002DE9F84304464FF4806800262B480078AF
:10BAC00018B948F20160BDE8F88314B948F204607F
:10BAD000F9E712212046FAF7F0FC03202080002528
