:020000040002F8
:10600000085E0020DD630200E5630200E763020032
:10601000E9630200EB630200ED6302000000000090
:10602000000000000000000000000000EF6302001C
:10603000F163020000000000F3630200F563020058
:1060400065660200F7630200A16E0200F7630200BA
:10605000F7630200F7630200A9650200D16602003F
:10606000F7630200F7630200F7630200F7630200C0
:10607000F7630200F7630200F7630200F7630200B0
:10608000F7630200B9660200F7630200F7630200DB
:10609000F7630200F7630200916B0200F7630200EE
:1060A000F7630200F7630200F7630200F763020080
:1060B000F7630200F7630200000000000000000028
:1060C000F7630200F7630200F7630200F763020060
:1060D000F7630200F7630200F763020000000000AC
:1060E00000000000000000000000000000000000B0
:1060F00000000000000000000000000000000000A0
:10610000000000000000000000000000000000008F
:10611000000000000000000000000000000000007F
:10612000000000000000000000000000000000006F
:10613000000000000000000000000000000000005F
:10614000000000000000000000000000000000004F
:10615000000000000000000000000000000000003F
:10616000000000000000000000000000000000002F
:10617000000000000000000000000000000000001F
:10618000000000000000000000000000000000000F
:1061900000000000000000000000000000000000FF
:1061A00000000000000000000000000000000000EF
:1061B00000000000000000000000000000000000DF
:1061C00000000000000000000000000000000000CF
:1061D00000000000000000000000000000000000BF
:1061E00000000000000000000000000000000000AF
:1061F000000000000000000000000000000000009F
:10620000DFF80CD000F092F9004800478DE0020062
:10621000085E002000B583B002900091019244F224
:10622000010071466A4601F0EFFA03B000BD0000BC
:1062300030B450E8012F93B2C48923448489A34227
:1062400028BF1B1B0489A34202BFBFF32F8F00206E
:1062500007E0C3EA020340E80134002CE9D14FF023
:1062600001000A6030BC704750E8012FC2EA0242C8
:1062700040E801210029F7D1704730B450E8022FDF
:106280001FFAA2F3C488A34202BFBFF32F8F0020DE
:106290000DE0C48923448489A34228BF1B1BC2EAA2
:1062A000034340E80234002CE8D14FF001000A60BB
:1062B00030BC704750E8022FC2EA224240E8022177
:1062C0000029F7D17047034653E8022FD988B2EB73
:1062D000324F4FF0000017BF92B241EA014142EA4B
:1062E000014104E05A68B2EB324F08BF012043E895
:1062F0000212002AE8D1704730B4044654E8000F77
:106300000D4644E80053002BF8D1156030BC7047AF
:1063100030B4044654E8000F40EA010544E8005355
:10632000002BF7D1156030BC704730B4044654E8F8
:10633000000F00EA010544E80053002BF7D1156077
:1063400030BC704730B4044654E8000F80EA0105C1
:1063500044E80053002BF7D1156030BC704730B4CF
:10636000044654E8000F00EB010544E80053002BFD
:10637000F7D1156030BC704730B4044654E8000FC4
:10638000A0EB010544E80053002BF7D1156030BCA9
:10639000704770B404464FF0000054E8006F0D6879
:1063A000AE4207BF44E80023012044E800630E60CA
:1063B000002B1CBF0020F0E770BC704730B40446CF
:1063C00054E8000F88422CBF451A054644E80053A4
:1063D000002BF5D1156030BC70470000064880479F
:1063E00006480047FEE7FEE7FEE7FEE7FEE7FEE7BA
:1063F000FEE7FEE7FEE7FEE7096C0200016202002D
:106400002DE9F05F0546002092469B4688460646E9
:10641000814640241BE0284641464746224600F07C
:1064200074F853465A46C01A914110D31146184683
:10643000224600F016F82D1A67EB01084F46224657
:106440000120002100F00DF817EB00094E41201E3D
:10645000A4F10104DFDC484631462A464346BDE844
:10646000F09F202A04DB203A00FA02F10020704756
:106470009140C2F1200320FA03F319439040704782
:1064800000487047C891030040EA01039B0703D00E
:1064900009E008C9121F08C0042AFAD203E011F863
:1064A000013B00F8013B521EF9D27047D2B201E025
:1064B00000F8012B491EFBD270470022F6E710B509
:1064C00013460A4604461946FFF7F0FF204610BD62
:1064D000421C10F8011B0029FBD1801A704730B50F
:1064E00004460020034600E05B1C934203D2E05CBC
:1064F000CD5C401BF8D030BD034611F8012B00F8ED
:10650000012B002AF9D118467047202A04DB203AD3
:1065100021FA02F00021704721FA02F3D040C2F1C3
:10652000200291400843194670470000064C074D71
:1065300006E0E06840F0010394E807009847103453
:10654000AC42F6D3FFF760FE3CAD03005CAD030048
:1065500070B58C1810F8015B15F0070301D110F825
:10656000013B2A1106D110F8012B03E010F8016B52
:1065700001F8016B5B1EF9D12B0705D40023521ED5
:106580000DD401F8013BFAE710F8013BCB1A921C3D
:1065900003E013F8015B01F8015B521EF9D5A1423B
:1065A000D8D3002070BD00002DE9F84F0026002050
:1065B00000904FF480770125002410E0384609F060
:1065C00065FA40B100BF25480068284018B1384638
:1065D00009F04EFA2E436D00381D87B2641C082C5A
:1065E000ECD34FF4BE7009F051FA50B14FF4BE70C5
:1065F00009F03EFA46F000466A460121002009F003
:10660000BBF9F0B210B3012500241DE005EA060035
:10661000C0B100BF124850F82400C0F304208146E6
:1066200000BF0F4850F82400C0F3014082462046C6
:1066300003F008FF8046B8F1000F02D051464846EB
:10664000C04700BF6D00641C082CDFD306F000407B
:1066500010B168460EF09EFCBDE8F88F0463004060
:106660001065004010B54FF4807008F03CFC80B11C
:106670004FF4807008F040FC012008F047FC0D4802
:10668000407930B901200B49487108460168002063
:1066900088474FF4827008F026FC50B14FF48270A6
:1066A00008F02AFC022008F031FC024801680120B1
:1066B000884710BDB826002010B5034A1068034A69
:1066C0001168884710BD00001827002014270020FB
:1066D000FEB54FF4827009F04DFF002837D04FF41B
:1066E000827009F051FF6C4890F82E0018B16A488A
:1066F00090F82F0058B300208DF8000066484068DD
:10670000019065480189ADF80810C06818B90020EB
:106710006149087412E06048008B5F49488308466D
:10672000C06848600846008B08810020C8600846A1
:1067300090F82E0010B9002009F03EFF564801687D
:10674000684688470020544981F82F0000BF52480E
:1067500090F82E00002852D04FF4807009F00AFF04
:1067600000284CD04FF4807009F00EFF4A48408B4F
:10677000494991F82D10884216DD4748408B46491B
:1067800091F82D10401A444948830A4612890B4655
:106790005B8BD21A0B465B6803EB42000A4692F809
:1067A0002D1009F0D3FE23E03B48408B3A4991F885
:1067B0002D1088420FD13848C06860B10120364999
:1067C00081F82F00002048830A4692F82D10D068E7
:1067D00009F0BCFE0CE03048408B2F4991F82D1099
:1067E000884205D101202C4981F82F0000204883E0
:1067F0004FF4827009F0C8FE042009F0DDFE4FF46A
:10680000887009F0B7FE70B14FF4887009F0BCFED3
:1068100000202149087402208DF800000846016814
:106820006846884700BF4FF48A7009F0A3FE38B16C
:106830004FF48A7009F0A8FE0020174908742AE076
:106840001548456924E0B5FA85F64FF00040F04060
:106850008543B00000F58C74204609F08BFEB8B17A
:10686000204609F091FE01208DF80000A4F58C70FF
:10687000C0F3C7008DF80400A4F58C70012121EA53
:1068800090018DF80510044801686846884700BFEC
:10689000002DD8D100BFFEBDE832002010B500F0B9
:1068A00007FB10BDF8B504460D46164600BF0B4861
:1068B000007808B900F0FCFA00BF0020009068469C
:1068C00001F001FA32462946204600F009F8074651
:1068D0009DF8000001F0FEF93846F8BD803B00202D
:1068E0002DE9F047074688461646C24607EB4701A2
:1068F0001B4800EBC109D9F8140020B1012811D0C0
:10690000022826D11EE0484600F00AFB0546B542A3
:1069100001D2002405E0344632465146484600F094
:1069200054FC18E0484600F0FBFA0546B54201D297
:10693000284600E03046044622465146484600F0CC
:1069400044FC08E032465146484600F005FC044647
:1069500001E0002400BF00BF2046BDE8F087000032
:10696000983B00200FB438B5044606A800906A464C
:106970002046059900F007F80546002000902846BB
:1069800038BC5DF814FB2DE9F04F99B082460D46F6
:10699000144603A814904020159000201690CDF8BE
:1069A00060A0179000BF2E786D1C06B9DDE0252E83
:1069B00079D100274FF0010900BF2E78232E12D085
:1069C0002B2E0CD02D2E02D0302E10D103E047F00C
:1069D00001076D1C0EE047F002076D1C0AE047F04E
:1069E00004076D1C06E047F008076D1C02E04FF03D
:1069F000000900BF00BFB9F1000FDED14FF0000861
:106A000000BF2E78302E01DB392E00DD07E06D1C33
:106A1000A6F1300008EB880100EB4108F1E700BF68
:106A2000002013902E782E2E12D16D1C00BF2E78D0
:106A3000302E01DB392E00DD09E06D1CA6F130009F
:106A4000139901EB810100EB41001390EFE700BFC8
:106A50002E7800BF6C2E01D0682E02D16D1C2E78CE
:106A600000E000E0F6E700BF702E5DD008DC252EC8
:106A70006AD0582E35D0632E09D0642E69D113E028
:106A8000732E3CD0752E1DD0782E62D128E021685F
:106A9000081D2060D1F8009009F0FF0B594614A89A
:106AA00000F038FB56E058E02168081D2060D1F85E
:106AB0000090CDE900870A22494614A8139B00F0F4
:106AC0003DFA47E02168081D2060D1F80090CDE92B
:106AD00000870A22494614A8139B00F0A5FA39E062
:106AE00000BF2168081D2060D1F80090CDE9008723
:106AF0001022494614A8139B00F096FA2AE0216858
:106B0000081D2060D1F800B000BF9BF800600BF1B9
:106B1000010B06B906E0314614A800F0FBFA1798FD
:106B20000028F2DA00BF15E02168081D2060D1F8C6
:106B30000090002008210B461022CDE900104946A4
:106B400014A800F071FA05E0252114A800F0E2FA7B
:106B500000E000BF00BF6D1C03E0314614A800F048
:106B6000D9FA17980028BFF61EAF00BF1798002863
:106B70000ADD169820B103A95046169AFFF792FE37
:106B8000DDE9161008441790179819B0BDE8F08F8A
:106B900070B5094A0021084600F05EFF044600BFB8
:106BA00025463DB100BF05A240F287112846FFF7F8
:106BB00031FB00BF00BF70BD757E02002E2E5C2E23
:106BC0002E5C2E2E5C2E2E5C2E2E5C2E2E5C636F89
:106BD0006D706F6E656E74735C736F6674646576EA
:106BE0006963655C636F6D6D6F6E5C6E72665F731B
:106BF00064682E6300000000014802490860704785
:106C00000090D003E427002010B507F033FD28B131
:106C100092480088C0F304209149086007F082FD83
:106C200010B190489049486707F0B8FD30B18B48E3
:106C3000E0380068C0F342308C49086007F0DAFDA4
:106C400028B18B48006820F080708949086007F0FF
:106C5000EFFD48B10020874908604FF08041C1F83E
:106C600010018249091F086007F00EFE18B10320C9
:106C70007E496431086007F025FE68B105207E4931
:106C8000086001207C497831086000207A49083189
:106C900008603F20091F086007F032FE002855D029
:106CA0006E48E0300068754908606C48E430006860
:106CB000091D08606948E8300068091D08606748D8
:106CC000EC300068091D08606448F0300068091D58
:106CD00008606248F4300068091D08605F48F830B9
:106CE00000686649203108605C48FC300068091D76
:106CF000086063480068091D08606148001D00685D
:106D0000091D08605E4808300068091D08605C487D
:106D10000C300068091D0860594810300068574958
:106D200040310860564814300068091D0860544816
:106D300018300068091D086051481C300068091DA2
:106D400008604F4820300068091D086007F066FCA5
:106D500030B14248CC38006800F04F004949086023
:106D600007F0B4FC40B14848006800F0010018B1D9
:106D70006FF001004449086007F0F2FC28B1434875
:106D8000006840F480604149086039487438006800
:106D900040F4700036497439086000BF00BF00BF7E
:106DA000BFF34F8F00BF00BF00BF00BF00BF00BFD9
:106DB000BFF36F8F00BF00BF00BF3548006800F011
:106DC000004028B93248001D006800F00040E8B3D8
:106DD00001203049086000BF2F4800680028FBD020
:106DE00015202B49086000BF2B4800680028FBD005
:106DF00015212748001D016000BF274800680028B2
:106E0000FBD000202349086000BF23480068002809
:106E1000FBD000BF00BF00BF00BF00BFBFF34F8F5C
:106E200000BF00BF00BF1248F038006800F4E06007
:106E30001A490843001D0E49F039086000BF00BF21
:106E400000BFBFF34F8F00BF00BF00E003E000BFF3
:106E500000BF00BFFDE7FFF7CFFE10BD2403001009
:106E6000403501400DF0ADBA00C007403C05004080
:106E7000FCED00E00C0100401056004020C5004031
:106E800024040010E40E0040000400403C170040C1
:106E90000012001004E5014000E401400000FA0582
:106EA00010B502490868804710BD0000C0260020C8
:106EB00010B5124C02202061606111A0A06113493D
:106EC000E1614FF4007121620021A1626162E1621F
:106ED0000BA0A0640E49E164102121650021A16589
:106EE0006165E1650BA1E01DFFF706FB0AA12046E5
:106EF000FFF702FB2020A07110BD0000803B0020A6
:106F00005465726D696E616C00000000F83B0020F2
:106F1000F83D002052545400534547474552000065
:106F200010B501460A69CB689A4204D88C68641E81
:106F3000E41AA01801E0D41A601E10BD2DE9FC5F10
:106F400006460F4692469846DDE90C45002F01DAC9
:106F5000784200E0384683464FF0010903E09BFB8E
:106F6000FAFB09F10109D345F9DAC84500D9C14650
:106F700034B1002F03DB05F00400042800D1641EA7
:106F800005F0020010B1B8F1000F11D005F00100BA
:106F900070B96CB108E0641E2021304600F0BAF8E8
:106FA000F068002800DA02E00CB1A145F3D300BF7D
:106FB000F068002836DB002F05DA7F422D213046AD
:106FC00000F0A8F807E005F00400042803D12B2105
:106FD000304600F09FF8F068002823DB05F002003F
:106FE000022814D105F0010088B9B8F1000F0ED1C4
:106FF0006CB108E0641E3021304600F08BF8F06878
:10700000002800DA02E00CB1A145F3D300BFF0681C
:10701000002807DB4346524639463046CDE9004555
:1070200000F002F8BDE8FC9F2DE9FC5F8046894630
:1070300015461E460C9CCDF804900127BB4605E082
:107040000198B0FBF5F001900BF1010B0198A842FB
:10705000F6D25E4500D9B3460D9800F00100D0B9D4
:10706000CCB10D9800F00200022803D116B93020EF
:10707000009001E02020009009E0641E4046009945
:1070800000F048F8D8F80C00002800DA02E00CB153
:10709000A345F2D300BFD8F80C00002835DB09E087
:1070A000012E01D9761E04E0B9FBF7FAAA4500D2F9
:1070B00001E06F43F4E700BF00BFB9FBF7FA0AFB3A
:1070C0001799134810F80A10404600F023F8D8F832
:1070D0000C00002800DA03E0B7FBF5F7002FECD135
:1070E00000BF0D9800F0010078B174B109E0641E92
:1070F0002021404600F00EF8D8F80C00002800DAF5
:1071000002E00CB1A345F2D300BFBDE8FC9F000034
:107110009090030070B504460E46A568681C61682F
:10712000814206D320684655681CA060E068401C78
:10713000E060D4E9011088420DD1A268216820697D
:10714000FFF7B0FBA168884203D04FF0FF30E0604A
:1071500001E00020A06070BD2DE9F047044689469B
:1071600017464FF0000AE56800BFD4F81080A84524
:1071700003D9A8EB0500461E04E0A5EB0800401C5F
:10718000A1680E1AA068401BB04201D9304601E048
:10719000A068401B0646BE4201D2304600E0384699
:1071A00006466168481932464946FFF76DF9B24410
:1071B000B144BF1B3544A068A84200D10025E5605A
:1071C000002FD2D15046BDE8F0872DE9F0470446A4
:1071D00089461546E668A068871BAF4208D96168F2
:1071E00088192A464946FFF74FF97019E06010E008
:1071F000B8466168881942464946FFF745F9A5EB4C
:10720000070809EB070142466068FFF73DF9C4F83B
:107210000C80BDE8F08702E008C8121F08C1002AF0
:10722000FAD170477047002001E001C1121F002A07
:10723000FBD170470146202908DA012088400A4A1C
:10724000104008B1012070470020FCE7402909DA0E
:10725000A1F12000012202FA00F008B10120F2E7BA
:107260000020F0E70120EEE7FC06FFBD00BFEFF3D2
:107270001081084672B67047F8B505460E46D6B975
:10728000694628460CF0B0FC044643F202018C42E9
:107290000AD000BF274637B100BF3B4AB12138466C
:1072A000FEF7B8FF00BF00BF9DF80000C0F340002C
:1072B00000B1F8BD00BF002128460CF0A7FC044631
:1072C000002C5ED0112C5CD00D2C21D12F49304ADE
:1072D000891AC908022242EA01402A462D4908F0CB
:1072E000A7FE1321284676DF0446002C49D020460D
:1072F00009F0A6FC07462549254A891AC908022231
:1073000042EA01402B463A4623A108F09DFE38E0B0
:107310000B2C0BD11D491E4A891AC908022242EAC8
:1073200001402A462A4908F083FE2AE043F202007F
:1073300084420BD11549164A891AC908022242EA29
:1073400001402A46234908F073FE1AE0204609F05E
:1073500077FC07460D490E4A891AC908012242EAFC
:1073600001402B463A461CA108F06EFE00BF27469E
:1073700037B100BF044AE0213846FEF74BFF00BF9B
:1073800000BF00BF95E70000F09E0300B4AD03000E
:107390007CAD0300A89A030073645F626C655F674D
:1073A00061705F646973636F6E6E65637428292012
:1073B00072657475726E6564202573206F6E20632C
:1073C0006F6E6E5F68616E646C652025642E0000D0
:1073D000689B03001C9B0300417373657274696EA4
:1073E000672E20706D5F636F6E6E5F73656375727D
:1073F0006528292072657475726E65642025732076
:107400006F6E20636F6E6E5F68616E646C652025C1
:10741000642E000070B505460C4605B10CB900207D
:1074200070BD287840082178B0EB510F01D00020C2
:10743000F6E70622611C681CFFF751F808B9012025
:10744000EEE70020ECE7014601F0030008B9012057
:1074500070470020FCE7024650680068401E084064
:1074600008B9012070470020FCE70246002104E033
:10747000505C08B101207047491C0629F8D3002050
:10748000F9E710B50346D868884206D88818401E28
:107490001C69A04201D8012010BD0020FCE70000BB
:1074A00010B504466CB10848C068A04209D8064827
:1074B0000069A04205D3204606F0F7FA08B1012082
:1074C00010BD0020FCE70000E827002070B504464E
:1074D0000D4604F22740FFF7C8FF0646012D06D0EF
:1074E000022D0DD0032D11D0042D19D113E0A07958
:1074F00028B194F8240010B90EB1012070BD00BF6E
:10750000E07910B10EB10220F8E700BF207A08B18F
:107510000320F3E700BF607A08B10420EEE700BF64
:107520000020EBE70146481C052290FBF2F302FB2A
:107530001300C0B27047014691F82420012A01D1FE
:10754000EE2000E01F20704710B50122022100202C
:1075500002F084FB044600BF1CB1072C01D020467A
:1075600010BD00BF07220221012002F077FB044674
:1075700000BF1CB1072C01D02046F1E700BF0A2252
:107580000021084602F06AFB044600BF1CB1072C2C
:1075900001D02046E4E700BF0020E1E770B5ACB0C1
:1075A000AC2101A8FEF789FF052602208DF8040012
:1075B00001208DF806008DF80760ADF814001F4912
:1075C00006911F480A903C2201A91E48FEF75CFF65
:1075D00001218DF87D108DF87E1000218DF87F102F
:1075E0002191229101218DF880102821239140F6CC
:1075F000B831249101218DF88110A021259144F208
:107600005061269110482A9010482B9001A91048EB
:1076100000F0C0FF044600BF25463DB100BF0DA2EB
:1076200040F2DD412846FEF7F5FD00BF00BF012115
:10763000074800F097FF2CB070BD00000424002024
:107640000C240020FC2C0020211803006D85020072
:10765000B82800202E2E5C2E2E5C2E2E5C6D6169CB
:107660006E2E630070B50446012C02D103F032FB8C
:1076700014E0012010F082FE0321094801F066F8B1
:10768000054600BF2E463EB100BF06A240F297114C
:107690003046FEF7BFFD00BF00BF00BF70BD000059
:1076A000B82800202E2E5C2E2E5C2E2E5C6D61697B
:1076B0006E2E630070B58CB004460D461646002051
:1076C00005E0C0F10F01615C0DF80010401C1028AE
:1076D000F7D30D2104A8FEF7F0FE002005E02A5C98
:1076E000C0F10F0304A9CA54401C0328F7D368460D
:1076F00046DF002005E0C0F10F0208A9895C315483
:10770000401C0328F7D30CB070BD10B5044602200E
:1077100002F0F8F810BD000010B5044602480178E8
:10772000204601F065FA10BD4426002010B5002463
:1077300007E00749096811F83400012109F05CFBF2
:10774000641C044800788442F3D3002010BD00007C
:10775000C8260020CC2600202DE9F84306460D4619
:1077600017460A2F02D20720BDE8F88309F088FCEB
:1077700038B909F01BFC044600BF204600B1F3E70E
:1077800000BF184806601848057018480760184878
:107790000021016041608160C160164A1160516042
:1077A00015E006EBC50814480068009098F8020040
:1077B0008DF8010098F80000104A694609F072FB44
:1077C000044600BF204600B1CEE700BF00BF281E20
:1077D000A5F10101CDB2E4D1094A0021094800F028
:1077E00007FAC1E7C8260020CC260020D0260020BA
:1077F00038330020D8260020008E030085C90200FF
:1078000045AE0200FC8D03002DE9FE4307460E46FF
:10781000144672B600BF08F00BFD00BF00BF08F0B1
:107820006FFA0028FBD100BF00BF012F0CD06FF40E
:107830008050384498B1B0F5405F2CD06FF440517F
:107840000844002847D115E03149324A891AC9084D
:10785000012242EA014030A108F0E0FB47E02C4958
:107860002C4A891AC908012242EA014032A108F0D3
:10787000D5FB3CE025462649DFF898C0A1EB0C017A
:10788000C9084FF0010C4CEA014034A1D5E900329F
:1078900008F0DAFB2BE02546A86809F0D1F980460C
:1078A000D5E900108DE8430019491A4BC91AC908D7
:1078B000012343EA014043462FA1AA6808F0FEFBDA
:1078C0001349144A891AC908012242EA014034A125
:1078D00008F0A4FB0BE00E490E4A891AC9080122E0
:1078E00042EA0140324633A108F0A2FB00BF00BFCC
:1078F00000BF3648006800F0010000B100BE00BFC4
:1079000022463146384600F063F8BDE8FE830000A9
:1079100034AE03007CAD0300534F465444455649F2
:1079200043453A20415353455254494F4E20464116
:10793000494C454400000000534F465444455649C5
:1079400043453A20494E56414C4944204D454D4F00
:10795000525920414343455353000000415353457E
:107960005254494F4E204641494C454420617420B1
:1079700025733A25750000004552524F5220257557
:10798000205B25735D2061742025733A25750D0AEF
:1079900050432061743A2030782530387800000058
:1079A000456E64206F66206572726F72207265701A
:1079B0006F727400554E4B4E4F574E204641554CFA
:1079C000542061742030782530385800F0ED00E004
:1079D00018B5012300939DF800301E4B18605960C4
:1079E0009A606FF48043034463B1012B19D1194BA2
:1079F000DA60DB681B68174CA3612346DB685B68B1
:107A0000E3610EE0134B1A611B699B68114C6361C3
:107A100023461B691B68A36123461B695B68E361FE
:107A200000BF00BF0B4B1B680A4B5B68094B9B6890
:107A3000084BDB68074B1B69064B5B69054B9B6971
:107A4000044BDB6972B600BF9DF80030002BFBD100
:107A500062B618BD483300202DE9F84307460C46AE
:107A6000904626480088844244DC4FF6FF7500208B
:107A70000090684600F027F900BF214890F8009078
:107A80002048007806F0BEFD484501D1012000E005
:107A9000002030B91B480578007806F0B3FD19497D
:107AA00008709DF8000000F015F94FF6FF70854250
:107AB0001ED01548006840F835808FB1002C0FDDCE
:107AC000124909680D4A128805FB02102246394600
:107AD000FEF7DAFC0C48006800EBC500848005E086
:107AE00000200949096801EBC5018880002600E0F3
:107AF000042600E009263046BDE8F883EA26002087
:107B0000E8260020E9260020E0260020E4260020C8
:107B10002DE9F0411AE01648047816480068164925
:107B2000098804FB01051548006800EBC40086883D
:107B30001248006850F8347031462846B8470C485F
:107B4000007806F05FFD0A49087000BF00BF002002
:107B500058B900BF0649087809490978814201D11E
:107B6000012100E000210029D5D0BDE8F08100000E
:107B7000E8260020E4260020EA260020E026002057
:107B8000E926002030B50346481C4FF6FF7505EA8C
:107B9000C004104600F003050DB9012500E00025E2
:107BA0000DB9072030BD084802601019074D286044
:107BB0000020074D2870074D2870074803800748AC
:107BC00001800020EEE70000E0260020E4260020EF
:107BD000E9260020E8260020EA260020EC260020E6
:107BE00010B5024803F050FB10BD0000F026002045
:107BF00010B503460C460AB9072010BD19684A6142
:107C0000012C01D1012000E0002008610020F4E7F0
:107C100038B51348006800900823582211491248CB
:107C2000006806F0A4FE04460CB1204638BD0F4A99
:107C300069460F4803F02EFB04460CB12046F5E7D9
:107C400001210B4803F0CCFB01230A4A19460848DE
:107C500003F0ECFA0120084908702046E6E700002E
:107C6000148E030068330020048E0300B15C03000F
:107C7000F0260020FFFF7F00FC2600202DE9F041C8
:107C800006460D4617463446207F10B10020BDE859
:107C9000F081A76104F058FE401941F10001C4E9E8
:107CA0000201206900B12561214600200FF0F4FE99
:107CB000EDE770B5044625460020287729460120C7
:107CC0000FF0EAFE70BD10B5044620460EF0AEFA85
:107CD00010BD000070B5044625460E488068B0B15E
:107CE000ADB9FFF7C3FA06460A4800680A490860BA
:107CF000084840684FF0E021C1F804010020054920
:107D000088601EB900BF62B600BF00BF00BF00BFE1
:107D100070BD0000D033002000E100E0F8B505465A
:107D20000C4617462088001DB84201D90C20F8BD2A
:107D3000684679DF064600BF304600B1F7E700BF6E
:107D40000320218868542088401C20801920218825
:107D500068542088401C208020884119BDF800000C
:107D600010F03EF92188084420800020DFE770B53C
:107D700005460C462068401C28B1206807F03FFEED
:107D8000206807F0C8FD6068401C18B100216068D9
:107D900007F0A7FD2868A169C0F8241500BF617D20
:107DA000227D286841EA0203C0F86C3500BFD4E99F
:107DB0000012286808F07DFF207D012814D1A068FA
:107DC000401C18B10021A06807F08BFDE068401C42
:107DD00028B1E06807F013FEE06807F09CFDD4E9E5
:107DE0000221286808F04EFF70BD70B505460C46AC
:107DF0002068401C28B1206807F00CFE206807F0BE
:107E000096FD6068401C18B10021606807F076FD9F
:107E10002868A169C0F8241500BF617D227D28680B
:107E200041EA0203C0F86C3500BFD4E900122868AB
:107E300008F077FF207D012814D1A068401C18B1FC
:107E40000021A06807F05AFDE068401C28B1E068F6
:107E500007F0E0FDE06807F06AFDD4E90221286838
:107E600008F040FF70BD70B504460D46204605F091
:107E70008BFF70BD70B504460D4608F0D1FD70BD96
:107E800010B50446637903F003022179208805F0D8
:107E900033FF10BD10B50446207918B9204600F014
:107EA00007F803E02046FFF7EBFF00BF00BF10BD5F
:107EB0002DE9FE4307463E884FF00008002259484E
:107EC0000178304600F0AAFE7879C0F3800028B926
:107ED000002138460AF0ACFFBDE8FE8306F580714C
:107EE00088B201AB012207210BF0C2F80546C5B1EB
:107EF000284608F0A5FE81464B494C4A891AC90814
:107F0000012242EA014033464A46494908F09CF8BA
:107F1000294630460EF0ECFC002138460AF088FF76
:107F2000DAE7304605F0DAF904464FF6FF718C4285
:107F30001BD1029805F022F904464FF6FF708442E7
:107F400013D02146304605F0A7F93046FFF7E4FB91
:107F500058B930460EF022FC3046FFF7DDFB20B961
:107F6000002138460AF064FFB6E74FF6FF708442FE
:107F70001FD10BF093FA04464FF6FF70844212D1E2
:107F800029492A4A891AC908012242EA014029A13D
:107F900008F044F8042130460EF0AAFC00213846CF
:107FA0000AF046FF98E72146304605F075F94FF094
:107FB000010806F5807188B2224607210BF0E0F82F
:107FC000054625B9012138460AF032FF28E0862D02
:107FD00007D130460EF052FC012138460AF028FF46
:107FE0001EE0284608F02CFE81460F490F4A891AE8
:107FF000C908012242EA014033464A461A49009420
:1080000008F032F8294630460EF072FC002138465E
:108010000AF00EFFB8F1000F02D0204605F046F935
:1080200000BF59E741260020BCAD03007CAD030032
:10803000B0A10300436F756C64206E6F7420616C97
:108040006C6F63617465206E657720706565725F23
:10805000696420666F7220696E636F6D696E672058
:10806000626F6E642E000000CCA20300002114E0B9
:108070000C48D0F81024012308E000BFD068007934
:10808000884201D1002303E0D0680268002AF4D1BD
:1080900000BF0BB108467047491C0A29E8DB4FF0C6
:1080A000FF30F8E7603700207FB500200090019096
:1080B00002900390009001208DF8040000200290AF
:1080C00064208DF80C0002208DF80D008DF80E0054
:1080D0008DF80F006946084800F06FFC044600BFA9
:1080E00025463DB100BF05A240F287212846FEF794
:1080F00091F800BF00BF7FBD602800202E2E5C2EAF
:108100002E5C2E2E5C6D61696E2E6300F0B58FB013
:1081100004460D46287B0190202107A8FEF7CDF9E3
:1081200042F61920ADF81C000120ADF82000ADF892
:10813000220001A80990617C9DF8290061F30410D8
:108140008DF829009DF8290020F00200801C8DF890
:108150002900A87B8DF82F00687B8DF82D00A08862
:10816000A21D07A902F028FA064616B130460FB044
:10817000F0BDA86800B36846A96801F091FA074607
:10818000142102A8FEF799F942F60810ADF808008C
:10819000E87B8DF80E00ADF81270BDF81200ADF856
:1081A0001600CDF818D0E08804F10E0202A902F002
:1081B000EAFD06463046DAE70020E08100BFD6E758
:1081C00010B5044600F002F810BD000070B511496A
:1081D00011480EF001FCC5B24FF6FE7229460F4859
:1081E00000F082FB04469CB1112C11D0132C0FD04F
:1081F0000F2C0DD0082C0BD043F20140844207D045
:1082000000BF07A24FF4F8712046FEF703F800BF45
:1082100070BD0000EC2C0020FC2300206028002012
:108220002E2E5C2E2E5C2E2E5C6D61696E2E6300F0
:1082300070B504460D4621462846AEDF0646304658
:1082400070BD2DE9F04104460F46154615B90E20C4
:10825000BDE8F0810020286000BF0CB90E20F7E7D0
:1082600000BF00BF206808B90E20F1E700BF00BFC3
:10827000E088C11700EB91718910A0EB810109B171
:108280000720E5E700BF384600F02AFCC6B2142EEE
:1082900001D10520DCE72079B04201DC0420D7E7DA
:1082A000E188206806FB010028600020D0E72DE966
:1082B000FC41054688461646002437880020308059
:1082C00095F82D0058B13A463146404600F0CAFCB8
:1082D000044600BF204608B1BDE8FC8100BFA87875
:1082E00050B13A4631464046FFF718FD044600BFFC
:1082F000204600B1F0E700BFE87860B1E97848B205
:108300003B463246414603F025FE044600BF204668
:1083100000B1E1E700BF686868B1696891F90000E1
:108320003B46324641460FF086FC044600BF2046DD
:1083300000B1D1E700BF288900280EDD43460622A0
:10834000022105F10800CDE900670FF056FF044651
:1083500000BF204600B1BFE700BF288A00280EDD1D
:1083600043460722032105F11000CDE900670FF015
:1083700044FF044600BF204600B1ADE700BF288B94
:1083800000280EDD43461522142105F11800CDE921
:1083900000670FF032FF044600BF204600B19BE7A4
:1083A00000BF286A58B13B4632464146286A02F06F
:1083B000ABFA044600BF204600B18DE700BF686AF3
:1083C00058B13B4632464146686A05F0BDFE044658
:1083D00000BF204600B17FE700BF95F82C000028C1
:1083E0000BDD3B463246414628460EF0C7FC0446AC
:1083F00000BF204600B16FE700BF287858B13B4668
:1084000032464146284606F054F8044600BF20464E
:1084100000B161E700BF20465EE7F8B504460E46AE
:108420001546002000902B466A463146204600F053
:1084300008F807460FB90020F8BDBDF80000204439
:10844000FAE7F0B504460D461E4604B10AB900200D
:10845000F0BD002103E0605C401C084481B2481C70
:10846000A84206DA10888842F5DC481C205CB0423D
:10847000F1D1A94201DB0020EAE7881C87B2605CE9
:1084800010B1605C401E00E0002083B213B1F81808
:10849000A84201DD0020DBE717801846D8E72DE968
:1084A000FF4104460D46164600BF1CB90E2004B01D
:1084B000BDE8F08100BF207808B90820F7E715B9BA
:1084C0000EB90E20F3E70020009001900290039077
:1084D000DDB1D4F82004016804F15500814200D0D8
:1084E00001E004F2431000902046FFF724F8ADF8B5
:1084F000040001AA28460099FFF7D9FE074600BFED
:10850000384600B1D3E700BF00BFDEB1D4F8200485
:10851000816804F23120814200D001E004F21F3072
:1085200002902046FFF707F8ADF80C0003AA30468A
:108530000299FFF7BCFE074600BF384600B1B6E718
:1085400000BF00BF04F580609DE88E0010308EC033
:108550001038C4F82004002204F15400D4F8201488
:1085600072DFA4E780F830107047000010B50446B1
:1085700000BF04A24FF4ED712046FDF74BFE00BF93
:1085800010BD00002E2E5C2E2E5C2E2E5C6D6169BF
:108590006E2E630070B504460D4605B10CB90E2071
:1085A00070BD05F1780002F050F908B90720F7E72F
:1085B0000020A0702C2205F17801201DFDF764FF3A
:1085C000002084F83000D5F8A4006063D5F8A80036
:1085D000A0634FF6FF70A4F8240404F58260C4F889
:1085E0002004002140F22C40C4F82614A4F82A14D8
:1085F0000155207810B9FF2084F8540004F155008B
:10860000C4F810042046FEF796FF40F214410853C8
:1086100004F2144204F155012846FFF748FE0646CD
:1086200000BF304600B1BBE700BF04F231204FF479
:10863000836108512046FEF77EFFA4F81C044FF426
:108640008360015904F21C4205F13C00FFF72FFE44
:10865000064600BF304600B1A2E700BF012151200D
:108660000155208B81B248200153012084F83C0041
:1086700000212164502001556169616404F13C02CC
:10868000002104F1540072DF064600BF304600B1FD
:1086900086E700BF01202070304681E770B50446B0
:1086A0000D462E462088102804D0112807D02628F1
:1086B0000FD109E02146304609F0F2FA0AE02146DE
:1086C000304609F0D2FC05E0214630460AF057F862
:1086D00000E000BF00BF70BD024692F82D0408B94B
:1086E00008207047002082F82D040B6840F22C40CF
:1086F000C2F826348B88A2F82A348B798354002060
:10870000EFE770B5044694F8540074DF012084F854
:108710002E04002084F83004002150200155062149
:10872000204603F032FC054600BF284600B170BD6C
:1087300000BFA178204600F009F8054625B1A06BDE
:1087400010B12846A16B88470020F0E770B50446B9
:108750000E46207808B9082070BDA670002140F2AE
:108760002C40C4F82614A4F82A140155A07910B19D
:10877000A078012809D0E07910B1A078012804D0B0
:10878000E07970B1A07802280BD1606B30B1012084
:1087900084F82D040820616B884702E0002084F8EB
:1087A0002D0431462046FEF791FEA070606BA0B10B
:1087B000A078032802D0A07804280ED1607960B197
:1087C00094F82E0448B9002084F83004012084F87D
:1087D0002F040720616B884702E0002084F82F04F3
:1087E000182104F13C00FDF768FE012084F83C00EC
:1087F00004F12C000BF0B7F820B194F82C105120A4
:10880000015502E001215120015594F8240060B186
:1088100004F128000BF0A7F820B194F8281052209A
:10882000015502E00121522001550021502001553F
:10883000A078052824D2DFE800F01F030A111800F1
:1088400004F13C0120460EF01BFB054619E004F143
:108850003C0120460EF0FCFA054612E004F13C0112
:1088600020460EF01FFB05460BE004F13C012046BC
:108870000EF046FB054604E0002084F8310000E0DD
:1088800000BF00BFA07898B104F13C0204F154008D
:10889000D4F8201472DF05460DB128465CE794F841
:1088A000301094F8540073DF05460DB1284653E7A5
:1088B000606B18B194F83100616B884700204BE77A
:1088C00030B50446039D94F82F0408B9082030BD44
:1088D000002084F82F0402B90DB1012000E000202F
:1088E00084F830040020F2E7F7B592B0044617464A
:1088F00014B90E2015B0F0BD0026207C9DF84C1058
:10890000884258D00020109011900120ADF840000E
:108910000020ADF8420013A81190E18810AA4FF68C
:10892000FF70ACDF06461EB99DF84C00207401E0D4
:108930003046DFE7607C00283CD000200C900D9092
:108940000E900F90E088ADF8300001208DF83200D5
:10895000BDF84200ADF8340010A80E9011980F90A9
:108960004FF6FE7087421FD101A800F0AFF8002536
:1089700016E002A931F8150000F016F902280ED110
:108980003EB902A830F815100CA8FFF751FC0646B6
:1089900005E002A830F815100CA8FFF749FC6D1C83
:1089A0000198A842E5D804E039460CA8FFF740FC3E
:1089B000064600E0082630469CE7F8B504460D461A
:1089C00004B10DB90E20F8BD2868206028796074C4
:1089D000FF20207400BF01208DF8020041F60F0037
:1089E000ADF8000000BF221D69460120A8DF064641
:1089F00000BF304600B1E6E700BF29462046FFF73A
:108A000085FB06463046DEE770B504460D4605B1E7
:108A100004B970BD2E462088502804D12146304626
:108A200009F00AFF00E000BF00BF00BFF1E700004F
:108A30002DE9F041044600BF14B90E20BDE8F081D5
:108A400000BF1C2221461C48FDF71EFD1B481A4989
:108A50000860206860B120687ADF05460DB12846BD
:108A6000ECE7164821680A6802604968416005E041
:108A700012487BDF05460DB12846DFE7002617E0E8
:108A800006EB86000E4901EB800700BF4FF6FF7032
:108A9000388000BF0B4800EB461078600A4A00217E
:108AA000381DFFF7A5F805460DB10320C6E7761C73
:108AB000002EE5D00020C1E7AC2E0020402500208C
:108AC000982E0020782E00200981030010B504465E
:108AD00002484168204601F0CCFE10BDC82E00209F
:108AE00010B50446204600F0AFF808B1204610BD8E
:108AF0001420FCE710B50446204600F0A5F820B18C
:108B00002146034805F0D5FF10BD0020FCE700001A
:108B1000D82E002070B504460D46164620460FF0AC
:108B20003DFB08B9002070BD034951F824003246CE
:108B3000294603F09FFAF6E7E42E002010B504461C
:108B4000204600F081F820B12146034805F0B1FF2E
:108B500010BD0020FCE70000E02E002010B5044608
:108B6000204600F071F820B12146034805F0A1FF2E
:108B700010BD0020FCE70000DC2E002070B504468C
:108B80000025204600F060F850B12146054805F068
:108B900090FF06460EB1022000E00120054600BF0E
:108BA000284670BDD42E002070B50446002520460E
:108BB00000F04AF850B12146054805F07AFF064614
:108BC0000EB1022000E00120054600BF284670BD1E
:108BD000D02E002010B51821044805F03AFF0446B5
:108BE000182C00D110BDE0B2FCE70000C82E002018
:108BF00070B505460C4620460FF0D0FA50B1284615
:108C000000F022F830B1044901EB8400294605F058
:108C100050FF70BD0020FCE7E42E002070B5054633
:108C20000C46164620460FF0B9FA50B1284600F01F
:108C30000BF830B1034901EB84003246294603F0BA
:108C40007AF970BDE42E002010B50446142C01DB27
:108C5000002010BD2146024805F02BFFF9E7000077
:108C6000CC2E00202DE9FC4105460C4617462088F5
:108C70000930B84202D90C20BDE8FC8168466DDF9E
:108C8000064600BF304600B1F6E700BF0820218845
:108C900068542088401C20801B202188685420882C
:108CA000401C208020882844DDF801100160BDF8B8
:108CB000051081802088801D20809DF800004008DC
:108CC00018B900202188685402E0012021886854E6
:108CD0002088401C20800020CEE700007FB504469D
:108CE00000BF01208DF80E0041F60A00ADF80C001F
:108CF00000BF564A03A90120A8DF054615B1284642
:108D000004B070BD208800280DDD5148009094F813
:108D10003C30228842F62920616801F0E1FB0546DB
:108D20000DB12846ECE7208900280DDD4948009068
:108D300094F83C30228942F62420E16801F0D0FB0F
:108D400005460DB12846DBE7208A00280DDD4248A4
:108D5000009094F83C30228A42F62520616901F0A7
:108D6000BFFB05460DB12846CAE7208B00280DDD64
:108D70003A48009094F83C30228B42F62720E16973
:108D800001F0AEFB05460DB12846B9E7208C00285E
:108D90000DDD3348009094F83C30228C42F62620BA
:108DA000616A01F09DFB05460DB12846A8E7208DBC
:108DB00000280DDD2B48009094F83C30228D42F6BF
:108DC0002820E16A01F08CFB05460DB1284697E7A3
:108DD000206B90B101A8216B0EF038FD2248009065
:108DE00094F83C30082201A942F6232001F078FBD8
:108DF00005460DB1284683E700BF606B70B11B4884
:108E0000009094F83C30606B0279016842F62A20A9
:108E100001F066FB05460DB1284671E7A06B90B1E5
:108E200001A8A16B0CF04AF81148009094F83C306E
:108E3000072201A942F6502001F052FB05460DB170
:108E400028465DE700BF00205AE7000060260020AA
:108E5000622600206A260020722600207A26002042
:108E6000822600208A260020922600209A260020B2
:108E7000A2260020F8B505460F462888212849D0AB
:108E800004DC102807D011287CD134E03B285ED0C8
:108E90005628F9D177E04B494B4A891AC908032271
:108EA00042EA014049A107F0B9F8072000F004FFA9
:108EB000044600BF26463EB100BF47A240F24A41E9
:108EC0003046FDF7A7F900BF00BFA88846490880D3
:108ED00008460188454805F09FFF044600BF264626
:108EE0003EB100BF3CA240F24F413046FDF792F93F
:108EF00000BF00BF63E03349334A891AC90803221F
:108F000042EA01403AA107F089F84FF6FF7036496E
:108F1000088054E02B492C4A891AC908042242EAE5
:108F2000014037A107F07AF800200090A888694630
:108F30008FDF044600BF26463EB100BF26A240F2A6
:108F400062413046FDF766F900BF00BF37E01D49BA
:108F50001D4A891AC908042242EA01402DA107F0DE
:108F60005DF8A888132176DF044600BF26463EB18F
:108F700000BF19A240F26A413046FDF74BF900BF2D
:108F800000BF1CE01AE00F490F4A891AC9080422E1
:108F900042EA014025A107F041F8A888132176DFB5
:108FA000044600BF26463EB100BF0BA240F272410C
:108FB0003046FDF72FF900BF00BF00E000BF00BF43
:108FC000F8BD000034AE03007CAD0300436F6E6E4D
:108FD00065637465640000002E2E5C2E2E5C2E2EC0
:108FE0005C6D61696E2E6300FA230020AC280020BE
:108FF000446973636F6E6E6563746564000000009E
:10900000504859207570646174652072657175658A
:1090100073742E004741545420436C69656E74206C
:1090200054696D656F75742E0000000047415454FB
:10903000205365727665722054696D656F75742E64
:109040000000000070B505460E462888102802D0A2
:1090500011282CD115E01748006860B901F052FDC5
:10906000044600BF34B11448006818B120461249C4
:109070000968884700BF0F480068401C0D49086018
:1090800016E00C480068401E0A490860084600685F
:1090900060B9FEF759FA044600BF34B106480068CB
:1090A00018B1204604490968884700BF00E000BFA6
:1090B00000BF70BD3C2500203825002070B5044657
:1090C0000D462088102806D0112808D012280ED06E
:1090D000502810D107E0204608F06CFD0CE0204637
:1090E00008F0AAFF08E0204609F07AFB04E02046D9
:1090F00008F048FD00E000BF00BF70BD2DE9F04161
:1091000004460F46A6882088102806D0112819D0BA
:1091100019283FD01A284AD118E00CF0DDFB304660
:109120000CF04EFA30B900BF22A2F0210420FDF766
:1091300071F806E0E07B022803D131462C4805F0A7
:10914000C7FC34E030460CF0EBFB30E0207A050938
:10915000042D01DB012000E00020024631462448B6
:109160000C3002F0E8FE032D01DB012000E00020BE
:10917000024631461E48083002F0DDFE022D01DBBA
:10918000012000E00020024631461948001D02F08F
:10919000D2FE0CE0207A48B9607AC0F3C0052A46B6
:1091A000314613480C3002F0C6FE00BF00BF00BFBE
:1091B000BDE8F0812E2E5C2E2E5C2E2E5C2E2E5CB9
:1091C0002E2E5C2E2E5C636F6D706F6E656E7473E9
:1091D0005C626C655C636F6D6D6F6E5C626C655F2D
:1091E000636F6E6E5F73746174652E6300000000C0
:1091F000D42E002070B504460D4600BF0748007805
:1092000000B970BD00BF204603F0A6FE20460DF059
:109210003DFF204603F058F900BFF2E77C2500200F
:109220002DE9F04186B006460D461746984600BF28
:109230001EB90E2006B0BDE8F08100BF00BF0FB917
:109240000E20F7E700BF4FF6FF70804533D0019541
:109250006A464146D6F87801FEF7F3FF044600BFA0
:10926000204600B1E6E700BF0098801C0090082D62
:1092700004DC2A4639460098FDF706F900200290E2
:10928000039004900590B6F84E01ADF80800012057
:109290008DF80A000020ADF80C0001A80490059795
:1092A00002A94046AEDF044624B904980088A842CB
:1092B00000D00C2400E008242046BBE72DE9F04F45
:1092C00089B00546884691469A46DDE913B7129E55
:1092D00000BF1DB90E2009B0BDE8F08F00BF4FF6EA
:1092E000FF70874251D0F01C80B20890BDF820007A
:1092F000082848DC01AA3946D5F87801FEF7A1FF15
:10930000044600BF204600B1E5E700BF01980B30DE
:10931000019000BF012000BF8DF8188009F0FF0008
:109320008DF819000AF0FF008DF81A00002E05DDF7
:10933000324659460DF11B00FDF7A6F8BDF8202076
:1093400006A90198FDF7A0F8002002900390049070
:109350000590B5F85E01ADF8080001208DF80A000F
:109360000020ADF80C0008A8049006A8059002A9FA
:109370003846AEDF04462CB904980188F01C8142BF
:1093800000D00C2400E00C2400E008242046A2E7D2
:1093900001461320D1F87C2152B1002205E0D1F81A
:1093A0007C3133F832301844521C8B7C9342F6D80F
:1093B000D1F880215AB1002205E0D1F8803133F88C
:1093C00032301844521C91F878309342F5D8D1F8D5
:1093D00084215AB1002205E0D1F8843133F83230CB
:1093E0001844521C91F8DE309342F5D870477CB592
:1093F00006460C4600BF0EB90E207CBD00BF00BF64
:109400000CB90E20F9E700BFA07A0A2805DC207C01
:109410000A2802DC207E0A2801DD0720EDE720680B
:10942000306060687060A07AB074207C86F8780044
:10943000207E86F8DE0000BF01208DF8060041F690
:109440001200ADF8040000BF06F1080201A90120D6
:10945000A8DF05460DB12846CFE72146304603F088
:10946000D5FF05460DB12846C7E7207A08B9607ACE
:1094700050B194F83D2094F83C1030460BF08AFE31
:1094800005460DB12846B8E72146304604F0AEF84F
:1094900005460DB12846B0E72146304609F0A9FA45
:1094A00005460DB12846A8E72146304602F0CCFC1F
:1094B00005460DB12846A0E7214630460CF000FBDA
:1094C00005460DB1284698E7207AB0B106F5A77099
:1094D00004F14203082242F622210090304600F0B7
:1094E00059F905460DB1284687E72146304600F078
:1094F0008FF905460DB128467FE7607A70B106F511
:10950000AF7004F13F03082242F633210090304649
:1095100000F040F905460DB128466EE72146304679
:1095200003F0D9FB05460DB1284666E794F83E10D6
:10953000304603F0A9FB05460DB128465DE7E0681B
:10954000C6F87C016069C6F88001E069C6F884014C
:10955000284652E72DE9F04F87B004460E461746DD
:109560009846DDF8409000BF1CB90E2007B0BDE85A
:10957000F08F00BF00BFB8F1000F01D10E20F5E75A
:1095800000BFA07CB04257DD06EB860104F1140059
:1095900000EB410B4FF6FF7081454BD04FF0000AB6
:1095A000029701AA4946D4F87801FEF74AFE05461B
:1095B00000BF284600B1D9E700BF019813300190E1
:1095C0000AE0D4F87C0130F83A000199084401908F
:1095D0000AF1010000F0FF0AB245F2DBD4F87C0189
:1095E00030F83600B84205DB3A4641460198FCF7B0
:1095F0004BFF01E00C20B9E7002003900490059098
:109600000690BBF80000ADF80C0001208DF80E00AC
:109610000020ADF8100002A80590CDF8188003A92D
:109620004846AEDF054625B905980088B84200D007
:109630000C2500E0082500E00725284696E770B5D0
:1096400004460D462E462088102804D0502807D006
:1096500051280FD109E02146304608F0E3FA0AE02C
:109660002146304609F00FF905E02146304609F061
:1096700007F800E000BF00BF70BD70B504460D469E
:109680002846FCF725FF2080656070BD70B5044654
:1096900020460EF09FFC054605F0010070BD00005D
:1096A0002DE9F04105460E46002432782146641C1F
:1096B0006A5472782146641C6A5400BF022C01D19E
:1096C000012000E00020074637B900BF04A247216F
:1096D0000020FCF79FFD00BF00BF2046BDE8F081E1
:1096E0002E2E5C2E2E5C2E2E5C2E2E5C2E2E5C2EB4
:1096F0002E5C636F6D706F6E656E74735C626C650B
:109700005C636F6D6D6F6E5C626C655F7372765FCC
:10971000636F6D6D6F6E2E630000000038B507F04B
:109720003DF9044600BF25463DB100BF15A240F2F9
:1097300085412846FCF76EFD00BF00BF0020009069
:109740006946012006F04AFF044600BF25463DB1A8
:1097500000BF0CA240F28B412846FCF75BFD00BF26
:1097600000BF684606F0E8FF044600BF25463DB14D
:1097700000BF04A240F28F412846FCF74BFD00BF1A
:1097800000BF38BD2E2E5C2E2E5C2E2E5C6D6169C6
:109790006E2E63002DE9F04188B005460E4617464F
:1097A0001C46DDF8388020216846FCF786FEADF8BF
:1097B0000060ADF804709DF80D0020F00200801CE0
:1097C0008DF80D00607808B1012000E000209DF8C0
:1097D0000D1060F3C3018DF80D109DF80D0020F001
:1097E000100010308DF80D0020788DF81100607891
:1097F0008DF81200A0788DF8130001208DF80F006D
:1098000028894246694600F0D7FE08B0BDE8F081DD
:1098100030B589B004460D46202101A8FCF74DFE65
:1098200042F63220ADF804000120ADF808009DF8A2
:10983000110020F00200801C8DF811009DF811002D
:1098400020F0080008308DF811009DF8110020F07C
:109850000400001D8DF8110095F845008DF81500E5
:109860004620405D8DF8160001208DF813002089F8
:1098700004F5AB7201A900F09FFE09B030BD0000F5
:1098800001460148405C7047D18A030010B501468B
:10989000094B585C00BF4FF0A044234600BFD3F8EB
:1098A0001045C44004F001040CB1012000E0002088
:1098B000024682F0010010BDD18A03007CB500246D
:1098C0000DE00848055D032600200090334602465F
:1098D00001460190284605F085FF00BF641C042C5A
:1098E000EFD37CBDD18A030010B5044604F001001B
:1098F00008B100F04BF804F0020008B1FFF7DEFFFA
:1099000010BD000010B502460949885C00BF4FF049
:10991000A0442146D1F80435012484409C43C1F879
:109920000845012484401C40C1F80C4500BF10BD0F
:10993000CD8A030010B504460249085D012106F0F6
:1099400074F810BDCD8A030010B504460249085DC5
:10995000002106F06AF810BDCD8A030010B501465B
:10996000094B585C00BF4FF0A044234600BFD3F81A
:109970000445C44004F001040CB1012000E00020C3
:10998000024682F0010010BDCD8A03007CB50024A0
:109990000CE00948055D00200090034601221146B5
:1099A0000190284605F01EFF00BF641C042CF0D374
:1099B00000F004F87CBD0000CD8A030010B500243F
:1099C00003E02046FFF7B6FF641C042CF9D310BD5A
:1099D00010B5002403E02046FFF7B6FF641C042CFA
:1099E000F9D310BD02464FF0FF30002106E0054BD1
:1099F0005B5C934201D1084602E0491C0429F6D37E
:109A000000BF7047D18A030070B505460C4600269A
:109A10000648056014B120460DF0F0FD04480068CA
:109A200010B9FDF791FD0646304670BD382500207F
:109A30003C25002010B5002000F068FB044600BF64
:109A40001CB1062C01D0204610BD00BF012000F043
:109A50005DFB044600BF1CB1062C01D02046F3E795
:109A600000BF0020F0E700002DE9F04106460F4658
:109A70004FF0000800243046FFF7B4FF0446042CE2
:109A80003ED20FB3012F02D0022F38D130E004EBC9
:109A90004400214911F8008004EB44000844407858
:109AA00050B11E4A4FF480411D480068FEF7E6F8A9
:109AB00005460DB91948067004EB440016490844E0
:109AC0008078184908551AE015480068FEF7F1F843
:109AD0001448005D04EB44010F4A11448978884220
:109AE00005D104EB44001146084490F8028006E0DA
:109AF00004EB44000849084490F8018000BF00BF0F
:109B0000B8F1000F06D00848006818B14046064971
:109B100009688847BDE8F081482E002030250020E4
:109B2000E08A0300312500202C25002010B50446D2
:109B3000042C03D22046FFF7A9FE10BD0020FCE74D
:109B400070B50546281F0E2876D2DFE800F00A75AA
:109B5000751E75750775757537424E690DF05EFA9D
:109B60006BE013213648008876DF0446082C0BD0C2
:109B700000BF26463EB100BF32A24FF4D36130464B
:109B8000FCF748FB00BF00BF57E02D4800884FF6A8
:109B9000FF71884211D12F48FEF7B3FD0446082C0F
:109BA0000BD000BF26463EB100BF26A240F2A26104
:109BB0003046FCF72FFB00BF00BF3EE02048008886
:109BC0004FF6FF71884203D00021481F04F0CEFBFE
:109BD00033E01B4800884FF6FF71884204D01E48CE
:109BE0000168012003F082FF27E0154800884FF646
:109BF000FF71884213D000220A21104604F060FB56
:109C00000A220021084604F05BFB002211460220D4
:109C100004F056FB00221146104604F051FB0CE004
:109C2000074800884FF6FF71884203D005210020C5
:109C300004F09CFB01E0FFE700BF00BF70BD000027
:109C4000FA2300202E2E5C2E2E5C2E2E5C6D616978
:109C50006E2E6300B82800201C25002030B5034676
:109C60000020042B23D2012A07D1012903D103F1BB
:109C70000E04E4B200E00024224679B1012902D0AA
:109C8000022911D104E003EB43040A4D2A550DE0EB
:109C900003EB4304074D2C44627007E003EB4304DD
:109CA000044D2C44A27001E0072000BF00E0072013
:109CB00030BD0000482E002070B504460025054840
:109CC000007800F0010018B1204600F05BF805466E
:109CD000284670BD242500202DE9F04105460F4699
:109CE00000241F4805601F48076005F0020000B30C
:109CF000002606E0012211463046FFF7AFFF04467A
:109D0000761C042E01D2002CF4D034B940F2333248
:109D100004211548FDF720FD044614B9FDF706FDA2
:109D200004462CB9114A00211148FDF761FF044691
:109D300000BF05F0010080B10120FFF7D5FD2CB96F
:109D40000C4A00210C48FDF753FF04462CB90B4A7E
:109D500001210B48FDF74CFF04462046BDE8F08189
:109D6000242500202C250020E48A0300DDA2020027
:109D7000E08A0300ADDB0200D88A03000B77020003
:109D8000DC8A03002DE9F047044600260025DA4866
:109D9000007820B10020D849087003F0F3FE182C99
:109DA0007ED2DFE804F00C16174A7EB2F6F4F3F226
:109DB000F1F0EFEEEDECEBEAE9E8E7E6E5E403F0DD
:109DC000E1FECE480068FDF774FF0646CC480470FB
:109DD0008DE100BF0020FFF7C1FD58B10020FFF763
:109DE000A9FD022C02D14FF4E16001E04FF47A604A
:109DF000054609E00020FFF7A7FD022C01D1C8208D
:109E000001E04FF4C8700546BD4804704FF40040AF
:109E1000A5FB00104FF47A73CF1840F100015A00EF
:109E200000233846FCF7ECFA814600224946B34845
:109E30000068FDF723FF064659E10020FFF78EFD7D
:109E400058B10020FFF776FD032C02D14FF4487083
:109E500001E04FF47A60054609E00020FFF774FD49
:109E6000032C01D1C82001E04FF4C8700546A44876
:109E700004704FF40040A5FB00104FF47A728F1865
:109E800040F10001520000233846FCF7B9FA814640
:109E90000022494699480068FDF7F0FE064626E193
:109EA00024E10020FFF75AFD58B10020FFF742FDE2
:109EB000042C02D14FF47A6001E04FF47A60054639
:109EC0000AE00020FFF740FD042C02D14FF4C870D7
:109ED00001E04FF4C8700546894804704FF4004013
:109EE000A5FB00104FF47A73CF1840F100015A001F
:109EF00000233846FCF784FA8146002249467F4811
:109F00000068FDF7BBFE0646F1E00020FFF726FDE6
:109F100050B10020FFF70EFD052C01D1C82001E053
:109F20004FF47A60054609E00020FFF70DFD052C8F
:109F300001D1C82001E04FF4C87005467048047094
:109F40004FF40040A5FB00204FF47A73D71840F17E
:109F500000015A0000233846FCF752FA81460022DD
:109F6000494666480068FDF789FE0646BFE0B8E04E
:109F7000B6E0AAE0A1E098E092E05FE05DE05BE09F
:109F800059E057E051E042E033E024E015E00EE014
:109F9000FFE70020FFF7B6FC59480470002240F2AA
:109FA000666156480068FDF769FE06469FE000209E
:109FB000FFF7CAFC5248047099E001204E4908702E
:109FC000FFF7A0FC002240F266614C480068FDF7F4
:109FD00055FE06468BE0012047490870FFF792FCCA
:109FE00000224FF4005145480068FDF747FE064641
:109FF0007DE0012040490870FFF784FC002240F218
:10A0000066613E480068FDF739FE06466FE00120B4
:10A0100039490870FFF776FC00224FF400513748A9
:10A020000068FDF72BFE064661E0FFF7D1FC3448DF
:10A0300004705CE000BF00BF00BF00BF3148006893
:10A04000FDF737FE0646C4F1110515B30EBB012D11
:10A0500018D9A8B2C82148434FF4004180FB011031
:10A060004FF47A728F1840F10001520000233846F5
:10A07000FCF7C6F981460022494622480068FDF7F0
:10A08000FDFD06460220FFF75FFC01201E49087017
:10A0900005E00220FFF74EFC00201B49087026E077
:10A0A00003F070FD1648047021E003F06BFD002002
:10A0B000FFF74AFC1248047019E003F063FD012029
:10A0C000FFF742FC0E48047011E003F05BFD002036
:10A0D000FFF73AFC0120FFF737FC0948047006E05F
:10A0E00000BFFFF775FC0648047000E000BF00BF2A
:10A0F0003046BDE8F087000021250020D88A030003
:10A1000020250020DC8A03002825002010B5044605
:10A11000012120460EF003F910BD00002DE9FC4797
:10A1200004460D461646A71C4FF00108002001907A
:10A1300001A8FDF7C8FD3048406828602E484068F7
:10A140002D498968411A2D480068401CA0EB01097F
:10A1500015E001212A4804F0DFFC03F031FF8246BC
:10A160005146274804F0D8FC2348406822498968B2
:10A17000411A22480068401CA0EB010900BF4F456E
:10A18000E7D8B8F1000F30D00021009176B10099E6
:10A1900021F00301491C0091009921F00401091DDF
:10A1A0000091009964F3891100910DE0009921F06C
:10A1B0000301891C0091009921F00401091D0091FF
:10A1C000009964F39F5100910B4949680B4A12684A
:10A1D0001140094A0C3202EB8100009901600649E6
:10A1E000496839440C3A516000BF9DF80400FDF7FE
:10A1F00071FD4046BDE8FC87603700209C270020A9
:10A200007C3B002070B504460D460A2D03D10D217C
:10A210002046FFF7F7FFA168481CA060206845545E
:10A22000D4E90110884202D3204604F02AFF70BD11
:10A23000F0B504460D460020164E96F83E60761E98
:10A24000052E01D1012600E000260EB104201FE0FA
:10A25000104E96F83D6006EB46060E4F07EB860162
:10A260008C604D600B704A703E4696F83E60761CDE
:10A2700087F83E603E4696F83D60761C87F83D6064
:10A280003E4696F83D60052E02D1002687F83D60D7
:10A29000F0BD000000280020044880680349496898
:10A2A000884201D1012070470020FCE76037002080
:10A2B0000246002108E0074B1B6803EBC10003784E
:10A2C000934200D17047491C034800788142F2DB79
:10A2D0000020F7E7C8260020CC26002010B5044651
:10A2E00020780221FFF7C0FB10BD0000F8B505463D
:10A2F00015490320FFF7F0FC044600BF26463EB197
:10A3000000BF12A240F2E3613046FBF783FF00BFBB
:10A3100000BF69460020FFF777FB044600BF2646D2
:10A320003EB100BF09A240F2E6613046FBF772FF82
:10A3300000BF00BF9DF80000022801D1012000E00D
:10A3400000202870F8BD0000419B02002E2E5C2EDC
:10A350002E5C2E2E5C6D61696E2E63007CB504460A
:10A36000204602F0BBFF054600236A46092108F09B
:10A37000DDFF052805D10122024801782046FEF7BD
:10A380004DFC7CBD582500207CB504460E460020BF
:10A39000019042F6A620ADF8040001208DF80600D9
:10A3A0000748006800906A4601A92046A0DF0546DC
:10A3B0002DB90122034801782046FEF72FFC7CBD11
:10A3C000488B03005925002001468879012809D1CE
:10A3D0000879012806D1488842F60212904201D13C
:10A3E000012070470020FCE702460C4800780C4B27
:10A3F0001B78C01A401E012383401A440748007886
:10A40000074B1B78C01A401CC24019B104480068B1
:10A41000801A704702480068101AFAE73C240020AE
:10A42000402400204FF0FF31054A42F82010082850
:10A4300004DBFF23A0F108015032535470470000A1
:10A440003C3200200146024850F8210070470000CD
:10A450003C3200202DE9F04F03460C464FF0FF3907
:10A460000AB1002000E0082084460AB1082000E07C
:10A470000C208046614624E0154850F82100401C1D
:10A48000F0B91D460846274616464FFA80FBDFF80E
:10A4900040A00AF1300A0AF805B0DFF834A04AF803
:10A4A00020704EB94FFA85FBA0F1080ADFF820E0D2
:10A4B0000EF1500E0EF80AB000BF4FFA81F902E01B
:10A4C000491C4145D8D300BF4846BDE8F08F000085
:10A4D0003C32002001460148405670476C32002053
:10A4E0002DE9F04389B006460D4614461F46DDF8B7
:10A4F000408000BF0DB1012000E000208146B9F18D
:10A50000000F06D100BF1BA284210020FBF782FEB2
:10A5100000BF00BF00BF002C01DD012000E00020D3
:10A520008146B9F1000F06D100BF12A2852100209B
:10A53000FBF770FE00BF00BF202101A8FBF7BDFFA5
:10A54000ADF80460ADF80840ADF80A4003959DF8F9
:10A55000110020F00200801C8DF811008DF815709C
:10A56000424601A91348008800F026F809B0BDE86A
:10A57000F08300002E2E5C2E2E5C2E2E5C2E2E5C88
:10A580002E2E5C2E2E5C636F6D706F6E656E747315
:10A590005C626C655C626C655F736572766963654D
:10A5A000735C626C655F6469735C626C655F64694F
:10A5B000732E63006026002070B590B006460C46EE
:10A5C0001546A07818B901208DF80E0002E0A07899
:10A5D0008DF80E002088ADF80C0000200290607C01
:10A5E00002A90CF0BBFCA07C0DF109010CF0B6FC3B
:10A5F000E07B08B1012000E000209DF80A1060F324
:10A60000C3018DF80A10207C08B1012000E0002071
:10A610009DF80A1060F304118DF80A10207B08B130
:10A62000012000E000209DF80A1060F300018DF881
:10A630000A10207D08B1022000E001209DF80A10D8
:10A6400060F342018DF80A101C2109A8FBF735FFC1
:10A65000607BC0F3001018B9607BC0F34010F8B104
:10A6600000200090E07C0DF101010CF077FC00BFB0
:10A670009DF8000020F00F00401C8DF800009DF8B0
:10A68000000020F0F00010308DF8000000BF9DF8B1
:10A69000020020F00600801C8DF80200CDF838D0B2
:10A6A000607B8DF82400A07B8DF82500142104A880
:10A6B000FBF703FF03A8049002A80590A088ADF85B
:10A6C0001C00A06820B1E088ADF81800A0680890D0
:10A6D000A069002849D000200190A0690088ADF849
:10A6E0002C00A0694088ADF82E00A06940680A904F
:10A6F00001A80D90A169087B01A90CF02FFCA169AC
:10A70000487B0DF105010CF029FCA069807A08B1A5
:10A71000012000E000209DF8061060F3C3018DF8D1
:10A720000610A069C07A08B1012000E000209DF861
:10A73000061060F304118DF80610A069007A08B1C4
:10A74000012000E000209DF8061060F300018DF864
:10A750000610A069807B08B1022000E001209DF86E
:10A76000061060F342018DF80610E06908B1E06957
:10A770000C902B4604AA09A93046AADF10B070BD80
:10A780002DE9F04104460D464FF6FF7630468442EF
:10A790000AD14FF48071284604F05BF986B2B6F511
:10A7A000807F10D126460EE0FF2C0CDC2146284687
:10A7B00004F038F980F001070FB1204601E04FF6B0
:10A7C000FF70064600BF3046BDE8F08170B5054613
:10A7D0000DB9094C01E0084C083409E0204603F0AB
:10A7E0006CF9064606B904E028467168884700BF40
:10A7F000F4E700BF70BD00003032002010B5044601
:10A800002CB90120064948700020FFF7DFFF012C1A
:10A8100004D1012002498870FFF7D8FF10BD000065
:10A82000283200202DE9F047024613468C46D3E932
:10A830000245DCE90267B6EB040877EB050002D3BA
:10A840000120BDE8F0870020FBE701468878012859
:10A8500005D191F82000012801D100207047886AB5
:10A86000042802D0486A042801D10020F6E701201C
:10A87000F4E733B58BB00546002000900C9878B112
:10A8800000240BE021460CA804F013F928B1009A2B
:10A89000501C009001A820F81240641C142CF1D325
:10A8A0002C2269462846FBF7EFFD0DB030BD01466E
:10A8B0000888062808DB0888B0F5486F06DD088898
:10A8C0004FF6FF72904201D0072070474888062853
:10A8D00008DB4888B0F5486F06DD48884FF6FF7200
:10A8E000904201D00720F0E708884FF6FF729042AF
:10A8F00008D04888904205D008884A88904201DDF7
:10A900000720E2E70020E0E72DE9F04107460D4689
:10A91000144698462088801D404502D90C20BDE889
:10A92000F0813846FFF7C3FF064600BF304600B14E
:10A93000F5E700BF0520218868542088401C20804E
:10A940001220218868542088401C208022885119B8
:10A9500038880DF045FB2188084420802288511951
:10A9600078880DF03DFB2188084420800020D6E740
:10A9700010B5044600BF04A240F273312046FBF735
:10A9800049FC00BF10BD00002E2E5C2E2E5C2E2E2A
:10A990005C6D61696E2E630030B587B01C2168461E
:10A9A000FBF78BFD002000904FF4A03001904FF496
:10A9B000F020029003208DF80C000020ADF80E006E
:10A9C0008DF8100005900A4806906846FEF730F8AA
:10A9D000044600BF25463DB100BF06A240F28A31C1
:10A9E0002846FBF717FC00BF00BF07B030BD0000D2
:10A9F00071A902002E2E5C2E2E5C2E2E5C6D6169DC
:10AA00006E2E6300F8B505460C46607A88B9207A48
:10AA100010B91048476801E00E4887682A46394651
:10AA20006068FDF72BF9064616B130460BF0C8FEFC
:10AA30000EE0002020720748406948B101208DF8DF
:10AA40000000ADF80250034841696846884700BFDE
:10AA5000F8BD0000AC2E0020F0B585B004460D46D0
:10AA600017461E4614220B496846FBF70DFDADF84C
:10AA700002408DF80850ADF80A708DF80C60002285
:10AA8000054801782046FEF7C9F8684600F076FFD1
:10AA900005B0F0BD708C03004126002010B586B0D3
:10AAA0000446208808F07AF900BB2088FEF722F8D7
:10AAB00030B92088012241F2060100F057FD15E06F
:10AAC000208800220A490978FEF7A8F802208DF8AC
:10AAD00004002088ADF8060000208DF80C0000214D
:10AAE0008DF80D1001A800F049FF00BF06B010BDA1
:10AAF0004126002070B504460D4629462046FCF745
:10AB0000BBFB70BD10B5012200210846FFF7A6F877
:10AB1000044600BF1CB1072C01D0204610BD00BF69
:10AB2000072202210120FFF799F8044600BF1CB15B
:10AB3000072C01D02046F1E700BF042202210020AB
:10AB4000FFF78CF8044600BF1CB1072C01D020464B
:10AB5000E4E700BF0020E1E72DE9FF4105460C4690
:10AB600029492A4A891AC908042242EA01402B4687
:10AB7000224627A105F068FA002002900390ADF864
:10AB80000840ADF80A40009001906A4602A92846A4
:10AB900090DF0646002E32D0304606F051F80746C8
:10ABA00019491A4A891AC908012242EA01403B465A
:10ABB0002A46234905F048FABDF8000010B9BDF84F
:10ABC000020068B1BDF80230BDF800200E490F4FF9
:10ABD000C91BC908012747EA01401AA105F034FA48
:10ABE000BDF8040058B1BDF804200749074BC91A45
:10ABF000C908012343EA0140224905F019FA304609
:10AC000004B0BDE8F081000094AD03007CAD03000A
:10AC10005570646174696E672064617461206C654D
:10AC20006E67746820746F202575206F6E20636FC7
:10AC30006E6E656374696F6E20307825782E000023
:10AC40008896030054686520726571756573746534
:10AC5000642054582F5258207061636B6574206CC7
:10AC6000656E67746820697320746F6F206C6F6EF7
:10AC7000672062792025752F2575206F63746574B0
:10AC8000732E0000D49603002DE9F04105460F46CF
:10AC90000F4C0121204603F076FF064600BF00BF9F
:10ACA00000BF00BFBFF35F8F00BF00BF00BF0EB982
:10ACB000012000E0002040B1284603F0D3F808B19D
:10ACC000BDE8F081024805F0CDFB00BFF8E70000C9
:10ACD0005025002070B50D490D4A891AC908032274
:10ACE00042EA01400BA105F099F90AF01DF804466B
:10ACF00000BF25463DB100BF0AA240F2851128469B
:10AD0000FBF788FA00BF00BF70BD000034AE03003F
:10AD10007CAD0300457261736520626F6E647321C0
:10AD2000000000002E2E5C2E2E5C2E2E5C6D6169C4
:10AD30006E2E630070B506460D4616B14FF4064000
:10AD400070BD287920B1012809D0022815D111E061
:10AD50000220287128460AF091FC044610E028469B
:10AD600001F0ACF8044648F20960844201D141F692
:10AD70001D5405E041F61D5402E048F20E6400BF88
:10AD800000BF2046DCE770B588B005460C46164685
:10AD9000142103A8FBF791FBA07818B901208DF8C6
:10ADA0000A0002E0A0788DF80A002088ADF80800BB
:10ADB00002A80390A07901A90CF0D0F8E0790DF178
:10ADC00005010CF0CBF8E07808B1012000E000208C
:10ADD0009DF8061060F3C3018DF80610207908B1C4
:10ADE000012000E000209DF8061060F304118DF8AA
:10ADF0000610607908B1012000E000209DF80610DF
:10AE000060F300018DF80610207A08B1022000E0FE
:10AE100001209DF8061060F342018DF8061001A88C
:10AE200004906089ADF81400A089ADF81600E0899F
:10AE3000ADF8180020690790324603A92846ABDF19
:10AE400008B070BD2DE9F0418046002414E012489E
:10AE5000006800EBC405287806F09EF8074668787D
:10AE6000012800D100E00020784080F00106287819
:10AE7000314600F0B1FC641C084800788442E6DBEF
:10AE80000748D0E90010002359405840014301D041
:10AE90000CF022FEBDE8F081C8260020CC26002060
:10AEA000D826002030B593B002208DF8040041F67A
:10AEB0001510ADF806004EF6EE60ADF80800012062
:10AEC000ADF80A00402103A8FBF7F7FA0DA103A88B
:10AED000FEF7D3FB01A8119002208DF8480003A8CB
:10AEE000FDF7FCFE044600BF25463DB100BF0AA2A7
:10AEF0004FF41C712846FBF78DF900BF00BF13B05B
:10AF000030BD00004E6F7264696353656D69636F95
:10AF10006E647563746F72002E2E5C2E2E5C2E2E66
:10AF20005C6D61696E2E630070B5044620793D2822
:10AF300002D141F23D0001E04FF4885005462088DF
:10AF40000022294602F0D8FE70BD000010B50AF0BC
:10AF50009BFF01210448006804F0ACFC0121034878
:10AF6000006804F0A7FC10BD202400202C24002041
:10AF700010B58D48006804F02AFD012827D19620DD
:10AF800003F0CEFF4FF4C87003F0CAFF8648006894
:10AF900004F01DFD30B98548007880F00100834938
:10AFA000087009E000221146022003F089F900220E
:10AFB0001146104603F084F900BF7B48006804F096
:10AFC00006FD0128F9D0962003F0AAFF1CE078487E
:10AFD000006804F0FCFC012816D1322003F0A0FF29
:10AFE00000221146012003F06BF900BF7048006891
:10AFF00004F0EDFC0128F9D000221146104603F0C0
:10B000005FF9322003F08CFF6A4801686A480068E3
:10B0100001F07AFC04460021FFF7E6F96749086071
:10B02000674801686748006801F06EFC044601212A
:10B03000FFF7DAF9644908606048006818B9084603
:10B04000006800280ED05948007860B15B4800784D
:10B0500042B25D48007841B2002003F031F90A2085
:10B0600003F05EFF78E059480068801E5649096881
:10B07000884214DC5649012002F038FD00BF5048D8
:10B0800001685048006801F03FFC04460121FFF7C9
:10B09000ABF94E490968891E8842F0DA59E04A48FE
:10B0A00001684A480068C0F10200814216DC484944
:10B0B000491C012002F01AFD00BF414801684148C7
:10B0C000006801F021FC04460121FFF78DF93F499A
:10B0D0000968C1F102018842EFDD3AE037480168B2
:10B0E0003A480068C0F10200814216DC3849891CE8
:10B0F000012002F0FBFC00BF2E4801682E480068CA
:10B1000001F002FC04460021FFF76EF92F4909689F
:10B11000C1F102018842EFDD1BE02C480068801E6F
:10B1200026490968884214DC2949C91C012002F01B
:10B13000DDFC00BF1F4801681F48006801F0E4FB08
:10B1400004460021FFF750F920490968891E88420A
:10B15000F0DA322003F0E4FE1E4801681E48006861
:10B1600001F0D2FB04460121FFF73EF913490860C4
:10B170001A4801681A48006801F0C6FB044601211C
:10B18000FFF732F9104908600C48006810B908460A
:10B19000006838B10C48008801B20848008800B245
:10B1A00003F0E4F810BD0000202400205424002007
:10B1B0002C240020442400201824002034240020C3
:10B1C000482400201C240020382400204024002093
:10B1D000552400204C24002024240020502400204A
:10B1E0002824002010B50021034803F0CCFC0446BD
:10B1F00084F3100010BD00007C3B002070B50546B4
:10B200000C464FF4803000FA04F1284600F0C4FAEE
:10B2100070BD70B505460C464FF4A07000EB84007D
:10B2200086B23146284600F04FFB70BD2DE9F0474D
:10B2300004460D4616461F464FF4803000FA05F8C6
:10B240004FF4A07000EB85001FFA80F926F07F46CE
:10B250004146206805F070F94146206805F066F91E
:10B260004946206805F05BF932462946206805F01A
:10B270004DF94146206805F05CF91FB14146206850
:10B2800005F05DF9BDE8F08710B50446206805F0CB
:10B2900042F910BD2DE9F04704460D461746607986
:10B2A000324941F820706079314901EBC0000079E2
:10B2B00068B108262F49304A891AC908022242EA91
:10B2C00001402EA104F0AAFE3046BDE8F08729888F
:10B2D0002068C0F8081500BF94F90420AB78104628
:10B2E0001946002808DB4FEA417C4FEA1C68DFF86A
:10B2F000B0C00CF800800BE04FEA417C4FEA1C69BB
:10B30000DFF8A0C000F00F08A8F104080CF80890BE
:10B3100000BF00BF94F90410084600280DDB00BFF1
:10B3200000BF00F01F0301229A4043099B0003F174
:10B33000E023C3F8002100BF00BF00BF00BF012011
:10B3400061790B4A02EBC10108716079114641F83D
:10B35000304000260749084A891AC908032242EAF0
:10B36000014011A104F05AFE3046AEE71427002038
:10B370001827002014AE03007CAD03005254432074
:10B38000696E7374616E636520616C726561647966
:10B3900020696E697469616C697A65642E000000C9
:10B3A00000E400E018ED00E05254433A20696E6971
:10B3B0007469616C697A65642E00000010B50146FD
:10B3C00091F90400002807DB00F01F0301229A40D6
:10B3D000024B440943F8242000BF10BD00E200E006
:10B3E00070B505460C4622460221284600F0E0F9D9
:10B3F00070BD10B504464FF48271204600F064FA27
:10B4000010BD10B504460021206805F09BF810BD62
:10B4100010B504460421206805F094F810BD2DE90C
:10B42000F84F04468846154699464FF4803000FA96
:10B4300008FA4FF4A07000EB88001FFA80FB25F09B
:10B440007F455146204600F0A7F9206805F063F8D3
:10B4500006464146206805F053F8009032464146C2
:10B46000206805F053F85946206805F058F8314631
:10B4700000980CF055FA012806D1102005F0A0FC28
:10B480005946206805F04BF8206805F044F8064658
:10B49000314628460CF044FA07465146206805F02C
:10B4A00048F8012F0FD16A1C4146206805F02EF89C
:10B4B000102005F085FC206805F02DF8B04225D05D
:10B4C0000D20BDE8F88F2A464146206805F01EF899
:10B4D000206805F020F80646681E31460CF020FA78
:10B4E00007466FF07F40A0EB0900B84201D20D2063
:10B4F000E7E75FB96A1C4146206805F007F8206855
:10B5000005F009F8B04201D00D20DAE701225146DA
:10B51000204600F04DF90020D3E700002DE9F0416E
:10B5200004460D4628882070010A617002210E46EB
:10B53000AA783146761C6254EA783146761C625409
:10B5400000BF042E01D1012000E0002007463FB9D2
:10B5500000BF054A4FF470710020FAF75BFE00BF90
:10B5600000BF3046BDE8F08104A5030070B5064673
:10B570000C4615462B46224600213046FFF76CFA52
:10B5800070BD00002DE9F84305460E461746984663
:10B5900069461048006803F0FEF9044614B9042017
:10B5A000BDE8F8831C212046FAF787FF01202071AF
:10B5B0002560C4F8088008480068B6FBF0F0E06039
:10B5C000676169460348006803F00FFA09F042FF1B
:10B5D0000020E5E7BC8E0300B08E030010B50446E2
:10B5E000D4E90321501828DF10BD0278072A38D289
:10B5F000DFE802F037040712222B340000220A7021
:10B6000030E001220A7003898B818388CB81C26874
:10B610008A6000230B7425E002220A7003898B8163
:10B620008388CB81C2688A60827D062A01D101238A
:10B6300000E000230B7415E003220A70C3888B819D
:10B640000389CB81C2688A600CE004220A70C38837
:10B650008B810023CB8100228A6003E005220A70DF
:10B6600000E000BF00BF704770B50546002409E048
:10B67000064850F8240020B1044850F82410284609
:10B680008847641C042CF3D370BD0000DC33002019
:10B6900030B587B004460D462068806808B907B009
:10B6A00030BD182101A8FAF708FF0295A06806909E
:10B6B000207910B1012815D109E001208DF804008E
:10B6C00020690390E0680490606905900BE0022017
:10B6D0008DF804000749E0680968484303906069F1
:10B6E000059000E000BF00BF2068816801A888477E
:10B6F00000BFD4E7B08E0300F0B585B005460C4618
:10B700001646002C3ED0112C3CD0082C3AD00D2CE3
:10B7100024D11D491D4A891AC908022242EA014062
:10B720002A461B4904F084FC2A460321684602F09D
:10B7300035FF2EB1307800F0010008B1012000E0A3
:10B7400002208DF8080000218DF80C1041F2011143
:10B75000ADF80A10684600F025F913E0204605F020
:10B760006FFA07460849094A891AC908012242EABC
:10B7700001402B463A46074904F066FC214628461C
:10B780000BF0CAF805B0F0BDC4AD03007CAD0300FA
:10B7900088A3030098A4030070B504460D4629460B
:10B7A000206804F0C3FE2946206804F0C5FE70BD81
:10B7B00070B504460E4615463146206804F0B9FEC1
:10B7C0001DB13146206804F0BAFE70BD10B50446C4
:10B7D000204600F0E7F810BDF8B505460C462846AF
:10B7E0000BF020FF05286AD2DFE800F003212A3998
:10B7F0003F00DCB1012128460BF024FF002000901F
:10B800006846FCF760FA2A4601260027304639468A
:10B81000FAF727FE2B4AD2E9003218431143294A8E
:10B8200003C29DF80000FCF755FA00BF47E00CB1D9
:10B83000022000E00020014628460BF003FF3EE016
:10B8400044B1032128460BF0FDFE012128460CF0EF
:10B85000C5FC03E0012128460BF0F4FE2FE01CB9E3
:10B86000042128460BF0EEFE29E024B103212846EE
:10B870000BF0E8FE22E0002128460BF0E3FE002159
:10B8800028460CF0ABFC002000906846FCF71BFA41
:10B890002A460126002730463946FAF7E2FD0A46D5
:10B8A000C143D043074B0CCB11401840054AC2E9B5
:10B8B00000109DF80000FCF70DFA00BF00BF00BFAC
:10B8C000F8BD0000D826002070B505460C46286853
:10B8D000015929B12146286804F021FE012070BDDC
:10B8E0000020FCE770B50446608801F0F7FCA080FA
:10B8F000002505E0044850F82510204688476D1CB7
:10B90000002DF7D070BD00004825002070B504461A
:10B91000A08801F097FB6080002505E0044850F8FE
:10B920002510204688476D1C002DF7D070BD000003
:10B930005C25002070B50546002405E0044850F859
:10B94000241028468847641C022CF7D370BD0000E1
:10B95000888B030070B50546002405E0054850F8C3
:10B96000241028468847641C034800788442F5DB8D
:10B9700070BD0000DC3100208A25002070B504462F
:10B98000608801F0ABFCA080002505E0044850F879
:10B990002510204688476D1C002DF7D070BD000093
:10B9A000308C030070B50546002405E0044850F8CB
:10B9B000241028468847641C002CF7D070BD000076
:10B9C000A88C030010B586B00446142101A8FAF72C
:10B9D00074FDA08900F08CFAADF8080020780628E4
:10B9E0005ED2DFE800F05D0304052E4A00BF00BF11
:10B9F000A08900F082FA18B9E08909F060FFF8B177
:10BA0000E08909F059FF8DF80C002078032801D156
:10BA1000012100E000218DF80D10A16804916068FB
:10BA200030B908208DF8040001218DF8141004E0CD
:10BA300009208DF804006168059101A807F0C2FB98
:10BA40002FE0A08900F059FAB0B1E089A0B9606890
:10BA500038B90A208DF80400BDF8080007F008FE88
:10BA600004E00B208DF80400606803900120114968
:10BA7000087001A807F0A6FB13E0606818B913204E
:10BA80008DF8040004E014208DF804006068039031
:10BA90004FF6FF70ADF8080001A807F093FB00E037
:10BAA00000BF00BF0348007808B107F027FD06B0CB
:10BAB00010BD00006925002038B505461048007803
:10BAC00010B948F2016038BD4FF6FF70854202D1CF
:10BAD00048F20360F7E7684609F09CFB044614B996
